:100000000214F4CA79740E7E7001121888741412E6
:1000100018737CFB30E60874147E70801218887C9C
:10002000BF20E0030200C47E1400407E040001747F
:10003000211215717AB300107E1F00B54D2378038D
:100040000200C26CFF80737EB300111A3B7E0F006A
:10005000B52D317D207E1BA00A4F2E4400407A91A1
:10006000827A81837EEBE0BCEA7839047AB30011AE
:100070007E7300111A372D317D207E1BB0703974CC
:10008000146C7712188875F40075DC00E47E34FE79
:10009000077E24007E7A1BB07E34000A1217D475C6
:1000A000C76080FE7E1F00B57E1B70BCE7780474BD
:1000B000018001E47AB300110BF07E730010BC7F65
:1000C0003885D200DA792202181A220211060203B8
:1000D000A96E00807CB1337CB033680D0468EF7C7E
:1000E000B5337CB43378037F10220468E17D5092ED
:1000F000F77D457D51BF2140067C807F017F121234
:10010000036C7EA1D05CB004780320D5C17CB00420
:1001100078075002B2D50203B192D5BE80FF68F6CF
:100120007CB89CB06C00602AB418057C4102038541
:1001300050FB80032F00047C9B5E900778F630E430
:10014000067C437D106D0030E3087C437C327C21CB
:100150000A0030F5199F10780E220203AE1B80684A
:10016000F92F1150020B707CB530E7F1801B2D3157
:100170007CB5A5397C5B50110B8078030203B11E5E
:10018000341350034E60801A2B0203855D22680DE4
:100190005D0078122D220B4068099F11222D000B63
:1001A0000078F90203A912036C5C800B80680824B4
:1001B0008150072CB0500A0203B12CB04003020357
:1001C000AE7C8B5D1178267CB17CA5BE1080680A60
:1001D0005D33780DA5BD80057F1002039B6D008007
:1001E000307F017C5B7CB17CA5AD1280245D3378CF
:1001F00006A5BD80F080E1CA887D41AD437CB17C1D
:10020000A5AD122D1450020B047C5BAD232F01DA37
:1002100088A42D05BE008040060B80780480982FAE
:10022000007C437C507C617C72020385BE24FFFF0E
:100230006806BE04FFFF78030203A912036C5CB0DA
:100240000468F57CB8A54868EF7CB870039F11225C
:10025000A5B800030203B12E008150079C80380727
:100260000203AE9C8050ED0A51C2E74D5178030263
:10027000039B7E5400807E901A6C0080061B906861
:10028000142F11BF1040049F104CAB0330E7EECA8F
:10029000A86CAA80E8DA39DA587C4ABE5080500A45
:1002A0001B8068BC2F1150020B7002038574F86C20
:1002B000AA6E40806E0080BEB0FF68277C837C976A
:1002C0005C3B5C7BBF10682AF4400D7C382D15F434
:1002D0005C3B500F0B04800B7C792D35F45C7B501C
:1002E000020B24BF10680B7CB020E7067CB420E72B
:1002F00001B3227EA020800C7EA01080057EA00885
:100300006C556D333392D5500A6E34FFFF6E24FF67
:10031000FF0B1CA5EC3340062F11D5F0F6227CBA5A
:10032000247EA2D5137C767C65A5CC92E77C5B22EB
:100330007F707F517EC400007ED400B57E9403435D
:100340000203EA4005E47A7BB0227A7BB00B7C2280
:100350007F707F517E6F00007E94035F0203EA404E
:1003600005E47A7BB0227A7BB00B7C222D0092D5FB
:100370000E104E10807D422D445002B2D54E50805A
:100380006C447CB8222C4450120B1C7E40005E5002
:100390007FBE18000078040B806816A2D57CB813C5
:1003A0007C4B7CB592E77C5B227E1CFFFF229F1179
:1003B000227E24FF8020D5026C456D3322540F2409
:1003C00090D43440D430F30CBEB0414007BEB05B93
:1003D000500224204CCC68021BC00B84D389944C5F
:1003E000CC680B74201203D480F5CA3B6D889F3310
:1003F0007CAE7E5BB00B5C7007C37D38DA3B8994C2
:10040000B42569C2F37E5BB00B5CA5F824D0BEB006
:100410000A501B7E500A20F60DAC5CA52D7CCB70DB
:10042000034EF00180DDAC5DA52D7CDB80D524CFB3
:10043000BEB01AA5E850055E00DFD2F39007BFA357
:10044000E4936011BCB078F77417934CAB30F6B3FB
:100450004EF08080AEA3E4936010BCB078F77416C1
:10046000937C3B7423937C2B89147CB08013742081
:100470001203D420F205BEC00250F31B6D29B60052
:10048000011203D40203DF1B6E691600020B6A001F
:10049000BE08000078087E0400FF7E14192020F2B8
:1004A0001E4CCC681A7F10E47E1B804C8868070BBA
:1004B0001C04BCBD78F2C2F6CA0B1205BEDA0B7E74
:1004C0000BB060C0CA0B1203D4DA0B0B0C4CDD6806
:1004D000EE1BD078EA80ADD2F07E101080037E1043
:1004E000085EB05F800AD2F67E100A80057E100A90
:1004F000C2F66D119F117E00201B6C7E6B7030F672
:10050000021A3720F1051B6C7E6B6030F6041A2648
:100510001A2430F0051B6D0B6A20A5EC3382F6928D
:10052000F6500A7CEA9F229F217F127CAE4C4478D1
:100530000F7C457C567C676C772E00F878EF801234
:100540002F117CB3337C3B9CB140047C3B0B70A5EA
:10055000D8EE7CB230E005DAB8C44C3BCA380B2088
:100560007E00207E3000BE18000078C1BE100878E2
:100570000730F404C2F480B5CA287CB2BCBD38028E
:100580007CBD1205BEDA28BC2D500A1BD0E4CA2857
:100590001203BD80F07CB213DAB84004C4CAB8C4F8
:1005A000CA28BEF08040095CDD7805A5DA02600645
:1005B0005EF07F1203BDDA28A5DADA0203DFBEF0AF
:1005C00001680F30F402240220F50620F70330F60C
:1005D000010420F229BCBC5025CAB87CBF13B0E688
:1005E0007420501174307C8A5E80F068081205FE19
:1005F0005EA00F80031203D4DAB8BCBC78DB30F401
:100600000F74301203D4745830F30274781203D488
:1006100030F605742D0203D4742B20F5F8742020D5
:10062000F7F3221B6C7E6BB010F1021B6C20F60BF3
:1006300030E704F404D2F27CCB800520E7057CDBB4
:100640000204035EF07F80F81B6E691600020B6ADD
:100650000030F0076D221B0A200B0D1B0A800203DD
:10066000EEE46C22BE3007500B7F1F2D312E34FF7D
:10067000F77E39B0227CBF20E7A8742E4EF08002AE
:1006800003D41207A8403D7CBD7003047CDB120834
:10069000BF7C3D4C3368101B307CBE20E409120641
:1006A0006170044C3378F07CBD7CD3BEA0FD481C47
:1006B000BCAB5818E49CBA2CB31801E47CDB0207ED
:1006C000491207A8406E7CBD041208BF7AFBA07CCB
:1006D000AE7CBDA2F492F0C2F44002600104240595
:1006E0001205BE7E30FF0B30120661CA381203BD00
:1006F00020F0044CDD6803120675DA38BC3D78E65C
:10070000740E1203BD742B7EFBA030F707742D6EA0
:10071000A0FF0BA07AFBA01203D47EA00A7EFBB040
:10072000847AFBA01203BD7EFBB01203BD9EF800CD
:10073000080203DFD2F27ED00002049E1207A84016
:10074000F37CBA2CBD041208BF7AFBA07CBA7CAE45
:1007500030E701E40420F4044CDD6805D2F0C2F473
:10076000042CBD1205BE6C337EFBB0601B20E7126B
:10077000147AFBB0120661CA381203BDDA380B30A6
:1007800080E6047AFBB01B30120661CA381203BD42
:100790004CDD68071206751BD080E19EF800093019
:1007A000F0031206750203DF7CEA7CAF10F7037ECC
:1007B000D0067CFA1B6E693600020B6A200208071D
:1007C0002D2B204C4248232E0053584F444943556B
:1007D000502A4E4645470004208001020010408701
:1007E000D9DEE6E673EDD723483CC1820404040455
:1007F0000404040406060706064E614E002B494E0B
:1008000046002D494E46007D522D557CBE92E67C19
:10081000EB7CBA601F0470287CB5C2E77E0400FF41
:1008200060067E1407F9D3227E14080240047E1469
:1008300007FDD322DA099F22CA2BCA2BC3CA092279
:100840000A0A7E144D10AD109E083AF09E10267CC8
:10085000B5C2E77EA0567C9BA46E54FFFF2E54C504
:1008600011ACA92D15E4A539CAB8CA1B20E70A1294
:100870000932DA1B12022C800AF404120932DA1B44
:1008800012018CDAA87CB5337CB4334E50806C44B2
:1008900024822F111478FBDA497407BE400A4009FC
:1008A0009E400ACA0201140BA0CA486C442F117F53
:1008B000012F112F112F101478EFCA48CA49227F37
:1008C0000F20E73ABEB007400274070A0B2D109EB6
:1008D0001400097E19B02EB0FB501F4C116817E4AC
:1008E0007A19B01B147E19B0047A19B0B40A0BE45B
:1008F0007A19B0A5D9ED0BA074017A19B0225EE087
:10090000BF223F8000004120000042C80000447A1E
:100910000000461C400047C35000497424004B1897
:1009200096804CBEBC205A0E1BCA6753C21C749DD5
:10093000C5AE7C7B60065407681623231209577CDA
:10094000B75438680A7F1012095412018C7F0122B3
:100950007CB7543803241C6CAA2E5409027E440030
:10096000FF0B2A0069120002227D51AD037D027D3A
:1009700021AD052D12AD352D2122CA79E412125A6E
:100980007D23E41202F87E1433337E0440531201B7
:100990008C7E14F0007E04457F12022C7F717E3421
:1009A00019247E2400FF691100020B1A007F171220
:1009B00002AD380B7E14197C7E0400FF020AC37E50
:1009C0003419787E2400FF691100020B1A007F178A
:1009D0001202AD400B7E1419D07E0400FF020AC340
:1009E0006D777D376D227F612F662F667F562EA42F
:1009F00000FF2E581924691500020B5A007F1712A8
:100A000002AD5003020AB02EC400FF2E68192869F7
:100A10001600020B6A007F171202AD2803020AB00B
:100A2000691500020B5A00693600020B6A20120099
:100A3000D17F617D376D222F112F112E2400FF2EC3
:100A400018197C691100020B1A007D376D227F2175
:100A50002F222F222E4400FF2E28198069320002F7
:100A60000B2A201200D17F517D376D222F112F11BB
:100A70002E2400FF2E181924691100020B1A007F82
:100A8000171200D17F0612022C7F417D376D222F75
:100A9000112F112E2400FF2E18197C69F100020B72
:100AA0001AE07F147F0512018C7F071200D4801A90
:100AB0000B74BE74001550030209E27E1419D07E37
:100AC0000400FF693000020B0A20DA7922CAF87E9E
:100AD000F300087CBF5480B480167EB3000B7030E6
:100AE0007EB3000A702A7E37000EBE34000268030F
:100AF000020BC57CBF540F14681B14683B0BB16814
:100B000003020BC57EB3000D70067EB3000C601EA1
:100B1000020BC580197EB30012B4040F7EB3000D22
:100B20006003020BC57EB3000C6003020BC57E346C
:100B300010FA7E2400FF807D7EB30012B404067E8E
:100B4000B3000D6002807E7E73000C7CA75EA00F58
:100B50001B7068362E707F68040B7078687E2400E6
:100B6000017CBA60053E241478FB7E73001A6C6623
:100B70005C754D33680A7E3410FC7E2400FF80359E
:100B80007E3410FA7E2400FF802B7E2400017CBA84
:100B900060053E241478FB7E73001B6C665C754D0B
:100BA00033680A7E3410FC7E2400FF80087E3410F7
:100BB000FA7E2400FF7A1F00167E3400027A370086
:100BC00014800780001218BA800312189BDAF822EA
:100BD0007EB30012BEB00268207EB30008701A7E99
:100BE000B3000B70147EB3000D700E7EB3000C705A
:100BF000087E37000E4D3368030218BA7EB3000A30
:100C0000B4015F74047AB30012E47AB3001A7AB3C1
:100C1000001B740E7E700112188874127E702012F0
:100C2000188874107E7008121888740E7E70021274
:100C3000188874127E702012188874107E70081242
:100C40001888740E7E700112188874126C7712184E
:100C50008874137E7008121888740E6C77121888C6
:100C6000801074037AB3001274FF7AB3001A7AB357
:100C7000001B0218F17EB30012B404247EB30008F6
:100C8000B4021D7EB3000D6003020D0E7EB3000B97
:100C9000707C7EB3000A70767E37000E4D3368029A
:100CA000806C7E63000C7C765E700F1B60682F2E5C
:100CB000607F68040B6078567E2400017CB7600575
:100CC0003E241478FB7C656E60FF5E63001A7A63D5
:100CD000001A740E12188874117E704080247E24CD
:100CE00000017CB760053E241478FB7C656E60FFD4
:100CF0005E63001B7A63001B740E12188874147EE6
:100D00007080121888740E6C77121888800302188D
:100D1000BA0218F17EB300085480BEB080680302A6
:100D20000D9F7EB3000B1BB168191468280BB178B6
:100D30006E7E3410A57E2400FF7A1F00167E3400DC
:100D40001280547E3410B77E2400FF7A1F00167E76
:100D500034004380427EB3000A1468191468280BDB
:100D6000B1783C7E3410A17E2400FF7A1F00167EED
:100D700034000480227E3410FE7E2400FF7A1F009F
:100D8000167E34000880107E3410837E2400FF7AA3
:100D90001F00167E34001E7A370014800580000282
:100DA00018BA7E37000EBE37001450047A3700148C
:100DB00002189BCA3B7A3700C87F306D337A370000
:100DC000CB020E4474387AB300CA7E3700C8BE34F2
:100DD000003850047A7300CA1217A37E7300CA0A3F
:100DE000572E540003900004F074AF900005F07E7D
:100DF0001700CB7E3400067E2400011B1A107E7380
:100E000000CA0A37CA397F137E1400087E04000125
:100E100012172D1BFD7E7300CA0A372E3400080AF4
:100E2000371211867E7300CA0A372D737E7300CA8B
:100E30000A272E3700CB7A3700CB7E3700C89D3289
:100E40007A3700C87E3700C84D336803020DC4DA14
:100E50003B227EB30012B404247EB30008B4021D0A
:100E60007EB3000D6003020EE57EB3000B70767E4C
:100E7000B3000A70707E37000E4D33680280667EC4
:100E800063000C7C765E700F1B60682C2E607F68A0
:100E9000040B6078507E2400017CB760053E24146A
:100EA00078FB7C654E63001A7A63001A740E121880
:100EB0008874117E701080217E2400017CB760054B
:100EC0003E241478FB7C654E63001B7A63001B7420
:100ED0000E12188874147E7020121888740E6C77A5
:100EE00012188880030218BA0218F1CAF8740E6C3E
:100EF0007712188874111218737CFB30E20F74118A
:100F00007C7F5E70FB121888E47AB300137CBF30DC
:100F1000E40A74117C7F4E70801218887EB300132F
:100F200024FD68461468480BB278477CBF30E04225
:100F30007E08000874201215717E37000E1215AB62
:100F40007A37000E7EB30008546024E0680D24E078
:100F5000680E2440780F121316801712176F801234
:100F600012191C800D1218BA80081211F380031296
:100F70001415DAF822CA3B7A37008D7F307E3400B0
:100F8000C87A370092A9C7AF740E7E700112188814
:100F90006D337A3700907E27008DBE24004008050F
:100FA0007E704080027C757A73008F741112187302
:100FB00030E0107E3700927D231B247A2700924D6B
:100FC0003378E87F032E1700907EB3008F7E700188
:100FD00012185E7E73008F0A277D322E3700907ABA
:100FE0003700907E37008D9D327A37008D7E7300FA
:100FF0008FBE704050A0D202A9D7AFDA3B2253B2C5
:10100000FC43B10374807E34FE077E24007E7A1B8D
:10101000B07E34FE077E24007E7E1BB030E0F27589
:10102000DC0075F490E46C7712188874017E700807
:1010300012188874077E703F12188874097E703FFA
:10104000121888740B7E700712188874016C77125E
:10105000188874027AB30012E47AB300137AB300EA
:101060001A7AB3001B7E3401007E2400C27A1F006E
:10107000C17AB300C57AB300C674087AB300C7A9B1
:10108000D7AF221E035300540043002000550053E5
:101090000042002000530065007200690061006C8E
:1010A00000040309041201000202000040BF3402E0
:1010B000FF00010102000109024300020100803229
:1010C00009040000010202010005240010010524AA
:1010D0000100010424020205240600010705820321
:1010E0004000FF09040100020A0000000705810218
:1010F0004000000705010240000000000100080355
:10110000530054004300CA7BCA6BCA5BCA4BCA3B3C
:10111000CA2BCA1BCA0BC0D0C083C0827EF1FC742C
:10112000061218737CEB74021218737CCB740412D1
:1011300018737CDB7CBE30E10312191F7CBE30E2E9
:10114000031214AC7CBC30E003120EEB7CBC30E12B
:101150000312160D7CBC30E2031216657CBD30E133
:10116000031200037CBE30E0031200CA7AF1FCD007
:1011700082D083D0D0DA0BDA1BDA2BDA3BDA4BDA07
:101180005BDA6BDA7B32CA3B7D737E3400C87A3718
:10119000001DA9C7AF740E7E70011218886D66BE5F
:1011A00074004028057E704080027C7F7A73001CAA
:1011B000741112187330E0107E37001D7D231B243C
:1011C0007A27001D4D3378E87D162E1400007E042A
:1011D00000017EB3001C7E700112185E7E73001C3D
:1011E0000A272D629D72BE704050B4D202A9D7AFBB
:1011F000DA3B22CAF8740E6C771218887411121830
:101200007320E1537E370014BE34004028057EF081
:101210004080027CF77E0F00167C7F7420121690AF
:101220000A2F7E3700149D327A3700140A157E1F6C
:1012300000162D317A1F00167E3700144D33780FBB
:1012400074117E700A121888E47AB300138008744F
:10125000117E7002121888DAF8227CABBEA00F282B
:1012600002805175BD0075BE00E5BC54F04CBAF566
:10127000BCA9D6BC000000000000000000007E7089
:10128000FAA935BC2BA9C5BCA935DE0AE5BD7C6B26
:101290006C77E5BE8013E5BD0A4B7D343E343E34A9
:1012A0003E343E34E5BEC4540F0A4B4D437D3422D8
:1012B0001B7078CD7E341000227F7029A70001E5D5
:1012C000DE54F04CBAF5DE29B700027005A9C5DE80
:1012D0008003A9D5DE7E7B20BE201F280374FF2259
:1012E00029A70003BEA001280374FF2229370004A8
:1012F000BE3003280374FF227CB3C42354E07C3B3C
:101300007CBA0354804C3B4C327E34FEA87E2400D1
:101310007E7A1B30E4227EB30009BEB00D50507EB1
:10132000A003A49013277302134E02135102136FEC
:1013300002135402136F02135702135A02135D0271
:10134000136002136302136602136902136C020A2C
:10135000CD020C75020E52021462020D140219160F
:10136000021372020BD00215330216B902191902C8
:1013700018BA7EB30008B480227EB3000B701C7EC6
:10138000B3000A70167EB3000D70107EB3000C70AF
:101390000A7E37000EBE34000168030218BA7EB31D
:1013A0000012B4040A7E3410FC7E2400FF80087E04
:1013B0003410FA7E2400FF7A1F00167E3400017A72
:1013C00037001402189B75E900A9D7BA75EA001214
:1013D00018FE1200C712163A1215E0D2AF7EB30003
:1013E00012B404F912097A7A1F00857A1F00B17EBF
:1013F0000800217E341A7C7E2400FF1203307E0810
:1014000000211218D67E080021120F757E34006468
:101410001217BC80CF740E6C7712188874111218D2
:101420007330E03D7E0F001674201215710A1B7E8A
:101430002700149D217A2700147E1F00162D317A73
:101440001F00167E3700144D33780E74117E7048DD
:10145000121888E47AB300132274117E70400218C7
:101460008822CAF87EB3000870237EB3000D701D79
:101470007EB3000C70177EB3000B70117EF3000A70
:10148000BEF08050087E37000E4D3368051218BA42
:101490008017E47C7F1218884CFF68047403800274
:1014A00074027AB300121218F1DAF822E46C77129F
:1014B000188874027AB30012E47AB30013740E7EB3
:1014C000700112188874117E7048121888740E7E8C
:1014D000700212188874117E7048121888740E7E7B
:1014E000700112188874147E7090121888740E6C33
:1014F000770218887584017E44041FE47A49B01B82
:101500004478F97EF800CC7E0400FF7E1419D40BD9
:101510000A405D44681A692000020B0E0B44800AE1
:101520007E0BB07A29B00B240B0C1B4478F280DFC1
:101530000213C67EB30012B4041D7EB30008B4814A
:10154000167EB3000B70107EB3000D700A7E37005C
:101550000EBE34000168030218BA7E3410FA7E24ED
:1015600000FF7A1F00167E3400017A37001402183B
:101570009BCA3B7F30CAB80BFD74161218737AFBF6
:10158000B039BFFFFF800C29BFFFFE1218737A3BF2
:10159000B00B747EFBA07CBA147AFBB04CAA78E73F
:1015A00029BFFFFF9EF80003DA3B227A3700897ECD
:1015B00034008A7E2400007E1B307E34008B7E2423
:1015C00000007A1B307E3400897E2400007E1B30B0
:1015D0007E34008C7E2400007A1B307E37008B2204
:1015E0004391015392FE741F7AB3008D740F7AB346
:1015F000008EE47AB3008F7AB3009074017AB3005E
:10160000917E08008D1212B974010218C8CAF874CC
:101610000E7E700112188874111218737CFB30E56D
:101620000874117E70401218887CBF30E207741174
:101630006C77121888C202DAF82212190874807EB8
:1016400034FE077E24007E7A1BB07E34FE077E24A3
:10165000007E7E1BB030E0F275DC0075F490120F56
:10166000FEA9D7AF22CAF8740E7E700212188874D1
:10167000111218737CFB30E50874117E704012184B
:10168000887CBF30E20774116C77121888DAF82270
:10169000CA3BCA787F30CAB8800B7EFBB07E3B70F5
:1016A0000B7412188829AFFFFF7CBA1439BFFFFFF3
:1016B0004CAA78E61BFDDA3B227EB30012B4041B71
:1016C0007EB30008B401147EB3000B700E7EB3002D
:1016D0000D70087E37000E4D3368030218BA0218E9
:1016E000F17EB30012B404097EB30008BEB0A16855
:1016F000030218BA7E1800C17A1F00167E37000E4A
:101700007A37001402189B7EB30012B404097EB32A
:101710000008BEB02168030218BA7E1800C17A1F03
:1017200000167E37000E7A3700140218AC7F217F36
:10173000707F10800A7E2B307A1B300B540B34697B
:101740001FFFFD7D011B04790FFFFD4D1178E67F22
:1017500017228012000000000000000000000000BE
:101760000000000000007D231B344D2278E6227E1D
:10177000B3000924DF680A14680A0BB1780902175C
:10178000070216E10218480218BA744F900000F0E0
:10179000744C900001F07445900002F07480900049
:1017A00003F022744C900000F07443900001F07438
:1017B00044900002F07480900003F022CA797D7397
:1017C00080077E3403E81218317D371B744D33785F
:1017D000F1DA7922CA797D7380077E3403E8121723
:1017E000527D371B744D3378F1DA79227C7B1B7183
:1017F000680B1B70680A0B717808C2A322C2A22270
:10180000C2A1227C7B1B71680B1B70680A0B71786C
:1018100008D2A322D2A222D2A12243B10453B2FB06
:101820007E34FE137E24007E7E1BB044047A1BB0FF
:10183000227D237E3400037D131B147D3178F87DD7
:10184000121B147D2178EC227EB30012B404097EB1
:10185000B30008BEB02168030218BA0218F17CA7D1
:101860007C7B0A5A2E54002012169074117E70014F
:101870000218887CABE5FC20E7FB7CBA4480F5FCD1
:10188000E5FC20E7FBE5EC227CA77C7BE5FC20E780
:10189000FB7CB7547FF5FC7AA1EC2274037AB30089
:1018A0001374117E70401218880211F374047AB315
:1018B000001374117E704002188874057AB3001307
:1018C00074117E70600218887C7BA5BF0104A9D7C3
:1018D000BC22A9C7BC226D3380020B347E0BB00B37
:1018E0001470F7225395F143960E53B1BF43B240A3
:1018F00022E47AB3001374117E704802188812181B
:10190000E4C2A3C2A2C2A12243B10353B2FC22D2B9
:10191000A3D2A2D2A1220218BA0218BA0218BA227D
:10192000283029003EB333333F07AE143F333333FF
:101930003F47AE143F59999A3F68F5C33F7333331D
:101940003F7AE1483F8000003F83D70A3F866666C2
:101950003F8A3D713F8F5C293F9333333F970A3D68
:101960003F99999A3F9D70A43FA666663FAA3D7134
:101970003FACCCCD3FB333333FB9999A0000000060
:1019800040A00000412000004170000041A0000084
:1019900041C8000041F00000420C0000422000005D
:1019A000423400004248000042700000428C0000B7
:1019B00042A0000042B4000042C8000042F0000013
:1019C000431600004320000043480000437A000013
:1019D00043960000006400210000000000000000A9
:1019E00000000000000000000000000000000000F7
:1019F00000000000000000000000000000000000E7
:101A000000000000000000000000000000000000D6
:101A100000000000000000000000000000000000C6
:101A200000000000000000000000000000000000B6
:101A3000000000000000000000000000000400B5ED
:101A400000FF1A73000400B900000000000400BD8C
:101A5000000000000001001F000001001100000054
:101A600035304EC1A6B4ABB8D0C6F7284E293A25BA
:101A7000640A0040535443495350230070706D3A38
:061A8000252E31660A006C
:00000001FF
