:100000000266F0028024127E3DE4220271C3740372
:100010000280F502802FA9D4C122220280E0024A88
:100020001A222202537302751B22220280947A73D1
:10003000070B7CAB74577C7A7E08070B7E2400018B
:0900400002509402475F027FCADE
:06004B0002677D027FCA7E
:0600530002803A027FCAA0
:07005B000280452830290056
:030063000280E731
:10006B000224AD7C277E34FEBB7E24007E7A1BB03F
:0B007B007E34FEBC7A1B202202805065
:03008B000264FB11
:100093000265435395F143960E53B1BF43B24022D9
:0300A3000280EEEA
:1000AB00027FE6A2AF92D5C2AF75C65A75C6A50040
:0B00BB00000000A2D592AF22023731F6
:0300CB00024E489A
:0300D300024BB429
:0300DB00024C399B
:0300E300022F8861
:0300EB000230BC24
:1000F300020126CA3B7F307AB3070C1277BE7472B3
:100103001256CF7EB3070C1256CF1277BE747312FA
:1001130056CFC21F12582E7A3BB0127833DA3B22E5
:100123000266A9CA7BCA6BCA5BCA4BCAF8CA2BCA86
:100133001BCA0BC0D1C0D0C083C0827EF1FA740544
:100143001280F55403B4030F74031280F57CAB4C97
:10015300AB7809D222800574031280F57AF1FAD0C4
:1001630082D083D0D0D0D1DA0BDA1BDA2BDAF8DAEB
:0B0173004BDA5BDA6BDA7B3202703390
:030183000275D929
:03018B000260B25D
:03019300026F34C4
:03019B00026E9B56
:0301A300026F9A4E
:0301AB00026ECE13
:0301B300026FCD0B
:0301BB00026F01CF
:0301C300027000C7
:0301CB00026F6759
:0301D3000257D8F8
:0301DB0002771E8A
:0301E300026E6841
:1001EB00026E350206FA6E00807CB1337CB0336848
:1001FB000D0468EF7CB5337CB43378037F10220495
:10020B0068E17D5092F77D457D51BF2140067C8092
:10021B007F017F121206BD7EA1D05CB00478032053
:10022B00D5C17CB00478075002B2D502070292D533
:10023B00BE80FF68F67CB89CB06C00602AB41805D1
:10024B007C410206D650FB80032F00047C9B5E9002
:10025B000778F630E4067C437D106D0030E3087CB4
:10026B00437C327C210A0030F5199F10780E220254
:10027B0006FF1B8068F92F1150020B707CB530E71D
:10028B00F1801B2D317CB5A5397C5B50110B80782F
:10029B00030207021E341350034E60801A2B020612
:1002AB00D65D22680D5D0078122D220B4068099FE8
:1002BB0011222D000B0078F90206FA1206BD5C80A4
:1002CB000B806808248150072CB0500A0207022CBF
:1002DB00B040030206FF7C8B5D1178267CB17CA5B8
:1002EB00BE1080680A5D33780DA5BD80057F1002B6
:1002FB0006EC6D0080307F017C5B7CB17CA5AD1280
:10030B0080245D337806A5BD80F080E1CA887D41ED
:10031B00AD437CB17CA5AD122D1450020B047C5B5C
:10032B00AD232F01DA88A42D05BE008040060B807B
:10033B00780480982F007C437C507C617C72020691
:10034B00D6BE24FFFF6806BE04FFFF78030206FA41
:10035B001206BD5CB00468F57CB8A54868EF7CB8A4
:10036B0070039F1122A5B800030207022E008150D3
:10037B00079C8038070206FF9C8050ED0A51C2E7AC
:10038B004D5178030206EC7E5400807E901A6C006F
:10039B0080061B9068142F11BF1040049F104CABAC
:1003AB000330E7EECAA86CAA80E8DA39DA587C4A3F
:1003BB00BE5080500A1B8068BC2F1150020B70027C
:1003CB0006D674F86CAA6E40806E0080BEB0FF68D3
:1003DB00277C837C975C3B5C7BBF10682AF4400DC9
:1003EB007C382D15F45C3B500F0B04800B7C792D66
:1003FB0035F45C7B50020B24BF10680B7CB020E7FC
:10040B00067CB420E701B3227EA020800C7EA010D6
:10041B0080057EA0086C556D333392D5500A6E342F
:10042B00FFFF6E24FFFF0B1CA5EC3340062F11D5ED
:10043B00F0F6227CBA247EA2D5137C767C65A5CC03
:10044B0092E77C5B227CB5337CB43392D54E5080E3
:10045B00248140039F11227C457C567C676C77245A
:10046B00E0500E7E1CFFFF221E341E2450034E60F4
:10047B00800478F430D50A6E34FFFF6E24FFFF0B37
:10048B001C227F507EC400007ED405357E94049ED2
:10049B0002073B4001227CEACA89CA5BCA6B127D08
:1004AB00EEDA6BDA5BDA897E94049E7CAE227F7087
:1004BB007F517EC400007ED405EF7E9404CC0207EE
:1004CB003B4005E47A7BB0227A7BB00B7C227F70B9
:1004DB007F517E6F06E37E9404E802073B4005E400
:1004EB007A7BB0227A7BB00B7C227CB5A2E7D2E779
:1004FB007C1B7CB4334009680DB4FF0BA5BDFF0317
:10050B000206FA020702227C0B2481C2E0F582F478
:10051B00042CB07C2BC3137C4B7CB592E77C5B7FAC
:10052B00417CB6A2E77CB1A5BA7F02C31334009419
:10053B00007C2B7EA091A47CBA13F494FEACB23356
:10054B007CBA33248CD3137C5BE492E77C6B6C77A3
:10055B007E403F7583027F517F017F1412034C7FD6
:10056B00051201F49E240080D583EB7E01826C1171
:10057B000E041E042D205E407F223A70FA83BCAA23
:10058B00E9E43E81E0F8BF9DE9E63F8000003928B1
:10059B003C1ABB9969663DA335E3BF255DE73FC9AF
:1005AB000FDB418DDBCCC44936EE45C9913FC5B05D
:1005BB00F83D3F800000C317F534452FFA73C60A88
:1005CB00FDDD12065C04A2E192F77DE51420E01C30
:1005DB007E9405857E8400FF7404120B4A802112E1
:1005EB00065C30E1046EE4800020E0E47F617E94E1
:1005FB0005997E8400FF7404120B4A7F061202AC2D
:10060B007D5E5D2268055EA0806C4A2212065CCA84
:10061B00B87F617E9405BD7E8400FF7403120B4A84
:10062B007F061202AC7F067F617F107E9405AD7E44
:10063B008400FF7403120B4ADAB830E00B7F06120A
:10064B00034C7D5EB2F780BA7F017F1612034C809C
:10065B00AF7DE25E407FBE244F0040051BFD0206CE
:10066B00FA7E14F9837E043E221202ACBE243F8034
:10067B00400E7F011204501204136E40801201F4DD
:10068B00E45D2268242E240180BE243F80401A7F23
:10069B00011204507CB704C2E07C4BCAB812041D93
:1006AB006E40801201F4DAB8035D2268049E2400C8
:1006BB0080222D0092D50E104E10807D422D44507D
:1006CB0002B2D54E50806C447CB8222C4450120B95
:1006DB001C7E40005E507FBE18000078040B8068C3
:1006EB0016A2D57CB8137C4B7CB592E77C5B227E43
:1006FB001CFFFF229F11227E24FF8020D5026C4518
:10070B006D3322540F2490D43440D430F30CBEB04C
:10071B00414007BEB05B500224204CCC68021BC08A
:10072B000B84D389944CCC680B742012072580F56D
:10073B00CA3B6D889F337CAE7E5BB00B5C7007C38E
:10074B007D38DA3B8994B42569C2F37E5BB00B5CD0
:10075B00A5F824D0BEB00A501B7E500A20F60DAC73
:10076B005CA52D7CCB70034EF00180DDAC5DA52D1F
:10077B007CDB80D524CFBEB01AA5E850055E00DF28
:10078B00D2F3900B10A3E4936011BCB078F77417FD
:10079B00934CAB30F6B34EF08080AEA3E493601075
:1007AB00BCB078F77416937C3B7423937C2B891421
:1007BB007CB08013742012072520F205BEC00250B6
:1007CB00F31B6D29B600011207250207301B6E695A
:1007DB001600020B6A00BE08000078087E0400FFBA
:1007EB007E14005E20F21E4CCC681A7F10E47E1B38
:1007FB00804C8868070B1C04BCBD78F2C2F6CA0B90
:10080B0012090FDA0B7E0BB060C0CA0B120725DA88
:10081B000B0B0C4CDD68EE1BD078EA80ADD2F07E72
:10082B00101080037E10085EB05F800AD2F67E1037
:10083B000A80057E100AC2F66D119F117E00201BE7
:10084B006C7E6B7030F6021A3720F1051B6C7E6BD9
:10085B006030F6041A261A2430F0051B6D0B6A2043
:10086B00A5EC3382F692F6500A7CEA9F229F217FF9
:10087B00127CAE4C44780F7C457C567C676C772E93
:10088B0000F878EF80122F117CB3337C3B9CB14086
:10089B00047C3B0B70A5D8EE7CB230E005DAB8C413
:1008AB004C3BCA380B207E00207E3000BE18000067
:1008BB0078C1BE1008780730F404C2F480B5CA289A
:1008CB007CB2BCBD38027CBD12090FDA28BC2D509E
:1008DB000A1BD0E4CA2812070E80F07CB213DAB8D8
:1008EB004004C4CAB8C4CA28BEF08040095CDD7895
:1008FB0005A5DA0260065EF07F12070EDA28A5DA8C
:10090B00DA020730BEF001680F30F402240220F542
:10091B000620F70330F6010420F229BCBC5025CA8F
:10092B00B87CBF13B0E67420501174307C8A5E80A3
:10093B00F0680812094F5EA00F8003120725DAB882
:10094B00BCBC78DB30F40F7430120725745830F3CD
:10095B0002747812072530F605742D020725742BC7
:10096B0020F5F8742020F7F3221B6C7E6BB010F18E
:10097B00021B6C20F60B30E704F404D2F27CCB8024
:10098B000520E7057CDB0207545EF07F80F81B6EC9
:10099B00691600020B6A0030F0076D221B0A200B50
:1009AB000D1B0A8002073FE46C22BE3007500B7F01
:1009BB001F2D312E34FFF77E39B0227CBF20E7A8E4
:1009CB00742E4EF080020725120AF9403D7CBD7053
:1009DB0003047CDB120C3D7C3D4C3368101B307CDC
:1009EB00BE20E4091209B270044C3378F07CBD7C54
:1009FB00D3BEA0FD481CBCAB5818E49CBA2CB31852
:100A0B0001E47CDB020A9A120AF9406E7CBD0412E7
:100A1B000C3D7AFBA07CAE7CBDA2F492F0C2F440FC
:100A2B0002600104240512090F7E30FF0B301209FE
:100A3B00B2CA3812070E20F0044CDD68031209C647
:100A4B00DA38BC3D78E6740E12070E742B7EFBA0D1
:100A5B0030F707742D6EA0FF0BA07AFBA0120725B1
:100A6B007EA00A7EFBB0847AFBA012070E7EFBB041
:100A7B0012070E9EF80008020730D2F27ED0000259
:100A8B0007EF120AF940F37CBA2CBD04120C3D7A25
:100A9B00FBA07CBA7CAE30E701E40420F4044CDD0F
:100AAB006805D2F0C2F4042CBD12090F6C337EFB27
:100ABB00B0601B20E712147AFBB01209B2CA3812CD
:100ACB00070EDA380B3080E6047AFBB01B301209C4
:100ADB00B2CA3812070E4CDD68071209C61BD0804C
:100AEB00E19EF8000930F0031209C60207307CEAD8
:100AFB007CAF10F7037ED0067CFA1B6E69360002C2
:100B0B000B6A20020B852D2B204C4248232E0053C1
:100B1B00584F44494355502A4E46454700042080C0
:100B2B000102001040D82A2F3737C43E2874998D04
:100B3B0012D3070808080807080809090A0A09CA8E
:100B4B00B87F011202ACDAB87F510B4A206934002E
:100B5B00020B4E7F05CAB81202AC0B4A0069140097
:100B6B00020B4E1201F4DAB81478E8224E614E00F3
:100B7B002B494E46002D494E46007D522D557CBECD
:100B8B0092E67CEB7CBA601F0470287CB5C2E77ED2
:100B9B000400FF60067E140B77D3227E140B80407B
:100BAB00047E140B7BD322DA099F22CA2BCA2BC3D8
:100BBB00CA09220A0A7E144D10AD109E083AF09E07
:100BCB0010267CB5C2E77EA0567C9BA46E54FFFF1B
:100BDB002E54C511ACA92D15E4A539CAB8CA1B20D2
:100BEB00E70A120CB0DA1B12034C800AF404120C45
:100BFB00B0DA1B1202ACDAA87CB5337CB4334E509E
:100C0B00806C4424822F111478FBDA497407BE40A0
:100C1B000A40099E400ACA0201140BA0CA486C4440
:100C2B002F117F012F112F112F101478EFCA48CAE3
:100C3B0049227F0F20E73ABEB007400274070A0B28
:100C4B002D109E1400097E19B02EB0FB501F4C11B5
:100C5B006817E47A19B01B147E19B0047A19B0B472
:100C6B000A0BE47A19B0A5D9ED0BA074017A19B06F
:100C7B00225EE0BF223F8000004120000042C800FE
:100C8B0000447A0000461C400047C35000497424BE
:100C9B00004B1896804CBEBC205A0E1BCA6753C221
:100CAB001C749DC5AE7C7B6006540768162323120B
:100CBB000CD57CB75438680A7F10120CD21202ACD8
:100CCB007F01227CB7543803241C6CAA2E540C8051
:100CDB007E4400FF0B2A0069120002227D51AD03F6
:100CEB007D027D21AD052D12AD352D21226D0074B8
:100CFB00104D00780B4D2278278D317D126D2222FD
:100D0B007D437D326D222F112D445002A50FBF1054
:100D1B0040049F100B901478ED7F016D227D3422DF
:100D2B007D417D138D247D022F004004BD044004C2
:100D3B009D040B141478F17D237D317D106D002201
:100D4B00C2D57CB030E708B2D59F229F207F027CB2
:100D5B00B430E713B2D59F229F217F12120CFA9F5A
:100D6B00229F207F028003120CFA30D5069F229F10
:100D7B00217F12227F707C7BA5BF01028003020EB4
:100D8B00477E34FECC7E24007E7E1BB054FE7A1B45
:100D9B00B07E1BB054FB7A1BB07ED4FEC87EC40061
:100DAB007E7E6BB054FC7A6BB07E6B305E308F7E88
:100DBB007B204C327A6B3029A700067CBA30E017C7
:100DCB007E1BB044017A1BB07E14FEB17E04007E04
:100DDB007E0BB0440180157E1BB054FE7A1BB07E97
:100DEB0014FEB17E04007E7E0BB054FE7A0BB07CF9
:100DFB00BA30E11A7E1BB044047A1BB07E14FEB1EC
:100E0B007E04007E7E0BB044027A0BB080187E1BF2
:100E1B00B054FB7A1BB07E34FEB17E24007E7E1B69
:100E2B00B054FD7A1BB0691700037E34FED57E24C7
:100E3B00007E7A1B207E34FED602131AA5BF020257
:100E4B008003020F0B7E34FECC7E24007E7E1BB013
:100E5B0054EF7A1BB07E1BB054BF7A1BB07ED4FE0E
:100E6B00C97EC4007E7E6BB054FC7A6BB07E6B3057
:100E7B005E308F7E7B204C327A6B3029A700067C4C
:100E8B00BA30E2177E1BB044107A1BB07E14FEB151
:100E9B007E04007E7E0BB0440480157E1BB054EFA5
:100EAB007A1BB07E14FEB17E04007E7E0BB054FB29
:100EBB007A0BB07CBA30E31A7E1BB044407A1BB07D
:100ECB007E14FEB17E04007E7E0BB044087A0BB01C
:100EDB0080187E1BB054BF7A1BB07E34FEB17E24CB
:100EEB00007E7E1BB054F77A1BB0691700037E346B
:100EFB00FED77E24007E7A1B207E34FED802131A86
:100F0B00A5BF03028003020FCF7E34FECD7E2400EB
:100F1B007E7E1BB054FE7A1BB07E1BB054FB7A1B3B
:100F2B00B07ED4FECA7EC4007E7E6BB054FC7A6B5E
:100F3B00B07E6B305E308F7E7B204C327A6B3029EB
:100F4B00A700067CBA30E4177E1BB044017A1BB0B5
:100F5B007E14FEB17E04007E7E0BB0441080157EA5
:100F6B001BB054FE7A1BB07E14FEB17E04007E7E55
:100F7B000BB054EF7A0BB07CBA30E51A7E1BB04441
:100F8B00047A1BB07E14FEB17E04007E7E0BB0444F
:100F9B00207A0BB080187E1BB054FB7A1BB07E34CA
:100FAB00FEB17E24007E7E1BB054DF7A1BB0691726
:100FBB0000037E34FED97E24007E7A1B207E34FE15
:100FCB00DA02131AA5BF040280030210937E34FECB
:100FDB00CD7E24007E7E1BB054EF7A1BB07E1BB0FF
:100FEB0054BF7A1BB07ED4FECB7EC4007E7E6BB02A
:100FFB0054FC7A6BB07E6B305E308F7E7B204C3234
:10100B007A6B3029A700067CBA30E6177E1BB044FA
:10101B00107A1BB07E14FEB17E04007E7E0BB044B2
:10102B004080157E1BB054EF7A1BB07E14FEB17E50
:10103B0004007E7E0BB054BF7A0BB07CBA30E71A3B
:10104B007E1BB044407A1BB07E14FEB17E04007E42
:10105B007E0BB044807A0BB080187E1BB054BF7AE5
:10106B001BB07E34FEB17E24007E7E1BB0547F7A93
:10107B001BB0691700037E34FEDB7E24007E7A1BD7
:10108B00207E34FEDC02131AA5BF096E293700053A
:10109B007E34FEDE7E24007E7A1B30691700017ED3
:1010AB0034FED27A1B207E34FED37A1B3029B70054
:1010BB0008B4010F7E34FEDD7E24007E7E1BB0441F
:1010CB0080800D7E34FEDD7E24007E7E1BB0547F3F
:1010DB007A1BB029B70007B401107E34FEC07E2402
:1010EB00007E7E1BB044010213917E34FEC07E2431
:1010FB00007E7E1BB054FE021391A5BF0502800338
:10110B0002118B7E34FEEC7E24007E7E1BB054FEDF
:10111B007A1BB07ED4FEE87EC4007E7E6BB054FC9E
:10112B007A6BB07E6B305E308F7E7B204C327A6B6D
:10113B003029B7000630E01A7E1BB044017A1BB091
:10114B007E14FEB57E04007E7E0BB044017A0BB09C
:10115B0080187E1BB054FE7A1BB07E34FEB57E2405
:10116B00007E7E1BB054FE7A1BB0691700037E34E1
:10117B00FEF57E24007E7A1B207E34FEF602131AC7
:10118B00A5BF060280030212117E34FEEC7E240002
:10119B007E7E1BB054EF7A1BB07ED4FEE97EC4007A
:1011AB007E7E6BB054FC7A6BB07E6B305E308F7E84
:1011BB007B204C327A6B3029B7000630E21A7E1B4B
:1011CB00B044107A1BB07E14FEB57E04007E7E0BFD
:1011DB00B044047A0BB080187E1BB054EF7A1BB06E
:1011EB007E34FEB57E24007E7E1BB054FB7A1BB092
:1011FB00691700037E34FEF77E24007E7A1B207E67
:10120B0034FEF802131AA5BF070280030212977E61
:10121B0034FEED7E24007E7E1BB054FE7A1BB07E26
:10122B00D4FEEA7EC4007E7E6BB054FC7A6BB07E3B
:10123B006B305E308F7E7B204C327A6B3029B7005F
:10124B000630E41A7E1BB044017A1BB07E14FEB547
:10125B007E04007E7E0BB044107A0BB080187E1B90
:10126B00B054FE7A1BB07E34FEB57E24007E7E1B0E
:10127B00B054EF7A1BB0691700037E34FEF97E245D
:10128B00007E7A1B207E34FEFA02131AA5BF0802D9
:10129B0080030213237E34FEED7E24007E7E1BB082
:1012AB0054EF7A1BB07ED4FEEB7EC4007E7E6BB017
:1012BB0054FC7A6BB07E6B305E308F7E7B204C3271
:1012CB007A6B3029B7000630E61A7E1BB044107AD1
:1012DB001BB07E14FEB57E04007E7E0BB044407ABC
:1012EB000BB080187E1BB054EF7A1BB07E34FEB56A
:1012FB007E24007E7E1BB054BF7A1BB0691700039F
:10130B007E34FEFB7E24007E7A1B207E34FEFC7E28
:10131B0024007E7A1B30E422A5BF0A6F2937000513
:10132B007E34FEFE7E24007E7A1B30691700017E20
:10133B0034FEF27A1B207E34FEF37A1B3029B70081
:10134B0008B4010F7E34FEFD7E24007E7E1BB0446C
:10135B0080800D7E34FEFD7E24007E7E1BB0547F8C
:10136B007A1BB029B70007B4010F7E34FEE07E2450
:10137B00007E7E1BB04401800D7E34FEE07E240097
:10138B007E7E1BB054FE7A1BB0E42274FF22CA3B54
:10139B007A1F06867F307C7BA5BF0902800302166D
:1013AB000574037E34FBF07E24007E7A1BB029A3E8
:1013BB0000037CBA30E0127EB3068A44017AB3068E
:1013CB008A7EB3068B440180107EB3068A54FE7A64
:1013DB00B3068A7EB3068B54FE7AB3068B7CBA3087
:1013EB00E1127EB3068A44027AB3068A7EB3068B79
:1013FB00440480107EB3068A54FD7AB3068A7EB30A
:10140B00068B54FB7AB3068B7CBA30E2127EB306A2
:10141B008A44047AB3068A7EB3068B441080107E0E
:10142B00B3068A54FB7AB3068A7EB3068B54EF7AE3
:10143B00B3068B7CBA30E3127EB3068A44087AB3C8
:10144B00068A7EB3068B444080107EB3068A54F71F
:10145B007AB3068A7EB3068B54BF7AB3068B7CBAFB
:10146B0030E4127EB3068A44107AB3068A7EB30642
:10147B008C440180107EB3068A54EF7AB3068A7EC1
:10148B00B3068C54FE7AB3068C7CBA30E5127EB36D
:10149B00068A44207AB3068A7EB3068C44048010F5
:1014AB007EB3068A54DF7AB3068A7EB3068C54FB6E
:1014BB007AB3068C7CBA30E6127EB3068A44407A45
:1014CB00B3068A7EB3068C441080107EB3068A5412
:1014DB00BF7AB3068A7EB3068C54EF7AB3068C7C44
:1014EB00BA30E7127EB3068A44807AB3068A7EB39B
:1014FB00068C444080107EB3068A547F7AB3068AEA
:10150B007EB3068C54BF7AB3068C74CC6C77127591
:10151B00FE74CD6C771275FE74C87E70601275FE0A
:10152B0074C97E70601275FE74CA7E70601275FE8F
:10153B0074CB7E70601275FE74CC7E73068B127545
:10154B00FE74CD7E73068C1275FE74B17E73068AA3
:10155B001275FE74D57E1F06860B1A300A3612756D
:10156B00FE74D67E1F06860B1A301275FE74D77E5C
:10157B001F0686693100020A361275FE74D87E1F6B
:10158B000686693100021275FE74D97E1F068669C4
:10159B003100040A361275FE74DA7E1F0686693135
:1015AB0000041275FE74DB7E1F0686693100060A85
:1015BB00361275FE74DC7E1F0686693100061275C5
:1015CB00FE74D20B3A300A361275FE74D30B3A30D6
:1015DB001275FE74DE297300021275FE74DDCAB833
:1015EB0029B300050354807C7BDAB81275FE74C0F6
:1015FB00297300041275FE0217BAA5BF0A028003F5
:10160B000217BA74037E34FBF47E24007E7A1BB07F
:10161B0029A300037CBA30E0127EB3068A44017A18
:10162B00B3068A7EB3068B440180107EB3068A54C0
:10163B00FE7AB3068A7EB3068B54FE7AB3068B7C96
:10164B00BA30E2127EB3068A44047AB3068A7EB3BA
:10165B00068B441080107EB3068A54FB7AB3068A3D
:10166B007EB3068B54EF7AB3068B7CBA30E4127ED2
:10167B00B3068A44107AB3068A7EB3068C44018083
:10168B00107EB3068A54EF7AB3068A7EB3068C5467
:10169B00FE7AB3068C7CBA30E6127EB3068A4440DF
:1016AB007AB3068A7EB3068C441080107EB3068A0A
:1016BB0054BF7AB3068A7EB3068C54EF7AB3068C8A
:1016CB0074EC6C7712762374ED6C7712762374E8D6
:1016DB007E706012762374E97E706012762374EA52
:1016EB007E706012762374EB7E706012762374EC3E
:1016FB007E73068B12762374ED7E73068C12762323
:10170B0074B57E73068A12762374F57E1F0686697E
:10171B003100080A3612762374F67E1F068669316D
:10172B00000812762374F77E1F06866931000A0AB9
:10173B003612762374F87E1F06866931000A1276FC
:10174B002374F97E1F06866931000C0A3612762344
:10175B0074FA7E1F06866931000C12762374FB7EA9
:10176B001F06866931000E0A3612762374FC7E1F23
:10177B0006866931000E12762374F20B3A300A3664
:10178B0012762374F30B3A3012762374FE2973000E
:10179B000212762374FDCAB829B300050354807C6A
:1017AB007BDAB812762374E029730004127623DAFD
:1017BB003B22CAF87F707CABBEA00168030218B64F
:1017CB00E47AB300257AB300267AB300277AB30004
:1017DB00287AB300296DDDE419BD01790BD4BED491
:1017EB00008078F36DDDE419BD00390BD4BED40055
:1017FB008078F37E7BF0E598543F4CBFF598BEF0B4
:10180B00C06805BEF040786A6917000469070002DA
:10181B007E348D807E24005B120CFA7F516D337EFB
:10182B00240001BF51400574FF021AFA9F157F5126
:10183B0029B70001B4021DA9C48EA9D08EA9C38EED
:10184B00A9D28E7D5B7CBAF5D67D3B7CB7F5D7A94B
:10185B00D48E8047C28EA9C08EA9C6895389CFA9C1
:10186B00D68E7D5B7CBAF58D7D3B7CB7F58BD28EAE
:10187B0080294CFF781129B70008B40105A9D58E32
:10188B008019A9C58E8014BEF080780F29B7000887
:10189B00B40105A9D7878003A9C78729B7000770AB
:1018AB0004C29C8002D29CE4021AFABEA002680316
:1018BB00021959E47AB3002A7AB3002B7AB3002CBD
:1018CB007AB3002D7AB3002E6DDDE419BD02390B0E
:1018DB00D4BED4008078F36DDDE419BD00B90BD410
:1018EB00BED4008078F37E7BA0E59A543F4CBAF5CA
:1018FB009ABEA0C06805BEA040783C691700046979
:10190B000700027E348D807E24005B120CFA7F511F
:10191B006D337E240001BF51400574FF021AFA9FFC
:10192B0015A9C48EA9C38EA9D28E7CB6F5D67CB769
:10193B00F5D7A9D48E800574FF021AFA29B70007D0
:10194B007005A9C49A8003A9D49AE4021AFABEA01E
:10195B00036803021A2AE47AB3002F7AB300307AB1
:10196B00B300317AB300327AB300336DDDE419BDC5
:10197B0002B90BD4BED4004078F36DDDE419BD0180
:10198B00390BD4BED4004078F37E7BB0BEB0C068B8
:10199B0003B44074B4C005A9D7AC8003A9C7AC6924
:1019AB00170004690700027E348D807E24005B12D1
:1019BB000CFA7F516D337E240001BF51400574FF3B
:1019CB00021AFA9F157F5129B70001B4021DA9C451
:1019DB008EA9C6ACA9C38EA9D28E7D5B7CBAF5D677
:1019EB007D3B7CB7F5D7A9D48E8022A9C3DDA9D6C0
:1019FB00AC7D5B7CBAF5D47D3B7CB7F5D5A9C2DD5C
:101A0B00A9D1DDA9D3DD800574FF021AFA29B7002D
:101A1B00077005A9C4AC8003A9D4ACE4021AFABEC2
:101A2B00A0046803021AF8E47AB300347AB30035E1
:101A3B007AB300367AB300377AB300386DDDE41928
:101A4B00BD02F90BD4BED4004078F36DDDE419BDB3
:101A5B0001F90BD4BED4004078F37E7BB0BEB0C08E
:101A6B006803B44073B4C005A9D7FD8003A9C7FDB3
:101A7B0069170004690700027E348D807E24005BA9
:101A8B00120CFA7F516D337E240001BF5140047458
:101A9B00FF805C9F157F5129B70001B4021DA9C4BB
:101AAB008EA9C6FDA9C38EA9D28E7D5B7CBAF5D655
:101ABB007D3B7CB7F5D7A9D48E8021A9C7DDA9D6EC
:101ACB00FD7D5B7CBAF5D27D3B7CB7F5D3A9C6DD3A
:101ADB00A9D5DDA9D7DD800474FF801329B70007D2
:101AEB007005A9C4FD8003A9D4FDE4800274FFDA5C
:101AFB00F8227F707CABBEA0016803021BCBE47E97
:101B0B0034FA327E24007E7A1BB07E34FA3A7A1B8A
:101B1B00B0693700017E14FA337E04007E7A0B70B5
:101B2B000A367CB77E34FA887A1BB0693700030A11
:101B3B00267E14FA357A0B607CB77E34FA367E2417
:101B4B00007E7A1BB0693700080A267E14FA3D7AAC
:101B5B000B607CB77E34FA3E7E24007E7A1BB06924
:101B6B003700067E14FA3B7A0B700A367CB77E344C
:101B7B00FA8A7A1BB07E7BB0B4010F7E34FA317EC9
:101B8B0024007E7E1BB04480800D7E34FA317E248F
:101B9B00007E7E1BB0547F7A1BB029B70005B401C1
:101BAB000F7E34FA397E24007E7E1BB04480800D7C
:101BBB007E34FA397E24007E7E1BB0547F7A1BB0B4
:101BCB00BEA0026803021C95E47E34FA427E240018
:101BDB007E7A1BB07E34FA4A7A1BB0693700017EDD
:101BEB0014FA437E04007E7A0B700A367CB77E347F
:101BFB00FA8C7A1BB0693700030A267E14FA457AF1
:101C0B000B607CB77E34FA467E24007E7A1BB0696B
:101C1B003700080A267E14FA4D7A0B607CB77E34A7
:101C2B00FA4E7E24007E7A1BB0693700067E14FACA
:101C3B004B7A0B700A367CB77E34FA8E7A1BB07EE9
:101C4B007BB0B4010F7E34FA417E24007E7E1BB044
:101C5B004480800D7E34FA417E24007E7E1BB0547E
:101C6B007F7A1BB029B70005B4010F7E34FA497E89
:101C7B0024007E7E1BB04480800D7E34FA497E2486
:101C8B00007E7E1BB0547F7A1BB0BEA0036803029C
:101C9B001D5FE47E34FA527E24007E7A1BB07E34C4
:101CAB00FA5A7A1BB0693700017E14FA537E04008E
:101CBB007E7A0B700A367CB77E34FA907A1BB06949
:101CCB003700030A267E14FA557A0B607CB77E34F4
:101CDB00FA567E24007E7A1BB0693700080A267EEE
:101CEB0014FA5D7A0B607CB77E34FA5E7E24007E3C
:101CFB007A1BB0693700067E14FA5B7A0B700A36D2
:101D0B007CB77E34FA927A1BB07E7BB0B4010F7E27
:101D1B0034FA517E24007E7E1BB04480800D7E34CD
:101D2B00FA517E24007E7E1BB0547F7A1BB029B7FC
:101D3B000005B4010F7E34FA597E24007E7E1BB061
:101D4B004480800D7E34FA597E24007E7E1BB05475
:101D5B007F7A1BB0BEA0046803021E15E47E34FA22
:101D6B00627E24007E7A1BB07E34FA6A7A1BB069DD
:101D7B003700017E14FA637E04007E7A0B700A161C
:101D8B007E34FA947A1B30691700037E34FA657A35
:101D9B001B207E34FA667A1B30691700087E34FAF2
:101DAB006D7A1B207E34FA6E7A1B30693700067E03
:101DBB0014FA6B7A0B700A167E34FA967A1B307E05
:101DCB007BB0B4010F7E34FA617E24007E7E1BB0A3
:101DDB004480800D7E34FA617E24007E7E1BB054DD
:101DEB007F7A1BB029B70005B4010F7E34FA697EE8
:101DFB0024007E7E1BB04480800D7E34FA697E24E5
:101E0B00007E7E1BB0547F7A1BB0227CABBEA0073A
:101E1B00280374FF227E0B70BE7003280374FF220D
:101E2B004CAA7843A5BF000F29B000017C6B6E60F4
:101E3B00FF7CB652935294A5BF010C296000017C24
:101E4B00B6429364FF5294A5BF020A296000017C3D
:101E5B00B642934294A5BF030E296000017CB66481
:101E6B00FF52937CB64294BEA0017843A5BF000FEE
:101E7B0029B000017C6B6E60FF7CB652915292A52B
:101E8B00BF010C296000017CB6429164FF5292A500
:101E9B00BF020A296000017CB642914292A5BF03A2
:101EAB000E296000017CB664FF52917CB64292BE53
:101EBB00A0027843A5BF000F29B000017C6B6E60B8
:101ECB00FF7CB652955296A5BF010C296000017C90
:101EDB00B6429564FF5296A5BF020A296000017CA9
:101EEB00B642954296A5BF030E296000017CB664ED
:101EFB00FF52957CB64296BEA0037843A5BF000F58
:101F0B0029B000017C6B6E60FF7CB652B152B2A55A
:101F1B00BF010C296000017CB642B164FF52B2A52F
:101F2B00BF020A296000017CB642B142B2A5BF03D1
:101F3B000E296000017CB664FF52B17CB642B2BE82
:101F4B00A0047843A5BF000F29B000017C6B6E6025
:101F5B00FF7CB652B352B4A5BF010C296000017CC3
:101F6B00B642B364FF52B4A5BF020A296000017CDC
:101F7B00B642B342B4A5BF030E296000017CB66420
:101F8B00FF52B37CB642B4BEA0057843A5BF000F89
:101F9B0029B000017C6B6E60FF7CB652C952CAA59A
:101FAB00BF010C296000017CB642C964FF52CAA56F
:101FBB00BF020A296000017CB642C942CAA5BF0311
:101FCB000E296000017CB664FF52C97CB642CABEC2
:101FDB00A0067843A5BF000F29B000017C6B6E6093
:101FEB00FF7CB652CB52CCA5BF010C296000017C03
:101FFB00B642CB64FF52CCA5BF020A296000017C1C
:10200B00B642CB42CCA5BF030E296000017CB6645F
:10201B00FF52CB7CB642CCBEA0077843A5BF000FC6
:10202B0029B000017C6B6E60FF7CB652E152E2A5D9
:10203B00BF010C296000017CB642E164FF52E2A5AE
:10204B00BF020A296000017CB642E142E2A5BF0350
:10205B000E29A000017CBA64FF52E17CBA42E2E493
:10206B0022CA3B7F617F706DAA7D3A3E342E3402CB
:10207B00007A71827A61830BEAB07D3B3E343E3449
:10208B002D3F7D2E691100020B1A007D3A3E343E26
:10209B00343E342D3D7D2C791100021B1A009F110B
:1020AB007D1A3E143E143E142D1D7D0C7930000616
:1020BB00792000040BA4BEA4010078AD7EA400021D
:1020CB007D3A1E347A3705EF7E3401008D3A7A372C
:1020DB0005F16DFF02227B7E1705F1AD1F3E143E0D
:1020EB00147D012E0404007A11827A0183693E006B
:1020FB00020BEA207A1F05F32E1400007A31827A44
:10210B002183693E00020BEA207A1F05F77DEF025F
:10211B0022707EB705EF2DBE7D3E3E343E343E34FD
:10212B007F062D13693000020B0A207A1F05FF6909
:10213B00300006692000047A1F06037D3B3E343EC7
:10214B00343E342D3D7D2C691100020B1A007A0FA1
:10215B0005FB69910006698100047E0F05F77F146A
:10216B001202AC7F317E0F05F37E1F05FB1202AC12
:10217B007F031201F17F017D3B3E343E343E342D13
:10218B003D7D2C791100021B1A007E0F05F37F1485
:10219B001202AC7F317E0F05F77E1F05FB1202ACDE
:1021AB007F031201F47D1B3E143E143E142D1D7D46
:1021BB000C79300006792000047D3B3E343E343EE2
:1021CB00342D3D7D2C691100020B1A007E1F05FF7B
:1021DB001201F47F017D3E3E343E343E342D3D7D75
:1021EB002C791100021B1A007D3B3E343E343E34E9
:1021FB002D3D69110006690100047E1F06031201C3
:10220B00F47D1E3E143E143E142D1D7D0C793000C2
:10221B0006792000047D7B3E743E743E747F162D40
:10222B0037691100020B1A007E1F05FF1201F17FA7
:10223B00017F162D37791100021B1A007D7B3E742E
:10224B003E743E747F162D37691100066901000438
:10225B007E1F06031201F17F062D177930000679D8
:10226B002000042DEABEE40100500302211D0BF4F3
:10227B007E3705EFBD3F28030220E23EA4BEA4013A
:10228B000038030220CBDA3B227F707C7BA5BF009A
:10229B0071C28C7E7BA0BEA003280374FF22E5894C
:1022AB0054FC4CBAF58929A70001BEA0022803747F
:1022BB00FF224CAA7806A9C78EA9C289BEA00178B5
:1022CB0006A9D78EA9C289BEA0027803A9D28929F3
:1022DB007700022E70FFA9908F693700030A56F51D
:1022EB008C7CB7F58A293700057E34FEA07E24004E
:1022FB007E7A1B3029B700067004C28C8002D28C08
:10230B00E422A5BF0178C28E7E7BA0BEA00328036A
:10231B0074FF227CBAC454F07CABE58954CF4CBA21
:10232B00F58929A70001BEA002280374FF224CAA3D
:10233B007806A9C68EA9C689BEA0017806A9D68E35
:10234B00A9C689BEA0027803A9D689297700022ED7
:10235B0070FFA9918F693700030A56F58D7CB7F58D
:10236B008B293700057E34FEA17E24007E7A1B303C
:10237B0029B700067004C28E8002D28EE422A5BF5C
:10238B000253A9C48E29B700017006A9C28EA9C336
:10239B008EB40106A9D28EA9C38EB40203A9D38E23
:1023AB00297700022E70FFA9928F693700030A5616
:1023BB00F5D67CB7F5D7293700057E34FEA27E24EF
:1023CB00007E7A1B3029B700067005A9C48E8003E6
:1023DB00A9D48EE422A5BF0361A9C3DD29A70001FF
:1023EB00BEA002280374FF224CAA7806A9C1DDA95E
:1023FB00C2DDBEA0017806A9D1DDA9C2DDBEA00257
:10240B007803A9D2DD297700022E70FFA990DD6930
:10241B003700030A56F5D47CB7F5D5293700057E6E
:10242B0034FEA37E24007E7A1B3029B7000670058C
:10243B00A9C3DD8003A9D3DDE422A5BF0461A9C72D
:10244B00DD29A70001BEA002280374FF224CAA7845
:10245B0006A9C5DDA9C6DDBEA0017806A9D5DDA9F3
:10246B00C6DDBEA0027803A9D6DD297700022E7047
:10247B00FFA994DD693700030A56F5D27CB7F5D373
:10248B00293700057E34FEA47E24007E7A1B30297A
:10249B00B700067005A9C7DD8003A9D7DDE4227458
:1024AB00FF22CAB8CA1BCA0BC0D17E34FA127E24D3
:1024BB00007E7E1BB030E00A7E1BB054FE7A1BB050
:1024CB00D20F7E34FA027E24007E7E1BB030E018E1
:1024DB007E1BB054FE7A1BB0D210300904C209D255
:1024EB000E300804C208D20C7E34FA327E24007EF1
:1024FB007E1BB030E00A7E1BB054FE7A1BB0D203B9
:10250B007E1BB030E2087E1BB054FB7A1BB07E34CE
:10251B00FA3A7E24007E7E1BB030E00A7E1BB0545C
:10252B00FE7A1BB0D2007E1BB030E1087E1BB0548C
:10253B00FD7A1BB07E34FA427E24007E7E1BB030C7
:10254B00E00A7E1BB054FE7A1BB0D2057E1BB03066
:10255B00E2087E1BB054FB7A1BB07E34FA4A7E2411
:10256B00007E7E1BB030E00A7E1BB054FE7A1BB09F
:10257B00D2017E1BB030E1087E1BB054FD7A1BB03C
:10258B007E34FA527E24007E7E1BB030E00A7E1B26
:10259B00B054FE7A1BB0D2067E1BB030E2087E1B15
:1025AB00B054FB7A1BB07E34FA5A7E24007E7E1B1D
:1025BB00B030E00A7E1BB054FE7A1BB0D2027E1BF9
:1025CB00B030E1087E1BB054FD7A1BB07E34FA624A
:1025DB007E24007E7E1BB030E00A7E1BB054FE7A58
:1025EB001BB0D2077E1BB030E2087E1BB054FB7AC7
:1025FB001BB07E34FA6A7E24007E7E1BB030E00A6C
:10260B007E1BB054FE7A1BB0D2047E1BB030E108A7
:10261B007E1BB054FD7A1BB07E34FA227E24007EE2
:10262B007E1BB030E0147E1BB054FE7A1BB0A93475
:10263B00CE06D212D2A28002D2117E1BB030E1089C
:10264B007E1BB054FD7A1BB07E1BB030E2087E1BA4
:10265B00B054FB7A1BB07E34FE537E24007E7E1B6F
:10266B00B030E006E47A1BB0C2217E34FA727E24CD
:10267B00007E7E1BB030E037300D05C20DE48020AC
:10268B007E1707061B147A1707064D117810E47E88
:10269B0014FA717E04007E7A0BB0D2B4800D74A054
:1026AB007E14FA717E04007E7A0BB0E47A1BB0D0F4
:1026BB00D1DA0BDA1BDAB832CA3B7F30A933971663
:1026CB0074C87AB306B17EB306B1147AB306B16897
:1026DB00192016F2801474C87AB306B17EB306B112
:1026EB00147AB306B168032015F27E3B707CB720D9
:1026FB00E7030227C769130003690300012F002FAB
:10270B00002F007A0F06AC7408CAB87CB723237C61
:10271B006B5E60017CB6030354C05E700F4C7B4E46
:10272B007080DAB812006E74097E1F06AC7C7412CE
:10273B00006E740A7E1F06AC7C7512006E740B7EE5
:10274B001F06AC7C7612006E74087E1F06AC12005E
:10275B006E74017AB306B0E480277EA306B07CBA10
:10276B00047AB306B07CBA540324087EA306B10ADC
:10277B003A2D377D262971000512006E7EB306B106
:10278B00047AB306B17E3BB0540FBEB306B1282119
:10279B007E7306B1BE700840C180167EA306B07C66
:1027AB00BA047AB306B07CBA540324086C771200CF
:1027BB006E7EB306B0540378E202287969330003C6
:1027CB006923000174052F111478FB6D227A1F0603
:1027DB00AC7408CAB87E3BB023237C6B5E60017C73
:1027EB00B6030354C07E3B705E700F4C7BDAB8129D
:1027FB00006E74097E1F06AC7C7612006E740A7E26
:10280B001F06AC12006E74037AB306B0E480277E09
:10281B00A306B07CBA047AB306B07CBA540324087E
:10282B007EA306B10A3A2D377D26297100051200C9
:10283B006E7EB306B1047AB306B17E3BB0540FBEC5
:10284B00B306B128217E7306B1BE700840C1801655
:10285B007EA306B07CBA047AB306B07CBA540324C8
:10286B00086C7712006E7EB306B0540378E27401E5
:10287B007E700412006EA9339704D2168002D21513
:10288B00DA3B227F7014BEB00A4003022A087EA0F6
:10289B0003A49028A1730228BF0228D40228EA02BD
:1028AB00290002291602292C022942022958022941
:1028BB006E0229B80B7A107E34FED57E24007E7A08
:1028CB001B207E34FED6022A01691700027E34FEDD
:1028DB00D77E24007E7A1B207E34FED8022A016923
:1028EB001700047E34FED97E24007E7A1B207E34B2
:1028FB00FEDA022A01691700067E34FEDB7E240015
:10290B007E7A1B207E34FEDC022A01691700087ECA
:10291B0034FEF57E24007E7A1B207E34FEF6022ADE
:10292B00016917000A7E34FEF77E24007E7A1B2095
:10293B007E34FEF8022A016917000C7E34FEF97E04
:10294B0024007E7A1B207E34FEFA022A01691700CE
:10295B000E7E34FEFB7E24007E7A1B207E34FEFC32
:10296B00022A010B7A107E34FED57E24007E7A1B60
:10297B00207E34FED67A1B30691700027E34FED7D8
:10298B007A1B207E34FED87A1B30691700047E3404
:10299B00FED97A1B207E34FEDA7A1B3069170006CB
:1029AB007E34FEDB7A1B207E34FEDC804969170007
:1029BB00087E34FEF57E24007E7A1B207E34FEF6E4
:1029CB007A1B306917000A7E34FEF77A1B207E349F
:1029DB00FEF87A1B306917000C7E34FEF97A1B2047
:1029EB007E34FEFA7A1B306917000E7E34FEFB7ABA
:1029FB001B207E34FEFC7E24007E7A1B3022CAD83C
:102A0B00CA797F7029D70002BED063280574FF02F4
:102A1B002B7B29E70003BEE00C280574FF022B7B00
:102A2B0029F70004BEF01F280574FF022B7B2987B2
:102A3B000005BE8017280574FF022B7B2997000623
:102A4B00BE903B280574FF022B7B29070007BE00B5
:102A5B003B280574FF022B7B29170008BE107F282B
:102A6B000574FF022B7B29270009BE20172805744C
:102A7B00FF022B7B2937000ABE303B280574FF026F
:102A8B002B7B29A7000BBEA03B280574FF022B7BD9
:102A9B0029B7000CBEB07F280574FF022B7B7E3458
:102AAB00FE687E24007E7A1BD07E34FE697A1BE0A2
:102ABB007E34FE6A7A1BF07E34FE6B7A1B807E348A
:102ACB00FE6C7A1B907E34FE6D7A1B007E34FE6E9C
:102ADB007A1B107E34FE647A1B207E34FE657A1BD3
:102AEB00307E34FE667A1BA02937000C7E34FE67DD
:102AFB007A1B3029B70001701F74807E34FE047E70
:102B0B0024007E7A1BB07E34FE047E24007E7E1B66
:102B1B00B030E0F27403801D74C07E34FE087E2456
:102B2B00007E7A1BB07E34FE087E24007E7E1BB0B6
:102B3B0030E0F274017E34FE617E24007E7A1BB09D
:102B4B007E7BB0B4011D74017E34FE607E24007E5A
:102B5B007A1BB07E34FE617E24007E7E1BB020E0AB
:102B6B00F2800CE47E34FE607E24007E7A1BB0E49F
:102B7B00DA79DAD822CA3B7F3014BEB00A4003029E
:102B8B002CF17EA003A4902B9573022BB3022BC5C3
:102B9B00022BD9022BED022C01022C15022C29023F
:102BAB002C3D022C51022CA174D50B3A300A361253
:102BBB0075FE74D60B3A30022C9C74D76933000225
:102BCB000A361275FE74D869330002022C9C74D934
:102BDB00693300040A361275FE74DA693300040295
:102BEB002C9C74DB693300060A361275FE74DC69A3
:102BFB00330006022C9C74F5693300080A361276F2
:102C0B002374F669330008022CEE74F76933000A5B
:102C1B000A3612762374F86933000A022CEE74F923
:102C2B006933000C0A3612762374FA6933000C02EE
:102C3B002CEE74FB6933000E0A3612762374FC6992
:102C4B0033000E022CEE74D50B3A300A361275FE99
:102C5B0074D60B3A301275FE74D7693300020A36FC
:102C6B001275FE74D8693300021275FE74D969337C
:102C7B0000040A361275FE74DA693300041275FE0D
:102C8B0074DB693300060A361275FE74DC69330097
:102C9B00061275FE805074F5693300080A361276F9
:102CAB002374F66933000812762374F76933000A2C
:102CBB000A3612762374F86933000A12762374F9F4
:102CCB006933000C0A3612762374FA6933000C123E
:102CDB00762374FB6933000E0A3612762374FC6973
:102CEB0033000E127623DA3B22CA3B7F3074017A13
:102CFB00B30685740C127E507AB3068030E760748D
:102D0B000D127E507AB30681740E127E507AB30682
:102D1B0082740F127E507AB3068374057AB30685DC
:102D2B00740C127E507AB306847EA306820A3A7D17
:102D3B00036D117EA306817C4A6C556D332F107E7B
:102D4B00A306836D007C2A2F010A3B6D222F107482
:102D5B00031E341E2450034E60801478F4803074AC
:102D6B000D127E507AB3068174037AB30685740E06
:102D7B00127E507AB306827EA306817C4A6C550A7A
:102D8B003B2D321E341E341E341E341E346D2279FC
:102D9B00330003792300017EB30680237C6B5E60D6
:102DAB00017CB60354807E3B705E707F4C7B7A3B1C
:102DBB00707EB3068023237C6B5E60017CB60303BD
:102DCB0054C07E3B705E70BF4C7B7A3B707E63065B
:102DDB00805E600F7E3B705E70F04C767A3B70E4E9
:102DEB0080277EA306857CBA047AB306857CBA5409
:102DFB0003240C127E507EA3067F0A3A2D377D26C4
:102E0B0039B100057EB3067F047AB3067F7E3BB0F3
:102E1B00540FBEB3067F281F7E73067FBE7008401B
:102E2B00C180147EA306857CBA047AB306857CBA6E
:102E3B005403240C127E507EB30685540378E4DAD7
:102E4B003B227C7BA5BF01028003022EDFE5985459
:102E5B003F4440F598A9D787C299D29CD2AC7E0B40
:102E6B00B0B4010F7E34FDC07E24007E7E1BB044C7
:102E7B0080800D7E34FDC07E24007E7E1BB0547F8F
:102E8B007A1BB029B00001B4010F7E34FDC47E243F
:102E9B00007E7E1BB04420800D7E34FDC47E24005A
:102EAB007E7E1BB054DF7A1BB029B00002B4010F39
:102EBB007E34FDC47E24007E7E1BB04410800D7ECC
:102ECB0034FDC47E24007E7E1BB054EF7A1BB0749D
:102EDB0001022F7CA5BF02028003022F85E59A54C5
:102EEB003F4450F59AA9D28EA9D48EA9D0AF7E3487
:102EFB00FDB47E24007E7E1BB044807A1BB07E0B1B
:102F0B00B0B4010F7E34FDC87E24007E7E1BB0441E
:102F1B0080800D7E34FDC87E24007E7E1BB0547FE6
:102F2B007A1BB029B00001B4010F7E34FDCC7E2496
:102F3B00007E7E1BB04420800D7E34FDCC7E2400B1
:102F4B007E7E1BB054DF7A1BB029B00002B4010F98
:102F5B007E34FDCC7E24007E7E1BB04410800D7E23
:102F6B0034FDCC7E24007E7E1BB054EF7A1BB074F4
:102F7B000269300003126272E42274FF22CA7BCA18
:102F8B006BCA5BCA4BCA79CA2BCA1BCA0BC0D1C04E
:102F9B00D0C083C0827E34FEBB7E24007E7E1BF0BD
:102FAB007EE1975397F77403127E507CAB5404B4B5
:102FBB00041874037E34FEBB7E24007E7A1BB0742F
:102FCB00047E34FEBC7A1BB0C2157CBA5408B4081C
:102FDB001874037E34FEBB7E24007E7A1BB074080B
:102FEB007E34FEBC7A1BB0D2137CBA5440B440166C
:102FFB0074037E34FEBB7E24007E7A1BB074407E4D
:10300B0034FEBC7A1BB07CBA5420B42026E47E1468
:10301B00FEBB7E04007E7A0BB07E34FEBC7E2400A9
:10302B007E7E1BB054FB7A1BB074037A0BB07420FA
:10303B007A1BB07CBA5410B4101674037E34FEBBEA
:10304B007E24007E7A1BB074107E34FEBC7A1BB0DB
:10305B007CBA5402B4021674037E34FEBB7E240089
:10306B007E7A1BB074027E34FEBC7A1BB07CBA54E1
:10307B0001B4011674037E34FEBB7E24007E7A1BE2
:10308B00B074017E34FEBC7A1BB07AE1977E34FEBD
:10309B00BB7E24007E7A1BF0D082D083D0D0D0D1DF
:1030AB00DA0BDA1BDA2BDA79DA4BDA5BDA6BDA7BEF
:1030BB0032CA7BCA6BCA5BCA4BCA79CA2BCA1BCA38
:1030CB000BC0D1C0D0C083C0827E34FEBB7E240037
:1030DB007E7E1BF07EE1974397087403127E507C33
:1030EB00AB5404B4041874037E34FEBB7E24007E00
:1030FB007A1BB074047E34FEBC7A1BB0C2167CBA49
:10310B005408B4081874037E34FEBB7E24007E7A08
:10311B001BB074087E34FEBC7A1BB0D2147CBA543C
:10312B0040B4401674037E34FEBB7E24007E7A1BB3
:10313B00B074407E34FEBC7A1BB07CBA5420B420F1
:10314B0026E47E14FEBB7E04007E7A0BB07E34FE3A
:10315B00BC7E24007E7E1BB054FB7A1BB074037ABA
:10316B000BB074207A1BB07CBA5410B410167403D5
:10317B007E34FEBB7E24007E7A1BB074107E34FE40
:10318B00BC7A1BB07CBA5402B4021674037E34FEB4
:10319B00BB7E24007E7A1BB074027E34FEBC7A1B8D
:1031AB00B07CBA5401B4011674037E34FEBB7E248A
:1031BB00007E7A1BB074017E34FEBC7A1BB07AE1C0
:1031CB00977E34FEBB7E24007E7A1BF0D082D083A8
:1031DB00D0D0D0D1DA0BDA1BDA2BDA79DA4BDA5B17
:1031EB00DA6BDA7B32CA3B7A1F06577AB306567F05
:1031FB0030BE38000078030233097EB30656BEB0EA
:10320B001040030233097EA003A4903219730232DB
:10321B004902325102325902326102326902327171
:10322B0002327902328102328902329102329902E0
:10323B0032A10232A90232B10232B90232BF43913A
:10324B00015392FE806E4391025392FD806643912F
:10325B00045392FB805E4391085392F7805643913F
:10326B00105392EF804E4391205392DF804643914F
:10327B00405392BF803E43918053927F803643935D
:10328B00015394FE802E4393025394FD8026439367
:10329B00045394FB801E4393085394F78016439377
:1032AB00105394EF800E4393205394DF8006439387
:1032BB00405394BF741F7AB3065B740F7AB3065CEA
:1032CB00E47AB3065D7AB3065E74017AB3065F7E69
:1032DB0008065B1255BB7401127FA06D3379330066
:1032EB00019F1179330009792300077E1F06577957
:1032FB00330005792300037E7306567A3B70DA3B65
:10330B0022CA3B7F30E47AB3063D7E54836C7E4405
:10331B0000FF6932000669220004691200020B2AC1
:10332B00007A1F06427A0F063E9F117A1F064674DB
:10333B00937E08063D1200F67EB3063D30E0F07436
:10334B00397E70947E08063E7E2400081249917ED9
:10335B006306416C777E5306407C46E41204187971
:10336B003300021B3A207E6306437E5306427C46A3
:10337B00E412041879330006792300047E630645B2
:10338B007E5306447C46E41204187933000A7923F1
:10339B000008691300066903000469F300020B3A85
:1033AB00E07F171201F46913000A69030008120188
:1033BB00F47A1F06464D2368597E0F06467F171277
:1033CB00034C6D117E0442C81202AC793300021B10
:1033DB003A2069330006692300047E0F0646120368
:1033EB004C6D117E0442C81202AC7933000679236E
:1033FB0000046933000A692300087E0F0646120396
:10340B004C6D117E0442C81202AC7933000A792349
:10341B000008DA3B22127E3D74FF7E0806E77E70C1
:10342B000112801970097EB306E7BEB015680374EC
:10343B00012274097E0806E87E7001128019600370
:10344B007402227EB306E844407AB306E874097E20
:10345B007306E812002E60037402227E34000A12F7
:10346B007C1274027E70E012002E600374032274CF
:10347B00037E700212002E6003740422E47AB306FA
:10348B00E874067E7306E812002E6003740522743E
:10349B00047E7306E812002E600374052274057E09
:1034AB007306E812002E600374052274087E700FF9
:1034BB0012002E600374062274097E700312002E14
:1034CB006003740722740A7E702312002E6003744B
:1034DB000822740C7E703F12002E60037409227454
:1034EB000D7E703F12002E600374092274107E70E3
:1034FB007F12002E600374092274217E700112006A
:10350B002E6003740A22E47E0806E97E70011280A5
:10351B001974017E0806E97E700112801974017A14
:10352B00B3070AE422CAF87EF306077CBF5480B4C3
:10353B0080167EB3060A70307EB30609702A7E377A
:10354B00060DBE34000268030236287CBF540F14EC
:10355B00681B14683B0BB168030236287EB3060C5C
:10356B0070067EB3060B601E02362880197EB306EA
:10357B0011B4040F7EB3060C60030236287EB3062B
:10358B000B60030236287E344DBA7E2400FF807D0B
:10359B007EB30611B404067EB3060C6002807E7EF9
:1035AB0073060B7CA75EA00F1B7068362E707F68AE
:1035BB00040B7078687E2400017CBA60053E2414ED
:1035CB0078FB7E7306196C665C754D33680A7E3426
:1035DB004DBC7E2400FF80357E344DBA7E2400FF27
:1035EB00802B7E2400017CBA60053E241478FB7E80
:1035FB0073061A6C665C754D33680A7E344DBC7E5F
:10360B002400FF80087E344DBA7E2400FF7A1F060B
:10361B00157E3400027A37061380078000127FCAAA
:10362B008003127EE3DAF8227F70E47E34FA227E86
:10363B0024007E7A1BB0691700037E34FA277A1BAD
:10364B00207E34FA287A1B30691700057E34FA2560
:10365B007A1B207E34FA267A1B30693700077E14DA
:10366B00FA237E04007E7A0B700A167E34FA847A73
:10367B001B302967000ABE600338137E14FA297EBB
:10368B0004007E7E0B705E70FC4C767A0B7029B753
:10369B000001B4010F7E34FA207E24007E7E1BB025
:1036AB004440800D7E34FA207E24007E7E1BB05475
:1036BB00BF7A1BB029B70002B4010F7E34FA207E0B
:1036CB0024007E7E1BB04420800D7E34FA207E24A5
:1036DB00007E7E1BB054DF7A1BB029B70009B40102
:1036EB000F7E34FA297E24007E7E1BB04404800DAD
:1036FB007E34FA297E24007E7E1BB054FB7A1BB0ED
:10370B007E7BB0B4010F7E34FA217E24007E7E1BBB
:10371B00B04480800D7E34FA217E24007E7E1BB067
:10372B00547F7A1BB022CA59CA1BCA0BC0D17E3434
:10373B00FE827E24007E7E1BB054BF7A1BB07E348B
:10374B00FAAD7E1BB030E2087E1BB054FB7A1BB087
:10375B007E34FE847E24007E7E1BB030E60B7E1B07
:10376B00B054BF7A1BB00238227E1BB030E55A7EB4
:10377B001BB054DF7A1BB07EB306F46008E47AB357
:10378B0006F40238227EB306F36020E47AB306F324
:10379B007E14FE877E04007E7E0B307A3306F57E28
:1037AB003306F50A1309B1066880457E14FE877E41
:1037BB0004007E7E0BA07E3306F57CB3047AB30641
:1037CB00F50A1319A10668804E7E1BB030E42E7EDD
:1037DB001BB054EF7A1BB07E1BB030E10474FF803A
:1037EB000F7EB306F5047AB306F50A1B09B106681A
:1037FB007E14FE867E04007E7A0BB0801A7E1BB090
:10380B0030E3147E1BB054F77A1BB074017AB30605
:10381B00F47AB306F3D220D0D1DA0BDA1BDA5932B1
:10382B00CA3B7F307C7BA5BF001AA9C397E47E708F
:10383B000412006E7E3BB0B40105A9D1978026A976
:10384B00C1978021A5BF01028003023913A9D39729
:10385B00E47E700412006E7E3BB0B40105A9D297D2
:10386B008003A9C2977406CAB829B3000203035494
:10387B00C0297300032C7BDAB812006E7407CAB828
:10388B00296300067CB6C454F07C6B29B300040397
:10389B0054802C6B297300052C76DAB812006E74E9
:1038AB00102973000912006E74112973000A12009B
:1038BB006E74122973000B12006E74132973000CB3
:1038CB0012006E74142973000D12006E7415297397
:1038DB00000E12006E74162973000F12006E74170F
:1038EB002973001012006E74037E70FF12006E7449
:1038FB00042973000112006EE4296300073E60295E
:10390B007300084C7612006EC215C216DA3B227D8C
:10391B00437F700B7A301A261A247D141A081A006A
:10392B00120CE7740E7F511EB40EA450044EB480DB
:10393B00001478F369D7000A7D1D1A021A00693743
:10394B0000021A261A24120CE7740E1E340E245091
:10395B00034E60801478F42F516917000C1A021A69
:10396B0000693700041A261A24120CE7740E1E3451
:10397B000E2450034E60801478F42F516917000EFB
:10398B001A021A00693700061A261A24120CE77459
:10399B000E1E340E2450034E60801478F49F516930
:1039AB001700101A021A00693700081A261A241277
:1039BB000CE7740E1E340E2450034E60801478F402
:1039CB009F51BE587FFF08067E587FFF800ABE5C62
:1039DB00800058047E5C80007D3B79D7000C7947D2
:1039EB00000A6927000E7927001079B7000E22CA4A
:1039FB003B6CFFC2AF7E1F04A4D2AF6CEE80457E42
:103A0B00300CAC3E2E1404A86D0069D0000869C0C0
:103A1B0000067F719F766950000469400002BF72F7
:103A2B0040207F702EF400062F26795700021B7A58
:103A3B00407CAF0BF07E9004ACA95915050F5905CE
:103A4B00050D0BE07EB30508BCBE38B36CEE8050A1
:103A5B000A3E0B3480447E5004AC5E4912050F497C
:103A6B0002050D293000017ED004ACD74956050F55
:103A7B004946050D29620001BC63281C4912050F3C
:103A8B004902050D5952050F5942050D7404ACB787
:103A9B005915050F5905050D0B70BCF738B80BE020
:103AAB00BCFE38AC6CEE80147404ACBE4935050F0B
:103ABB004925050D6931000A99340BE0BCFE38E845
:103ACB00DA3B22CA79740E7E7001127E9C7414123A
:103ADB007DD97CFB30E60874147E7080127E9C7C52
:103AEB00BF20E003023B8F7E1406407E040001746E
:103AFB0021126BA97AB3060F7E1F064A4D2378035A
:103B0B00023B8D6CFF80737EB306101A3B7E0F0653
:103B1B004A2D317D207E1BA00A4F2E4406407A9100
:103B2B00827A81837EEBE0BCEA7839047AB30610A3
:103B3B007E7306101A372D317D207E1BB0703974C1
:103B4B00146C77127E9C75F40075DC00E47E34FEF9
:103B5B00077E24007E7A1BB07E34000A127C5A75D5
:103B6B00C76080FE7E1F064A7E1B70BCE77804741C
:103B7B00018001E47AB306100BF07E73060FBC7F55
:103B8B003885D217DA7922CA3B7F317A0F00087E4B
:103B9B005483747E4400FF69320004692200020BD7
:103BAB002A107A1F000E7A17000CE47AB300127EEB
:103BBB001800037A1F001B7AB3001F7E1F00084DED
:103BCB00237803023C51BE380000687AE47E08007B
:103BDB00127E70011280197EB300125440B440085B
:103BEB0074017AB3001F800E7E1F001B1B1C7A1FF3
:103BFB00001B4D2378D67EB3001F604A74077E08E6
:103C0B00000C7E70061280197E63000D6C777E535C
:103C1B00000C0A257E73000E6D227A1F00137E6343
:103C2B0000106C777E7300117A1F00177E0F001344
:103C3B007E1F0008791100021B1A007E1F001779E6
:103C4B003300021B3A20DA3B227F70E47E34FA0207
:103C5B007E24007E7A1BB0691700017E34FA077A46
:103C6B001B207E34FA087A1B30691700037E34FA66
:103C7B00057A1B207E34FA067A1B30693700057EE5
:103C8B0014FA037E04007E7A0B700A167E34FA80D7
:103C9B007A1B3029B70007B4010F7E34FA007E245B
:103CAB00007E7E1BB04420800D7E34FA007E240003
:103CBB007E7E1BB054DF7A1BB029B70008B4010F0E
:103CCB007E34FA007E24007E7E1BB04410800D7E75
:103CDB0034FA007E24007E7E1BB054EF7A1BB07E3C
:103CEB007BB0B4010F7E34FA017E24007E7E1BB0C4
:103CFB004480800D7E34FA017E24007E7E1BB054FE
:103D0B007F7A1BB0227F70E47E34FE537E24007ECC
:103D1B007A1BB029B70001B4010F7E34FE507E240C
:103D2B00007E7E1BB04401800D7E34FE507E24004D
:103D3B007E7E1BB054FE7A1BB029B70002B4020F73
:103D4B007E34FE507E24007E7E1BB04402800D7EAE
:103D5B0034FE507E24007E7E1BB054FD7A1BB029AE
:103D6B00670003BE600738173E603E607E14FE514D
:103D7B007E04007E7E0B705E70E34C767A0B7029AE
:103D8B00670004BE600338137E14FE517E04007E70
:103D9B007E0B705E70FC4C767A0B707E7BB0B40140
:103DAB000F7E34FE527E24007E7E1BB04480800D3D
:103DBB007E34FE527E24007E7E1BB0547F7A1BB075
:103DCB00227F7029B70002B401487E14FE807E0466
:103DDB00007E7E0BB044407A0BB0E47E34FE827ED4
:103DEB0024007E7A1BB07E7B605E603F7E0B705E34
:103DFB0070C04C767A0B7029B70003B4010A7E347D
:103E0B00FE887E24007E80457E34FE887E24007EE4
:103E1B0080347E34FE807E24007E7E1BB054BF7ABD
:103E2B001BB0E47E34FE847A1BB0292700043E20AD
:103E3B007E34FE857E1B305E30014C327A1B30297E
:103E4B00B70005B401077E1BB054FE80057E1BB086
:103E5B0044017A1BB029B70001700F7E34FE807EBF
:103E6B0024007E7E1BB0547F800D7E34FE807E242A
:103E7B00007E7E1BB044807A1BB0227F517F60BED8
:103E8B006800006815691600020B6A00BE08000086
:103E9B006808693600044D3378039F112269360098
:103EAB00063E343E342D317D20691100020B1A0081
:103EBB007F762EF4000A693700020B7A201201F18B
:103ECB00793700021B7A20691600063E143E1469EE
:103EDB003600020B6A202D3179B100021B1AA07F2C
:103EEB00762EF4000A693700020B7A207F05120147
:103EFB00F4793700021B7A20693600060B346926E9
:103F0B0000048D3279260006692600046936000804
:103F1B00BD32500B7F062E1400080B341B0A306980
:103F2B00260008E41204187F016936000C6926008C
:103F3B000A02034CCA3B7F717F307E0F062D7E3405
:103F4B000FDA7E2440C91202AC7F0712034C7A1F92
:103F5B0006351205CD6D117E04C0001202AC7A1F1E
:103F6B0006397E1F06351205CD7F617E7F06316DCA
:103F7B00337E24C0007F071202AC7F061202AC7F97
:103F8B00617F177F071202AC7F717E3440001B3AB2
:103F9B00306D117E0446807E1F06391202AC12046E
:103FAB0050793300027E344000793300046D117E6A
:103FBB000446807F161202AC120450793300066D52
:103FCB00117E0446807F171202AC12045079330025
:103FDB00086D337933000A7933000C7933000E798D
:103FEB00330010DA3B227F70E47E34FA9A7E240091
:103FFB007E7A1BB0691700037E34FA9D7A1B207EF4
:10400B0034FA9E7A1B30693700017E14FA9B7E04CA
:10401B00007E7A0B700A167E34FAA87A1B307E3437
:10402B00FAA27A1BB0691700087E34FAA57A1B2016
:10403B007E34FAA67A1B30693700067E14FAA37A0F
:10404B000B700A167E34FAAA7A1B307E7BB0B40151
:10405B000F7E34FA997E24007E7E1BB04480800D47
:10406B007E34FA997E24007E7E1BB0547F7A1BB07F
:10407B0029B70005B4010F7E34FAA17E24007E7EA1
:10408B001BB04480800D7E34FAA17E24007E7E1B03
:10409B00B0547F7A1BB0227D437E3481017E240095
:1040AB00FF0B1A50BD5438076D337E24C220227E7D
:1040BB003482E17E2400FF0B1A50BD5440076D3350
:1040CB007E244348226DFF7D3F1A261A242F117F31
:1040DB00012E0400FF2E0881010B0A50BD54400F26
:1040EB002E2400FF2E1881030B1A50BD5428080BE9
:1040FB00F4BEF400F048D07D3F1A261A247F012F1E
:10410B00017F102E2400FF2E1881030B1A302E0472
:10411B0000FF2E0881010B0AE07D2E9D23E4120483
:10412B00187F017D2E9D24E412041812034C7F018D
:10413B007D2F2E24FFD87CB41204180201F47EB319
:10414B000611BEB00268207EB30607701A7EB30656
:10415B000A70147EB3060C700E7EB3060B70087ECD
:10416B0037060D4D336803027FCA7EB30609B401CF
:10417B005F74047AB30611E47AB306197AB3061A9C
:10418B00740E7E7001127E9C74127E7020127E9CC7
:10419B0074107E7008127E9C740E7E7002127E9CD0
:1041AB0074127E7020127E9C74107E7008127E9C9E
:1041BB00740E7E7001127E9C74126C77127E9C744E
:1041CB00137E7008127E9C740E6C77127E9C80108E
:1041DB0074037AB3061174FF7AB306197AB3061A0D
:1041EB000280007EB30611B404247EB30607B4022A
:1041FB001D7EB3060C60030242877EB3060A707CF9
:10420B007EB3060970767E37060D4D336802806CDF
:10421B007E63060B7C765E700F1B60682F2E607FB3
:10422B0068040B6078567E2400017CB760053E2441
:10423B001478FB7C656E60FF5E6306197A63061962
:10424B00740E127E9C74117E704080247E240001BB
:10425B007CB760053E241478FB7C656E60FF5E6363
:10426B00061A7A63061A740E127E9C74147E708082
:10427B00127E9C740E6C77127E9C8003027FCA02A6
:10428B0080007EB306075480BEB0806803024318DB
:10429B007EB3060A1BB168191468280BB1786E7EC1
:1042AB00344D657E2400FF7A1F06157E3400128084
:1042BB00547E344D777E2400FF7A1F06157E340022
:1042CB004380427EB306091468191468280BB17831
:1042DB003C7E344D617E2400FF7A1F06157E340030
:1042EB000480227E344DBE7E2400FF7A1F06157E8D
:1042FB0034000880107E344D437E2400FF7A1F0665
:10430B00157E34001E7A37061380058000027FCAA3
:10431B007E37060DBE37061350047A370613027E1E
:10432B00E3CA3B7A3706D27F306D337A3706D50234
:10433B0043BD74387AB306D47E3706D2BE34003808
:10434B0050047A7306D4127BAF7E7306D40A572EB1
:10435B00540003900604F074CF900605F07E170608
:10436B00D57E3406067E2400011B1A107E7306D4FC
:10437B000A37CA397F137E1406087E0400011276B1
:10438B00481BFD7E7306D40A372E3400080A3712F9
:10439B0051017E7306D40A372D737E7306D40A2718
:1043AB002E3706D57A3706D57E3706D29D327A3729
:1043BB0006D27E3706D24D33680302433DDA3B22E9
:1043CB00CA3B7A3706CD7F306D337A3706D002443D
:1043DB005C74387AB306CF7E3706CDBE34003850C6
:1043EB00047A7306CF127BC87E7306CF0A572E54FE
:1043FB000003900604F074AF900605F07E1706D00C
:10440B007E3406067E2400011B1A107E7306CF0A2B
:10441B0037CA397F137E1406087E040001127648D2
:10442B001BFD7E7306CF0A372E3400080A37125154
:10443B00017E7306CF0A372D737E7306CF0A272EA4
:10444B003706D07A3706D07E3706CD9D327A3706BF
:10445B00CD7E3706CD4D3368030243DCDA3B22CAEF
:10446B003B6D777D27E41204187E140FDA7E04C0AF
:10447B00C91202AC6D117E04438012034C7A1F06E5
:10448B00DF1205CD7F017D373E343E342E340400E0
:10449B007A71827A6183791E00021BEA207E1F06E5
:1044AB00DF1205EA7F017D373E343E342E340000A7
:1044BB007A71827A6183791E00021BEA200B74BE2B
:1044CB00740080789E6D667E7401000B641E74BE52
:1044DB0074000138F66D777D377D2612779F7D232B
:1044EB007D373E342E3402007A71827A61831BEA67
:1044FB00200B74BE74010040DEDA3B227EB3061142
:10450B00B404247EB30607B4021D7EB3060C60030D
:10451B0002459A7EB3060A70767EB3060970707EEA
:10452B0037060D4D33680280667E63060B7C765E24
:10453B00700F1B60682C2E607F68040B6078507EB8
:10454B002400017CB760053E241478FB7C654E6328
:10455B0006197A630619740E127E9C74117E701004
:10456B0080217E2400017CB760053E241478FB7CFF
:10457B00654E63061A7A63061A740E127E9C7414C7
:10458B007E7020127E9C740E6C77127E9C800302D0
:10459B007FCA0280007C267C377C6BBE600A2803B6
:1045AB0074FF22BE2003280374FF222E60F66839A5
:1045BB000B60786A7E34FEC47E24007E7A1B30A5A5
:1045CB00BA0006A9C2B6A9C2B5A5BA0106A9C2B658
:1045DB00A9D2B5A5BA0206A9D2B6A9C2B5A5BA0386
:1045EB0048A9D2B6A9D2B580407E34FEE47E240021
:1045FB007E7A1B30A5BA0006A9C3B6A9C3B5A5BA66
:10460B000106A9C3B6A9D3B5A5BA0206A9D3B6A903
:10461B00C3B5A5BA0313A9D3B6A9D3B5800B7E3402
:10462B00FEE47E24007E7A1B30E4227D436C550A27
:10463B003B1B347C670B0A50BD54400569300002AC
:10464B00227404ACB67F702DF50B7A50BD5438260E
:10465B006937000222801F0AF60A552D5F0E547C23
:10466B007B7404ACB77F702DF50B7A50BD542804C6
:10467B007C6780027C570AF50A569D5FBE54000189
:10468B0018D57E70047CB5ACB77F602DD50B6AE076
:10469B007CB6ACB77F102D350B1A1069F60002698A
:1046AB00210002BDE178037D3F229D2F7D349D3E8D
:1046BB00AD329D1E120CF87F017D3F6D222F102213
:1046CB0074FD127C727E34000A127C127E080694F2
:1046DB0074061257287E0806947402126CF9BEB346
:1046EB000696786F7E0806977402126CF9BEB306B5
:1046FB009978607E6306946C777E5306957C467E34
:10470B006306977E3306980AD34DD3E41204187EC2
:10471B00F4FF007EE4477F7F0712034C6D117E048C
:10472B00432F1202AC6D117E04C2341201F47A1FB6
:10473B0006647D2DE41204187F0712034C6D117E65
:10474B000442FA1202AC6D117E04C0C01201F47A5D
:10475B001F066022CA7BCA6BCA5BCA4BCA2BCA1B19
:10476B00CA0BC0D1C0D0C083C082A9309A53A9C094
:10477B009A7E34FDCC7E24007E7E1BB030E102D2CB
:10478B001D54C06805E47AB3002D7E1BB054347AF7
:10479B001BB07E73002DBE70804005E47AB3002DF4
:1047AB007EA19B7E73002D7CB7047AB3002D0A3754
:1047BB0019A300B974057AB3002E74016C771263D8
:1047CB00DBA9319A08A9C19AE47AB3002CD082D024
:1047DB0083D0D0D0D1DA0BDA1BDA2BDA4BDA5BDAF7
:1047EB006BDA7B32CA3B7A2706A27F307A7306A13B
:1047FB007AB306A0BE38000068087E3706A24D3398
:10480B007804740180681277BE7EB306A03EB012A6
:10481B0056CF50557EB306A11256CF504C1277BED1
:10482B007EB306A03EB044011256CF503C6D338090
:10483B00247E3706A21B34BE3706A42804D21F8061
:10484B0002C21F12582E7F132E3706A47A1BB07E7E
:10485B003706A40B347A3706A47E3706A2BE37067A
:10486B00A438CE127833E480051278337401DA3B26
:10487B00227CA7BEB001280374FF22BE600328036D
:10488B0074FF2214683A04786EBEA0017805A9D192
:10489B00F18003A9C1F1A5BE0006A9C3F1A9C0F11E
:1048AB00A5BE0106A9C3F1A9D0F1A5BE0206A9D3E5
:1048BB00F1A9C0F1A5BE0342A9D3F1A9D0F1803A69
:1048CB00BEA0017805A9D5F18003A9C5F1A5BE004D
:1048DB0006A9C7F1A9C4F1A5BE0106A9C7F1A9D4C0
:1048EB00F1A5BE0206A9D7F1A9C4F1A5BE030BA978
:1048FB00D7F1A9D4F1800374FF22E422CAF8740E15
:10490B006C77127E9C7411127DD97CFB30E20F7494
:10491B00117C7F5E70FB127E9CE47AB306127CBF27
:10492B0030E40A74117C7F4E7080127E9C7EB3063D
:10493B001224FD68461468480BB278477CBF30E000
:10494B00427E0806077420126BA97E37060D126D86
:10495B00987A37060D7EB30607546024E0680D2461
:10496B00E0680E2440780F12561880171279B98020
:10497B0012120056800D127FCA800812524180031A
:10498B00125BF1DAF822CA3B7A27069C7F307A73E6
:10499B00069B7AB3069A1277BE7EB3069A3EB01286
:1049AB0056CF400712783374FF80617EB3069B129B
:1049BB0056CF400712783374FE80511277BE7EB308
:1049CB00069A3EB044011256CF400712783374FD5D
:1049DB00803A6D3380247E37069C1B34BE37069E8F
:1049EB002803D38001C3921F12582E7F132E370634
:1049FB009E7A1BB07E37069E0B347A37069E7E3727
:104A0B00069CBE37069E38CE127833E4DA3B22A2E0
:104A1B00B2E43378046CAA80037EA0017EB306C493
:104A2B0014681D1468350BB1786D4CAA7869740144
:104A3B007AB306C46D337A3706C6E47AB306C52259
:104A4B004CAA78147E3706C60B347A3706C6BE34AA
:104A5B00000240437402803BE480384CAA78277EE6
:104A6B003706C60B347A3706C67EB306C570287E6A
:104A7B003706C6BE340032401E74017AB306C574C5
:104A8B00027AB306C3227EB306C5700674017AB3ED
:104A9B0006C3E47AB306C422CA3B7A3705367F30A5
:104AAB007E3400C87A37053BA9C7AF740E7E700100
:104ABB00127E9C6D337A3705397E270536BE24006E
:104ACB004008057E704080027C757A73053874113E
:104ADB00127DD930E0107E37053B7D231B247A27CE
:104AEB00053B4D3378E87F032E1705397EB3053828
:104AFB007E7001127DC47E7305380A277D322E37F6
:104B0B0005397A3705397E3705369D327A370536C2
:104B1B007E730538BE704050A0D219A9D7AFDA3BCF
:104B2B0022CA3B7A1F061B7F306D337A37061F7EF6
:104B3B0037061F3E343E343E347F032D1369D000BD
:104B4B00020B0AC07A6F0621693000066920000447
:104B5B007A1F06257F011202AC7F717F167F06122A
:104B6B0002AC7F071201F47A1F06299F779F001270
:104B7B0003CD50047A7F06297E1F06291204F57F88
:104B8B00017E57061F3E543E547E1F061B2D357962
:104B9B001100021B1A007E37061F0B347A37061FD3
:104BAB00BE3401004089DA3B22CAB8CA1BC0D17E91
:104BBB0034FEC57E24007E7E1BB030E0087E1BB029
:104BCB0054FE7A1BB07E1BB030E1087E1BB054FD47
:104BDB007A1BB07E1BB030E2087E1BB054FB7A1BF5
:104BEB00B07E1BB030E3087E1BB054F77A1BB07E4F
:104BFB001BB030E4087E1BB054EF7A1BB07E1BB0A9
:104C0B0030E5087E1BB054DF7A1BB07E1BB030E65C
:104C1B00087E1BB054BF7A1BB07E1BB030E7087EFA
:104C2B001BB0547F7A1BB0D0D1DA1BDAB832CAB8BA
:104C3B00CA1BC0D17E34FEE57E24007E7E1BB030C5
:104C4B00E0087E1BB054FE7A1BB07E1BB030E1082F
:104C5B007E1BB054FD7A1BB07E1BB030E2087E1B6E
:104C6B00B054FB7A1BB07E1BB030E3087E1BB054F4
:104C7B00F77A1BB07E1BB030E4087E1BB054EF7A82
:104C8B001BB07E1BB030E5087E1BB054DF7A1BB027
:104C9B007E1BB030E6087E1BB054BF7A1BB07E1B68
:104CAB00B030E7087E1BB0547F7A1BB0D0D1DA1B33
:104CBB00DAB83253B2FC43B10374807E34FE077E04
:104CCB0024007E7A1BB07E34FE077E24007E7E1B82
:104CDB00B030E0F275DC0075F490E46C77127E9CDA
:104CEB0074017E7008127E9C74077E703F127E9C4E
:104CFB0074097E703F127E9C740B7E7007127E9C33
:104D0B0074016C77127E9C74027AB30611E47AB349
:104D1B0006127AB306197AB3061A7E3401007E2482
:104D2B0000C27A1F068D7AB306917AB30692740885
:104D3B007AB30693A9D7AF221E0353005400430046
:104D4B002000550053004200200053006500720004
:104D5B00690061006C0004030904120100020200E7
:104D6B000040BF3402FF00010102000109024300B1
:104D7B000201008032090400000102020100052437
:104D8B000010010524010001042402020524060081
:104D9B0001070582034000FF09040100020A00001D
:104DAB0000070581024000000705010240000000DA
:104DBB0000010008035300540043007C267CA77CB1
:104DCB003BBE3001280374FF22A5BB01254CAA78FA
:104DDB000F7E34FE817E24007E7E1BB0547F800DBF
:104DEB007E34FE817E24007E7E1BB044807A1BB015
:104DFB008017A5BB00137E34FE837E24007E7E1BB2
:104E0B00305E30874C3A7A1B30BE2003382AA5BA65
:104E1B000006A9C5B6A9C5B5A5BA0106A9C5B6A907
:104E2B00D5B5A5BA0206A9D5B6A9C5B5A5BA030BC2
:104E3B00A9D5B6A9D5B5800374FF22E422CA7BCAD3
:104E4B006BCA5BCA4BCA3BCA2BCA1BCA0BC0D0C0AE
:104E5B0083C0827EF1FC7406127DD97CEB74021246
:104E6B007DD97CCB7404127DD97CDB7CBE30E10315
:104E7B0012002A7CBE30E20312658B7CBC30E0034F
:104E8B001249077CBC30E1031272507CBC30E20348
:104E9B001273AD7CBD30E103123ACE7CBE30E00321
:104EAB001200297AF1FCD082D083D0D0DA0BDA1B36
:104EBB00DA2BDA3BDA4BDA5BDA6BDA7B32CA3B7A28
:104ECB002706C07F307A7306BF7AB306BE1277BE51
:104EDB007EB306BE3EB01256CF7EB306BF1256CF80
:104EEB001277BE7EB306BE3EB044011256CFE480AD
:104EFB0017D21F12582E7EA306C20A3A2D377D26D3
:104F0B007A1BB07EB306C2047AB306C27E2706C0F4
:104F1B001B247E7306C20A37BD3240D5C21F1258FE
:104F2B002E7EA306C20A3A2D377D267A1BB0127845
:104F3B0033DA3B22CA3B7F30BE3800007804740161
:104F4B00806412690B70047401805B74CC127AC795
:104F5B0074BE127AC7E47AB305161275417CAB7E28
:104F6B00B305160A4B19A4050D047AB30516B4093B
:104F7B00E97E08050D7408126DCD7E730515BC7B9B
:104F8B006804740280207E63050E7E53050D7C46FB
:104F9B007CB61204186D117E043D801202AC79337D
:104FAB0000021B3A20E4DA3B227F7053E63029B72C
:104FBB000006543FF5E77E7BB0B40103A9D7E62981
:104FCB00B70003B40103A9D1E629B70004B4010368
:104FDB00A9D7E729B700057003A9D6E72967000110
:104FEB00BE600338137E14FEAE7E04007E7E0B7013
:104FFB005E70FC4C767A0B7029670002BE6001383C
:10500B00173E603E607E14FEAE7E04007E7E0B700B
:10501B005E70FB4C767A0B70227F70E47E34FA72F2
:10502B007E24007E7A1BB0691700017E34FA777AF2
:10503B001B207E34FA787A1B30691700037E34FA12
:10504B00757A1B207E34FA767A1B30693700057E21
:10505B0014FA737E04007E7A0B700A167E34FA867D
:10506B007A1B307E7BB0B4010F7E34FA717E240044
:10507B007E7E1BB04480800D7E34FA717E24007ED0
:10508B007E1BB0547F7A1BB022CA3B7A2706A87FBF
:10509B00307A7306A77AB306A6BE38000068087E7E
:1050AB003706A84D337804740180481277BE7EB35F
:1050BB0006A63EB01256CF50357EB306A71256CF7A
:1050CB00502C6D3380147F132E3706AA7E1BB01223
:1050DB0056CF501A7E3706AA0B347A3706AA7E377C
:1050EB0006A8BE3706AA38DE127833E4800512789C
:1050FB00337401DA3B22CA3B7D737E3400C87A37A6
:10510B000700A9C7AF740E7E7001127E9C6D66BE40
:10511B0074004028057E704080027C7F7A7306FF06
:10512B007411127DD930E0107E3707007D231B24CC
:10513B007A2707004D3378E87D162E1406007E047F
:10514B0000017EB306FF7E7001127DC47E7306FFE5
:10515B000A272D629D72BE704050B4D219A9D7AFE9
:10516B00DA3B227CA77C3B7C271E207CB26CB70AE7
:10517B000B7CB71EB01EB00A4B6D407CB7C4540FEE
:10518B007C6B0A0B6D045E0400013E043E043E047E
:10519B003E043E043E047C717CBAC423541F6C2B2A
:1051AB000A220A466D427CBAC40354070A2B6D24AB
:1051BB006E24FFFF5E2400013E243E243E243E2449
:1051CB003E243E243E247CB34C7A4C750272AACA10
:1051DB003B7A6306FB7F307A7306FA7AB306F912D1
:1051EB007E027EB306F9127382127E7620D5417E43
:1051FB00B306FA127382127E7620D534127E027EAB
:10520B00B306F94401127382127E7620D5221276F0
:10521B00917A3BB00B747EB306FBBEB001680312F0
:10522B007F737EB306FB147AB306FB78E1127F82A1
:10523B00127F91DA3B22CAF8740E6C77127E9C7443
:10524B0011127DD920E1537E370613BE340040285E
:10525B00057EF04080027CF77E0F06157C7F742064
:10526B0012742B0A2F7E3706139D327A3706130AD8
:10527B00157E1F06152D317A1F06157E3706134D29
:10528B0033780F74117E700A127E9CE47AB3061287
:10529B00800874117E7002127E9CDAF8227F70BE39
:1052AB007800007802804D7E7BB014681714681E5E
:1052BB0014682514682C0BB2783AE58C7C4B6C5532
:1052CB00E58A8026E58D7C4B6C55E58B801CE5D6FD
:1052DB007C4B6C55E5D78012E5D47C4B6C55E5D5F2
:1052EB008008E5D27C4B6C55E5D30A3B4D327937C0
:1052FB00000580076D337E24BF802269270005E4FB
:10530B00020418CAF830175D900640E0B44B4274A3
:10531B0047900640F0744F900641F0744C90064253
:10532B00F07444900643F07445900644F0744E902C
:10533B000645F06CFF0A1F2E1406407E0400017E0A
:10534B0073060F0A37124AA30BF0BEF00678E680FD
:10535B00007E1406407E0400017E73060F0A37128E
:10536B004AA3127C42DAF822CA59CA1BC0D1309820
:10537B004BC2987E34FDC47E24007E7E1BB030E190
:10538B0002D21C54C06805E47AB300287E1BB054CB
:10539B00347A1BB07E730028BE70804005E47AB36C
:1053AB0000287EA1997E7300287CB7047AB300286D
:1053BB000A3719A3003974057AB30029309907C24B
:1053CB0099E47AB30027D0D1DA1BDA59327F70E433
:1053DB007E34FA127E24007E7A1BB0691700017EA0
:1053EB0034FA1B7A1B207E34FA1A7A1B30691700A9
:1053FB00037E34FA177A1B207E34FA187A1B302975
:10540B003700057E34FA197A1B307E7BB0B4010F5E
:10541B007E34FA117E24007E7E1BB04480800D7E8C
:10542B0034FA117E24007E7E1BB0547F7A1BB0228F
:10543B001274F51200267E3400087A37050D7E08AB
:10544B00053D7E18054F12567412747D7E347EAF67
:10545B007E08003274031259CE7E347E2A7E0803F6
:10546B00E874041259CE7E34001A7E0803E87401E6
:10547B001259CE7E34001E7E08001474021259CECF
:10548B007E3400217E08000A74021259CE1239FABA
:10549B0080FB7A1F06707E3406737E2400007E1B11
:1054AB00307E3406747E2400007A1B307E34067204
:1054BB007E2400007E1B307E3406757E2400007A2D
:1054CB001B307E3406717E2400007E1B307E34063A
:1054DB00767E2400007A1B307E3406707E2400001A
:1054EB007E1B307E3406777E2400007A1B307E1FB5
:1054FB000674227CABBEA00F2802805175BD0075CF
:10550B00BE00E5BC54F04CBAF5BCA9D6BC000000FB
:10551B00000000000000007E70FAA935BC2BA9C565
:10552B00BCA935DE0AE5BD7C6B6C77E5BE8013E567
:10553B00BD0A4B7D343E343E343E343E34E5BEC46E
:10554B00540F0A4B4D437D34221B7078CD7E3410A3
:10555B000022CA3B7A6306F27F307A7306F17AB384
:10556B0006F0127EF47EB306F0127CE5127F147EF9
:10557B00B306F1127CE5127F14127EF47EB306F0B3
:10558B004401127CE5127F1412784F7A3BB00B74F6
:10559B007EB306F2BEB0016803127C2A7EB306F21C
:1055AB00147AB306F278E1127B7D127F04DA3B2288
:1055BB007F7029A70001E5DE54F04CBAF5DE29B760
:1055CB0000027005A9C5DE8003A9D5DE7E7B20BE57
:1055DB00201F280374FF2229A70003BEA001280364
:1055EB0074FF2229370004BE3003280374FF227C8A
:1055FB00B3C42354E07C3B7CBA0354804C3B4C3209
:10560B007E34FEA87E24007E7A1B30E4227EB30615
:10561B0008BEB00D50507EA003A4905629730256BD
:10562B005002565302567102565602567102565983
:10563B0002565C02565F02566202566502566802BB
:10564B00566B02566E0235300241EE02450702627E
:10565B002802428D0200460258D60241490269C80F
:10566B000274A602004E027FCA7F717F20BE280003
:10567B00006850BE780000684A7E37050D4D3368D0
:10568B004279F200021B2AE07E37050D79320004C5
:10569B006D33793200069F117932000C7922000AA2
:1056AB007932000880159F227D233E243E247F07FC
:1056BB002D12795000021B0A400B347E27050DBDBD
:1056CB002338E322CA797CFB5395EF4396107EE097
:1056DB00087CBF30E70543A010800353A0EF128076
:1056EB00D243A0201280D253A0DF3EF01BE078E122
:1056FB004395105396EF1280D243A020E5A00A3BAE
:10570B005E3400107803D38001C3921E1280D253F3
:10571B00A0DF5395EF439610A21EDA7922CA3B7A8B
:10572B00B307027F301277BE74891256CFE480170D
:10573B00D21F12582E7EA307030A3A2D377D267AE5
:10574B001BB07EB30703047AB307037E7307020A09
:10575B00271B247E7307030A37BD3248D3C21F129F
:10576B00582E7EA307030A3A2D377D267A1BB012DB
:10577B007833DA3B22CAF87CF67EF4FE007EE40036
:10578B007E7E7B305E30F04C3B7A7B3053DC9F432C
:10579B00DC207CB70354807E7B705E707F4C7B7A01
:1057AB007B70E5DC547F4480F5DC7E340001127C99
:1057BB00127E34FE007E24007E7E1BB054BF44401C
:1057CB007A1BB07E34FE0B7A1BF0DAF822CAB8CA09
:1057DB001BCA0BC0D17E34FA727E24007E7E1BB0B6
:1057EB0030E037300D05C20DE480207E1707061B15
:1057FB00147A1707064D117810E47E14FA717E04A3
:10580B00007E7A0BB0D2B4800D74A07E14FA717E38
:10581B0004007E7A0BB0E47A1BB0D0D1DA0BDA1B22
:10582B00DAB832CA796CFF4395105396EF1280D2D7
:10583B007EE0083EF043A0201280D2E5A00A3B5E3A
:10584B0034001068034EF00153A0DF1280D21BE02E
:10585B0078E15395EF439610301F0553A0EF80036B
:10586B0043A0101280D243A0201280D253A0DF435A
:10587B00A0107CBFDA792229B00001B40105A9D7A9
:10588B00CE8003A9C7CE7E0B702E70FFA996CE29B2
:10589B007000022E70FFA995CE297000032E70FFA9
:1058AB00A994CE297000042E70FFA993CE29700005
:1058BB00052E70FFA992CE29A00006E5CE54FC4C14
:1058CB00BAF5CEE47AB30423C223227EB30607B41F
:1058DB0080227EB3060A701C7EB3060970167EB357
:1058EB00060C70107EB3060B700A7E37060DBE34A5
:1058FB0000016803027FCA7EB30611B4040A7E342A
:10590B004DBC7E2400FF80087E344DBA7E2400FF00
:10591B007A1F06157E3400017A370613027EE37C6C
:10592B00A77C7B30E105A9D5E68003A9C5E67CB74A
:10593B0030E005A9D4E68003A9C4E6BEA003382D48
:10594B004CAA7806A9C5B6A9C5B5BEA0017806A90B
:10595B00C5B6A9D5B5BEA0027806A9D5B6A9C5B559
:10596B00BEA003780BA9D5B6A9D5B5800374FF22C9
:10597B00E422CA3B7F707CF57CE67CD77CCBCA7B70
:10598B000A366D222F110A1F6D00120CE7DA0B126B
:10599B0043CB127BC87405900604F074A8900605DF
:1059AB00F09006067AEBC09006077AEBD0900608CB
:1059BB007AEBE09006097AEBF07E34000A12510183
:1059CB00DA3B227C5B7F707D437E430508BE40083B
:1059DB00400374FF22740CACB4194504A8740CACCE
:1059EB00B4195504A9740CACB459F504AC59E504BD
:1059FB00AA9F00740CACB4591504B0590504AE74CD
:105A0B000CACB4594504B27EB30508047AB305084F
:105A1B007CB4227C677C7BBE7001380EA5BF000571
:105A2B00A9C1F98008A9D1F9800374FF22BE6003D4
:105A3B00382AA5BE0006A9C3F9A9C0F9A5BE01065F
:105A4B00A9C3F9A9D0F9A5BE0206A9D3F9A9C0F932
:105A5B00A5BE030BA9D3F9A9D0F9800374FF22E4E7
:105A6B00227C677C7BBE7001380EA5BF0005A9C1E7
:105A7B00AF8008A9D1AF800374FF22BE6003382A20
:105A8B00A5BE0006A9C1B6A9C1B5A5BE0106A9C18F
:105A9B00B6A9D1B5A5BE0206A9D1B6A9C1B5A5BEF9
:105AAB00030BA9D1B6A9D1B5800374FF22E4227CE4
:105ABB00677C7BBE7001380EA5BF0005A9C0AF8007
:105ACB0008A9D0AF800374FF22BE6003382AA5BE9D
:105ADB000006A9C0B6A9C0B5A5BE0106A9C0B6A946
:105AEB00D0B5A5BE0206A9D0B6A9C0B5A5BE030BFD
:105AFB00A9D0B6A9D0B5800374FF22E4227C677CC1
