:10000000026D1E0287CA1285E3E4220279F77403A7
:100010000288BC0287D55395F143960E53B1BF4376
:10002000B240220259A77A3706AA220288617A735F
:1000300007A17CAB74577C7A7E0807A17E2400015F
:1000400002573102580A7A0F06A622026E767A37D4
:1000500006A4220287E07AB307A7220287EBC0D169
:10006000A9C6E6A9A0E692C7D0D132022AC97C2748
:100070007E34FEBB7E24007E7A1BB07E34FEBC7ACA
:100080001B20220287F67A37046B22026BB9A9D4AF
:10009000C12222026C01A2AF92D5C2AF75C65A75B9
:1000A000C6A500000000A2D592AF2202005E7CA788
:1000B0007C7B0A5A2E540020127BDD74117E700165
:1000C00002830702403D027106222202555A027C39
:0200D000A52267
:0600D3000252CA02877010
:0600DB0002534F02877082
:0600E30002379202877053
:0700EB000238C6283029008D
:1000F300020126CA3B7F307AB307A2127F4874728B
:10010300125CAB7EB307A2125CAB127F487473120E
:100113005CABC21F125E0A7A3BB0127FBDDA3B2290
:10012300026CD7CA7BCA6BCA5BCA4BCAF8CA2BCA52
:100133001BCA0BC0D1C0D0C083C0827EF1FA740544
:100143001288BC5403B4030F74031288BC7CAB4CF9
:10015300AB7809D222800574031288BC7AF1FAD0F5
:1001630082D083D0D0D0D1DA0BDA1BDA2BDAF8DAEB
:0B0173004BDA5BDA6BDA7B3202783586
:03018300027D6397
:03018B00026726E2
:03019300027736BA
:03019B0002769D4C
:0301A30002779C44
:0301AB000276D009
:0301B3000277CF01
:0301BB00027703C5
:0301C300027802BD
:0301CB000277694F
:0301D300025DB416
:0301DB00027EA8F9
:0301E30002766A37
:1001EB0002763702078B6E8480007D582D55680E82
:1001FB000B5568EF7D502D5578057F047F15220B2D
:10020B005568E07D5892F77D457D59BF02401278C5
:10021B0004BF15400C7D487F407F027F257F517FB7
:10022B00121207405D546E54FFE0E5D0780320D5E1
:10023B00B2BEC4FFE0780830E702B2D5020797A23E
:10024B00E792D5BE44FFE068F36CAA7DD47D4C9D4C
:10025B004D6843BE4406A078117CA13EA03EA03E53
:10026B00A07F047F157D4C02076350F5800C2E4454
:10027B0000202F002F1150020B305C9978F00B806F
:10028B0080107CA77C767C657C547C437C327C2103
:10029B000A001B8078EC7D4C30E52D9F409F515020
:1002AB00021B4C7F047F154D894D8A4D8B78122292
:1002BB000207929E44002068F72F002F1150020B6B
:1002CB00307CB130E4ED802E2F042F1550020B0C37
:1002DB007CB130E5212E44002078030207976CAAED
:1002EB001E1092F71E144C2A92F71E244C4A92F7BA
:1002FB001E344C6A92F7020763020797BE04FFFF96
:10030B006806BE84FFFF780302078B1207405D541B
:10031B00BE54FFE068F27D5C4D5468EC5D4478059B
:10032B009F117F01222EC4802050079D4C3807025D
:10033B0007929D4C50C37D58C2E44D594D5A4D5BAD
:10034B00780302077C7E5400107EC40037800C1BA0
:10035B00C468262F002F1150020B30BF04401078B9
:10036B0004BF15400A9F049F1550021B0C4CAB0396
:10037B0030E7DCCAA86CAA80D6DA1BDA19DA18BE09
:10038B00101050149E44002068A52F002F1150020E
:10039B000B302CAA50020B700207637EA020800C3E
:1003AB007EA01080057EA0086C556D333392D5501E
:1003BB000A6E34FFFF6E24FFFF0B1C2F114006D576
:1003CB00F0F97F01227CB41E541E541E541E542E71
:1003DB00543FE0A2D592F72F112F112F112F117D22
:1003EB00127D236D337D052202079768FB02078B75
:1003FB007CB5330A543392D5602A046C442F1160B8
:10040B00EA2F112F112F112F112E54037F7E440031
:10041B0020AD457D457C147C257C367C476C556D29
:10042B003302077C9F117F0122021095021092026A
:10043B00108DE47C517D312F11332F11332F11335C
:10044B004C7B2D0092D5681E0B0568E32E048FFEA6
:10045B0050DABE002050D22D002D002D005C00681C
:10046B00CB7C800210699F11227F507EC400007EDE
:10047B00D4063A7E9404850209374001227CEACAED
:10048B0089CA5BCA6B128594DA6BDA5BDA897E9464
:10049B0004857CAE227F707F517E6F06137E9404A1
:1004AB00AF0209374005E47A7BB0227A7BB00B7C34
:1004BB002202078B0207977D5020F7F55E547FF0E1
:1004CB00687ABE547FF068ECCA0BCA1B7C017C12A5
:1004DB005E001F4E00109E543FF00E5430E304C2DA
:1004EB00E32D002E543FF07E145370AD107C327C04
:1004FB00210A002E0887FF2E04000BBE1020400798
:10050B007E101F7E14FFFF5E100F4D05758304CA0E
:10051B000BCA1B7F407F51690FFFF1691FFFF36906
:10052B002FFFF5693FFFF7120307DA5BDA4B120176
:10053B00F59E040010D583D79EF80008223DD20CFF
:10054B0062C2F2D7F5BE3B6E24F44B128F3E9F9DD9
:10055B0038A3763CC3BEFA6D1F2A204A8C3F4E1F30
:10056B00506891BABBBF955D3C7E3CBFFA3FD03C17
:10057B001F081B5AC4BFF3BD3CC9BE45DE3FF0008C
:10058B000000000000BE06FADB9F1557443E6E8F3D
:10059B00434D018D63BECE3074FDE8871F3F2507A9
:1005AB0083487EE782BF732D2CCE62BD863FB46637
:1005BB00BC6775AAE2BFE4ABBCE625BE533FF9218D
:1005CB00FB54442D184031BB797BC569F8C0892693
:1005DB00DDB9C83D0240B93227D3304CB9C0B61F84
:1005EB000795DE70E03FF0000000000000C062FEE7
:1005FB00A685FF2B0D40A5FF4E58DEAD6EC0C15F2B
:10060B00BBAA8C6A221206CF04A2E192F71420E057
:10061B0020CAA8CA3B7E7405487E6400FF7408128A
:10062B000D65DA3B80291206CF30E102B2F720E0EC
:10063B00E0CAA8CA0BCA1BCA3B7E7405907E640035
:10064B00FF7407120D65DA3BDA5BDA4B1207A5DA9A
:10065B00A85D0068055EA0806C0A221206CFCA59FD
:10066B00CA3BCA0BCA1B7E7405F07E6400FF740381
:10067B00120D65698FFFF9699FFFFB69AFFFFD697C
:10068B00BFFFFF1207A57F407F51DA1BDA0BCA4B66
:10069B00CA5B7E7405D07E6400FF7403120D65DAAD
:1006AB005BDA4BDA3BDAB830E009120307DAA8B2AF
:1006BB00F7809E7F207F047F427F217F157F521220
:1006CB000307808B7CA05E007FBE0441E040051BCE
:1006DB00FD02078BCAA87E843FC47E945F307EA444
:1006EB006DC97EB4C8831207A5BE043FF040107FCE
:1006FB00407F511208B21203A66E00801201F5E47E
:10070B005D0068262E040030BE043FF0401C7F4085
:10071B007F511208B27CB704C2E07C4BCAB81203FB
:10072B00B06E00801201F5DAB8035D0068049E0418
:10073B000010DAA8227D5054F0B2E46D05B2E42D1E
:10074B00557D4592D57D5854F0B2E46D85B2E42DBC
:10075B00557DC55002B2D52230F7160B1C78120B03
:10076B000C5E04000FBE08000078062E44002068C3
:10077B001B1E4430D5034E80805E04000F4D0422B7
:10078B007E1CFFFF7F01229F117F01227E04FFF061
:10079B0020D5021E006D119F11225D0068115D882E
:1007AB0078182D002E040020680D9F117F01222D3B
:1007BB00882E84002078F702078B1207405D542E99
:1007CB00540020680A2E44804050072D4C500A02DA
:1007DB0007972D4C40030207927D514D524D537894
:1007EB000BA5B920077F157F0402077C7D594D5A55
:1007FB004D5B7806BE84002068EF7DF3ADFB7DFE7C
:10080B006DEE7DDBADD22F76E4337DD3ADDA2F7673
:10081B0034007DFE0AEB7DD2ADDA2F76E4337DD149
:10082B00ADDB2F7634007DD9ADD32F7634007DFE32
:10083B000AEB7DD0ADDB2F767DD8ADD32F767DD176
:10084B00ADDA2F76E4337DD9ADD22F763400AD28D7
:10085B00ADA02F510A2B7D3E2F517D21AD292F515C
:10086B00E4337D287CA1AD90AD122F042C1B7D3A77
:10087B00AC5A2F017D2B7D3F7E540400BE000250ED
:10088B000E9E44002078030207972F002F1133D5BB
:10089B00F0F84C3B7CA77C767C657C547C437C32AB
:1008AB007C210A000207637D502D5592D51E541EE4
:1008BB00541E541E541E542E54FC0140039F1122EF
:1008CB007C747C637C357C527C412F112F112F1152
:1008DB004E40807E20208C324C732E54FFE0500E05
:1008EB007E1CFFFF221E341E2450034E60800478B2
:1008FB00F430D50A6E34FFFF6E24FFFF0B1C22541D
:10090B000F2490D43440D430F30CBEB0414007BE1A
:10091B00B05B500224204CCC68021BC00B84D389E3
:10092B00944CCC680B742012092180F5CA3B6D885E
:10093B009F337CAE7E5BB00B5C7007C37D38DA3BBC
:10094B008994B42569C2F37E5BB00B5CA5F824D007
:10095B00BEB00A501B7E500A20F60DAC5CA52D7C58
:10096B00CB70034EF00180DDAC5DA52D7CDB80D51B
:10097B0024CFBEB01AA5E850055E00DFD2F3900D70
:10098B002BA3E4936011BCB078F77417934CAB3086
:10099B00F6B34EF08080AEA3E4936010BCB078F752
:1009AB007416937C3B7423937C2B89147CB080133B
:1009BB00742012092120F205BEC00250F31B6D29D1
:1009CB00B6000112092102092C1B6E691600020BDD
:1009DB006A00BE08000078087E0400FF7E1400EE5B
:1009EB0020F21E4CCC681A7F10E47E1B804C88686A
:1009FB00070B1C04BCBD78F2C2F6CA0B120B0BDA48
:100A0B000B7E0BB060C0CA0B120921DA0B0B0C4C1E
:100A1B00DD68EE1BD078EA80ADD2F07E101080033B
:100A2B007E10085EB05F800AD2F67E100A80057ECB
:100A3B00100AC2F66D119F117E00201B6C7E6B702D
:100A4B0030F6021A3720F1051B6C7E6B6030F60412
:100A5B001A261A2430F0051B6D0B6A20A5EC338285
:100A6B00F692F6500A7CEA9F229F217F127CAE4CB5
:100A7B0044780F7C457C567C676C772E00F878EFBA
:100A8B0080122F117CB3337C3B9CB140047C3B0B1D
:100A9B0070A5D8EE7CB230E005DAB8C44C3BCA384E
:100AAB000B207E00207E3000BE18000078C1BE10E7
:100ABB0008780730F404C2F480B5CA287CB2BCBDF8
:100ACB0038027CBD120B0BDA28BC2D500A1BD0E46C
:100ADB00CA2812090A80F07CB213DAB84004C4CADF
:100AEB00B8C4CA28BEF08040095CDD7805A5DA02DF
:100AFB0060065EF07F12090ADA28A5DADA02092C01
:100B0B00BEF001680F30F402240220F50620F70333
:100B1B0030F6010420F229BCBC5025CAB87CBF13A7
:100B2B00B0E67420501174307C8A5E80F068081235
:100B3B000B4B5EA00F8003120921DAB8BCBC78DB2B
:100B4B0030F40F7430120921745830F30274781298
:100B5B00092130F605742D020921742B20F5F87448
:100B6B002020F7F3221B6C7E6BB010F1021B6C2064
:100B7B00F60B30E704F404D2F27CCB800520E705BA
:100B8B007CDB0209505EF07F80F81B6E6916000259
:100B9B000B6A0030F0076D221B0A200B0D1B0A801D
:100BAB0002093BE46C22BE3010500B7F1F2D312EFF
:100BBB0034FFEE7E39B0227CBF20E7A8742E4EF0B6
:100BCB0080020921120D0540437CBD7003047CDBC0
:100BDB00120EEF7C3D4C3368101B307CBE20E409B9
:100BEB00120BAE70044C3378F07CBD7CD3BE44FF4B
:100BFB00FC48216CAABD45581B6D559D546C222D8C
:100C0B00511801E47CDB020CA9120D0540787CBD68
:100C1B0004120EEF7DA47CAE7CBDA2F492F0C2F464
:100C2B0040026001042406120B0B7E30FF0B3012C6
:100C3B000BAECA3812090A20F0044CDD6803120B04
:100C4B00C2DA38BC3D78E6740E12090A742B7D4A61
:100C5B007CA830F7086EA4FFFF0BA4742D1209219A
:100C6B007E4400647D5A8D547DA412090A7D5A7E00
:100C7B00A00A840AAA12090A7D5A12090A9EF800D0
:100C8B0011DA5B02092CDA5BD2F27ED0000209EB9F
:100C9B00120D0540F10A5D2D540B54120EEF7DA47D
:100CAB007CB97CAE30E701F40420F4044CDD68051C
:100CBB00D2F0C2F4042CBD120B0B6C33BEA400009B
:100CCB00681648101BA4120BAECA3812090ADA3880
:100CDB000B3080E80BA41B30120BAECA3812090A7A
:100CEB004CDD6807120BC21BD080E39EF80012305C
:100CFB00F003120BC2DA5B02092C7CEA7CAF10F713
:100D0B00037ED0067CFA1B6E693600020B6A201B31
:100D1B006E691600020B6A00DA49CA5BCA49020DFA
:100D2B00C82D2B204C4248232E0053584F44494387
:100D3B0055502A4E464547000420800102001040C2
:100D4B00D4262B3333C03A2470959B14CF090A0A4F
:100D5B000A0A090A0A0B0B0C0C0BCAB87F407F510D
:100D6B001207A5DAB8CA0BCA1B0B3A0069130002AB
:100D7B000B3E0B3A20693300020B3E698FFFF9697A
:100D8B009FFFFB69AFFFFD69BFFFFFCAB81207A545
:100D9B000B3A80699300020B3E0B3AA069B3000239
:100DAB000B3E1201F5DAB81478D19EF80008224EEA
:100DBB00614E002B494E46002D494E46007D402D7D
:100DCB00447CAE92F67CEA7CBA68265E90E0BE4428
:100DDB00FFE0782F7CB1540F7E0400FF60067E1479
:100DEB000DBAD3227E140DC320F6047E140DBED390
:100DFB0022DA099F22CA2BCA2BCA2BCA2BCA88C339
:100E0B00CA09221E447E5404D1AD542D5450020BFA
:100E1B00449E28FA239E440133CA2B7CA15EA00F6B
:100E2B007CB21E541E541E541E541E547E44005637
:100E3B00CA59AD457E44C5109D450A48DA59AD5493
:100E4B00DA492D54DA5950020B54CA59CA4BCA6BA2
:100E5B00CA7BCA0BCA1B20F70C120FCADA1BDA0BA0
:100E6B0012030780106E54FFFF0B54120FCADA1BCC
:100E7B00DA0B1207A5DA7BDA6BDA4BDA497D505EB7
:100E8B0004000F6D504E10109E543FB02F002F11C9
:100E9B0050020B3024F078F4DA59758210BE000A38
:100EAB00400A9E000ACA020115820B44CA086C0054
:100EBB007EA4000A7DB1AD0A7D016D11ADAB2F058E
:100ECB007EA4000A7DB3AD2AADAB2D1250020B04EC
:100EDB007D236D332F1550020B0C158278CECA086B
:100EEB00C3CA59227F0F20E73ABEB01040027410DC
:100EFB000A0B2D109E1400127E19B02EB0FB501F42
:100F0B004C116817E47A19B01B147E19B0047A19C6
:100F1B00B0B40A0BE47A19B0A5D9ED0B4474017A7D
:100F2B0019B0225EE0BF223FF0000000000000403D
:100F3B0024000000000000405900000000000040A9
:100F4B008F40000000000040C388000000000040FC
:100F5B00F86A0000000000412E8480000000004170
:100F6B006312D0000000004197D7840000000043BB
:100F7B0041C37937E0800044EA784379D99DB44680
:100F8B0093B8B5B5056E17483D6329F1C35CA54908
:100F9B00E5E531A0A1C8734B905031E2503DA94D0E
:100FAB00384F03E93FF9F55A827748F9301D32671C
:100FBB00CC0E1EF1A724EB75154FDD7F73BF3C5D87
:100FCB0055684C7D055407682D23232312101A7D79
:100FDB0050CA595E540038680924381210347F40C7
:100FEB007F51DA591E5403035438680924701210C8
:100FFB00347F407F51227CB1543868092438121059
:10100B001A7D5080DF7D501E540303543824706CBE
:10101B00AA2E540F327E4400FF0B2A8069920002E5
:10102B0069A2000469B20006226CAA2E540F327E0C
:10103B004400FF0B2A006912000269220004693286
:10104B0000060207A52D0092D50E104E10807D4292
:10105B002D445002B2D54E50806C447CB8222C44A7
:10106B0050120B1C7E40005E507FBE1800007804AF
:10107B000B806816A2D57CB8137C4B7CB592E77CB1
:10108B005B227E1CFFFF229F11227E24FF8020D536
:10109B00026C456D332202108D6E00807CB1337C67
:1010AB00B033680D0468EF7CB5337CB43378037FC1
:1010BB0010220468E17D5092F77D457D51BF2140A0
:1010CB00067C807F017F121210507EA1D05CB00491
:1010DB00780320D5C17CB00478075002B2D502103A
:1010EB009592D5BE80FF68F67CB89CB06C00602AE8
:1010FB00B418057C4102106950FB80032F00047C5F
:10110B009B5E900778F630E4067C437D106D0030D3
:10111B00E3087C437C327C210A0030F5199F107860
:10112B000E220210921B8068F92F1150020B707C5B
:10113B00B530E7F1801B2D317CB5A5397C5B5011A7
:10114B000B8078030210951E341350034E60801AE7
:10115B002B0210695D22680D5D0078122D220B4069
:10116B0068099F11222D000B0078F902108D1210C7
:10117B00505C800B806808248150072CB0500A0209
:10118B0010952CB040030210927C8B5D1178267C5D
:10119B00B17CA5BE1080680A5D33780DA5BD8005B6
:1011AB007F1002107F6D0080307F017C5B7CB17CF7
:1011BB00A5AD1280245D337806A5BD80F080E1CA11
:1011CB00887D41AD437CB17CA5AD122D1450020B33
:1011DB00047C5BAD232F01DA88A42D05BE00804073
:1011EB00060B80780480982F007C437C507C617CBC
:1011FB0072021069BE24FFFF6806BE04FFFF78036E
:10120B0002108D1210505CB00468F57CB8A54868CC
:10121B00EF7CB870039F1122A5B800030210952E26
:10122B00008150079C8038070210929C8050ED0A79
:10123B0051C2E74D51780302107F7E5400807E909F
:10124B001A6C0080061B9068142F11BF1040049F6E
:10125B00104CAB0330E7EECAA86CAA80E8DA39DA97
:10126B00587C4ABE5080500A1B8068BC2F1150021C
:10127B000B7002106974F86CAA6E40806E0080BE11
:10128B00B0FF68277C837C975C3B5C7BBF10682A34
:10129B00F4400D7C382D15F45C3B500F0B04800B88
:1012AB007C792D35F45C7B50020B24BF10680B7CD2
:1012BB00B020E7067CB420E701B3227EA020800C8F
:1012CB007EA01080057EA0086C556D333392D550EF
:1012DB000A6E34FFFF6E24FFFF0B1CA5EC33400698
:1012EB002F11D5F0F6227CBA247EA2D5137C767C06
:1012FB0065A5CC92E77C5B227D51AD037D027D2100
:10130B00AD052D12AD352D21226D0074104D0078D9
:10131B000B4D2278278D317D126D22227D437D323C
:10132B006D222F112D445002A50FBF1040049F10AA
:10133B000B901478ED7F016D227D34227D417D135E
:10134B008D247D022F004004BD0440049D040B142A
:10135B001478F17D237D317D106D0022C2D57CB0D8
:10136B0030E708B2D59F229F207F027CB430E71371
:10137B00B2D59F229F217F121213169F229F207F8F
:10138B0002800312131630D5069F229F217F122253
:10139B007F707C7BA5BF010280030214637E34FE49
:1013AB00CC7E24007E7E1BB054FE7A1BB07E1BB01D
:1013BB0054FB7A1BB07ED4FEC87EC4007E7E6BB01D
:1013CB0054FC7A6BB07E6B305E308F7E7B204C3260
:1013DB007A6B3029A700067CBA30E0177E1BB0442D
:1013EB00017A1BB07E14FEB17E04007E7E0BB044EE
:1013FB000180157E1BB054FE7A1BB07E14FEB17EAD
:10140B0004007E7E0BB054FE7A0BB07CBA30E11A2E
:10141B007E1BB044047A1BB07E14FEB17E04007EAA
:10142B007E0BB044027A0BB080187E1BB054FB7A53
:10143B001BB07E34FEB17E24007E7E1BB054FD7A41
:10144B001BB0691700037E34FED57E24007E7A1B09
:10145B00207E34FED6021936A5BF02028003021588
:10146B00277E34FECC7E24007E7E1BB054EF7A1B8D
:10147B00B07E1BB054BF7A1BB07ED4FEC97EC400B5
:10148B007E7E6BB054FC7A6BB07E6B305E308F7EA1
:10149B007B204C327A6B3029A700067CBA30E217DE
:1014AB007E1BB044107A1BB07E14FEB17E04007E0E
:1014BB007E0BB0440480157E1BB054EF7A1BB07EBC
:1014CB0014FEB17E04007E7E0BB054FB7A0BB07C15
:1014DB00BA30E31A7E1BB044407A1BB07E14FEB1C7
:1014EB007E04007E7E0BB044087A0BB080187E1B06
:1014FB00B054BF7A1BB07E34FEB17E24007E7E1BBF
:10150B00B054F77A1BB0691700037E34FED77E24E4
:10151B00007E7A1B207E34FED8021936A5BF03024B
:10152B0080030215EB7E34FECD7E24007E7E1BB045
:10153B0054FE7A1BB07E1BB054FB7A1BB07ED4FEDC
:10154B00CA7EC4007E7E6BB054FC7A6BB07E6B306F
:10155B005E308F7E7B204C327A6B3029A700067C65
:10156B00BA30E4177E1BB044017A1BB07E14FEB177
:10157B007E04007E7E0BB0441080157E1BB054FEA3
:10158B007A1BB07E14FEB17E04007E7E0BB054EF4E
:10159B007A0BB07CBA30E51A7E1BB044047A1BB0D0
:1015AB007E14FEB17E04007E7E0BB044207A0BB01D
:1015BB0080187E1BB054FB7A1BB07E34FEB17E24A8
:1015CB00007E7E1BB054DF7A1BB0691700037E349C
:1015DB00FED97E24007E7A1B207E34FEDA02193679
:1015EB00A5BF040280030216AF7E34FECD7E24001D
:1015FB007E7E1BB054EF7A1BB07E1BB054BF7A1BA0
:10160B00B07ED4FECB7EC4007E7E6BB054FC7A6B76
:10161B00B07E6B305E308F7E7B204C327A6B302904
:10162B00A700067CBA30E6177E1BB044107A1BB0BD
:10163B007E14FEB17E04007E7E0BB0444080157E8E
:10164B001BB054EF7A1BB07E14FEB17E04007E7E7D
:10165B000BB054BF7A0BB07CBA30E71A7E1BB04488
:10166B00407A1BB07E14FEB17E04007E7E0BB0442C
:10167B00807A0BB080187E1BB054BF7A1BB07E34BF
:10168B00FEB17E24007E7E1BB0547F7A1BB069179F
:10169B0000037E34FEDB7E24007E7A1B207E34FE2C
:1016AB00DC021936A5BF096E293700057E34FEDE34
:1016BB007E24007E7A1B30691700017E34FED27ABD
:1016CB001B207E34FED37A1B3029B70008B4010FE0
:1016DB007E34FEDD7E24007E7E1BB04480800D7E3A
:1016EB0034FEDD7E24007E7E1BB0547F7A1BB02936
:1016FB00B70007B401107E34FEC07E24007E7E1B33
:10170B00B044010219AD7E34FEC07E24007E7E1BE8
:10171B00B054FE0219ADA5BF050280030217A77EC8
:10172B0034FEEC7E24007E7E1BB054FE7A1BB07E12
:10173B00D4FEE87EC4007E7E6BB054FC7A6BB07E28
:10174B006B305E308F7E7B204C327A6B3029B7004A
:10175B000630E01A7E1BB044017A1BB07E14FEB536
:10176B007E04007E7E0BB044017A0BB080187E1B8A
:10177B00B054FE7A1BB07E34FEB57E24007E7E1BF9
:10178B00B054FE7A1BB0691700037E34FEF57E243D
:10179B00007E7A1B207E34FEF6021936A5BF0602A8
:1017AB00800302182D7E34FEEC7E24007E7E1BB05F
:1017BB0054EF7A1BB07ED4FEE97EC4007E7E6BB004
:1017CB0054FC7A6BB07E6B305E308F7E7B204C325C
:1017DB007A6B3029B7000630E21A7E1BB044107AC0
:1017EB001BB07E14FEB57E04007E7E0BB044047AE3
:1017FB000BB080187E1BB054EF7A1BB07E34FEB555
:10180B007E24007E7E1BB054FB7A1BB0691700034D
:10181B007E34FEF77E24007E7A1B207E34FEF80297
:10182B001936A5BF070280030218B37E34FEED7E86
:10183B0024007E7E1BB054FE7A1BB07ED4FEEA7E63
:10184B00C4007E7E6BB054FC7A6BB07E6B305E3026
:10185B008F7E7B204C327A6B3029B7000630E41A2E
:10186B007E1BB044017A1BB07E14FEB57E04007E55
:10187B007E0BB044107A0BB080187E1BB054FE7AEE
:10188B001BB07E34FEB57E24007E7E1BB054EF7AF7
:10189B001BB0691700037E34FEF97E24007E7A1B91
:1018AB00207E34FEFA021936A5BF08028003021906
:1018BB003F7E34FEED7E24007E7E1BB054EF7A1B00
:1018CB00B07ED4FEEB7EC4007E7E6BB054FC7A6B94
:1018DB00B07E6B305E308F7E7B204C327A6B302942
:1018EB00B7000630E61A7E1BB044107A1BB07E148C
:1018FB00FEB57E04007E7E0BB044407A0BB08018A0
:10190B007E1BB054EF7A1BB07E34FEB57E24007E76
:10191B007E1BB054BF7A1BB0691700037E34FEFBED
:10192B007E24007E7A1B207E34FEFC7E24007E7A91
:10193B001B30E422A5BF0A6F293700057E34FEFE5B
:10194B007E24007E7A1B30691700017E34FEF27A0A
:10195B001B207E34FEF37A1B3029B70008B4010F2D
:10196B007E34FEFD7E24007E7E1BB04480800D7E87
:10197B0034FEFD7E24007E7E1BB0547F7A1BB02983
:10198B00B70007B4010F7E34FEE07E24007E7E1B81
:10199B00B04401800D7E34FEE07E24007E7E1BB0C1
:1019AB0054FE7A1BB0E42274FF22CA3B7A1F072431
:1019BB007F307C7BA5BF09028003021C2174037E50
:1019CB0034FBF07E24007E7A1BB029A300037CBA83
:1019DB0030E0127EB3072844017AB307287EB307A1
:1019EB0029440180107EB3072854FE7AB307287E62
:1019FB00B3072954FE7AB307297CBA30E1127EB3C0
:101A0B00072844027AB307287EB3072944048010C1
:101A1B007EB3072854FD7AB307287EB3072954FBFE
:101A2B007AB307297CBA30E2127EB3072844047AD2
:101A3B00B307287EB30729441080107EB3072854C0
:101A4B00FB7AB307287EB3072954EF7AB307297CB7
:101A5B00BA30E3127EB3072844087AB307287EB363
:101A6B000729444080107EB3072854F77AB3072820
:101A7B007EB3072954BF7AB307297CBA30E4127EB0
:101A8B00B3072844107AB307287EB3072A44018092
:101A9B00107EB3072854EF7AB307287EB3072A5476
:101AAB00FE7AB3072A7CBA30E5127EB307284420AE
:101ABB007AB307287EB3072A440480107EB3072825
:101ACB0054DF7AB307287EB3072A54FB7AB3072A6D
:101ADB007CBA30E6127EB3072844407AB307287EDF
:101AEB00B3072A441080107EB3072854BF7AB3077C
:101AFB00287EB3072A54EF7AB3072A7CBA30E71251
:101B0B007EB3072844807AB307287EB3072A444064
:101B1B0080107EB30728547F7AB307287EB3072A39
:101B2B0054BF7AB3072A74CC6C77127D8874CD6C52
:101B3B0077127D8874C87E7060127D8874C97E7040
:101B4B0060127D8874CA7E7060127D8874CB7E7043
:101B5B0060127D8874CC7E730729127D8874CD7ECC
:101B6B0073072A127D8874B17E730728127D8874DF
:101B7B00D57E1F07240B1A300A36127D8874D67E49
:101B8B001F07240B1A30127D8874D77E1F07246918
:101B9B003100020A36127D8874D87E1F0724693102
:101BAB000002127D8874D97E1F0724693100040A54
:101BBB0036127D8874DA7E1F072469310004127D8A
:101BCB008874DB7E1F0724693100060A36127D8874
:101BDB0074DC7E1F072469310006127D8874D20BDA
:101BEB003A300A36127D8874D30B3A30127D8874E2
:101BFB00DE29730002127D8874DDCAB829B3000593
:101C0B000354807C7BDAB8127D8874C0297300047E
:101C1B00127D88021DD6A5BF0A028003021DD67451
:101C2B00037E34FBF47E24007E7A1BB029A30003D1
:101C3B007CBA30E0127EB3072844017AB307287EC2
:101C4B00B30729440180107EB3072854FE7AB307EB
:101C5B00287EB3072954FE7AB307297CBA30E212E7
:101C6B007EB3072844047AB307287EB307294410B0
:101C7B0080107EB3072854FB7AB307287EB307295D
:101C8B0054EF7AB307297CBA30E4127EB3072844A9
:101C9B00107AB307287EB3072A440180107EB3075E
:101CAB002854EF7AB307287EB3072A54FE7AB3077A
:101CBB002A7CBA30E6127EB3072844407AB3072851
:101CCB007EB3072A441080107EB3072854BF7AB323
:101CDB0007287EB3072A54EF7AB3072A74EC6C7784
:101CEB00127DAD74ED6C77127DAD74E87E70601271
:101CFB007DAD74E97E7060127DAD74EA7E7060120A
:101D0B007DAD74EB7E7060127DAD74EC7E73072934
:101D1B00127DAD74ED7E73072A127DAD74B57E73A3
:101D2B000728127DAD74F57E1F0724693100080A60
:101D3B0036127DAD74F67E1F072469310008127DC3
:101D4B00AD74F77E1F07246931000A0A36127DAD88
:101D5B0074F87E1F07246931000A127DAD74F97E79
:101D6B001F07246931000C0A36127DAD74FA7E1FF1
:101D7B0007246931000C127DAD74FB7E1F072469AB
:101D8B0031000E0A36127DAD74FC7E1F07246931BB
:101D9B00000E127DAD74F20B3A300A36127DAD7423
:101DAB00F30B3A30127DAD74FE29730002127DAD38
:101DBB0074FDCAB829B300050354807C7BDAB812D2
:101DCB007DAD74E029730004127DADDA3B22CAF8B5
:101DDB007F707CABBEA0016803021ED2E47AB30015
:101DEB00257AB300267AB300277AB300287AB3009A
:101DFB00296DDDE419BD01790BD4BED4008078F3D5
:101E0B006DDDE419BD00390BD4BED4008078F37EB0
:101E1B007BF0E598543F4CBFF598BEF0C06805BE0B
:101E2B00F040786A69170004690700027E348D80E0
:101E3B007E24005B1213167F516D337E240001BF8D
:101E4B0051400574FF0221169F157F5129B70001E0
:101E5B00B4021DA9C48EA9D08EA9C38EA9D28E7D22
:101E6B005B7CBAF5D67D3B7CB7F5D7A9D48E804782
:101E7B00C28EA9C08EA9C6895389CFA9D68E7D5B88
:101E8B007CBAF58D7D3B7CB7F58BD28E80294CFFD0
:101E9B00781129B70008B40105A9D58E8019A9C5F9
:101EAB008E8014BEF080780F29B70008B40105A905
:101EBB00D7878003A9C78729B700077004C29C8006
:101ECB0002D29CE4022116BEA0026803021F75E435
:101EDB007AB3002A7AB3002B7AB3002C7AB3002D95
:101EEB007AB3002E6DDDE419BD02390BD4BED400DC
:101EFB008078F36DDDE419BD00B90BD4BED400803E
:101F0B0078F37E7BA0E59A543F4CBAF59ABEA0C0FD
:101F1B006805BEA040783C69170004690700027E83
:101F2B00348D807E24005B1213167F516D337E241B
:101F3B000001BF51400574FF0221169F15A9C48EE5
:101F4B00A9C38EA9D28E7CB6F5D67CB7F5D7A9D40A
:101F5B008E800574FF02211629B700077005A9C4EE
:101F6B009A8003A9D49AE4022116BEA00368030247
:101F7B002046E47AB3002F7AB300307AB300317A7B
:101F8B00B300327AB300336DDDE419BD02B90BD463
:101F9B00BED4004078F36DDDE419BD01390BD4BE1E
:101FAB00D4004078F37E7BB0BEB0C06803B44074FD
:101FBB00B4C005A9D7AC8003A9C7AC6917000469E5
:101FCB000700027E348D807E24005B1213167F5136
:101FDB006D337E240001BF51400574FF0221169F13
:101FEB00157F5129B70001B4021DA9C48EA9C6AC37
:101FFB00A9C38EA9D28E7D5B7CBAF5D67D3B7CB70F
:10200B00F5D7A9D48E8022A9C3DDA9D6AC7D5B7C84
:10201B00BAF5D47D3B7CB7F5D5A9C2DDA9D1DDA935
:10202B00D3DD800574FF02211629B700077005A9BF
:10203B00C4AC8003A9D4ACE4022116BEA00468038F
:10204B00022114E47AB300347AB300357AB3003644
:10205B007AB300377AB300386DDDE419BD02F90BA2
:10206B00D4BED4004078F36DDDE419BD01F90BD477
:10207B00BED4004078F37E7BB0BEB0C06803B440E2
:10208B0073B4C005A9D7FD8003A9C7FD6917000468
:10209B00690700027E348D807E24005B1213167F4D
:1020AB00516D337E240001BF51400474FF805C9F4F
:1020BB00157F5129B70001B4021DA9C48EA9C6FD15
:1020CB00A9C38EA9D28E7D5B7CBAF5D67D3B7CB73E
:1020DB00F5D7A9D48E8021A9C7DDA9D6FD7D5B7C60
:1020EB00BAF5D27D3B7CB7F5D3A9C6DDA9D5DDA961
:1020FB00D7DD800474FF801329B700077005A9C4CE
:10210B00FD8003A9D4FDE4800274FFDAF8227F700E
:10211B007CABBEA00168030221E7E47E34FA327E79
:10212B0024007E7A1BB07E34FA3A7A1BB0693700F2
:10213B00017E14FA337E04007E7A0B700A367CB76C
:10214B007E34FA887A1BB0693700030A267E14FAAC
:10215B00357A0B607CB77E34FA367E24007E7A1B90
:10216B00B0693700080A267E14FA3D7A0B607CB7FB
:10217B007E34FA3E7E24007E7A1BB0693700067EE1
:10218B0014FA3B7A0B700A367CB77E34FA8A7A1BC8
:10219B00B07E7BB0B4010F7E34FA317E24007E7E9C
:1021AB001BB04480800D7E34FA317E24007E7E1B72
:1021BB00B0547F7A1BB029B70005B4010F7E34FAF7
:1021CB00397E24007E7E1BB04480800D7E34FA392C
:1021DB007E24007E7E1BB0547F7A1BB0BEA00268AB
:1021EB00030222B1E47E34FA427E24007E7A1BB0D5
:1021FB007E34FA4A7A1BB0693700017E14FA437EAB
:10220B0004007E7A0B700A367CB77E34FA8C7A1B0C
:10221B00B0693700030A267E14FA457A0B607CB747
:10222B007E34FA467E24007E7A1BB0693700080A9A
:10223B00267E14FA4D7A0B607CB77E34FA4E7E24E0
:10224B00007E7A1BB0693700067E14FA4B7A0B704E
:10225B000A367CB77E34FA8E7A1BB07E7BB0B40123
:10226B000F7E34FA417E24007E7E1BB04480800DAD
:10227B007E34FA417E24007E7E1BB0547F7A1BB0E5
:10228B0029B70005B4010F7E34FA497E24007E7E07
:10229B001BB04480800D7E34FA497E24007E7E1B69
:1022AB00B0547F7A1BB0BEA003680302237BE47E8D
:1022BB0034FA527E24007E7A1BB07E34FA5A7A1B93
:1022CB00B0693700017E14FA537E04007E7A0B70DE
:1022DB000A367CB77E34FA907A1BB0693700030A52
:1022EB00267E14FA557A0B607CB77E34FA567E2420
:1022FB00007E7A1BB0693700080A267E14FA5D7AD5
:10230B000B607CB77E34FA5E7E24007E7A1BB0694C
:10231B003700067E14FA5B7A0B700A367CB77E3474
:10232B00FA927A1BB07E7BB0B4010F7E34FA517EE9
:10233B0024007E7E1BB04480800D7E34FA517E24B7
:10234B00007E7E1BB0547F7A1BB029B70005B40109
:10235B000F7E34FA597E24007E7E1BB04480800DA4
:10236B007E34FA597E24007E7E1BB0547F7A1BB0DC
:10237B00BEA0046803022431E47E34FA627E24009A
:10238B007E7A1BB07E34FA6A7A1BB0693700017E05
:10239B0014FA637E04007E7A0B700A167E34FA946C
:1023AB007A1B30691700037E34FA657A1B207E3462
:1023BB00FA667A1B30691700087E34FA6D7A1B2097
:1023CB007E34FA6E7A1B30693700067E14FA6B7A0C
:1023DB000B700A167E34FA967A1B307E7BB0B401F2
:1023EB000F7E34FA617E24007E7E1BB04480800D0C
:1023FB007E34FA617E24007E7E1BB0547F7A1BB044
:10240B0029B70005B4010F7E34FA697E24007E7E65
:10241B001BB04480800D7E34FA697E24007E7E1BC7
:10242B00B0547F7A1BB0227CABBEA007280374FF8D
:10243B00227E0B70BE7003280374FF224CAA7843D4
:10244B00A5BF000F29B000017C6B6E60FF7CB652FC
:10245B00935294A5BF010C296000017CB642936492
:10246B00FF5294A5BF020A296000017CB642934239
:10247B0094A5BF030E296000017CB664FF52937CC8
:10248B00B64294BEA0017843A5BF000F29B000014E
:10249B007C6B6E60FF7CB652915292A5BF010C29EA
:1024AB006000017CB6429164FF5292A5BF020A29DB
:1024BB006000017CB642914292A5BF030E296000D9
:1024CB00017CB664FF52917CB64292BEA002784367
:1024DB00A5BF000F29B000017C6B6E60FF7CB6526C
:1024EB00955296A5BF010C296000017CB6429564FC
:1024FB00FF5296A5BF020A296000017CB6429542A5
:10250B0096A5BF030E296000017CB664FF52957C33
:10251B00B64296BEA0037843A5BF000F29B00001B9
:10252B007C6B6E60FF7CB652B152B2A5BF010C2919
:10253B006000017CB642B164FF52B2A5BF020A290A
:10254B006000017CB642B142B2A5BF030E29600008
:10255B00017CB664FF52B17CB642B2BEA004784394
:10256B00A5BF000F29B000017C6B6E60FF7CB652DB
:10257B00B352B4A5BF010C296000017CB642B36411
:10258B00FF52B4A5BF020A296000017CB642B342D8
:10259B00B4A5BF030E296000017CB664FF52B37C67
:1025AB00B642B4BEA0057843A5BF000F29B0000109
:1025BB007C6B6E60FF7CB652C952CAA5BF010C2959
:1025CB006000017CB642C964FF52CAA5BF020A294A
:1025DB006000017CB642C942CAA5BF030E29600048
:1025EB00017CB664FF52C97CB642CABEA0067843D2
:1025FB00A5BF000F29B000017C6B6E60FF7CB6524B
:10260B00CB52CCA5BF010C296000017CB642CB6438
:10261B00FF52CCA5BF020A296000017CB642CB4217
:10262B00CCA5BF030E296000017CB664FF52CB7CA6
:10263B00B642CCBEA0077843A5BF000F29B000015E
:10264B007C6B6E60FF7CB652E152E2A5BF010C2998
:10265B006000017CB642E164FF52E2A5BF020A2989
:10266B006000017CB642E142E2A5BF030E29A00047
:10267B00017CBA64FF52E17CBA42E2E422CA3B7F9E
:10268B00617F706DAA7D3A3E342E3402007A7182DE
:10269B007A61830BEAB07D3B3E343E342D3F7D2E79
:1026AB00691100020B1A007D3A3E343E343E342D44
:1026BB003D7D2C791100021B1A009F117D1A3E14CF
:1026CB003E143E142D1D7D0C79300006792000043C
:1026DB000BA4BEA4010078AD7EA400027D3A1E348B
:1026EB007A3706B67E3401008D3A7A3706B86DFF1D
:1026FB000228977E1706B8AD1F3E143E147D012E9F
:10270B000404007A11827A0183693E00020BEA20ED
:10271B007A1F06BA2E1400007A31827A2183693E21
:10272B0000020BEA207A1F06BE7DEF02288C7EB7D3
:10273B0006B62DBE7D3E3E343E343E347F062D1311
:10274B00693000020B0A207A1F06C6693000066941
:10275B002000047A1F06CA7D3B3E343E343E342DA6
:10276B003D7D2C691100020B1A007A0F06C269918C
:10277B000006698100047E0F06BE7F1412115F7F75
:10278B00317E0F06BA7E1F06C212115F7F03121035
:10279B00A47F017D3B3E343E343E342D3D7D2C7970
:1027AB001100021B1A007E0F06BA7F1412115F7FF5
:1027BB00317E0F06BE7E1F06C212115F7F03121001
:1027CB00A77D1B3E143E143E142D1D7D0C7930004D
:1027DB0006792000047D3B3E343E343E342D3D7D56
:1027EB002C691100020B1A007E1F06C61210A77F60
:1027FB00017D3E3E343E343E342D3D7D2C7911001F
:10280B00021B1A007D3B3E343E343E342D3D691194
:10281B000006690100047E1F06CA1210A77D1E3E2A
:10282B00143E143E142D1D7D0C79300006792000CA
:10283B00047D7B3E743E743E747F162D3769110008
:10284B00020B1A007E1F06C61210A47F017F162DE5
:10285B0037791100021B1A007D7B3E743E743E7467
:10286B007F162D3769110006690100047E1F06CA09
:10287B001210A47F062D1779300006792000042D45
:10288B00EABEE4010050030227390BF47E3706B68B
:10289B00BD3F28030226FE3EA4BEA401003803025E
:1028AB0026E7DA3B227F707C7BA5BF0071C28C7E52
:1028BB007BA0BEA003280374FF22E58954FC4CBA0D
:1028CB00F58929A70001BEA002280374FF224CAA98
:1028DB007806A9C78EA9C289BEA0017806A9D78E92
:1028EB00A9C289BEA0027803A9D289297700022E3A
:1028FB0070FFA9908F693700030A56F58C7CB7F5EA
:10290B008A293700057E34FEA07E24007E7A1B3098
:10291B0029B700067004C28C8002D28CE422A5BFBA
:10292B000178C28E7E7BA0BEA003280374FF227C9D
:10293B00BAC454F07CABE58954CF4CBAF58929A7BE
:10294B000001BEA002280374FF224CAA7806A9C678
:10295B008EA9C689BEA0017806A9D68EA9C689BE46
:10296B00A0027803A9D689297700022E70FFA991BE
:10297B008F693700030A56F58D7CB7F58B29370025
:10298B00057E34FEA17E24007E7A1B3029B700061B
:10299B007004C28E8002D28EE422A5BF0253A9C45A
:1029AB008E29B700017006A9C28EA9C38EB4010689
:1029BB00A9D28EA9C38EB40203A9D38E29770002A4
:1029CB002E70FFA9928F693700030A56F5D67CB794
:1029DB00F5D7293700057E34FEA27E24007E7A1BB4
:1029EB003029B700067005A9C48E8003A9D48EE4E4
:1029FB0022A5BF0361A9C3DD29A70001BEA0022840
:102A0B000374FF224CAA7806A9C1DDA9C2DDBEA0C2
:102A1B00017806A9D1DDA9C2DDBEA0027803A9D237
:102A2B00DD297700022E70FFA990DD693700030ABC
:102A3B0056F5D47CB7F5D5293700057E34FEA37E39
:102A4B0024007E7A1B3029B700067005A9C3DD80F0
:102A5B0003A9D3DDE422A5BF0461A9C7DD29A70023
:102A6B0001BEA002280374FF224CAA7806A9C5DD7B
:102A7B00A9C6DDBEA0017806A9D5DDA9C6DDBEA01D
:102A8B00027803A9D6DD297700022E70FFA994DD09
:102A9B00693700030A56F5D27CB7F5D32937000501
:102AAB007E34FEA47E24007E7A1B3029B70006708C
:102ABB0005A9C7DD8003A9D7DDE42274FF22CAB8BC
:102ACB00CA1BCA0BC0D17E34FA127E24007E7E1B39
:102ADB00B030E00A7E1BB054FE7A1BB0D20F7E34AE
:102AEB00FA027E24007E7E1BB030E0187E1BB054B1
:102AFB00FE7A1BB0D210300904C209D20E30080482
:102B0B00C208D20C7E34FA327E24007E7E1BB0309B
:102B1B00E00A7E1BB054FE7A1BB0D2037E1BB03092
:102B2B00E2087E1BB054FB7A1BB07E34FA3A7E244B
:102B3B00007E7E1BB030E00A7E1BB054FE7A1BB0C9
:102B4B00D2007E1BB030E1087E1BB054FD7A1BB067
:102B5B007E34FA427E24007E7E1BB030E00A7E1B60
:102B6B00B054FE7A1BB0D2057E1BB030E2087E1B40
:102B7B00B054FB7A1BB07E34FA4A7E24007E7E1B57
:102B8B00B030E00A7E1BB054FE7A1BB0D2017E1B24
:102B9B00B030E1087E1BB054FD7A1BB07E34FA5284
:102BAB007E24007E7E1BB030E00A7E1BB054FE7A82
:102BBB001BB0D2067E1BB030E2087E1BB054FB7AF2
:102BCB001BB07E34FA5A7E24007E7E1BB030E00AA6
:102BDB007E1BB054FE7A1BB0D2027E1BB030E108D4
:102BEB007E1BB054FD7A1BB07E34FA627E24007ECD
:102BFB007E1BB030E00A7E1BB054FE7A1BB0D207AE
:102C0B007E1BB030E2087E1BB054FB7A1BB07E34C7
:102C1B00FA6A7E24007E7E1BB030E00A7E1BB05425
:102C2B00FE7A1BB0D2047E1BB030E1087E1BB05481
:102C3B00FD7A1BB07E34FA227E24007E7E1BB030E0
:102C4B00E0147E1BB054FE7A1BB0A934CE06D21210
:102C5B00D2A28002D2117E1BB030E1087E1BB05491
:102C6B00FD7A1BB07E1BB030E2087E1BB054FB7AA2
:102C7B001BB07E34FE537E24007E7E1BB030E006FC
:102C8B00E47A1BB0C2217E34FA727E24007E7E1B56
:102C9B00B030E037300D05C20DE480207E17079C65
:102CAB001B147A17079C4D117810E47E14FA717E71
:102CBB0004007E7A0BB0D2B4800D74A07E14FA712E
:102CCB007E04007E7A0BB0E47A1BB0D0D1DA0BDA3B
:102CDB001BDAB832CA3B7F307AB3071D74C87AB39C
:102CEB0007237EA3071D4CAA7813A9C3977EB307AE
:102CFB0023147AB30723681E2015F28019BEA00196
:102D0B006803022EBCA9D3977EB30723147AB307AB
:102D1B002368032016F27E3B707CB720E703022D5D
:102D2B00F369130003690300012F002F002F007AB2
:102D3B000F071E7408CAB87CB723237C6B5E600137
:102D4B007CB6030354C05E700F4C7B4E7080DAB8B8
:102D5B0012006E74097E1F071E7C7412006E740ABB
:102D6B007E1F071E7C7512006E740B7E1F071E7C68
:102D7B007612006E74087E1F071E12006E74017AA5
:102D8B00B30722E480277EA307227CBA047AB30719
:102D9B00227CBA540324087EA307230A3A2D377DDD
:102DAB00262971000512006E7EB30723047AB30740
:102DBB00237E3BB0540FBEB3072328217E7307231A
:102DCB00BE700840C180167EA307227CBA047AB37A
:102DDB0007227CBA540324086C7712006E7EB3076B
:102DEB0022540378E2022EA5693300036923000104
:102DFB0074052F111478FB6D227A1F071E7408CAF5
:102E0B00B87E3BB023237C6B5E60017CB60303541E
:102E1B00C07E3B705E700F4C7BDAB812006E74098B
:102E2B007E1F071E7C7612006E740A7E1F071E1211
:102E3B00006E74037AB30722E480277EA307227CFB
:102E4B00BA047AB307227CBA540324087EA307235F
:102E5B000A3A2D377D262971000512006E7EB307C5
:102E6B0023047AB307237E3BB0540FBEB30723284A
:102E7B00217E730723BE700840C180167EA30722F4
:102E8B007CBA047AB307227CBA540324086C7712F9
:102E9B00006E7EB30722540378E274017E70041235
:102EAB00006E7EB3071D7004D2158005B40102D2EB
:102EBB0016DA3B22CA3B6CFF1288486CEE80507EC0
:102ECB003025AC3E2E1403416D0069F0000569E01E
:102EDB0000037F219F276DFF7EE48000BF27502DCD
:102EEB00BE28000128167F702EF4001D69570002C2
:102EFB000B7A400B2C795700021B7A407CAF0BF0FE
:102F0B007E9004ACA959150614590506120BE07EE8
:102F1B00B30469BCBE38A86CEE80500A3E0B3480FB
:102F2B00447E5004AC5E4912061449020612293045
:102F3B0000017ED004ACD749560614494606122927
:102F4B00620001BC63281C4912061449020612597F
:102F5B00520614594206127404ACB759150614598B
:102F6B000506120B70BCF738B80BE0BCFE38AC6C26
:102F7B00EE0230767404ACBE4935061449250612B0
:102F8B007A1F063E740139B100027E1F063E7E1B7E
:102F9B00707A73046AC2AF7E1F033D7A1F0636D266
:102FAB00AF7E1F063E693100079934C2AF7E1F0307
:102FBB003D7A1F0632D2AF7E0F06367E1F06329F3A
:102FCB00107A1F063AE47E1F063E39B100027E1FBF
:102FDB00063A7E0F063E79300023792000217E2FA2
:102FEB00063A7E0F063E2E140015693000020B0ABE
:102FFB00202F12793000021B0A207E0F063E2E1462
:10300B000019693000020B0A200B1C793000021BDF
:10301B000A207E0F063E6950000B694000097E1F97
:10302B00063ABF1228087930000B792000097E0F71
:10303B00063E6950000F6940000D7E1F063ABF1215
:10304B0050087930000F7920000D7E7F063E6917FE
:10305B00001B690700196937001769270015121340
:10306B001679370013792700110BE0BCFE280302F9
:10307B002F7F74FF7AB3046A4CFF780E7E37046B94
:10308B004D3368067E37046B9934DA3B227F70141C
:10309B00BEB00A40030232127EA003A49030AB7381
:1030AB000230C90230DE0230F402310A0231200252
:1030BB00313602314C0231620231780231C20B7A65
:1030CB00107E34FED57E24007E7A1B207E34FED605
:1030DB0002320B691700027E34FED77E24007E7A03
:1030EB001B207E34FED802320B691700047E34FE9F
:1030FB00D97E24007E7A1B207E34FEDA02320B69E5
:10310B001700067E34FEDB7E24007E7A1B207E3485
:10311B00FEDC02320B691700087E34FEF57E2400BC
:10312B007E7A1B207E34FEF602320B6917000A7E74
:10313B0034FEF77E24007E7A1B207E34FEF80232AA
:10314B000B6917000C7E34FEF97E24007E7A1B205F
:10315B007E34FEFA02320B6917000E7E34FEFB7EC4
:10316B0024007E7A1B207E34FEFC02320B0B7A107D
:10317B007E34FED57E24007E7A1B207E34FED67AEA
:10318B001B30691700027E34FED77A1B207E34FE7B
:10319B00D87A1B30691700047E34FED97A1B207E47
:1031AB0034FEDA7A1B30691700067E34FEDB7A1B9D
:1031BB00207E34FEDC8049691700087E34FEF57EE4
:1031CB0024007E7A1B207E34FEF67A1B30691700B2
:1031DB000A7E34FEF77A1B207E34FEF87A1B3069A8
:1031EB0017000C7E34FEF97A1B207E34FEFA7A1B14
:1031FB00306917000E7E34FEFB7A1B207E34FEFCFA
:10320B007E24007E7A1B3022CAD8CA797F7029D7D8
:10321B000002BED063280574FF02338529E7000343
:10322B00BEE00C280574FF02338529F70004BEF0BD
:10323B001F280574FF02338529870005BE801728D8
:10324B000574FF02338529970006BE903B28057451
:10325B00FF02338529070007BE003B280574FF02D8
:10326B00338529170008BE107F280574FF023385AC
:10327B0029270009BE2017280574FF02338529373B
:10328B00000ABE303B280574FF02338529A7000BCB
:10329B00BEA03B280574FF02338529B7000CBEB0D6
:1032AB007F280574FF0233857E34FE687E24007E02
:1032BB007A1BD07E34FE697A1BE07E34FE6A7A1B61
:1032CB00F07E34FE6B7A1B807E34FE6C7A1B907E14
:1032DB0034FE6D7A1B007E34FE6E7A1B107E34FE3C
:1032EB00647A1B207E34FE657A1B307E34FE667A50
:1032FB001BA02937000C7E34FE677A1B3029B700E0
:10330B0001701F74807E34FE047E24007E7A1BB015
:10331B007E34FE047E24007E7E1BB030E0F274030C
:10332B00801D74C07E34FE087E24007E7A1BB07E26
:10333B0034FE087E24007E7E1BB030E0F274017EEA
:10334B0034FE617E24007E7A1BB07E7BB0B4011DFF
:10335B0074017E34FE607E24007E7A1BB07E34FEC8
:10336B00617E24007E7E1BB020E0F2800CE47E3474
:10337B00FE607E24007E7A1BB0E4DA79DAD822CAAA
:10338B003B7F3014BEB00A40030234FB7EA003A483
:10339B0090339F730233BD0233CF0233E30233F713
:1033AB0002340B02341F02343302344702345B0203
:1033BB0034AB74D50B3A300A36127D8874D60B3A7F
:1033CB00300234A674D7693300020A36127D887432
:1033DB00D8693300020234A674D9693300040A3663
:1033EB00127D8874DA693300040234A674DB693306
:1033FB0000060A36127D8874DC693300060234A697
:10340B0074F5693300080A36127DAD74F669330022
:10341B00080234F874F76933000A0A36127DAD746A
:10342B00F86933000A0234F874F96933000C0A3670
:10343B00127DAD74FA6933000C0234F874FB6933F6
:10344B00000E0A36127DAD74FC6933000E0234F89F
:10345B0074D50B3A300A36127D8874D60B3A30127B
:10346B007D8874D7693300020A36127D8874D86957
:10347B00330002127D8874D9693300040A36127D39
:10348B008874DA69330004127D8874DB69330006B3
:10349B000A36127D8874DC69330006127D888050F1
:1034AB0074F5693300080A36127DAD74F669330082
:1034BB0008127DAD74F76933000A0A36127DAD74BC
:1034CB00F86933000A127DAD74F96933000C0A36C2
:1034DB00127DAD74FA6933000C127DAD74FB693348
:1034EB00000E0A36127DAD74FC6933000E127DADF1
:1034FB00DA3B22CA3B7F3074017AB3071C740C127F
:10350B0085F67AB3071730E760740D1285F67AB338
:10351B000718740E1285F67AB30719740F1285F615
:10352B007AB3071A74057AB3071C740C1285F67AF2
:10353B00B3071B7EA307190A3A7D036D117EA30700
:10354B00187C4A6C556D332F107EA3071A6D007CC7
:10355B002A2F010A3B6D222F1074031E341E245098
:10356B00034E60801478F48030740D1285F67AB3B4
:10357B00071874037AB3071C740E1285F67AB30717
:10358B00197EA307187C4A6C550A3B2D321E341E3C
:10359B00341E341E341E346D22793300037923001C
:1035AB00017EB30717237C6B5E60017CB6035480EE
:1035BB007E3B705E707F4C7B7A3B707EB30717232C
:1035CB00237C6B5E60017CB6030354C07E3B705E54
:1035DB0070BF4C7B7A3B707E6307175E600F7E3B40
:1035EB00705E70F04C767A3B70E480277EA3071CEC
:1035FB007CBA047AB3071C7CBA5403240C1285F6EC
:10360B007EA307160A3A2D377D2639B100057EB306
:10361B000716047AB307167E3BB0540FBEB30716DA
:10362B00281F7E730716BE700840C180147EA30747
:10363B001C7CBA047AB3071C7CBA5403240C128585
:10364B00F67EB3071C540378E4DA3B227C7BA5BFE0
:10365B00010280030236E9E598543F4440F598A9EE
:10366B00D787C299D29CD2AC7E0BB0B4010F7E34FB
:10367B00FDC07E24007E7E1BB04480800D7E34FD19
:10368B00C07E24007E7E1BB0547F7A1BB029B00015
:10369B0001B4010F7E34FDC47E24007E7E1BB0443A
:1036AB0020800D7E34FDC47E24007E7E1BB054DF53
:1036BB007A1BB029B00002B4010F7E34FDC47E2406
:1036CB00007E7E1BB04410800D7E34FDC47E240032
:1036DB007E7E1BB054EF7A1BB07401023786A5BFF8
:1036EB000202800302378FE59A543F4450F59AA9A2
:1036FB00D28EA9D48EA9D0AF7E34FDB47E24007EA9
:10370B007E1BB044807A1BB07E0BB0B4010F7E34AD
:10371B00FDC87E24007E7E1BB04480800D7E34FD70
:10372B00C87E24007E7E1BB0547F7A1BB029B0006C
:10373B0001B4010F7E34FDCC7E24007E7E1BB04491
:10374B0020800D7E34FDCC7E24007E7E1BB054DFAA
:10375B007A1BB029B00002B4010F7E34FDCC7E245D
:10376B00007E7E1BB04410800D7E34FDCC7E240089
:10377B007E7E1BB054EF7A1BB074026930000312CB
:10378B006930E42274FF22CA7BCA6BCA5BCA4BCA7C
:10379B0079CA2BCA1BCA0BC0D1C0D0C083C0827ED2
:1037AB0034FEBB7E24007E7E1BF07EE1975397F7A1
:1037BB0074031285F67CAB5404B4041874037E3482
:1037CB00FEBB7E24007E7A1BB074047E34FEBC7A72
:1037DB001BB0C2157CBA5408B4081874037E34FEAF
:1037EB00BB7E24007E7A1BB074087E34FEBC7A1B31
:1037FB00B0D2137CBA5440B4401674037E34FEBB73
:10380B007E24007E7A1BB074407E34FEBC7A1BB0E3
:10381B007CBA5420B42026E47E14FEBB7E04007ECA
:10382B007A0BB07E34FEBC7E24007E7E1BB054FB34
:10383B007A1BB074037A0BB074207A1BB07CBA5429
:10384B0010B4101674037E34FEBB7E24007E7A1BEC
:10385B00B074107E34FEBC7A1BB07CBA5402B40236
:10386B001674037E34FEBB7E24007E7A1BB074027A
:10387B007E34FEBC7A1BB07CBA5401B401167403BF
:10388B007E34FEBB7E24007E7A1BB074017E34FE38
:10389B00BC7A1BB07AE1977E34FEBB7E24007E7A25
:1038AB001BF0D082D083D0D0D0D1DA0BDA1BDA2B3D
:1038BB00DA79DA4BDA5BDA6BDA7B32CA7BCA6BCA40
:1038CB005BCA4BCA79CA2BCA1BCA0BC0D1C0D0C0AA
:1038DB0083C0827E34FEBB7E24007E7E1BF07EE1A5
:1038EB009743970874031285F67CAB5404B4041801
:1038FB0074037E34FEBB7E24007E7A1BB074047E80
:10390B0034FEBC7A1BB0C2167CBA5408B4081874C7
:10391B00037E34FEBB7E24007E7A1BB074087E349B
:10392B00FEBC7A1BB0D2147CBA5440B4401674035C
:10393B007E34FEBB7E24007E7A1BB074407E34FE48
:10394B00BC7A1BB07CBA5420B42026E47E14FEBB98
:10395B007E04007E7A0BB07E34FEBC7E24007E7E1D
:10396B001BB054FB7A1BB074037A0BB074207A1B18
:10397B00B07CBA5410B4101674037E34FEBB7E2494
:10398B00007E7A1BB074107E34FEBC7A1BB07CBAFE
:10399B005402B4021674037E34FEBB7E24007E7A7E
:1039AB001BB074027E34FEBC7A1BB07CBA5401B4DB
:1039BB00011674037E34FEBB7E24007E7A1BB0742A
:1039CB00017E34FEBC7A1BB07AE1977E34FEBB7E5F
:1039DB0024007E7A1BF0D082D083D0D0D0D1DA0BEA
:1039EB00DA1BDA2BDA79DA4BDA5BDA6BDA7B32CA8F
:1039FB003B7A1F06EE7AB306ED7F30BE38000078B7
:103A0B0003023B137EB306EDBEB0104003023B1323
:103A1B007EA003A4903A2373023A53023A5B023A14
:103A2B0063023A6B023A73023A7B023A83023A8B95
:103A3B00023A93023A9B023AA3023AAB023AB3021E
:103A4B003ABB023AC3023AC94391015392FE806ECC
:103A5B004391025392FD80664391045392FB805E27
:103A6B004391085392F780564391105392EF804E37
:103A7B004391205392DF80464391405392BF803E47
:103A8B0043918053927F80364393015394FE802E53
:103A9B004393025394FD80264393045394FB801E5F
:103AAB004393085394F780164393105394EF800E6F
:103ABB004393205394DF80064393405394BF741F6A
:103ACB007AB306F2740F7AB306F3E47AB306F47A98
:103ADB00B306F574017AB306F67E0806F2125BF2B2
:103AEB0074011287466D33793300019F11793300CE
:103AFB0009792300077E1F06EE7933000579230031
:103B0B00037E7306ED7A3B70DA3B22CA3B7F30E4CF
:103B1B007AB306E07E548B2D7E4400FF693200069B
:103B2B0069220004691200020B2A007A1F06E57A4B
:103B3B000F06E19F117A1F06E974937E0806E012C7
:103B4B0000F67EB306E030E0F074397E70947E08A8
:103B5B0006E17E2400081251B87E6306E46C777E82
:103B6B005306E37C46E41212CB793300021B3A2056
:103B7B007E6306E67E5306E57C46E41212CB793370
:103B8B000006792300047E6306E87E5306E77C4635
:103B9B00E41212CB7933000A79230008691300066B
:103BAB006903000469F300020B3AE07F171210A7B8
:103BBB006913000A690300081210A77A1F06E94D62
:103BCB002368597E0F06E97F171211FF6D117E04D2
:103BDB0042C812115F793300021B3A206933000689
:103BEB00692300047E0F06E91211FF6D117E04425A
:103BFB00C812115F79330006792300046933000A78
:103C0B00692300087E0F06E91211FF6D117E044235
:103C1B00C812115F7933000A79230008DA3B2212AC
:103C2B0085E374FF7E0807807E70011287BF7009E1
:103C3B007EB30780BEB015680374012274097E0839
:103C4B0007817E70011287BF60037402227EB30767
:103C5B008144407AB3078174097E73078112002E69
:103C6B0060037402227E34000A12845A74027E703E
:103C7B00E012002E600374032274037E70021200A4
:103C8B002E6003740422E47AB3078174067E7307F3
:103C9B008112002E600374052274047E7307811257
:103CAB00002E600374052274057E73078112002EAB
:103CBB00600374052274087E700F12002E6003746B
:103CCB00062274097E700312002E6003740722749F
:103CDB000A7E702312002E6003740822740C7E700F
:103CEB003F12002E6003740922740D7E703F120088
:103CFB002E600374092274107E707F12002E6003F5
:103D0B0074092274217E700112002E6003740A2242
:103D1B00E47E0807827E70011287BF74017E08075C
:103D2B00827E70011287BF74017AB307A0E422CAA6
:103D3B00F87EF3069A7CBF5480B480167EB3069D42
:103D4B0070307EB3069C702A7E3706A0BE3400020C
:103D5B006803023E367CBF540F14681B14683C0B7F
:103D6B00B16803023E367EB3069F70067EB3069E95
:103D7B00601E023E3680197EB306ACB4040F7EB3D0
:103D8B00069F6003023E367EB3069E6003023E36FC
:103D9B007E34544B7E2400FF023E267EB306ACB429
:103DAB0004067EB3069F6003023E367E73069E7C3E
:103DBB00A75EA00F2E70FB68372E708068052E70E3
:103DCB000378687E2400017CBA60053E241478FBDE
:103DDB007E7306B46C665C754D33680A7E34544D45
:103DEB007E2400FF80357E34544B7E2400FF802BD5
:103DFB007E2400017CBA60053E241478FB7E73069A
:103E0B00B56C665C754D33680A7E34544D7E240068
:103E1B00FF80087E34544B7E2400FF7A1F06B07E51
:103E2B003400027A3706AE80078000128770800359
:103E3B00128689DAF8227F70E47E34FA227E24001F
:103E4B007E7A1BB0691700037E34FA277A1B207E1B
:103E5B0034FA287A1B30691700057E34FA257A1B51
:103E6B00207E34FA267A1B30693700077E14FA233A
:103E7B007E04007E7A0B700A167E34FA847A1B302D
:103E8B002967000ABE600338137E14FA297E0400EA
:103E9B007E7E0B705E70FC4C767A0B7029B700013E
:103EAB00B4010F7E34FA207E24007E7E1BB044408A
:103EBB00800D7E34FA207E24007E7E1BB054BF7AA8
:103ECB001BB029B70002B4010F7E34FA207E240008
:103EDB007E7E1BB04420800D7E34FA207E24007E33
:103EEB007E1BB054DF7A1BB029B70009B4010F7EDB
:103EFB0034FA297E24007E7E1BB04404800D7E3470
:103F0B00FA297E24007E7E1BB054FB7A1BB07E7B8D
:103F1B00B0B4010F7E34FA217E24007E7E1BB044A8
:103F2B0080800D7E34FA217E24007E7E1BB0547F70
:103F3B007A1BB022CA3B7A1F06127F30BE380000B4
:103F4B006815695300020B3A40BE280000680869E7
:103F5B003300044D3378079F009F1102403A6933B9
:103F6B0000063E343E347F022D13693000020B0AEB
:103F7B00201203FB7F407F517F732EF4000A0B7AD4
:103F8B00006917000269270004693700061201F166
:103F9B001B7A007917000279270004793700067E17
:103FAB000F0612695300063E543E54693300020B50
:103FBB003A202D35791100021B1A007E1F061212B2
:103FCB0003FB7F732EF4000A0B7A8069970002695A
:103FDB00A7000469B700061201F51B7A00791700D8
:103FEB00027927000479370006693300060B346920
:103FFB002300048D32792300066923000469330002
:10400B0008BD32500B7F032E1400080B341B0A30F3
:10401B0069230008E41203AB7F407F516903000A58
:10402B006913000C6923000E69330010120307DAC1
:10403B003B22CA59CA1BCA0BC0D17E34FE827E24D6
:10404B00007E7E1BB054BF7A1BB07E34FAAD7E1B54
:10405B00B030E2087E1BB054FB7A1BB07E34FE847A
:10406B007E24007E7E1BB030E60B7E1BB054BF7AE5
:10407B001BB002412F7E1BB030E55C7E1BB054DFC2
:10408B007A1BB07EB3078D700974017AB3078D026A
:10409B00412F7EB3078C702174017AB3078C7E1489
:1040AB00FE877E04007E7E0B307A33078E7E3307CD
:1040BB008E0A1309B106FF80457E14FE877E04002D
:1040CB007E7E0BA07E33078E7CB3047AB3078E0AF9
:1040DB001319A106FF804D7E1BB030E42E7E1BB062
:1040EB0054EF7A1BB07E1BB030E10474FF800F7E5F
:1040FB00B3078E047AB3078E0A1B09B106FF7E1431
:10410B00FE867E04007E7A0BB080197E1BB030E3F6
:10411B00137E1BB054F77A1BB0E47AB3078D7AB3D6
:10412B00078CD220D0D1DA0BDA1BDA5932CA3B7F9B
:10413B00307C7BA5BF001AA9C397E47E70041200E4
:10414B006E7E3BB0B40105A9D1978026A9C197809B
:10415B0021A5BF01028003024220A9D397E47E7000
:10416B000412006E7E3BB0B40105A9D2978003A95F
:10417B00C2977406CAB829B30002030354C029734B
:10418B0000032C7BDAB812006E7407CAB8296300DF
:10419B00067CB6C454F07C6B29B300040354802C0A
:1041AB006B297300052C76DAB812006E7410297324
:1041BB00000912006E74112973000A12006E74123A
:1041CB002973000B12006E74132973000C12006E0E
:1041DB0074142973000D12006E74152973000E12DE
:1041EB00006E74162973000F12006E74172973007A
:1041FB001012006E74037E70FF12006E740429732C
:10420B00000112006EE4296300073E602973000869
:10421B004C7612006EC215C216DA3B22CA79740EA6
:10422B007E700512830774141286427CFB30E608FD
:10423B0074147E70801283077CBF20E00302430955
:10424B007E1406407E04000174251273E07AB306D7
:10425B00A27E1F06A64D2378030242F06CFF807AE4
:10426B007EB306A31A3B7E0F06A62D317D207E1B47
:10427B00A00A4F2E4406407A91827A81837EEBE02E
:10428B00BCEA7840047AB306A37E7306A31A372DD3
:10429B00317D207E1BB0704074146C77128307E461
:1042AB007E34FE007E24007E7A1BB075F40053DC56
:1042BB00F07E34FE077A1BB07E34000A1283CE7573
:1042CB00C76080FE7E1F06A67E1B70BCE778047459
:1042DB00018001E47AB306A30BF07E7306A2BC7FC8
:1042EB00280302426BD2177E3706A44D33680F7E2C
:1042FB003706A4993474146C77128307C217DA79D2
:10430B0022CA3B7F317A0F00087E548B357E4400E6
:10431B00FF69320004692200020B2A107A1F000E7B
:10432B007A17000CE47AB300127E1800037A1F0090
:10433B001B7AB3001F7E1F00084D2378030243CB6B
:10434B00BE380000687AE47E0800127E7001128786
:10435B00BF7EB300125440B4400874017AB3001FFF
:10436B00800E7E1F001B1B1C7A1F001B4D2378D653
:10437B007EB3001F604A74077E08000C7E70061225
:10438B0087BF7E63000D6C777E53000C0A257E730E
:10439B00000E6D227A1F00137E6300106C777E7304
:1043AB0000117A1F00177E0F00137E1F0008791172
:1043BB0000021B1A007E1F0017793300021B3A20E4
:1043CB00DA3B227F70E47E34FA027E24007E7A1B75
:1043DB00B0691700017E34FA077A1B207E34FA0885
:1043EB007A1B30691700037E34FA057A1B207E3462
:1043FB00FA067A1B30693700057E14FA037E040037
:10440B007E7A0B700A167E34FA807A1B3029B7003D
:10441B0007B4010F7E34FA007E24007E7E1BB0446D
:10442B0020800D7E34FA007E24007E7E1BB054DF8C
:10443B007A1BB029B70008B4010F7E34FA007E2432
:10444B00007E7E1BB04410800D7E34FA007E24006B
:10445B007E7E1BB054EF7A1BB07E7BB0B4010F7E17
:10446B0034FA017E24007E7E1BB04480800D7E34A6
:10447B00FA017E24007E7E1BB0547F7A1BB0227F14
:10448B0070E47E34FE537E24007E7A1BB029B70085
:10449B0001B4010F7E34FE507E24007E7E1BB0449F
:1044AB0001800D7E34FE507E24007E7E1BB054FEB8
:1044BB007A1BB029B70002B4020F7E34FE507E2463
:1044CB00007E7E1BB04402800D7E34FE507E2400A5
:1044DB007E7E1BB054FD7A1BB029670003BE6007BC
:1044EB0038173E603E607E14FE517E04007E7E0BCC
:1044FB00705E70E34C767A0B7029670004BE600324
:10450B0038137E14FE517E04007E7E0B705E70FCB1
:10451B004C767A0B707E7BB0B4010F7E34FE527EEC
:10452B0024007E7E1BB04480800D7E34FE527E24A0
:10453B00007E7E1BB0547F7A1BB0227F7029B700A0
:10454B0002B401487E14FE807E04007E7E0BB044D4
:10455B00407A0BB0E47E34FE827E24007E7A1BB060
:10456B007E7B605E603F7E0B705E70C04C767A0B1C
:10457B007029B70003B4010A7E34FE887E24007EC6
:10458B0080457E34FE887E24007E80347E34FE801F
:10459B007E24007E7E1BB054BF7A1BB0E47E34FEBB
:1045AB00847A1BB0292700043E207E34FE857E1BB7
:1045BB00305E30014C327A1B3029B70005B401074D
:1045CB007E1BB054FE80057E1BB044017A1BB029C4
:1045DB00B70001700F7E34FE807E24007E7E1BB000
:1045EB00547F800D7E34FE807E24007E7E1BB04483
:1045FB00807A1BB022E47AB3046974FF7AB3046A3D
:10460B006D337A37046B9F117A1F03397A1F033D81
:10461B009F007425ACB75915034C5905034A7E0C02
:10462B00FFFF7425ACB7591503505905034E9F0076
:10463B007425ACB759150354590503527425ACB7FF
:10464B0059150358590503567425ACB75915035C16
:10465B005905035A7425ACB7591503605905035E08
:10466B007425ACB759150364590503626C66742540
:10467B00ACB7196503437425ACB7591503465905F7
:10468B0003440B70BE70084087E47E34FEA07E248A
:10469B00007E7A1BB0438E805389F0758A40758CEF
:1046AB00A2C28DD28CD2A9227F70E47E34FA9A7E7C
:1046BB0024007E7A1BB0691700037E34FA9D7A1BA7
:1046CB00207E34FA9E7A1B30693700017E14FA9BE8
:1046DB007E04007E7A0B700A167E34FAA87A1B30A1
:1046EB007E34FAA27A1BB0691700087E34FAA57AD9
:1046FB001B207E34FAA67A1B30693700067E14FA2B
:10470B00A37A0B700A167E34FAAA7A1B307E7BB022
:10471B00B4010F7E34FA997E24007E7E1BB0448058
:10472B00800D7E34FA997E24007E7E1BB0547F7AF6
:10473B001BB029B70005B4010F7E34FAA17E24000B
:10474B007E7E1BB04480800D7E34FAA17E24007ED9
:10475B007E1BB0547F7A1BB022CA3B7A37063B7F55
:10476B00307EB306ACB40402800302480E6D337A7C
:10477B0037063E7E3413887A370640A9C7AF740ECE
:10478B007E7005128307741112864230E018A9D788
:10479B00AF7E34000A127FA07E3706401B347A3777
:1047AB000640685F80D57E27063BBE240040080587
:1047BB007E704080027C757A73063DA9C7AFC21923
:1047CB00740E7E70051283077F032E17063E7EB391
:1047DB00063D7E70051200AED219A9D7AF7E7306C7
:1047EB003D0A277D322E37063E7A37063E7E370648
:1047FB003B9D327A37063B7E73063DBE70404003CD
:10480B0002477EDA3B22CA3B6D777D27E41212CB3F
:10481B007E140FDA7E04C0C912115F6D117E044342
:10482B00801211FF7A1F077C1203FB120610120471
:10483B003D7F017D373E343E342E3404007A718245
:10484B007A6183791E00021BEA207E1F077C12030C
:10485B00FB12063112043D7F017D373E343E342E70
:10486B003400007A71827A6183791E00021BEA2080
:10487B000B74BE74008078926D667E7401000B64BD
:10488B001E74BE74000138F66D777D377D26127F5E
:10489B00297D237D373E342E3402007A71827A6172
:1048AB00831BEA200B74BE74010040DEDA3B227DD1
:1048BB00437E3488C87E2400FF0B1A50BD54380742
:1048CB006D337E24C220227E348AA87E2400FF0B07
:1048DB001A50BD5440076D337E244348226DFF7D33
:1048EB003F1A261A242F117F012E0400FF2E088851
:1048FB00C80B0A50BD54400F2E2400FF2E1888CA37
:10490B000B1A50BD5428080BF4BEF400F048D07DB0
:10491B003F1A261A247F012F017F102E2400FF2E11
:10492B001888CA0B1A302E0400FF2E0888C80B0AF1
:10493B00E07D2E9D23E41212CB7F017D2E9D24E47E
:10494B001212CB1211FF7F017D2F2E24FFD87CB4C6
:10495B001212CB0210A753B2FC43B10374807E3406
:10496B00FE077E24007E7A1BB07E34FE077E240079
:10497B007E7E1BB030E0F253DCF075F4907428129D
:10498B000056E46C7712830774017E70081283075C
:10499B0074077E703F12830774097E703F12830782
:1049AB00740B7E700712830774016C77128307E414
:1049BB0012005674027AB306ACE47AB306AD7AB33E
:1049CB0006B47AB306B5C2197E3401007E2400C248
:1049DB007A1F072B7AB3072F7AB3073074087AB391
:1049EB000731A9D7AF74017AB306127EB3061270E2
:1049FB000B9F117A1F06139F000204A0227EB306A1
:104A0B00ACBEB00268207EB3069A701A7EB3069DC8
:104A1B0070147EB3069F700E7EB3069E70087E37B1
:104A2B0006A04D3368030287707EB3069CB4015F0A
:104A3B0074047AB306ACE47AB306B47AB306B574ED
:104A4B000E7E700212830774127E7020128307741D
:104A5B00107E7008128307740E7E70051283077424
:104A6B00127E702012830774107E700812830774F5
:104A7B000E7E700512830774126C77128307741302
:104A8B007E7008128307740E6C7712830780107484
:104A9B00037AB306AC74FF7AB306B47AB306B502E5
:104AAB0087997EB306ACB404277EB3069AB4022072
:104ABB007EB3069F6003024B4B7EB3069D600302E1
:104ACB004B4B7EB3069C70787E3706A04D33680245
:104ADB00806E7E63069E7C765E700F2E60FB683068
:104AEB002E608068052E600378567E2400017CB70B
:104AFB0060053E241478FB7C656E60FF5E6306B434
:104B0B007A6306B4740E12830774117E704080248E
:104B1B007E2400017CB760053E241478FB7C656E17
:104B2B0060FF5E6306B57A6306B5740E1283077475
:104B3B00147E7080128307740E6C771283078003C8
:104B4B000287700287997EB3069A5480BEB0806844
:104B5B0003024BDC7EB3069D1BB168191468280B4E
:104B6B00B1786E7E3453F67E2400FF7A1F06B07E3A
:104B7B0034001280547E3454087E2400FF7A1F06C2
:104B8B00B07E34004380427EB3069C1468191468CF
:104B9B00280BB1783C7E3453F27E2400FF7A1F063B
:104BAB00B07E34000480227E34544F7E2400FF7A82
:104BBB001F06B07E34000880107E3453D47E240050
:104BCB00FF7A1F06B07E34001E7A3706AE80058052
:104BDB00000287707E3706A0BE3706AE50047A37C8
:104BEB0006AE028689CA3B7A37076B7F306D337A04
:104BFB0037076E024C8174387AB3076D7E37076BBB
:104C0B00BE34003850047A73076D1283537E7307DA
:104C1B006D0A572E540003900604F074CF900605CE
:104C2B00F07E17076E7E3406067E2400011B1A10D9
:104C3B007E73076D0A37CA397F137E1406087E040C
:104C4B000001127DD21BFD7E73076D0A372E3400D7
:104C5B00080A3712880C7E73076D0A372D737E7323
:104C6B00076D0A272E37076E7A37076E7E37076B6D
:104C7B009D327A37076B7E37076B4D336803024CD7
:104C8B0001DA3B22CA3B7A3707667F306D337A37BE
:104C9B000769024D2074387AB307687E370766BE02
:104CAB0034003850047A73076812836C7E7307687C
:104CBB000A572E540003900604F074AF900605F0CB
:104CCB007E1707697E3406067E2400011B1A107EB0
:104CDB007307680A37CA397F137E1406087E0400EF
:104CEB0001127DD21BFD7E7307680A372E34000834
:104CFB000A3712880C7E7307680A372D737E730789
:104D0B00680A272E3707697A3707697E3707669D4A
:104D1B00327A3707667E3707664D336803024CA03D
:104D2B00DA3B227EB306ACB404247EB3069AB402FB
:104D3B001D7EB3069F6003024DC37EB3069D707844
:104D4B007EB3069C70727E3706A04D336802806876
:104D5B007E63069E7C765E700F2E60FB682D2E6048
:104D6B008068052E600378507E2400017CB76005B7
:104D7B003E241478FB7C654E6306B47A6306B474E8
:104D8B000E12830774117E701080217E2400017C2B
:104D9B00B760053E241478FB7C654E6306B57A63D9
:104DAB0006B5740E12830774147E70201283077479
:104DBB000E6C7712830780030287700287997C261B
:104DCB007C377C6BBE600A280374FF22BE2003284D
:104DDB000374FF222E60F668390B60786A7E34FE0E
:104DEB00C47E24007E7A1B30A5BA0006A9C2B6A9E0
:104DFB00C2B5A5BA0106A9C2B6A9D2B5A5BA020613
:104E0B00A9D2B6A9C2B5A5BA0348A9D2B6A9D2B53B
:104E1B0080407E34FEE47E24007E7A1B30A5BA00EF
:104E2B0006A9C3B6A9C3B5A5BA0106A9C3B6A9D32A
:104E3B00B5A5BA0206A9D3B6A9C3B5A5BA0313A9DA
:104E4B00D3B6A9D3B5800B7E34FEE47E24007E7AE4
:104E5B001B30E4227D436C550A3B1B347C670B0AE9
:104E6B0050BD54400569300002227404ACB67F700B
:104E7B002DF50B7A50BD5438266937000222801F5E
:104E8B000AF60A552D5F0E547C7B7404ACB77F7009
:104E9B002DF50B7A50BD5428047C6780027C570A91
:104EAB00F50A569D5FBE54000118D57E70047CB583
:104EBB00ACB77F602DD50B6AE07CB6ACB77F102DFD
:104ECB00350B1A1069F6000269210002BDE1780367
:104EDB007D3F229D2F7D349D3EAD329D1E121314BE
:104EEB007F017D3F6D222F102274FD1283FE7E34D5
:104EFB00000A12845A7E0807327406125D047E087B
:104F0B0007327402127530BEB30734786F7E080710
:104F1B00357402127530BEB3073778607E63073283
:104F2B006C777E5307337C467E6307357E330736BB
:104F3B000AD34DD3E41212CB7EF4FF007EE4477FFD
:104F4B007F071211FF6D117E04432F12115F6D113C
:104F5B007E04C2341210A77A1F06FB7D2DE41212B9
:104F6B00CB7F071211FF6D117E0442FA12115F6D98
:104F7B00117E04C0C01210A77A1F06F722CA3B7A13
:104F8B001F06CE7F306D337A3706D27E3706D23E80
:104F9B00343E343E347F032D1369D000020B0AC01C
:104FAB007A6F06D469300006692000047A1F06D890
:104FBB007F0112115F7F717F167F0612115F7F07D2
:104FCB001210A77A1F06DC9F779F001212805004E5
:104FDB007A7F06DC7E1F06DC1203FB1204C212046E
:104FEB003D7F017E5706D23E543E547E1F06CE2D8A
:104FFB0035791100021B1A007E3706D20B347A3733
:10500B0006D2BE3401004083DA3B22CA3B7A270723
:10501B00467F307A7307457AB30744BE3800006881
:10502B00087E3707464D33780474018068127F4839
:10503B007EB307443EB0125CAB50557EB3074512AE
:10504B005CAB504C127F487EB307443EB044011218
:10505B005CAB503C6D3380247E3707461B34BE3728
:10506B0007482804D21F8002C21F125E0A7F132E2C
:10507B003707487A1BB07E3707480B347A37074817
:10508B007E370746BE37074838CE127FBDE4800512
:10509B00127FBD7401DA3B227CA7BEB001280374DA
:1050AB00FF22BE6003280374FF2214683A04786E53
:1050BB00BEA0017805A9D1F18003A9C1F1A5BE005D
:1050CB0006A9C3F1A9C0F1A5BE0106A9C3F1A9D0D8
:1050DB00F1A5BE0206A9D3F1A9C0F1A5BE0342A951
:1050EB00D3F1A9D0F1803ABEA0017805A9D5F18002
:1050FB0003A9C5F1A5BE0006A9C7F1A9C4F1A5BEB8
:10510B000106A9C7F1A9D4F1A5BE0206A9D7F1A939
:10511B00C4F1A5BE030BA9D7F1A9D4F1800374FF89
:10512B0022E422CAF8740E6C77128307741112866C
:10513B00427CFB30E20F74117C7F5E70FB128307A5
:10514B00E47AB306AD7CBF30E40A74117C7F4E70F9
:10515B00801283077EB306AD24FD68461468480BA6
:10516B00B278477CBF30E0427E08069A74201273F7
:10517B00E07E3706A012759A7A3706A07EB3069AA0
:10518B00546024E0680D24E0680E2440780F125C14
:10519B004F801712814380121200E6800D12877028
:1051AB0080081258DA8003126219DAF822CA3B7AA5
:1051BB0027073A7F307A7307397AB30738127F485B
:1051CB007EB307383EB0125CAB4007127FBD74FF55
:1051DB0080617EB30739125CAB4007127FBD74FE52
:1051EB008051127F487EB307383EB04401125CAB4E
:1051FB004007127FBD74FD803A6D3380247E3707E4
:10520B003A1B34BE37073C2803D38001C3921F12CD
:10521B005E0A7F132E37073C7A1BB07E37073C0B99
:10522B00347A37073C7E37073ABE37073C38CE1205
:10523B007FBDE4DA3B22A2B2E43378046CAA80038C
:10524B007EA0017EB3076214681D1468350BB1781C
:10525B006D4CAA786974017AB307626D337A37079C
:10526B0064E47AB30763224CAA78147E3707640B85
:10527B00347A370764BE34000240437402803BE447
:10528B0080384CAA78277E3707640B347A3707644B
:10529B007EB3076370287E370764BE340032401E2E
:1052AB0074017AB3076374027AB30761227EB30782
:1052BB0063700674017AB30761E47AB3076222CA9A
:1052CB00B8CA1BC0D17E34FEC57E24007E7E1BB0C7
:1052DB0030E0087E1BB054FE7A1BB07E1BB030E171
:1052EB00087E1BB054FD7A1BB07E1BB030E2087EEB
:1052FB001BB054FB7A1BB07E1BB030E3087E1BB097
:10530B0054F77A1BB07E1BB030E4087E1BB054EF11
:10531B007A1BB07E1BB030E5087E1BB054DF7A1BC6
:10532B00B07E1BB030E6087E1BB054BF7A1BB07E3C
:10533B001BB030E7087E1BB0547F7A1BB0D0D1DA9C
:10534B001BDAB832CAB8CA1BC0D17E34FEE57E2444
:10535B00007E7E1BB030E0087E1BB054FE7A1BB083
:10536B007E1BB030E1087E1BB054FD7A1BB07E1B58
:10537B00B030E2087E1BB054FB7A1BB07E1BB03002
:10538B00E3087E1BB054F77A1BB07E1BB030E408E9
:10539B007E1BB054EF7A1BB07E1BB030E5087E1B32
:1053AB00B054DF7A1BB07E1BB030E6087E1BB054C6
:1053BB00BF7A1BB07E1BB030E7087E1BB0547F7AE0
:1053CB001BB0D0D1DA1BDAB8321E035300540043A2
:1053DB00002000550053004200200053006500726E
:1053EB0000690061006C0004030904120100020251
:1053FB00000040BF3402FF0001010200010902431B
:10540B0000020100803209040000010202010005C4
:10541B0024001001052401000104240202052406C6
:10542B000001070582034000FF09040100020A0086
:10543B00000007058502400000070505024000003B
:10544B000000010008035300540043007C267CA796
:10545B007C3BBE3001280374FF22A5BB01254CAA5F
:10546B00780F7E34FE817E24007E7E1BB0547F80BD
:10547B000D7E34FE817E24007E7E1BB044807A1B21
:10548B00B08017A5BB00137E34FE837E24007E7E86
:10549B001B305E30874C3A7A1B30BE2003382AA56E
:1054AB00BA0006A9C5B6A9C5B5A5BA0106A9C5B660
:1054BB00A9D5B5A5BA0206A9D5B6A9C5B5A5BA038E
:1054CB000BA9D5B6A9D5B5800374FF22E422CA3B3C
:1054DB007F30BE380000780474018070C2AF127048
:1054EB00C770047401805B74CC12825174BE12823B
:1054FB0051E47AB3061C127CCB7CAB7EB3061C0A40
:10550B004B19A40612047AB3061CB409E97E0806EB
:10551B001274081275CF7E73061ABC7B6804740272
:10552B0080207E6306137E5306127C467CB61212D5
:10553B00CB6D117E043D8012115F793300021B3A53
:10554B0020E47AB3061BD2AF7EB3061BDA3B22CA2A
:10555B007BCA6BCA5BCA4BCA3BCA2BCA1BCA0BC0E2
:10556B00D0C083C0827EF1FC74061286427CEB7441
:10557B00021286427CCB74041286427CDB7CBE30EA
:10558B00E1031200D17CBE30E20312689C7CBC307C
:10559B00E00312512E7CBC30E203127B5F7CBC30EB
:1055AB00E50312736A7CBD30E5031242277CBE30E3
:1055BB00E0031200CA7AF1FCD082D083D0D0DA0B90
:1055CB00DA1BDA2BDA3BDA4BDA5BDA6BDA7B32CAD1
:1055DB003B7A27075E7F307A73075D7AB3075C12DD
:1055EB007F487EB3075C3EB0125CAB7EB3075D12A7
:1055FB005CAB127F487EB3075C3EB04401125CABE0
:10560B00E48017D21F125E0A7EA307600A3A2D3779
:10561B007D267A1BB07EB30760047AB307607E27C2
:10562B00075E1B247E7307600A37BD3240D5C21F4D
:10563B00125E0A7EA307600A3A2D377D267A1BB0CD
:10564B00127FBDDA3B227F7053E63029B700065438
:10565B003FF5E77E7BB0B40103A9D7E629B700037A
:10566B00B40103A9D1E629B70004B40103A9D7E714
:10567B0029B700057003A9D6E729670001BE6003AF
:10568B0038137E14FEAE7E04007E7E0B705E70FCC3
:10569B004C767A0B7029670002BE600138173E60AA
:1056AB003E607E14FEAE7E04007E7E0B705E70FB51
:1056BB004C767A0B70227F70E47E34FA727E240073
:1056CB007E7A1BB0691700017E34FA777A1B207E35
:1056DB0034FA787A1B30691700037E34FA757A1B1B
:1056EB00207E34FA767A1B30693700057E14FA7304
:1056FB007E04007E7A0B700A167E34FA867A1B3093
:10570B007E7BB0B4010F7E34FA717E24007E7E1B4B
:10571B00B04480800D7E34FA717E24007E7E1BB0F7
:10572B00547F7A1BB022CA3B7A27074C7F307A739F
:10573B00074B7AB3074ABE38000068087E37074C20
:10574B004D33780474018048127F487EB3074A3E7C
:10575B00B0125CAB50357EB3074B125CAB502C6D6B
:10576B003380147F132E37074E7E1BB0125CAB5069
:10577B001A7E37074E0B347A37074E7E37074CBEEF
:10578B0037074E38DE127FBDE48005127FBD7401F2
:10579B00DA3B227CA77C3B7C271E207CB26CB70AB1
:1057AB000B7CB71EB01EB00A4B6D407CB7C4540FB8
:1057BB007C6B0A0B6D045E0400013E043E043E0448
:1057CB003E043E043E047C717CBAC423541F6C2BF4
:1057DB000A220A466D427CBAC40354070A2B6D2475
:1057EB006E24FFFF5E2400013E243E243E243E2413
:1057FB003E243E243E247CB34C7A4C75027AB2CACA
:10580B0059CA1BC0D1A9309A4CA9C09A7E34FDCC81
:10581B007E24007E7E1BB030E102D21D54C0680591
:10582B00E47AB3002D7E1BB054347A1BB07E730028
:10583B002DBE70804005E47AB3002D7EA19B7E7354
:10584B00002D7CB7047AB3002D0A3719A300B97465
:10585B00057AB3002EA9319A08A9C19AE47AB3004C
:10586B002CD0D1DA1BDA5932CA3B7A6307947F30DA
:10587B007A7307937AB307921285A87EB3079212B5
:10588B007B3412861C20D5417EB30793127B3412D6
:10589B00861C20D5341285A87EB307924401127B57
:1058AB003412861C20D522127E1B7A3BB00B747EE1
:1058BB00B30794BEB00168031287197EB307941423
:1058CB007AB3079478E1128728128737DA3B22CA1A
:1058DB00F8740E6C77128307741112864220E15311
:1058EB007E3706AEBE34004028057EF04080027C39
:1058FB00F77E0F06B07C7F7420127BDD0A2F7E377C
:10590B0006AE9D327A3706AE0A157E1F06B02D31D4
:10591B007A1F06B07E3706AE4D33780F74117E704A
:10592B000A128307E47AB306AD800874117E700205
:10593B00128307DAF8227F70BE7800007802804D60
:10594B007E7BB014681714681E14682514682C0B22
:10595B00B2783AE58C7C4B6C55E58A8026E58D7CDC
:10596B004B6C55E58B801CE5D67C4B6C55E5D78095
:10597B0012E5D47C4B6C55E5D58008E5D27C4B6C9D
:10598B0055E5D30A3B4D327937000580076D337EE1
:10599B0024BF802269270005E40212CBCA59CA1B17
:1059AB00C0D130984BC2987E34FDC47E24007E7EDD
:1059BB001BB030E102D21C54C06805E47AB3002856
:1059CB007E1BB054347A1BB07E730028BE708040AF
:1059DB0005E47AB300287EA1997E7300287CB70476
:1059EB007AB300280A3719A3003974057AB3002952
:1059FB00309907C299E47AB30027D0D1DA1BDA5970
:105A0B00327F717F60BE680000685ABE7800006804
:105A1B00547E3706124D33684C79F600021B6AE050
:105A2B007E370612793600046D33793600069F00F7
:105A3B009F117906000A7916000C7926000E79362B
:105A4B0000107936000880159F227D233E243E24CA
:105A5B007F072D12795000021B0A400B347E27065C
:105A6B0012BD2338E3227F70E47E34FA127E2400C9
:105A7B007E7A1BB0691700017E34FA1B7A1B207EDD
:105A8B0034FA1A7A1B30691700037E34FA177A1B23
:105A9B00207E34FA187A1B30293700057E34FA1928
:105AAB007A1B307E7BB0B4010F7E34FA117E24005A
:105ABB007E7E1BB04480800D7E34FA117E24007EE6
:105ACB007E1BB0547F7A1BB0227A1F07077E3407E8
:105ADB000A7E2400007E1B307E34070B7E240000E0
