:1000000002665C0284A01282B9E4220276B3740311
:100010000285950284AB5395F143960E53B1BF43CD
:10002000B240220256947A3706A6220285417A739C
:1000300007BD7CAB74577C7A7E0807BD7E24000127
:1000400002541E0254F77A0F06A222026BA37A37DB
:1000500006A0220284B67AB307C3220284C1C0D1AB
:10006000A9C6E6A9A0E692C7D0D13202248D7C278A
:100070007E34FEBB7E24007E7A1BB07E34FEBC7ACA
:100080001B20220284CC7A37046B220268E5A9D4B3
:10009000C1222202692DA2AF92D5C2AF75C65A7590
:1000A000C6A500000000A2D592AF2202005E7CA788
:1000B0007C7B0A5A2E5400201278C774117E70017E
:1000C000027FCA0239030245B9222202507B028410
:0200D0004622C6
:0600D300024E6C0284469F
:0600DB00024EF102844612
:0700E300023156283029000C
:0300EB0002328A54
:1000F300020126CA3B7F307AB307BE127C0B7472AF
:1001030012598E7EB307BE12598E127C0B74731272
:10011300598EC222125AED7A3BB0127C80DA3B220E
:10012300026A4BCA7BCA6BCA5BCA4BCAF8CA2BCAE0
:100133001BCA0BC0D1C0D0C083C0827EF1FA740544
:100143001285955403B4030F74031285957CAB4C4D
:10015300AB7809D225800574031285957AF1FAD01C
:1001630082D083D0D0D0D1DA0BDA1BDA2BDAF8DAEB
:0B0173004BDA5BDA6BDA7B320275239B
:03018300027A26D7
:03018B0002640902
:03019300027424CF
:03019B0002738B61
:0301A30002748A59
:0301AB000273BE1E
:0301B3000274BD16
:0301BB000273F1DB
:0301C3000274F0D3
:0301CB0002745764
:0301D300025A9736
:0301DB00027B6B39
:0301E3000273584C
:1001EB000273250206DA6E00807CB1337CB0336873
:1001FB000D0468EF7CB5337CB43378037F10220495
:10020B0068E17D5092F77D457D51BF2140067C8092
:10021B007F017F1212069D7EA1D05CB00478032073
:10022B00D5C17CB00478075002B2D50206E292D554
:10023B00BE80FF68F67CB89CB06C00602AB41805D1
:10024B007C410206B650FB80032F00047C9B5E9022
:10025B000778F630E4067C437D106D0030E3087CB4
:10026B00437C327C210A0030F5199F10780E220254
:10027B0006DF1B8068F92F1150020B707CB530E73D
:10028B00F1801B2D317CB5A5397C5B50110B80782F
:10029B00030206E21E341350034E60801A2B020633
:1002AB00B65D22680D5D0078122D220B4068099F08
:1002BB0011222D000B0078F90206DA12069D5C80E4
:1002CB000B806808248150072CB0500A0206E22CE0
:1002DB00B040030206DF7C8B5D1178267CB17CA5D8
:1002EB00BE1080680A5D33780DA5BD80057F1002B6
:1002FB0006CC6D0080307F017C5B7CB17CA5AD12A0
:10030B0080245D337806A5BD80F080E1CA887D41ED
:10031B00AD437CB17CA5AD122D1450020B047C5B5C
:10032B00AD232F01DA88A42D05BE008040060B807B
:10033B00780480982F007C437C507C617C72020691
:10034B00B6BE24FFFF6806BE04FFFF78030206DA81
:10035B0012069D5CB00468F57CB8A54868EF7CB8C4
:10036B0070039F1122A5B800030206E22E008150F4
:10037B00079C8038070206DF9C8050ED0A51C2E7CC
:10038B004D5178030206CC7E5400807E901A6C008F
:10039B0080061B9068142F11BF1040049F104CABAC
:1003AB000330E7EECAA86CAA80E8DA39DA587C4A3F
:1003BB00BE5080500A1B8068BC2F1150020B70027C
:1003CB0006B674F86CAA6E40806E0080BEB0FF68F3
:1003DB00277C837C975C3B5C7BBF10682AF4400DC9
:1003EB007C382D15F45C3B500F0B04800B7C792D66
:1003FB0035F45C7B50020B24BF10680B7CB020E7FC
:10040B00067CB420E701B3227EA020800C7EA010D6
:10041B0080057EA0086C556D333392D5500A6E342F
:10042B00FFFF6E24FFFF0B1CA5EC3340062F11D5ED
:10043B00F0F6227CBA247EA2D5137C767C65A5CC03
:10044B0092E77C5B227CB5337CB43392D54E5080E3
:10045B00248140039F11227C457C567C676C77245A
:10046B00E0500E7E1CFFFF221E341E2450034E60F4
:10047B00800478F430D50A6E34FFFF6E24FFFF0B37
:10048B001C227F507EC400007ED406047E94049E02
:10049B0002071B4001227CEACA89CA5BCA6B128223
:1004AB0057DA6BDA5BDA897E94049E7CAE227F701E
:1004BB007F517E6F05DD7E9404C802071B4005E467
:1004CB007A7BB0227A7BB00B7C227CB5A2E7D2E799
:1004DB007C1B7CB4334009680DB4FF0BA5BDFF0337
:1004EB000206DA0206E2227C0B2481C2E0F582F4DA
:1004FB00042CB07C2BC3137C4B7CB592E77C5B7FCD
:10050B00417CB6A2E77CB1A5BA7F02C31334009439
:10051B00007C2B7EA091A47CBA13F494FEACB23376
:10052B007CBA33248CD3137C5BE492E77C6B6C77C3
:10053B007E403F7583027F517F017F1412034C7FF6
:10054B00051201F49E240080D583EB7E01826C1191
:10055B000E041E042D205E407F223A70FA83BCAA43
:10056B00E9E43E81E0F8BF9DE9E63F8000003928D1
:10057B003C1ABB9969663DA335E3BF255DE73FC9CF
:10058B000FDB418DDBCCC44936EE45C9913FC5B07D
:10059B00F83D3F800000C317F534452FFA73C60AA8
:1005AB00FDDD12063C04A2E192F77DE51420E01C70
:1005BB007E9405657E8400FF7404120B2A80211241
:1005CB00063C30E1046EE4800020E0E47F617E9421
:1005DB0005797E8400FF7404120B2A7F061202AC8D
:1005EB007D5E5D2268055EA0806C4A2212063CCAC5
:1005FB00B87F617E94059D7E8400FF7403120B2AE5
:10060B007F061202AC7F067F617F107E94058D7E84
:10061B008400FF7403120B2ADAB830E00B7F06124A
:10062B00034C7D5EB2F780BA7F017F1612034C80BC
:10063B00AF7DE25E407FBE244F0040051BFD0206EE
:10064B00DA7E14F9837E043E221202ACBE243F8074
:10065B00400E7F011204501204136E40801201F4FD
:10066B00E45D2268242E240180BE243F80401A7F43
:10067B00011204507CB704C2E07C4BCAB812041DB3
:10068B006E40801201F4DAB8035D2268049E2400E8
:10069B0080222D0092D50E104E10807D422D44509D
:1006AB0002B2D54E50806C447CB8222C4450120BB5
:1006BB001C7E40005E507FBE18000078040B8068E3
:1006CB0016A2D57CB8137C4B7CB592E77C5B227E63
:1006DB001CFFFF229F11227E24FF8020D5026C4538
:1006EB006D3322540F2490D43440D430F30CBEB06D
:1006FB00414007BEB05B500224204CCC68021BC0AB
:10070B000B84D389944CCC680B742012070580F5AD
:10071B00CA3B6D889F337CAE7E5BB00B5C7007C3AE
:10072B007D38DA3B8994B42569C2F37E5BB00B5CF0
:10073B00A5F824D0BEB00A501B7E500A20F60DAC93
:10074B005CA52D7CCB70034EF00180DDAC5DA52D3F
:10075B007CDB80D524CFBEB01AA5E850055E00DF48
:10076B00D2F3900AF0A3E4936011BCB078F774173E
:10077B00934CAB30F6B34EF08080AEA3E493601095
:10078B00BCB078F77416937C3B7423937C2B891441
:10079B007CB08013742012070520F205BEC00250F6
:1007AB00F31B6D29B600011207050207101B6E69BA
:1007BB001600020B6A00BE08000078087E0400FFDA
:1007CB007E1400E620F21E4CCC681A7F10E47E1BD0
:1007DB00804C8868070B1C04BCBD78F2C2F6CA0BB0
:1007EB001208EFDA0B7E0BB060C0CA0B120705DAEA
:1007FB000B0B0C4CDD68EE1BD078EA80ADD2F07E93
:10080B00101080037E10085EB05F800AD2F67E1057
:10081B000A80057E100AC2F66D119F117E00201B07
:10082B006C7E6B7030F6021A3720F1051B6C7E6BF9
:10083B006030F6041A261A2430F0051B6D0B6A2063
:10084B00A5EC3382F692F6500A7CEA9F229F217F19
:10085B00127CAE4C44780F7C457C567C676C772EB3
:10086B0000F878EF80122F117CB3337C3B9CB140A6
:10087B00047C3B0B70A5D8EE7CB230E005DAB8C433
:10088B004C3BCA380B207E00207E3000BE18000087
:10089B0078C1BE1008780730F404C2F480B5CA28BA
:1008AB007CB2BCBD38027CBD1208EFDA28BC2D50DF
:1008BB000A1BD0E4CA281206EE80F07CB213DAB819
:1008CB004004C4CAB8C4CA28BEF08040095CDD78B5
:1008DB0005A5DA0260065EF07F1206EEDA28A5DACD
:1008EB00DA020710BEF001680F30F402240220F583
:1008FB000620F70330F6010420F229BCBC5025CAB0
:10090B00B87CBF13B0E67420501174307C8A5E80C3
:10091B00F0680812092F5EA00F8003120705DAB8E2
:10092B00BCBC78DB30F40F7430120705745830F30D
:10093B0002747812070530F605742D020705742B27
:10094B0020F5F8742020F7F3221B6C7E6BB010F1AE
:10095B00021B6C20F60B30E704F404D2F27CCB8044
:10096B000520E7057CDB0207345EF07F80F81B6E09
:10097B00691600020B6A0030F0076D221B0A200B70
:10098B000D1B0A8002071FE46C22BE3007500B7F41
:10099B001F2D312E34FFF77E39B0227CBF20E7A804
:1009AB00742E4EF080020705120AD9403D7CBD70B3
:1009BB0003047CDB120C1D7C3D4C3368101B307C1C
:1009CB00BE20E40912099270044C3378F07CBD7C94
:1009DB00D3BEA0FD481CBCAB5818E49CBA2CB31872
:1009EB0001E47CDB020A7A120AD9406E7CBD041248
:1009FB000C1D7AFBA07CAE7CBDA2F492F0C2F4403D
:100A0B000260010424051208EF7E30FF0B3012093F
:100A1B0092CA381206EE20F0044CDD68031209A6C8
:100A2B00DA38BC3D78E6740E1206EE742B7EFBA012
:100A3B0030F707742D6EA0FF0BA07AFBA0120705F1
:100A4B007EA00A7EFBB0847AFBA01206EE7EFBB082
:100A5B001206EE9EF80008020710D2F27ED00002BA
:100A6B0007CF120AD940F37CBA2CBD04120C1D7AA5
:100A7B00FBA07CBA7CAE30E701E40420F4044CDD2F
:100A8B006805D2F0C2F4042CBD1208EF6C337EFB68
:100A9B00B0601B20E712147AFBB0120992CA38120D
:100AAB0006EEDA380B3080E6047AFBB01B30120905
:100ABB0092CA381206EE4CDD68071209A61BD080CD
:100ACB00E19EF8000930F0031209A60207107CEA38
:100ADB007CAF10F7037ED0067CFA1B6E69360002E2
:100AEB000B6A20020B652D2B204C4248232E005302
:100AFB00584F44494355502A4E46454700042080E1
:100B0B000102001040B80A0F1717A41E0854796D84
:100B1B00F2B3070808080807080809090A0909CAEF
:100B2B00B87F011202ACDAB87F510B4A206934004E
:100B3B00020B4E7F05CAB81202AC0B4A00691400B7
:100B4B00020B4E1201F4DAB81478E8224E614E0013
:100B5B002B494E46002D494E46007D522D557CBEED
:100B6B0092E67CEB7CBA601F0470287CB5C2E77EF2
:100B7B000400FF60067E140B57D3227E140B6040DB
:100B8B00047E140B5BD322DA099F22CA2BCA2BC318
:100B9B00CA09220A0A7E144D10AD109E083AF09E27
:100BAB0010267CB5C2E77EA0567C9BA46E54FFFF3B
:100BBB002E54C511ACA92D15E4A539CAB8CA1B20F2
:100BCB00E70A120C90DA1B12034C800AF404120C85
:100BDB0090DA1B1202ACDAA87CB5337CB4334E50DE
:100BEB00806C4424822F111478FBDA497407BE40C1
:100BFB000A40099E400ACA0201140BA0CA486C4461
:100C0B002F117F012F112F112F101478EFCA48CA03
:100C1B0049227F0F20E73ABEB007400274070A0B48
:100C2B002D109E1400097E19B02EB0FB501F4C11D5
:100C3B006817E47A19B01B147E19B0047A19B0B492
:100C4B000A0BE47A19B0A5D9ED0BA074017A19B08F
:100C5B00225EE0BF223F8000004120000042C8001E
:100C6B0000447A0000461C400047C35000497424DE
:100C7B00004B1896804CBEBC205A0E1BCA6753C241
:100C8B001C749DC5AE7C7B6006540768162323122B
:100C9B000CB57CB75438680A7F10120CB21202AC38
:100CAB007F01227CB7543803241C6CAA2E540C6091
:100CBB007E4400FF0B2A0069120002227D51AD0316
:100CCB007D027D21AD052D12AD352D21226D0074D8
:100CDB00104D00780B4D2278278D317D126D22221D
:100CEB007D437D326D222F112D445002A50FBF1075
:100CFB0040049F100B901478ED7F016D227D342200
:100D0B007D417D138D247D022F004004BD044004E2
:100D1B009D040B141478F17D237D317D106D002221
:100D2B00C2D57CB030E708B2D59F229F207F027CD2
:100D3B00B430E713B2D59F229F217F12120CDA9F9A
:100D4B00229F207F028003120CDA30D5069F229F50
:100D5B00217F12227F707C7BA5BF01028003020ED4
:100D6B00277E34FECC7E24007E7E1BB054FE7A1B85
:100D7B00B07E1BB054FB7A1BB07ED4FEC87EC40081
:100D8B007E7E6BB054FC7A6BB07E6B305E308F7EA8
:100D9B007B204C327A6B3029A700067CBA30E017E7
:100DAB007E1BB044017A1BB07E14FEB17E04007E24
:100DBB007E0BB0440180157E1BB054FE7A1BB07EB7
:100DCB0014FEB17E04007E7E0BB054FE7A0BB07C19
:100DDB00BA30E11A7E1BB044047A1BB07E14FEB10C
:100DEB007E04007E7E0BB044027A0BB080187E1B13
:100DFB00B054FB7A1BB07E34FEB17E24007E7E1B8A
:100E0B00B054FD7A1BB0691700037E34FED57E24E7
:100E1B00007E7A1B207E34FED60212FAA5BF020298
:100E2B008003020EEB7E34FECC7E24007E7E1BB054
:100E3B0054EF7A1BB07E1BB054BF7A1BB07ED4FE2E
:100E4B00C97EC4007E7E6BB054FC7A6BB07E6B3077
:100E5B005E308F7E7B204C327A6B3029A700067C6C
:100E6B00BA30E2177E1BB044107A1BB07E14FEB171
:100E7B007E04007E7E0BB0440480157E1BB054EFC5
:100E8B007A1BB07E14FEB17E04007E7E0BB054FB49
:100E9B007A0BB07CBA30E31A7E1BB044407A1BB09D
:100EAB007E14FEB17E04007E7E0BB044087A0BB03C
:100EBB0080187E1BB054BF7A1BB07E34FEB17E24EB
:100ECB00007E7E1BB054F77A1BB0691700037E348B
:100EDB00FED77E24007E7A1B207E34FED80212FAC7
:100EEB00A5BF03028003020FAF7E34FECD7E24002C
:100EFB007E7E1BB054FE7A1BB07E1BB054FB7A1B5C
:100F0B00B07ED4FECA7EC4007E7E6BB054FC7A6B7E
:100F1B00B07E6B305E308F7E7B204C327A6B30290B
:100F2B00A700067CBA30E4177E1BB044017A1BB0D5
:100F3B007E14FEB17E04007E7E0BB0441080157EC5
:100F4B001BB054FE7A1BB07E14FEB17E04007E7E75
:100F5B000BB054EF7A0BB07CBA30E51A7E1BB04461
:100F6B00047A1BB07E14FEB17E04007E7E0BB0446F
:100F7B00207A0BB080187E1BB054FB7A1BB07E34EA
:100F8B00FEB17E24007E7E1BB054DF7A1BB0691746
:100F9B0000037E34FED97E24007E7A1B207E34FE35
:100FAB00DA0212FAA5BF040280030210737E34FE2C
:100FBB00CD7E24007E7E1BB054EF7A1BB07E1BB01F
:100FCB0054BF7A1BB07ED4FECB7EC4007E7E6BB04A
:100FDB0054FC7A6BB07E6B305E308F7E7B204C3254
:100FEB007A6B3029A700067CBA30E6177E1BB0441B
:100FFB00107A1BB07E14FEB17E04007E7E0BB044D3
:10100B004080157E1BB054EF7A1BB07E14FEB17E70
:10101B0004007E7E0BB054BF7A0BB07CBA30E71A5B
:10102B007E1BB044407A1BB07E14FEB17E04007E62
:10103B007E0BB044807A0BB080187E1BB054BF7A05
:10104B001BB07E34FEB17E24007E7E1BB0547F7AB3
:10105B001BB0691700037E34FEDB7E24007E7A1BF7
:10106B00207E34FEDC0212FAA5BF096E293700057B
:10107B007E34FEDE7E24007E7A1B30691700017EF3
:10108B0034FED27A1B207E34FED37A1B3029B70074
:10109B0008B4010F7E34FEDD7E24007E7E1BB0443F
:1010AB0080800D7E34FEDD7E24007E7E1BB0547F5F
:1010BB007A1BB029B70007B401107E34FEC07E2422
:1010CB00007E7E1BB044010213717E34FEC07E2471
:1010DB00007E7E1BB054FE021371A5BF0502800378
:1010EB0002116B7E34FEEC7E24007E7E1BB054FE20
:1010FB007A1BB07ED4FEE87EC4007E7E6BB054FCBF
:10110B007A6BB07E6B305E308F7E7B204C327A6B8D
:10111B003029B7000630E01A7E1BB044017A1BB0B1
:10112B007E14FEB57E04007E7E0BB044017A0BB0BC
:10113B0080187E1BB054FE7A1BB07E34FEB57E2425
:10114B00007E7E1BB054FE7A1BB0691700037E3401
:10115B00FEF57E24007E7A1B207E34FEF60212FA08
:10116B00A5BF060280030211F17E34FEEC7E240043
:10117B007E7E1BB054EF7A1BB07ED4FEE97EC4009A
:10118B007E7E6BB054FC7A6BB07E6B305E308F7EA4
:10119B007B204C327A6B3029B7000630E21A7E1B6B
:1011AB00B044107A1BB07E14FEB57E04007E7E0B1D
:1011BB00B044047A0BB080187E1BB054EF7A1BB08E
:1011CB007E34FEB57E24007E7E1BB054FB7A1BB0B2
:1011DB00691700037E34FEF77E24007E7A1B207E87
:1011EB0034FEF80212FAA5BF070280030212777EC3
:1011FB0034FEED7E24007E7E1BB054FE7A1BB07E47
:10120B00D4FEEA7EC4007E7E6BB054FC7A6BB07E5B
:10121B006B305E308F7E7B204C327A6B3029B7007F
:10122B000630E41A7E1BB044017A1BB07E14FEB567
:10123B007E04007E7E0BB044107A0BB080187E1BB0
:10124B00B054FE7A1BB07E34FEB57E24007E7E1B2E
:10125B00B054EF7A1BB0691700037E34FEF97E247D
:10126B00007E7A1B207E34FEFA0212FAA5BF08021A
:10127B0080030213037E34FEED7E24007E7E1BB0C2
:10128B0054EF7A1BB07ED4FEEB7EC4007E7E6BB037
:10129B0054FC7A6BB07E6B305E308F7E7B204C3291
:1012AB007A6B3029B7000630E61A7E1BB044107AF1
:1012BB001BB07E14FEB57E04007E7E0BB044407ADC
:1012CB000BB080187E1BB054EF7A1BB07E34FEB58A
:1012DB007E24007E7E1BB054BF7A1BB069170003BF
:1012EB007E34FEFB7E24007E7A1B207E34FEFC7E49
:1012FB0024007E7A1B30E422A5BF0A6F2937000534
:10130B007E34FEFE7E24007E7A1B30691700017E40
:10131B0034FEF27A1B207E34FEF37A1B3029B700A1
:10132B0008B4010F7E34FEFD7E24007E7E1BB0448C
:10133B0080800D7E34FEFD7E24007E7E1BB0547FAC
:10134B007A1BB029B70007B4010F7E34FEE07E2470
:10135B00007E7E1BB04401800D7E34FEE07E2400B7
:10136B007E7E1BB054FE7A1BB0E42274FF22CA3B74
:10137B007A1F07487F307C7BA5BF090280030215CB
:10138B00E574037E34FBF07E24007E7A1BB029A328
:10139B0000037CBA30E0127EB3074C44017AB307EA
:1013AB004C7EB3074D440180107EB3074C54FE7A3C
:1013BB00B3074C7EB3074D54FE7AB3074D7CBA305E
:1013CB00E1127EB3074C44027AB3074C7EB3074D50
:1013DB00440480107EB3074C54FD7AB3074C7EB3A4
:1013EB00074D54FB7AB3074D7CBA30E2127EB3073C
:1013FB004C44047AB3074C7EB3074D441080107EE7
:10140B00B3074C54FB7AB3074C7EB3074D54EF7ABA
:10141B00B3074D7CBA30E3127EB3074C44087AB362
:10142B00074C7EB3074D444080107EB3074C54F7F6
:10143B007AB3074C7EB3074D54BF7AB3074D7CBAD2
:10144B0030E4127EB3074C44107AB3074C7EB307DB
:10145B004E440180107EB3074C54EF7AB3074C7E99
:10146B00B3074E54FE7AB3074E7CBA30E5127EB307
:10147B00074C44207AB3074C7EB3074E44048010CC
:10148B007EB3074C54DF7AB3074C7EB3074E54FB45
:10149B007AB3074E7CBA30E6127EB3074C44407ADF
:1014AB00B3074C7EB3074E441080107EB3074C54E9
:1014BB00BF7AB3074C7EB3074E54EF7AB3074E7C1B
:1014CB00BA30E7127EB3074C44807AB3074C7EB335
:1014DB00074E444080107EB3074C547F7AB3074CC1
:1014EB007EB3074E54BF7AB3074E74CC6C77127A27
:1014FB004B74CD6C77127A4B74C87E7060127A4B3A
:10150B0074C97E7060127A4B74CA7E7060127A4B0B
:10151B0074CB7E7060127A4B74CC7E73074D127A4B
:10152B004B74CD7E73074E127A4B74B17E73074C9E
:10153B00127A4B74D57E1F07480B1A300A36127A73
:10154B004B74D67E1F07480B1A30127A4B74D77E1A
:10155B001F0748693100020A36127A4B74D87E1F76
:10156B00074869310002127A4B74D97E1F0748690C
:10157B003100040A36127A4B74DA7E1F0748693140
:10158B000004127A4B74DB7E1F0748693100060A90
:10159B0036127A4B74DC7E1F074869310006127ACB
:1015AB004B74D20B3A300A36127A4B74D30B3A3057
:1015BB00127A4B74DE29730002127A4B74DDCAB8AF
:1015CB0029B300050354807C7BDAB8127A4B74C0C4
:1015DB0029730004127A4B02179AA5BF0A028003E3
:1015EB0002179A74037E34FBF47E24007E7A1BB0C0
:1015FB0029A300037CBA30E0127EB3074C44017A76
:10160B00B3074C7EB3074D440180107EB3074C5497
:10161B00FE7AB3074C7EB3074D54FE7AB3074D7C6D
:10162B00BA30E2127EB3074C44047AB3074C7EB354
:10163B00074D441080107EB3074C54FB7AB3074C14
:10164B007EB3074D54EF7AB3074D7CBA30E4127E6C
:10165B00B3074C44107AB3074C7EB3074E4401805A
:10166B00107EB3074C54EF7AB3074C7EB3074E543E
:10167B00FE7AB3074E7CBA30E6127EB3074C444079
:10168B007AB3074C7EB3074E441080107EB3074CE1
:10169B0054BF7AB3074C7EB3074E54EF7AB3074E61
:1016AB0074EC6C77127A7074ED6C77127A7074E854
:1016BB007E7060127A7074E97E7060127A7074EAD0
:1016CB007E7060127A7074EB7E7060127A7074ECBC
:1016DB007E73074D127A7074ED7E73074E127A701B
:1016EB0074B57E73074C127A7074F57E1F074869C8
:1016FB003100080A36127A7074F67E1F074869317A
:10170B000008127A7074F77E1F07486931000A0AC5
:10171B0036127A7074F87E1F07486931000A127A04
:10172B007074F97E1F07486931000C0A36127A7003
:10173B0074FA7E1F07486931000C127A7074FB7EB5
:10174B001F07486931000E0A36127A7074FC7E1F2F
:10175B0007486931000E127A7074F20B3A300A3670
:10176B00127A7074F30B3A30127A7074FE2973008C
:10177B0002127A7074FDCAB829B300050354807C39
:10178B007BDAB8127A7074E029730004127A70DA7B
:10179B003B22CAF87F707CABBEA00168030218968F
:1017AB00E47AB300257AB300267AB300277AB30024
:1017BB00287AB300296DDDE419BD01790BD4BED4B1
:1017CB00008078F36DDDE419BD00390BD4BED40075
:1017DB008078F37E7BF0E598543F4CBFF598BEF0D4
:1017EB00C06805BEF040786A6917000469070002FB
:1017FB007E348D807E24005B120CDA7F516D337E3C
:10180B00240001BF51400574FF021ADA9F157F5166
:10181B0029B70001B4021DA9C48EA9D08EA9C38E0D
:10182B00A9D28E7D5B7CBAF5D67D3B7CB7F5D7A96B
:10183B00D48E8047C28EA9C08EA9C6895389CFA9E1
:10184B00D68E7D5B7CBAF58D7D3B7CB7F58BD28ECE
:10185B0080294CFF781129B70008B40105A9D58E52
:10186B008019A9C58E8014BEF080780F29B70008A7
:10187B00B40105A9D7878003A9C78729B7000770CB
:10188B0004C29C8002D29CE4021ADABEA002680356
:10189B00021939E47AB3002A7AB3002B7AB3002CFD
:1018AB007AB3002D7AB3002E6DDDE419BD02390B2E
:1018BB00D4BED4008078F36DDDE419BD00B90BD430
:1018CB00BED4008078F37E7BA0E59A543F4CBAF5EA
:1018DB009ABEA0C06805BEA040783C691700046999
:1018EB000700027E348D807E24005B120CDA7F5160
:1018FB006D337E240001BF51400574FF021ADA9F3D
:10190B0015A9C48EA9C38EA9D28E7CB6F5D67CB789
:10191B00F5D7A9D48E800574FF021ADA29B7000710
:10192B007005A9C49A8003A9D49AE4021ADABEA05E
:10193B00036803021A0AE47AB3002F7AB300307AF1
:10194B00B300317AB300327AB300336DDDE419BDE5
:10195B0002B90BD4BED4004078F36DDDE419BD01A0
:10196B00390BD4BED4004078F37E7BB0BEB0C068D8
:10197B0003B44074B4C005A9D7AC8003A9C7AC6944
:10198B00170004690700027E348D807E24005B12F1
:10199B000CDA7F516D337E240001BF51400574FF7B
:1019AB00021ADA9F157F5129B70001B4021DA9C491
:1019BB008EA9C6ACA9C38EA9D28E7D5B7CBAF5D697
:1019CB007D3B7CB7F5D7A9D48E8022A9C3DDA9D6E0
:1019DB00AC7D5B7CBAF5D47D3B7CB7F5D5A9C2DD7C
:1019EB00A9D1DDA9D3DD800574FF021ADA29B7006E
:1019FB00077005A9C4AC8003A9D4ACE4021ADABE03
:101A0B00A0046803021AD8E47AB300347AB3003521
:101A1B007AB300367AB300377AB300386DDDE41948
:101A2B00BD02F90BD4BED4004078F36DDDE419BDD3
:101A3B0001F90BD4BED4004078F37E7BB0BEB0C0AE
:101A4B006803B44073B4C005A9D7FD8003A9C7FDD3
:101A5B0069170004690700027E348D807E24005BC9
:101A6B00120CDA7F516D337E240001BF5140047498
:101A7B00FF805C9F157F5129B70001B4021DA9C4DB
:101A8B008EA9C6FDA9C38EA9D28E7D5B7CBAF5D675
:101A9B007D3B7CB7F5D7A9D48E8021A9C7DDA9D60C
:101AAB00FD7D5B7CBAF5D27D3B7CB7F5D3A9C6DD5A
:101ABB00A9D5DDA9D7DD800474FF801329B70007F2
:101ACB007005A9C4FD8003A9D4FDE4800274FFDA7C
:101ADB00F8227F707CABBEA0016803021BABE47ED7
:101AEB0034FA327E24007E7A1BB07E34FA3A7A1BAB
:101AFB00B0693700017E14FA337E04007E7A0B70D6
:101B0B000A367CB77E34FA887A1BB0693700030A31
:101B1B00267E14FA357A0B607CB77E34FA367E2437
:101B2B00007E7A1BB0693700080A267E14FA3D7ACC
:101B3B000B607CB77E34FA3E7E24007E7A1BB06944
:101B4B003700067E14FA3B7A0B700A367CB77E346C
:101B5B00FA8A7A1BB07E7BB0B4010F7E34FA317EE9
:101B6B0024007E7E1BB04480800D7E34FA317E24AF
:101B7B00007E7E1BB0547F7A1BB029B70005B401E1
:101B8B000F7E34FA397E24007E7E1BB04480800D9C
:101B9B007E34FA397E24007E7E1BB0547F7A1BB0D4
:101BAB00BEA0026803021C75E47E34FA427E240058
:101BBB007E7A1BB07E34FA4A7A1BB0693700017EFD
:101BCB0014FA437E04007E7A0B700A367CB77E349F
:101BDB00FA8C7A1BB0693700030A267E14FA457A11
:101BEB000B607CB77E34FA467E24007E7A1BB0698C
:101BFB003700080A267E14FA4D7A0B607CB77E34C8
:101C0B00FA4E7E24007E7A1BB0693700067E14FAEA
:101C1B004B7A0B700A367CB77E34FA8E7A1BB07E09
:101C2B007BB0B4010F7E34FA417E24007E7E1BB064
:101C3B004480800D7E34FA417E24007E7E1BB0549E
:101C4B007F7A1BB029B70005B4010F7E34FA497EA9
:101C5B0024007E7E1BB04480800D7E34FA497E24A6
:101C6B00007E7E1BB0547F7A1BB0BEA003680302BC
:101C7B001D3FE47E34FA527E24007E7A1BB07E3404
:101C8B00FA5A7A1BB0693700017E14FA537E0400AE
:101C9B007E7A0B700A367CB77E34FA907A1BB06969
:101CAB003700030A267E14FA557A0B607CB77E3414
:101CBB00FA567E24007E7A1BB0693700080A267E0E
:101CCB0014FA5D7A0B607CB77E34FA5E7E24007E5C
:101CDB007A1BB0693700067E14FA5B7A0B700A36F2
:101CEB007CB77E34FA927A1BB07E7BB0B4010F7E48
:101CFB0034FA517E24007E7E1BB04480800D7E34EE
:101D0B00FA517E24007E7E1BB0547F7A1BB029B71C
:101D1B000005B4010F7E34FA597E24007E7E1BB081
:101D2B004480800D7E34FA597E24007E7E1BB05495
:101D3B007F7A1BB0BEA0046803021DF5E47E34FA63
:101D4B00627E24007E7A1BB07E34FA6A7A1BB069FD
:101D5B003700017E14FA637E04007E7A0B700A163C
:101D6B007E34FA947A1B30691700037E34FA657A55
:101D7B001B207E34FA667A1B30691700087E34FA12
:101D8B006D7A1B207E34FA6E7A1B30693700067E23
:101D9B0014FA6B7A0B700A167E34FA967A1B307E25
:101DAB007BB0B4010F7E34FA617E24007E7E1BB0C3
:101DBB004480800D7E34FA617E24007E7E1BB054FD
:101DCB007F7A1BB029B70005B4010F7E34FA697E08
:101DDB0024007E7E1BB04480800D7E34FA697E2405
:101DEB00007E7E1BB0547F7A1BB0227CABBEA0075B
:101DFB00280374FF227E0B70BE7003280374FF222E
:101E0B004CAA7843A5BF000F29B000017C6B6E6014
:101E1B00FF7CB652935294A5BF010C296000017C44
:101E2B00B6429364FF5294A5BF020A296000017C5D
:101E3B00B642934294A5BF030E296000017CB664A1
:101E4B00FF52937CB64294BEA0017843A5BF000F0E
:101E5B0029B000017C6B6E60FF7CB652915292A54B
:101E6B00BF010C296000017CB6429164FF5292A520
:101E7B00BF020A296000017CB642914292A5BF03C2
:101E8B000E296000017CB664FF52917CB64292BE73
:101E9B00A0027843A5BF000F29B000017C6B6E60D8
:101EAB00FF7CB652955296A5BF010C296000017CB0
:101EBB00B6429564FF5296A5BF020A296000017CC9
:101ECB00B642954296A5BF030E296000017CB6640D
:101EDB00FF52957CB64296BEA0037843A5BF000F78
:101EEB0029B000017C6B6E60FF7CB652B152B2A57B
:101EFB00BF010C296000017CB642B164FF52B2A550
:101F0B00BF020A296000017CB642B142B2A5BF03F1
:101F1B000E296000017CB664FF52B17CB642B2BEA2
:101F2B00A0047843A5BF000F29B000017C6B6E6045
:101F3B00FF7CB652B352B4A5BF010C296000017CE3
:101F4B00B642B364FF52B4A5BF020A296000017CFC
:101F5B00B642B342B4A5BF030E296000017CB66440
:101F6B00FF52B37CB642B4BEA0057843A5BF000FA9
:101F7B0029B000017C6B6E60FF7CB652C952CAA5BA
:101F8B00BF010C296000017CB642C964FF52CAA58F
:101F9B00BF020A296000017CB642C942CAA5BF0331
:101FAB000E296000017CB664FF52C97CB642CABEE2
:101FBB00A0067843A5BF000F29B000017C6B6E60B3
:101FCB00FF7CB652CB52CCA5BF010C296000017C23
:101FDB00B642CB64FF52CCA5BF020A296000017C3C
:101FEB00B642CB42CCA5BF030E296000017CB66480
:101FFB00FF52CB7CB642CCBEA0077843A5BF000FE7
:10200B0029B000017C6B6E60FF7CB652E152E2A5F9
:10201B00BF010C296000017CB642E164FF52E2A5CE
:10202B00BF020A296000017CB642E142E2A5BF0370
:10203B000E29A000017CBA64FF52E17CBA42E2E4B3
:10204B0022CA3B7F617F706DAA7D3A3E342E3402EB
:10205B00007A71827A61830BEAB07D3B3E343E3469
:10206B002D3F7D2E691100020B1A007D3A3E343E46
:10207B00343E342D3D7D2C791100021B1A009F112B
:10208B007D1A3E143E143E142D1D7D0C7930000636
:10209B00792000040BA4BEA4010078AD7EA400023D
:1020AB007D3A1E347A3706CA7E3401008D3A7A3770
:1020BB0006CC6DFF02225B7E1706CCAD1F3E143E95
:1020CB00147D012E0404007A11827A0183693E008B
:1020DB00020BEA207A1F06CE2E1400007A31827A88
:1020EB002183693E00020BEA207A1F06D27DEF02A4
:1020FB0022507EB706CA2DBE7D3E3E343E343E3462
:10210B007F062D13693000020B0A207A1F06DA694D
:10211B00300006692000047A1F06DE7D3B3E343E0C
:10212B00343E342D3D7D2C691100020B1A007A0FC1
:10213B0006D669910006698100047E0F06D27F14D2
:10214B001202AC7F317E0F06CE7E1F06D61202AC7A
:10215B007F031201F17F017D3B3E343E343E342D33
:10216B003D7D2C791100021B1A007E0F06CE7F14C9
:10217B001202AC7F317E0F06D27E1F06D61202AC46
:10218B007F031201F47D1B3E143E143E142D1D7D66
:10219B000C79300006792000047D3B3E343E343E02
:1021AB00342D3D7D2C691100020B1A007E1F06DABF
:1021BB001201F47F017D3E3E343E343E342D3D7D95
:1021CB002C791100021B1A007D3B3E343E343E3409
:1021DB002D3D69110006690100047E1F06DE120108
:1021EB00F47D1E3E143E143E142D1D7D0C793000E3
:1021FB0006792000047D7B3E743E743E747F162D61
:10220B0037691100020B1A007E1F06DA1201F17FEB
:10221B00017F162D37791100021B1A007D7B3E744E
:10222B003E743E747F162D37691100066901000458
:10223B007E1F06DE1201F17F062D1779300006791D
:10224B002000042DEABEE4010050030220FD0BF434
:10225B007E3706CABD3F28030220C23EA4BEA4019E
:10226B000038030220ABDA3B227F707C7BA5BF00DA
:10227B0071C28C7E7BA0BEA003280374FF22E5896C
:10228B0054FC4CBAF58929A70001BEA0022803749F
:10229B00FF224CAA7806A9C78EA9C289BEA00178D5
:1022AB0006A9D78EA9C289BEA0027803A9D2892913
:1022BB007700022E70FFA9908F693700030A56F53D
:1022CB008C7CB7F58A293700057E34FEA07E24006E
:1022DB007E7A1B3029B700067004C28C8002D28C28
:1022EB00E422A5BF0178C28E7E7BA0BEA00328038B
:1022FB0074FF227CBAC454F07CABE58954CF4CBA42
:10230B00F58929A70001BEA002280374FF224CAA5D
:10231B007806A9C68EA9C689BEA0017806A9D68E55
:10232B00A9C689BEA0027803A9D689297700022EF7
:10233B0070FFA9918F693700030A56F58D7CB7F5AD
:10234B008B293700057E34FEA17E24007E7A1B305C
:10235B0029B700067004C28E8002D28EE422A5BF7C
:10236B000253A9C48E29B700017006A9C28EA9C356
:10237B008EB40106A9D28EA9C38EB40203A9D38E43
:10238B00297700022E70FFA9928F693700030A5636
:10239B00F5D67CB7F5D7293700057E34FEA27E240F
:1023AB00007E7A1B3029B700067005A9C48E800306
:1023BB00A9D48EE422A5BF0361A9C3DD29A700011F
:1023CB00BEA002280374FF224CAA7806A9C1DDA97E
:1023DB00C2DDBEA0017806A9D1DDA9C2DDBEA00277
:1023EB007803A9D2DD297700022E70FFA990DD6951
:1023FB003700030A56F5D47CB7F5D5293700057E8F
:10240B0034FEA37E24007E7A1B3029B700067005AC
:10241B00A9C3DD8003A9D3DDE422A5BF0461A9C74D
:10242B00DD29A70001BEA002280374FF224CAA7865
:10243B0006A9C5DDA9C6DDBEA0017806A9D5DDA913
:10244B00C6DDBEA0027803A9D6DD297700022E7067
:10245B00FFA994DD693700030A56F5D27CB7F5D393
:10246B00293700057E34FEA47E24007E7A1B30299A
:10247B00B700067005A9C7DD8003A9D7DDE4227478
:10248B00FF22CAB8CA1BCA0BC0D17E34FA127E24F3
:10249B00007E7E1BB030E00A7E1BB054FE7A1BB070
:1024AB00D20F7E34FA027E24007E7E1BB030E01801
:1024BB007E1BB054FE7A1BB0D210300904C209D275
:1024CB000E300804C208D20C7E34FA327E24007E11
:1024DB007E1BB030E00A7E1BB054FE7A1BB0D203D9
:1024EB007E1BB030E2087E1BB054FB7A1BB07E34EF
:1024FB00FA3A7E24007E7E1BB030E00A7E1BB0547D
:10250B00FE7A1BB0D2007E1BB030E1087E1BB054AC
:10251B00FD7A1BB07E34FA427E24007E7E1BB030E7
:10252B00E00A7E1BB054FE7A1BB0D2057E1BB03086
:10253B00E2087E1BB054FB7A1BB07E34FA4A7E2431
:10254B00007E7E1BB030E00A7E1BB054FE7A1BB0BF
:10255B00D2017E1BB030E1087E1BB054FD7A1BB05C
:10256B007E34FA527E24007E7E1BB030E00A7E1B46
:10257B00B054FE7A1BB0D2067E1BB030E2087E1B35
:10258B00B054FB7A1BB07E34FA5A7E24007E7E1B3D
:10259B00B030E00A7E1BB054FE7A1BB0D2027E1B19
:1025AB00B030E1087E1BB054FD7A1BB07E34FA626A
:1025BB007E24007E7E1BB030E00A7E1BB054FE7A78
:1025CB001BB0D2077E1BB030E2087E1BB054FB7AE7
:1025DB001BB07E34FA6A7E24007E7E1BB030E00A8C
:1025EB007E1BB054FE7A1BB0D2047E1BB030E108C8
:1025FB007E1BB054FD7A1BB07E34FA227E24007E03
:10260B007E1BB030E0147E1BB054FE7A1BB0A93495
:10261B00CE06D212D2A28002D2117E1BB030E108BC
:10262B007E1BB054FD7A1BB07E1BB030E2087E1BC4
:10263B00B054FB7A1BB07E34FE537E24007E7E1B8F
:10264B00B030E006E47A1BB0C2247E34FA727E24EA
:10265B00007E7E1BB030E037300D05C20DE48020CC
:10266B007E1707B81B147A1707B84D117810E47E44
:10267B0014FA717E04007E7A0BB0D2B4800D74A074
:10268B007E14FA717E04007E7A0BB0E47A1BB0D014
:10269B00D1DA0BDA1BDAB832CA3B7F307AB3074197
:1026AB0074C87AB307477EA307414CAA7813A9C312
:1026BB00977EB30747147AB30747681E2015F2803D
:1026CB0019BEA0016803022880A9D3977EB30747E0
:1026DB00147AB3074768032016F27E3B707CB72051
:1026EB00E7030227B769130003690300012F002FCB
:1026FB00002F007A0F07427408CAB87CB723237CDB
:10270B006B5E60017CB6030354C05E700F4C7B4E56
:10271B007080DAB812006E74097E1F07427C741247
:10272B00006E740A7E1F07427C7512006E740B7E5E
:10273B001F07427C7612006E74087E1F0742120040
:10274B006E74017AB30746E480277EA307467CBAF2
:10275B00047AB307467CBA540324087EA307470ABE
:10276B003A2D377D262971000512006E7EB307477F
:10277B00047AB307477E3BB0540FBEB307472821FB
:10278B007E730747BE700840C180167EA307467C48
:10279B00BA047AB307467CBA540324086C77120048
:1027AB006E7EB30746540378E2022869693300034F
:1027BB006923000174052F111478FB6D227A1F0712
:1027CB00427408CAB87E3BB023237C6B5E60017CED
:1027DB00B6030354C07E3B705E700F4C7BDAB812AD
:1027EB00006E74097E1F07427C7612006E740A7E9F
:1027FB001F074212006E74037AB30746E480277EEC
:10280B00A307467CBA047AB307467CBA5403240860
:10281B007EA307470A3A2D377D2629710005120042
:10282B006E7EB30747047AB307477E3BB0540FBEA7
:10283B00B3074728217E730747BE700840C1801637
:10284B007EA307467CBA047AB307467CBA540324AA
:10285B00086C7712006E7EB30746540378E274015E
:10286B007E700412006E7EB307417004D215800592
:10287B00B40102D216DA3B22CA3B6CFF1285286CDC
:10288B00EE80507E3025AC3E2E1403416D0069F076
:10289B00000569E000037F219F276DFF7EE4800028
:1028AB00BF27502DBE28000128167F702EF4001D67
:1028BB00695700020B7A400B2C795700021B7A40A8
:1028CB007CAF0BF07E9004ACA9591505DE590505BC
:1028DB00DC0BE07EB30469BCBE38A86CEE80500AFA
:1028EB003E0B3480447E5004AC5E491205DE490237
:1028FB0005DC293000017ED004ACD7495605DE49F2
:10290B004605DC29620001BC63281C491205DE491F
:10291B000205DC595205DE594205DC7404ACB7598B
:10292B001505DE590505DC0B70BCF738B80BE0BCA0
:10293B00FE38AC6CEE022A3A7404ACBE493505DEA7
:10294B00492505DC7A1F0608740139B100027E1F88
:10295B0006087E1B707A73046AC2AF7E1F033D7A32
:10296B001F0600D2AF7E1F0608693100079934C2DB
:10297B00AF7E1F033D7A1F05FCD2AF7E0F06007E94
:10298B001F05FC9F107A1F0604E47E1F060839B151
:10299B0000027E1F06047E0F060879300023792083
:1029AB0000217E2F06047E0F06082E1400156930B9
:1029BB0000020B0A202F12793000021B0A207E0F17
:1029CB0006082E140019693000020B0A200B1C7923
:1029DB003000021B0A207E0F06086950000B69406D
:1029EB0000097E1F0604BF1228087930000B7920DE
:1029FB0000097E0F06086950000F6940000D7E1F0D
:102A0B000604BF1250087930000F7920000D7E7F2D
:102A1B0006086917001B6907001969370017692732
:102A2B000015120CDA79370013792700110BE0BC73
:102A3B00FE280302294374FF7AB3046A4CFF780E15
:102A4B007E37046B4D3368067E37046B9934DA3B63
:102A5B00227F7014BEB00A4003022BD67EA003A4C3
:102A6B00902A6F73022A8D022AA2022AB8022ACE5A
:102A7B00022AE4022AFA022B10022B26022B3C021A
:102A8B002B860B7A107E34FED57E24007E7A1B209B
:102A9B007E34FED6022BCF691700027E34FED77E22
:102AAB0024007E7A1B207E34FED8022BCF691700C0
:102ABB00047E34FED97E24007E7A1B207E34FEDA1F
:102ACB00022BCF691700067E34FEDB7E24007E7A54
:102ADB001B207E34FEDC022BCF691700087E34FEF0
:102AEB00F57E24007E7A1B207E34FEF6022BCF6906
:102AFB0017000A7E34FEF77E24007E7A1B207E347C
:102B0B00FEF8022BCF6917000C7E34FEF97E2400F1
:102B1B007E7A1B207E34FEFA022BCF6917000E7EC5
:102B2B0034FEFB7E24007E7A1B207E34FEFC022BBF
:102B3B00CF0B7A107E34FED57E24007E7A1B207E4E
:102B4B0034FED67A1B30691700027E34FED77A1B0F
:102B5B00207E34FED87A1B30691700047E34FED9F0
:102B6B007A1B207E34FEDA7A1B30691700067E341E
:102B7B00FEDB7A1B207E34FEDC8049691700087E61
:102B8B0034FEF57E24007E7A1B207E34FEF67A1B03
:102B9B00306917000A7E34FEF77A1B207E34FEF86C
:102BAB007A1B306917000C7E34FEF97A1B207E34B9
:102BBB00FEFA7A1B306917000E7E34FEFB7A1B205F
:102BCB007E34FEFC7E24007E7A1B3022CAD8CA7962
:102BDB007F7029D70002BED063280574FF022D49F0
:102BEB0029E70003BEE00C280574FF022D4929F7E5
:102BFB000004BEF01F280574FF022D49298700052C
:102C0B00BE8017280574FF022D4929970006BE9038
:102C1B003B280574FF022D4929070007BE003B28FE
:102C2B000574FF022D4929170008BE107F28057473
:102C3B00FF022D4929270009BE2017280574FF0222
:102C4B002D492937000ABE303B280574FF022D4958
:102C5B0029A7000BBEA03B280574FF022D4929B7FD
:102C6B00000CBEB07F280574FF022D497E34FE6830
:102C7B007E24007E7A1BD07E34FE697A1BE07E3484
:102C8B00FE6A7A1BF07E34FE6B7A1B807E34FE6C00
:102C9B007A1B907E34FE6D7A1B007E34FE6E7A1B9F
:102CAB00107E34FE647A1B207E34FE657A1B307EE8
:102CBB0034FE667A1BA02937000C7E34FE677A1B24
:102CCB003029B70001701F74807E34FE047E24000F
:102CDB007E7A1BB07E34FE047E24007E7E1BB030D9
:102CEB00E0F27403801D74C07E34FE087E24007EE7
:102CFB007A1BB07E34FE087E24007E7E1BB030E053
:102D0B00F274017E34FE617E24007E7A1BB07E7BE2
:102D1B00B0B4011D74017E34FE607E24007E7A1BEC
:102D2B00B07E34FE617E24007E7E1BB020E0F280FC
:102D3B000CE47E34FE607E24007E7A1BB0E4DA79EC
:102D4B00DAD822CA3B7F3014BEB00A4003022EBF32
:102D5B007EA003A4902D6373022D81022D93022D6F
:102D6B00A7022DBB022DCF022DE3022DF7022E0B56
:102D7B00022E1F022E6F74D50B3A300A36127A4B85
:102D8B0074D60B3A30022E6A74D7693300020A36B6
:102D9B00127A4B74D869330002022E6A74D96933E4
:102DAB0000040A36127A4B74DA69330004022E6A75
:102DBB0074DB693300060A36127A4B74DC69330014
:102DCB0006022E6A74F5693300080A36127A70749B
:102DDB00F669330008022EBC74F76933000A0A3611
:102DEB00127A7074F86933000A022EBC74F96933D5
:102DFB00000C0A36127A7074FA6933000C022EBC7E
:102E0B0074FB6933000E0A36127A7074FC69330056
:102E1B000E022EBC74D50B3A300A36127A4B74D68E
:102E2B000B3A30127A4B74D7693300020A36127A96
:102E3B004B74D869330002127A4B74D9693300048E
:102E4B000A36127A4B74DA69330004127A4B74DB4C
:102E5B00693300060A36127A4B74DC6933000612AA
:102E6B007A4B805074F5693300080A36127A707405
:102E7B00F669330008127A7074F76933000A0A3660
:102E8B00127A7074F86933000A127A7074F9693324
:102E9B00000C0A36127A7074FA6933000C127A70CD
:102EAB0074FB6933000E0A36127A7074FC693300B6
:102EBB000E127A70DA3B22CA3B7F3074017AB30769
:102ECB0040740C1282CC7AB3073B30E760740D125E
:102EDB0082CC7AB3073C740E1282CC7AB3073D7462
:102EEB000F1282CC7AB3073E74057AB30740740C89
:102EFB001282CC7AB3073F7EA3073D0A3A7D036D5E
:102F0B00117EA3073C7C4A6C556D332F107EA307B3
:102F1B003E6D007C2A2F010A3B6D222F1074031E7D
:102F2B00341E2450034E60801478F48030740D12DC
:102F3B0082CC7AB3073C74037AB30740740E1282C7
:102F4B00CC7AB3073D7EA3073C7C4A6C550A3B2DDC
:102F5B00321E341E341E341E341E346D227933005F
:102F6B0003792300017EB3073B237C6B5E60017CFE
:102F7B00B60354807E3B705E707F4C7B7A3B707ED9
:102F8B00B3073B23237C6B5E60017CB6030354C009
:102F9B007E3B705E70BF4C7B7A3B707E63073B5E03
:102FAB00600F7E3B705E70F04C767A3B70E480274E
:102FBB007EA307407CBA047AB307407CBA5403243F
:102FCB000C1282CC7EA3073A0A3A2D377D2639B1F3
:102FDB0000057EB3073A047AB3073A7E3BB0540F31
:102FEB00BEB3073A281F7E73073ABE700840C180F4
:102FFB00147EA307407CBA047AB307407CBA54030F
:10300B00240C1282CC7EB30740540378E4DA3B22C3
:10301B007C7BA5BF010280030230ADE598543F4491
:10302B0040F598A9D787C299D29CD2AC7E0BB0B48D
:10303B00010F7E34FDC07E24007E7E1BB044808059
:10304B000D7E34FDC07E24007E7E1BB0547F7A1B28
:10305B00B029B00001B4010F7E34FDC47E24007E84
:10306B007E1BB04420800D7E34FDC47E24007E7E0A
:10307B001BB054DF7A1BB029B00002B4010F7E34B1
:10308B00FDC47E24007E7E1BB04410800D7E34FD7B
:10309B00C47E24007E7E1BB054EF7A1BB0740102F9
:1030AB00314AA5BF02028003023153E59A543F44D3
:1030BB0050F59AA9D28EA9D48EA9D0AF7E34FDB487
:1030CB007E24007E7E1BB044807A1BB07E0BB0B496
:1030DB00010F7E34FDC87E24007E7E1BB0448080B1
:1030EB000D7E34FDC87E24007E7E1BB0547F7A1B80
:1030FB00B029B00001B4010F7E34FDCC7E24007EDC
:10310B007E1BB04420800D7E34FDCC7E24007E7E61
:10311B001BB054DF7A1BB029B00002B4010F7E3410
:10312B00FDCC7E24007E7E1BB04410800D7E34FDD2
:10313B00CC7E24007E7E1BB054EF7A1BB0740269E8
:10314B00300003126613E42274FF22CA7BCA6BCAD7
:10315B005BCA4BCA79CA2BCA1BCA0BC0D1C0D0C021
:10316B0083C0827E34FEBB7E24007E7E1BF07EE11C
:10317B00975397F774031282CC7CAB5404B40418A6
:10318B0074037E34FEBB7E24007E7A1BB074047EF7
:10319B0034FEBC7A1BB0C2157CBA5408B408187440
:1031AB00037E34FEBB7E24007E7A1BB074087E3413
:1031BB00FEBC7A1BB0D2137CBA5440B440167403D5
:1031CB007E34FEBB7E24007E7A1BB074407E34FEC0
:1031DB00BC7A1BB07CBA5420B42026E47E14FEBB10
:1031EB007E04007E7A0BB07E34FEBC7E24007E7E95
:1031FB001BB054FB7A1BB074037A0BB074207A1B90
:10320B00B07CBA5410B4101674037E34FEBB7E240B
:10321B00007E7A1BB074107E34FEBC7A1BB07CBA75
:10322B005402B4021674037E34FEBB7E24007E7AF5
:10323B001BB074027E34FEBC7A1BB07CBA5401B452
:10324B00011674037E34FEBB7E24007E7A1BB074A1
:10325B00017E34FEBC7A1BB07AE1977E34FEBB7ED6
:10326B0024007E7A1BF0D082D083D0D0D0D1DA0B61
:10327B00DA1BDA2BDA79DA4BDA5BDA6BDA7B32CA06
:10328B007BCA6BCA5BCA4BCA79CA2BCA1BCA0BC097
:10329B00D1C0D0C083C0827E34FEBB7E24007E7E34
:1032AB001BF07EE19743970874031282CC7CAB54DE
:1032BB0004B4041874037E34FEBB7E24007E7A1B98
:1032CB00B074047E34FEBC7A1BB0C2167CBA5408B0
:1032DB00B4081874037E34FEBB7E24007E7A1BB0C8
:1032EB0074087E34FEBC7A1BB0D2147CBA5440B442
:1032FB00401674037E34FEBB7E24007E7A1BB074B2
:10330B00407E34FEBC7A1BB07CBA5420B42026E439
:10331B007E14FEBB7E04007E7A0BB07E34FEBC7E38
:10332B0024007E7E1BB054FB7A1BB074037A0BB067
:10333B0074207A1BB07CBA5410B4101674037E340C
:10334B00FEBB7E24007E7A1BB074107E34FEBC7AEA
:10335B001BB07CBA5402B4021674037E34FEBB7EDF
:10336B0024007E7A1BB074027E34FEBC7A1BB07CC8
:10337B00BA5401B4011674037E34FEBB7E24007E66
:10338B007A1BB074017E34FEBC7A1BB07AE1977E57
:10339B0034FEBB7E24007E7A1BF0D082D083D0D04B
:1033AB00D0D1DA0BDA1BDA2BDA79DA4BDA5BDA6BA0
:1033BB00DA7B32CA3B7A1F05E17AB305E07F30BE78
:1033CB0038000078030234D77EB305E0BEB010405E
:1033DB00030234D77EA003A49033E77302341702A1
:1033EB00341F02342702342F02343702343F0234A5
:1033FB004702344F02345702345F02346702346F92
:10340B0002347702347F02348702348D43910153A7
:10341B0092FE806E4391025392FD8066439104535A
:10342B0092FB805E4391085392F780564391105361
:10343B0092EF804E4391205392DF8046439140534D
:10344B0092BF803E43918053927F803643930153CA
:10345B0094FE802E4393025394FD80264393045392
:10346B0094FB801E4393085394F780164393105399
:10347B0094EF800E4393205394DF80064393405385
:10348B0094BF741F7AB305E5740F7AB305E6E47A3B
:10349B00B305E77AB305E874017AB305E97E08054D
:1034AB00E512587A740112841C6D33793300019F35
:1034BB001179330009792300077E1F05E179330069
:1034CB0005792300037E7305E07A3B70DA3B22CA51
:1034DB003B7F30E47AB307047E5488227E4400FF9E
:1034EB006932000669220004691200020B2A007A75
:1034FB001F07097A0F07059F117A1F070D74937E1B
:10350B000807041200F67EB3070430E0F074397E2E
:10351B0070947E0807057E240008124CD27E630748
:10352B00086C777E5307077C46E412041879330046
:10353B00021B3A207E63070A7E5307097C46E4127E
:10354B00041879330006792300047E63070C7E533D
:10355B00070B7C46E41204187933000A7923000820
:10356B00691300066903000469F300020B3AE07F5C
:10357B00171201F46913000A690300081201F47AA7
:10358B001F070D4D2368597E0F070D7F1712034C34
:10359B006D117E0442C81202AC793300021B3A2033
:1035AB0069330006692300047E0F070D12034C6D6F
:1035BB00117E0442C81202AC793300067923000451
:1035CB006933000A692300087E0F070D12034C6D47
:1035DB00117E0442C81202AC7933000A7923000829
:1035EB00DA3B221282B974FF7E08079C7E700112AF
:1035FB00849570097EB3079CBEB0156803740122D5
:10360B0074097E08079D7E70011284956003740215
:10361B00227EB3079D44407AB3079D74097E7307DE
:10362B009D12002E60037402227E34000A12811D4B
:10363B0074027E70E012002E600374032274037E0A
:10364B00700212002E6003740422E47AB3079D7497
:10365B00067E73079D12002E600374052274047E90
:10366B0073079D12002E600374052274057E730789
:10367B009D12002E600374052274087E700F1200D9
:10368B002E600374062274097E700312002E6003F1
:10369B00740722740A7E702312002E6003740822B2
:1036AB00740C7E703F12002E6003740922740D7E21
:1036BB00703F12002E600374092274107E707F120B
:1036CB00002E600374092274217E700112002E609B
:1036DB0003740A22E47E08079E7E7001128495749F
:1036EB00017E08079E7E700112849574017AB307E0
:1036FB00BCE422CAF87EF306967CBF5480B48016D5
:10370B007EB3069970307EB30698702A7E37069C7E
:10371B00BE34000268030237FA7CBF540F14681BD7
:10372B0014683C0BB168030237FA7EB3069B700634
:10373B007EB3069A601E0237FA80197EB306A8B4D0
:10374B00040F7EB3069B60030237FA7EB3069A60C2
:10375B00030237FA7E344FED7E2400FF0237EA7EF8
:10376B00B306A8B404067EB3069B60030237FA7E49
:10377B0073069A7CA75EA00F2E70FB68372E7080A5
:10378B0068052E700378687E2400017CBA60053EC4
:10379B00241478FB7E7306B06C665C754D33680A37
:1037AB007E344FEF7E2400FF80357E344FED7E2438
:1037BB0000FF802B7E2400017CBA60053E24147828
:1037CB00FB7E7306B16C665C754D33680A7E344FB5
:1037DB00EF7E2400FF80087E344FED7E2400FF7ABD
:1037EB001F06AC7E3400027A3706AA8007800012CF
:1037FB008446800312835FDAF8227F70E47E34FA0A
:10380B00227E24007E7A1BB0691700037E34FA27D0
:10381B007A1B207E34FA287A1B30691700057E3418
:10382B00FA257A1B207E34FA267A1B30693700077B
:10383B007E14FA237E04007E7A0B700A167E34FA0D
:10384B00847A1B302967000ABE600338137E14FA92
:10385B00297E04007E7E0B705E70FC4C767A0B70BA
:10386B0029B70001B4010F7E34FA207E24007E7E3E
:10387B001BB04440800D7E34FA207E24007E7E1BDC
:10388B00B054BF7A1BB029B70002B4010F7E34FAD3
:10389B00207E24007E7E1BB04420800D7E34FA20D7
:1038AB007E24007E7E1BB054DF7A1BB029B7000943
:1038BB00B4010F7E34FA297E24007E7E1BB04404B3
:1038CB00800D7E34FA297E24007E7E1BB054FB7A59
:1038DB001BB07E7BB0B4010F7E34FA217E24007EB8
:1038EB007E1BB04480800D7E34FA217E24007E7EC8
:1038FB001BB0547F7A1BB022CA59CA1BCA0BC0D14A
:10390B007E34FE827E24007E7E1BB054BF7A1BB0B9
:10391B007E34FAAD7E1BB030E2087E1BB054FB7ACE
:10392B001BB07E34FE847E24007E7E1BB030E60B03
:10393B007E1BB054BF7A1BB00239F57E1BB030E54D
:10394B005C7E1BB054DF7A1BB07EB307A970097481
:10395B00017AB307A90239F57EB307A87021740168
:10396B007AB307A87E14FE877E04007E7E0B307A26
:10397B003307AA7E3307AA0A1309B1072380457EB2
:10398B0014FE877E04007E7E0BA07E3307AA7CB3D9
:10399B00047AB307AA0A1319A10723804D7E1BB023
:1039AB0030E42E7E1BB054EF7A1BB07E1BB030E19F
:1039BB000474FF800F7EB307AA047AB307AA0A1B0D
:1039CB0009B107237E14FE867E04007E7A0BB0803D
:1039DB00197E1BB030E3137E1BB054F77A1BB0E497
:1039EB007AB307A97AB307A8D223D0D1DA0BDA1BA3
:1039FB00DA5932CA3B7F307C7BA5BF001AA9C3972B
:103A0B00E47E700412006E7E3BB0B40105A9D19721
:103A1B008026A9C1978021A5BF01028003023AE647
:103A2B00A9D397E47E700412006E7E3BB0B40105FF
:103A3B00A9D2978003A9C2977406CAB829B300020A
:103A4B00030354C0297300032C7BDAB812006E7485
:103A5B0007CAB8296300067CB6C454F07C6B29B343
:103A6B0000040354802C6B297300052C76DAB812F2
:103A7B00006E74102973000912006E741129730003
:103A8B000A12006E74122973000B12006E74132944
:103A9B0073000C12006E74142973000D12006E74F7
:103AAB00152973000E12006E74162973000F120085
:103ABB006E74172973001012006E74037E70FF1260
:103ACB00006E74042973000112006EE42963000771
:103ADB003E60297300084C7612006EC215C216DACE
:103AEB003B22CA79740E7E7005127FCA741412833E
:103AFB00187CFB30E60874147E7080127FCA7CBF82
:103B0B0020E003023BCF7E1406407E0400017425A7
:103B1B001270CE7AB3069E7E1F06A24D2378030247
:103B2B003BB66CFF807A7EB3069F1A3B7E0F06A2D4
:103B3B002D317D207E1BA00A4F2E4406407A9182A8
:103B4B007A81837EEBE0BCEA7840047AB3069F7EF1
:103B5B0073069F1A372D317D207E1BB07040741475
:103B6B006C77127FCAE47E34FE007E24007E7A1BC3
:103B7B00B075F40053DCF07E34FE077A1BB07E3454
:103B8B00000A12809175C76080FE7E1F06A27E1B05
:103B9B0070BCE7780474018001E47AB3069F0BF0E4
:103BAB007E73069EBC7F2803023B31D2177E3706FD
:103BBB00A04D33680F7E3706A0993474146C7712BE
:103BCB007FCAC217DA79227D437F700B7A301A26AF
:103BDB001A247D141A081A00120CC7740E7F511E7A
:103BEB00B40EA450044EB480001478F369D7000AC5
:103BFB007D1D1A021A00693700021A261A24120CAC
:103C0B00C7740E1E340E2450034E60801478F42FAC
:103C1B00516917000C1A021A00693700041A261A88
:103C2B0024120CC7740E1E340E2450034E608014E5
:103C3B0078F42F516917000E1A021A006937000623
:103C4B001A261A24120CC7740E1E340E2450034E5F
:103C5B0060801478F49F51691700101A021A0069DA
:103C6B003700081A261A24120CC7740E1E340E24A1
:103C7B0050034E60801478F49F51BE587FFF0806A6
:103C8B007E587FFF800ABE5C800058047E5C8000FB
:103C9B007D3B79D7000C7947000A6927000E7927FD
:103CAB00001079B7000E22CA3B7F317A0F00087ED5
:103CBB0054882A7E4400FF69320004692200020BFB
:103CCB002A107A1F000E7A17000CE47AB300127ECA
:103CDB001800037A1F001B7AB3001F7E1F00084DCC
:103CEB00237803023D71BE380000687AE47E080039
:103CFB00127E70011284957EB300125440B44008BA
:103D0B0074017AB3001F800E7E1F001B1B1C7A1FD1
:103D1B00001B4D2378D67EB3001F604A74077E08C4
:103D2B00000C7E70061284957E63000D6C777E53BB
:103D3B00000C0A257E73000E6D227A1F00137E6322
:103D4B0000106C777E7300117A1F00177E0F001323
:103D5B007E1F0008791100021B1A007E1F001779C5
:103D6B003300021B3A20DA3B227F70E47E34FA02E6
:103D7B007E24007E7A1BB0691700017E34FA077A25
:103D8B001B207E34FA087A1B30691700037E34FA45
:103D9B00057A1B207E34FA067A1B30693700057EC4
:103DAB0014FA037E04007E7A0B700A167E34FA80B6
:103DBB007A1B3029B70007B4010F7E34FA007E243A
:103DCB00007E7E1BB04420800D7E34FA007E2400E2
:103DDB007E7E1BB054DF7A1BB029B70008B4010FED
:103DEB007E34FA007E24007E7E1BB04410800D7E54
:103DFB0034FA007E24007E7E1BB054EF7A1BB07E1B
:103E0B007BB0B4010F7E34FA017E24007E7E1BB0A2
:103E1B004480800D7E34FA017E24007E7E1BB054DC
:103E2B007F7A1BB0227F70E47E34FE537E24007EAB
:103E3B007A1BB029B70001B4010F7E34FE507E24EB
:103E4B00007E7E1BB04401800D7E34FE507E24002C
:103E5B007E7E1BB054FE7A1BB029B70002B4020F52
:103E6B007E34FE507E24007E7E1BB04402800D7E8D
:103E7B0034FE507E24007E7E1BB054FD7A1BB0298D
:103E8B00670003BE600738173E603E607E14FE512C
:103E9B007E04007E7E0B705E70E34C767A0B70298D
:103EAB00670004BE600338137E14FE517E04007E4F
:103EBB007E0B705E70FC4C767A0B707E7BB0B4011F
:103ECB000F7E34FE527E24007E7E1BB04480800D1C
:103EDB007E34FE527E24007E7E1BB0547F7A1BB054
:103EEB00227F7029B70002B401487E14FE807E0445
:103EFB00007E7E0BB044407A0BB0E47E34FE827EB3
:103F0B0024007E7A1BB07E7B605E603F7E0B705E12
:103F1B0070C04C767A0B7029B70003B4010A7E345B
:103F2B00FE887E24007E80457E34FE887E24007EC3
:103F3B0080347E34FE807E24007E7E1BB054BF7A9C
:103F4B001BB0E47E34FE847A1BB0292700043E208C
:103F5B007E34FE857E1B305E30014C327A1B30295D
:103F6B00B70005B401077E1BB054FE80057E1BB065
:103F7B0044017A1BB029B70001700F7E34FE807E9E
:103F8B0024007E7E1BB0547F800D7E34FE807E2409
:103F9B00007E7E1BB044807A1BB0227F517F60BEB7
:103FAB006800006815691600020B6A00BE08000065
:103FBB006808693600044D3378039F112269360077
:103FCB00063E343E342D317D20691100020B1A0060
:103FDB007F762EF4000A693700020B7A201201F16A
:103FEB00793700021B7A20691600063E143E1469CD
:103FFB003600020B6A202D3179B100021B1AA07F0B
:10400B00762EF4000A693700020B7A207F05120125
:10401B00F4793700021B7A20693600060B346926C7
:10402B0000048D32792600066926000469360008E3
:10403B00BD32500B7F062E1400080B341B0A30695F
:10404B00260008E41204187F016936000C6926006B
:10405B000A02034CE47AB3046974FF7AB3046A6D01
:10406B00337A37046B9F117A1F03397A1F033D9FF5
:10407B00007425ACB75915034C5905034A7E0CFF48
:10408B00FF7425ACB7591503505905034E9F0074A7
:10409B0025ACB759150354590503527425ACB759C0
:1040AB00150358590503567425ACB75915035C59BC
:1040BB0005035A7425ACB7591503605905035E7493
:1040CB0025ACB759150364590503626C667425ACAE
:1040DB00B7196503437425ACB75915034659050346
:1040EB00440B70BE70084087E47E34FEA07E240033
:1040FB007E7A1BB0438E805389F0758A40758CA2F3
:10410B00C28DD28CD2A922CA3B7F717F307E0F0623
:10411B00F47E340FDA7E2440C91202AC7F071203FF
:10412B004C7A1F06FC1205AD6D117E04C000120205
:10413B00AC7A1F07007E1F06FC1205AD7F617E7FE8
:10414B0006F86D337E24C0007F071202AC7F061287
:10415B0002AC7F617F177F071202AC7F717E344008
:10416B00001B3A306D117E0446807E1F0700120241
:10417B00AC120450793300027E34400079330004D2
:10418B006D117E0446807F161202AC1204507933F7
:10419B0000066D117E0446807F171202AC1204508C
:1041AB00793300086D337933000A7933000C793396
:1041BB00000E79330010DA3B227F70E47E34FA9ADA
:1041CB007E24007E7A1BB0691700037E34FA9D7A39
:1041DB001B207E34FA9E7A1B30693700017E14FA5D
:1041EB009B7E04007E7A0B700A167E34FAA87A1B2B
:1041FB00307E34FAA27A1BB0691700087E34FAA518
:10420B007A1B207E34FAA67A1B30693700067E149F
:10421B00FAA37A0B700A167E34FAAA7A1B307E7BCD
:10422B00B0B4010F7E34FA997E24007E7E1BB0441D
:10423B0080800D7E34FA997E24007E7E1BB0547FE5
:10424B007A1BB029B70005B4010F7E34FAA17E2486
:10425B00007E7E1BB04480800D7E34FAA17E24004C
:10426B007E7E1BB0547F7A1BB022CA3B7A37060581
:10427B007F307EB306A8B40402800302431F6D3364
:10428B007A3706087E3413887A37060AA9C7AF74C3
:10429B000E7E7005127FCA741112831830E018A9B4
:1042AB00D7AF7E34000A127C637E37060A1B347A42
:1042BB0037060A685F80D57E270605BE24004008B6
:1042CB00057E704080027C757A730607A9C7AFC262
:1042DB0019740E7E7005127FCA7F032E1706087E97
:1042EB00B306077E70051200AED219A9D7AF7E7345
:1042FB0006070A277D322E3706087A3706087E37DF
:10430B0006059D327A3706057E730607BE70404060
:10431B000302428FDA3B227D437E3485A17E24004B
:10432B00FF0B1A50BD5438076D337E24C220227EFA
:10433B003487817E2400FF0B1A50BD5440076D3328
:10434B007E244348226DFF7D3F1A261A242F117FAE
:10435B00012E0400FF2E0885A10B0A50BD54400FFF
:10436B002E2400FF2E1885A30B1A50BD5428080BC2
:10437B00F4BEF400F048D07D3F1A261A247F012F9B
:10438B00017F102E2400FF2E1885A30B1A302E044C
:10439B0000FF2E0885A10B0AE07D2E9D23E412045D
:1043AB00187F017D2E9D24E412041812034C7F010B
:1043BB007D2F2E24FFD87CB41204180201F453B2C3
:1043CB00FC43B10374807E34FE077E24007E7A1B8F
:1043DB00B07E34FE077E24007E7E1BB030E0F253AD
:1043EB00DCF075F4907428120056E46C77127FCAD7
:1043FB0074017E7008127FCA74077E703F127FCAE9
:10440B0074097E703F127FCA740B7E7007127FCACD
:10441B0074016C77127FCAE412005674027AB306E9
:10442B00A8E47AB306A97AB306B07AB306B1C21977
:10443B007E3401007E2400C27A1F074F7AB30753E4
:10444B007AB3075474087AB30755A9D7AF74017AB6
:10445B00B305DC7EB305DC700B9F117A1F05DD9F66
:10446B00000204B9227EB306A8BEB00268207EB358
:10447B000696701A7EB3069970147EB3069B700E67
:10448B007EB3069A70087E37069C4D336803028410
:10449B00467EB30698B4015F74047AB306A8E47A37
:1044AB00B306B07AB306B1740E7E7002127FCA7473
:1044BB00127E7020127FCA74107E7008127FCA742D
:1044CB000E7E7005127FCA74127E7020127FCA7422
:1044DB00107E7008127FCA740E7E7005127FCA742C
:1044EB00126C77127FCA74137E7008127FCA740E17
:1044FB006C77127FCA801074037AB306A874FF7AA4
:10450B00B306B07AB306B102846F7EB306A8B404C7
:10451B00277EB30696B402207EB3069B600302454A
:10452B00B37EB3069960030245B37EB306987078E9
:10453B007E37069C4D336802806E7E63069A7C76CE
:10454B005E700F2E60FB68302E608068052E600356
:10455B0078567E2400017CB760053E241478FB7CE2
:10456B00656E60FF5E6306B07A6306B0740E127FF1
:10457B00CA74117E704080247E2400017CB76005D4
:10458B003E241478FB7C656E60FF5E6306B17A6334
:10459B0006B1740E127FCA74147E7080127FCA74B7
:1045AB000E6C77127FCA800302844602846FCA3B6B
:1045BB007E0806BC125EAF6D117E04424C12034C9A
:1045CB006D117E04447A1202AC7F317EB30779B44D
:1045DB000120E47AB307797EB306B77004740180C7
:1045EB0001E47AB306B7B4010474038002740212B7
:1045FB0078747EB30779B4022FE47AB307797EB36C
:10460B0006B770067A3F06B880187E0F06B87F1380
:10461B001201F17F016D337E24410412034C7A1F8A
:10462B0006B274017AB306C77E0F06B87F13120168
:10463B00F17E0F06B21202AC7A1F061A7E08060C28
:10464B007E1F061A123FA67E180032127712DA3B33
:10465B00227EB306965480BEB08068030246E77E86
:10466B00B306991BB168191468280BB1786E7E34A8
:10467B004F987E2400FF7A1F06AC7E3400128054C4
:10468B007E344FAA7E2400FF7A1F06AC7E34004393
:10469B0080427EB306981468191468280BB1783CD5
:1046AB007E344F947E2400FF7A1F06AC7E340004C8
:1046BB0080227E344FF17E2400FF7A1F06AC7E34BD
:1046CB00000880107E344F767E2400FF7A1F06ACE4
:1046DB007E34001E7A3706AA800580000284467E4F
:1046EB0037069CBE3706AA50047A3706AA02835FA8
:1046FB00CA3B7A3707837F306D337A370786024799
:10470B008C74387AB307857E370783BE34003850F4
:10471B00047A7307851280167E7307850A572E5409
:10472B000003900604F074CF900605F07E17078601
:10473B007E3406067E2400011B1A107E7307850A41
:10474B0037CA397F137E1406087E040001127A954E
:10475B001BFD7E7307850A372E3400080A37128437
:10476B00E27E7307850A372D737E7307850A272E22
:10477B003707867A3707867E3707839D327A370766
:10478B00837E3707834D33680302470CDA3B22CA1B
:10479B003B7A37077E7F306D337A37078102482BA0
:1047AB0074387AB307807E37077EBE3400385004E6
:1047BB007A73078012802F7E7307800A572E54005E
:1047CB0003900604F074AF900605F07E1707817E08
:1047DB003406067E2400011B1A107E7307800A37ED
:1047EB00CA397F137E1406087E040001127A951BCA
:1047FB00FD7E7307800A372E3400080A371284E2D5
:10480B007E7307800A372D737E7307800A272E3736
:10481B0007817A3707817E37077E9D327A37077E8D
:10482B007E37077E4D3368030247ABDA3B22CA3B28
:10483B006D777D27E41204187E140FDA7E04C0C94D
:10484B001202AC6D117E04438012034C7A1F079841
:10485B001205AD7F017D373E343E342E3404007A91
:10486B0071827A6183791E00021BEA207E1F0798F2
:10487B001205CA7F017D373E343E342E3400007A58
:10488B0071827A6183791E00021BEA200B74BE745D
:10489B000080789E6D667E7401000B641E74BE747E
:1048AB00000138F66D777D377D26127BEC7D237DFD
:1048BB00373E342E3402007A71827A61831BEA20F0
:1048CB000B74BE74010040DEDA3B227EB306A8B443
:1048DB0004247EB30696B4021D7EB3069B600302CE
:1048EB00496B7EB3069970787EB3069870727E37EB
:1048FB00069C4D33680280687E63069A7C765E70F8
:10490B000F2E60FB682D2E608068052E600378509B
:10491B007E2400017CB760053E241478FB7C654E39
:10492B006306B07A6306B0740E127FCA74117E7080
:10493B001080217E2400017CB760053E241478FB97
:10494B007C654E6306B17A6306B1740E127FCA742E
:10495B00147E7020127FCA740E6C77127FCA80038C
:10496B0002844602846F7C267C377C6BBE600A28EF
:10497B000374FF22BE2003280374FF222E60F66807
:10498B00390B60786A7E34FEC47E24007E7A1B303D
:10499B00A5BA0006A9C2B6A9C2B5A5BA0106A9C295
:1049AB00B6A9D2B5A5BA0206A9D2B6A9C2B5A5BAFF
:1049BB000348A9D2B6A9D2B580407E34FEE47E244A
:1049CB00007E7A1B30A5BA0006A9C3B6A9C3B5A54C
:1049DB00BA0106A9C3B6A9D3B5A5BA0206A9D3B61F
:1049EB00A9C3B5A5BA0313A9D3B6A9D3B5800B7EBA
:1049FB0034FEE47E24007E7A1B30E4227D436C552A
:104A0B000A3B1B347C670B0A50BD544005693000D0
:104A1B0002227404ACB67F702DF50B7A50BD54385E
:104A2B00266937000222801F0AF60A552D5F0E54A5
:104A3B007C7B7404ACB77F702DF50B7A50BD54287A
:104A4B00047C6780027C570AF50A569D5FBE5400B2
:104A5B000118D57E70047CB5ACB77F602DD50B6A81
:104A6B00E07CB6ACB77F102D350B1A1069F600023F
:104A7B0069210002BDE178037D3F229D2F7D349D8E
:104A8B003EAD329D1E120CD87F017D3F6D222F1043
:104A9B002274FD1280C17E34000A12811D7E08072C
:104AAB005674061259E77E080756740212721EBE20
:104ABB00B30758786F7E080759740212721EBEB383
:104ACB00075B78607E6307566C777E5307577C468F
:104ADB007E6307597E33075A0AD34DD3E412041869
:104AEB007EF4FF007EE4477F7F0712034C6D117E3F
:104AFB0004432F1202AC6D117E04C2341201F47AFE
:104B0B001F071F7D2DE41204187F0712034C6D1134
:104B1B007E0442FA1202AC6D117E04C0C01201F485
:104B2B007A1F071B22CA3B7A2707647F307A7307E9
:104B3B00637AB30762BE38000068087E3707644D9E
:104B4B0033780474018068127C0B7EB307623EB02D
:104B5B0012598E50557EB3076312598E504C127CEE
:104B6B000B7EB307623EB0440112598E503C6D333D
:104B7B0080247E3707641B34BE3707662804D22295
:104B8B008002C222125AED7F132E3707667A1BB0B2
:104B9B007E3707660B347A3707667E370764BE3776
:104BAB00076638CE127C80E48005127C807401DAB3
:104BBB003B227CA7BEB001280374FF22BE600328F2
:104BCB000374FF2214683A04786EBEA0017805A91D
:104BDB00D1F18003A9C1F1A5BE0006A9C3F1A9C0FB
:104BEB00F1A5BE0106A9C3F1A9D0F1A5BE0206A984
:104BFB00D3F1A9C0F1A5BE0342A9D3F1A9D0F1808D
:104C0B003ABEA0017805A9D5F18003A9C5F1A5BECF
:104C1B000006A9C7F1A9C4F1A5BE0106A9C7F1A950
:104C2B00D4F1A5BE0206A9D7F1A9C4F1A5BE030B09
:104C3B00A9D7F1A9D4F1800374FF22E422CAF87436
:104C4B000E6C77127FCA74111283187CFB30E20F43
:104C5B0074117C7F5E70FB127FCAE47AB306A97C69
:104C6B00BF30E40A74117C7F4E7080127FCA7EB312
:104C7B0006A924FD68461468480BB278477CBF3000
:104C8B00E0427E08069674201270CE7E37069C1288
:104C9B0072887A37069C7EB30696546024E0680DC2
:104CAB0024E0680E2440780F1258D78017127E0626
:104CBB0080121200DE800D12844680081255C780C8
:104CCB0003125EFCDAF822CA3B7A27075E7F307A42
:104CDB0073075D7AB3075C127C0B7EB3075C3EB047
:104CEB0012598E4007127C8074FF80617EB3075D82
:104CFB0012598E4007127C8074FE8051127C0B7E01
:104D0B00B3075C3EB0440112598E4007127C80748D
:104D1B00FD803A6D3380247E37075E1B34BE370728
:104D2B00602803D38001C39222125AED7F132E37D2
:104D3B0007607A1BB07E3707600B347A3707607ECB
:104D4B0037075EBE37076038CE127C80E4DA3B2231
:104D5B00A2B2E43378046CAA80037EA0017EB30771
:104D6B007A14681D1468350BB1786D4CAA78697488
:104D7B00017AB3077A6D337A37077CE47AB3077B12
:104D8B00224CAA78147E37077C0B347A37077CBE0B
:104D9B0034000240437402803BE480384CAA7827ED
:104DAB007E37077C0B347A37077C7EB3077B702802
:104DBB007E37077CBE340032401E74017AB3077B0A
:104DCB0074027AB30779227EB3077B700674017A7B
:104DDB00B30779E47AB3077A22CA3B7A1F06E27FDC
:104DEB00306D337A3706E67E3706E63E343E343E88
:104DFB00347F032D1369D000020B0AC07A6F06E8CB
:104E0B0069300006692000047A1F06EC7F0112024C
:104E1B00AC7F717F167F061202AC7F071201F47A0A
:104E2B001F06F09F779F001203CD50047A7F06F088
:104E3B007E1F06F01204D57F017E5706E63E543ED8
:104E4B00547E1F06E22D35791100021B1A007E37A6
:104E5B0006E60B347A3706E6BE3401004089DA3BAE
:104E6B0022CAB8CA1BC0D17E34FEC57E24007E7E0A
:104E7B001BB030E0087E1BB054FE7A1BB07E1BB01B
:104E8B0030E1087E1BB054FD7A1BB07E1BB030E2C4
:104E9B00087E1BB054FB7A1BB07E1BB030E3087E40
:104EAB001BB054F77A1BB07E1BB030E4087E1BB0EE
:104EBB0054EF7A1BB07E1BB030E5087E1BB054DF7D
:104ECB007A1BB07E1BB030E6087E1BB054BF7A1B3A
:104EDB00B07E1BB030E7087E1BB0547F7A1BB0D07E
:104EEB00D1DA1BDAB832CAB8CA1BC0D17E34FEE5A0
:104EFB007E24007E7E1BB030E0087E1BB054FE7A11
:104F0B001BB07E1BB030E1087E1BB054FD7A1BB08A
:104F1B007E1BB030E2087E1BB054FB7A1BB07E1BAD
:104F2B00B030E3087E1BB054F77A1BB07E1BB03059
:104F3B00E4087E1BB054EF7A1BB07E1BB030E50843
:104F4B007E1BB054DF7A1BB07E1BB030E6087E1B95
:104F5B00B054BF7A1BB07E1BB030E7087E1BB05439
:104F6B007F7A1BB0D0D1DA1BDAB8321E0353005450
:104F7B000043002000550053004200200053006501
:104F8B00007200690061006C000403090412010047
:104F9B000202000040BF3402FF00010102000109C0
:104FAB0002430002010080320904000001020201E9
:104FBB000005240010010524010001042402020550
:104FCB0024060001070582034000FF0904010002CB
:104FDB000A00000007058502400000070505024096
:104FEB0000000000010008035300540043007C261E
:104FFB007CA77C3BBE3001280374FF22A5BB012597
:10500B004CAA780F7E34FE817E24007E7E1BB0542A
:10501B007F800D7E34FE817E24007E7E1BB044801B
:10502B007A1BB08017A5BB00137E34FE837E240051
:10503B007E7E1B305E30874C3A7A1B30BE200338A5
:10504B002AA5BA0006A9C5B6A9C5B5A5BA0106A970
:10505B00C5B6A9D5B5A5BA0206A9D5B6A9C5B5A534
:10506B00BA030BA9D5B6A9D5B5800374FF22E422E8
:10507B00CA7BCA6BCA5BCA4BCA3BCA2BCA1BCA0BBD
:10508B00C0D0C083C0827EF1FC74061283187CEB07
:10509B0074021283187CCB74041283187CDB7CBEE5
:1050AB0030E1031200D17CBE30E20312657F7CBC81
:1050BB0030E003124C487CBC30E2031278497CBCD4
:1050CB0030E5031270587CBD30E503123AED7CBE1F
:1050DB0030E0031200CA7AF1FCD082D083D0D0DA50
:1050EB000BDA1BDA2BDA3BDA4BDA5BDA6BDA7B3275
:1050FB00CA797E0806BCE47E3433337E24405312D7
:10510B0033BE7E3400047A3705E49F117E0805DC3C
:10511B001269BD7E4305DCBE40FF684B7E5305DD47
:10512B00BE50FF68427EE305DEBEE0FF68397EF3CA
:10513B0005DFBEF0FF68307C646C770A252D23E415
:10514B001204186DFF7EE4447A7F0712034C7A1F1A
:10515B0006B27C6E6C770A2F2D23E41204187F079E
:10516B0012034C7A1F06B8DA7922CA3B7A270776E4
:10517B007F307A7307757AB30774127C0B7EB30793
:10518B00743EB012598E7EB3077512598E127C0B7A
:10519B007EB307743EB0440112598EE48017D222BD
:1051AB00125AED7EA307780A3A2D377D267A1BB06B
:1051BB007EB30778047AB307787E2707761B247EA5
:1051CB007307780A37BD3240D5C222125AED7EA33F
:1051DB0007780A3A2D377D267A1BB0127C80DA3B92
:1051EB0022CA3B7F30BE3800007804740180641201
:1051FB006DF470047401805B74CC127F1474BE1256
:10520B007F14E47AB3071A12798E7CAB7EB3071A3C
:10521B000A4B19A40711047AB3071AB409E97E08DB
:10522B00071174081272BD7E730719BC7B68047476
:10523B000280207E6307127E5307117C467CB612D8
:10524B0004186D117E043D801202AC793300021BF1
:10525B003A20E4DA3B227EB306B660697EB306C819
:10526B00047AB306C87E7306C8BE700A4026E47A79
:10527B00B306C8202003D38001C392203020127EB6
:10528B00B306B7B4010474038002740212787480FD
:10529B00031285807EB306C8702B7EB306C9047AD1
:1052AB00B306C97E7306C9BE70064019E47AB3060D
:1052BB00C97AB306B67EB306B7B401047403800291
:1052CB007402027874227F7053E63029B7000654BB
:1052DB003FF5E77E7BB0B40103A9D7E629B70003FE
:1052EB00B40103A9D1E629B70004B40103A9D7E798
:1052FB0029B700057003A9D6E729670001BE600333
:10530B0038137E14FEAE7E04007E7E0B705E70FC46
:10531B004C767A0B7029670002BE600138173E602D
:10532B003E607E14FEAE7E04007E7E0B705E70FBD4
:10533B004C767A0B70227F70E47E34FA727E2400F6
:10534B007E7A1BB0691700017E34FA777A1B207EB8
:10535B0034FA787A1B30691700037E34FA757A1B9E
:10536B00207E34FA767A1B30693700057E14FA7387
:10537B007E04007E7A0B700A167E34FA867A1B3016
:10538B007E7BB0B4010F7E34FA717E24007E7E1BCF
:10539B00B04480800D7E34FA717E24007E7E1BB07B
:1053AB00547F7A1BB0227EB306C76066E47AB306DD
:1053BB00C76DFF7EE4447A7E1F06B27F071202ACF4
:1053CB001204500A367A7307887E1F06B27F0712C3
:1053DB0002AC1204507A7307897E1F06B87F07123E
:1053EB0002AC1204500A367A73078A7E1F06B87F06
:1053FB00071202AC1204507A73078B7E3400047AC6
:10540B003707729F117E080788126A0474017AB3FA
:10541B0006B622CA3B7A27076A7F307A7307697A06
:10542B00B30768BE38000068087E37076A4D3378CB
:10543B000474018048127C0B7EB307683EB012598E
:10544B008E50357EB3076912598E502C6D338014F4
:10545B007F132E37076C7E1BB012598E501A7E3776
:10546B00076C0B347A37076C7E37076ABE37076CCD
:10547B0038DE127C80E48005127C807401DA3B22DA
:10548B007CA77C3B7C271E207CB26CB70A0B7CB7BD
:10549B001EB01EB00A4B6D407CB7C4540F7C6B0A18
:1054AB000B6D045E0400013E043E043E043E043ECC
:1054BB00043E047C717CBAC423541F6C2B0A220A51
:1054CB00466D427CBAC40354070A2B6D246E24FF2D
:1054DB00FF5E2400013E243E243E243E243E243E17
:1054EB00243E247CB34C7A4C7502779CCA59CA1B58
:1054FB00C0D1A9309A4CA9C09A7E34FDCC7E240031
:10550B007E7E1BB030E102D21D54C06805E47AB335
:10551B00002D7E1BB054347A1BB07E73002DBE70F1
:10552B00804005E47AB3002D7EA19B7E73002D7C19
:10553B00B7047AB3002D0A3719A300B974057AB3EF
:10554B00002EA9319A08A9C19AE47AB3002CD0D1C4
:10555B00DA1BDA5932CA3B7A6307B07F307A7307AA
:10556B00AF7AB307AE12826B7EB307AE12781E1200
:10557B0082F220D5417EB307AF12781E1282F22041
:10558B00D53412826B7EB307AE440112781E1282A1
:10559B00F220D522127ADE7A3BB00B747EB307B0C1
:1055AB00BEB00168031283EF7EB307B0147AB30762
:1055BB00B078E11283FE12840DDA3B22CAF8740E26
:1055CB006C77127FCA741112831820E1537E370651
:1055DB00AABE34004028057EF04080027CF77E0F87
:1055EB0006AC7C7F74201278C70A2F7E3706AA9DE3
:1055FB00327A3706AA0A157E1F06AC2D317A1F06A2
:10560B00AC7E3706AA4D33780F74117E700A127F69
:10561B00CAE47AB306A9800874117E7002127FCA9D
:10562B00DAF8227F70BE7800007802804D7E7BB066
:10563B0014681714681E14682514682C0BB2783A7A
:10564B00E58C7C4B6C55E58A8026E58D7C4B6C5547
:10565B00E58B801CE5D67C4B6C55E5D78012E5D4E9
:10566B007C4B6C55E5D58008E5D27C4B6C55E5D36E
:10567B000A3B4D327937000580076D337E24BF809E
:10568B002269270005E4020418CA59CA1BC0D1308D
:10569B00984BC2987E34FDC47E24007E7E1BB030B6
:1056AB00E102D21C54C06805E47AB300287E1BB01B
:1056BB0054347A1BB07E730028BE70804005E47AA8
:1056CB00B300287EA1997E7300287CB7047AB300BF
:1056DB00280A3719A3003974057AB30029309907C2
:1056EB00C299E47AB30027D0D1DA1BDA59327F7032
:1056FB00E47E34FA127E24007E7A1BB06917000117
:10570B007E34FA1B7A1B207E34FA1A7A1B30691707
:10571B0000037E34FA177A1B207E34FA187A1B307A
:10572B00293700057E34FA197A1B307E7BB0B40121
:10573B000F7E34FA117E24007E7E1BB04480800DD8
:10574B007E34FA117E24007E7E1BB0547F7A1BB010
:10575B00227A1F072B7E34072E7E2400007E1B30FF
:10576B007E34072F7E2400007A1B307E34072D7E7B
:10577B002400007E1B307E3407307E2400007A1B11
:10578B00307E34072C7E2400007E1B307E340731A4
:10579B007E2400007A1B307E34072B7E2400007E93
:1057AB001B307E3407327E2400007A1B307E1F07AD
:1057BB002F227CABBEA00F2802805175BD0075BE99
:1057CB0000E5BC54F04CBAF5BCA9D6BC00000000F7
:1057DB000000000000007E70FAA935BC2BA9C5BCE7
:1057EB00A935DE0AE5BD7C6B6C77E5BE8013E5BDA4
:1057FB000A4B7D343E343E343E343E34E5BEC45415
:10580B000F0A4B4D437D34221B7078CD7E34100034
:10581B0022CA3B7A6307A77F307A7307A67AB3074E
:10582B00A51283707EB307A512814B1283907EB3B2
:10583B0007A612814B1283901283707EB307A54487
:10584B000112814B128390127C9C7A3BB00B747EBD
:10585B00B307A7BEB00168031280617EB307A7141C
:10586B007AB307A778E1127FE4128380DA3B227FB9
:10587B007029A70001E5DE54F04CBAF5DE29B7001C
:10588B00027005A9C5DE8003A9D5DE7E7B20BE2074
:10589B001F280374FF2229A70003BEA0012803744D
:1058AB00FF2229370004BE3003280374FF227CB388
:1058BB00C42354E07C3B7CBA0354804C3B4C327E7B
:1058CB0034FEA87E24007E7A1B30E4227EB306973A
:1058DB00BEB00D50507EA003A49058E87302590F30
:1058EB000259120259300259150259300259180245
:1058FB00591B02591E0259210259240259270259D8
:10590B002A02592D0236FE0245150248D60265C9F8
:10591B0002465C0200CE025B95024470026EEF02FF
:10592B0079190200D60284467F717F20BE280000C1
:10593B006850BE780000684A7E3705DC4D336842FC
:10594B0079F200021B2AE07E3705DC793200046D08
:10595B0033793200069F117932000C7922000A79D3
:10596B0032000880159F227D233E243E247F072D85
:10597B0012795000021B0A400B347E2705DCBD2335
:10598B0038E322CA797CFB5395EF4396107EE008EF
:10599B007CBF30E70543A010800353A0EF1285872F
:1059AB0043A02012858753A0DF3EF01BE078E14334
:1059BB0095105396EF12858743A020E5A00A3B5E16
:1059CB003400107803D38001C3922112858753A032
:1059DB00DF5395EF439610A221DA7922CA3B7AB3B3
:1059EB0007B47F30127C0B748912598EE48017D266
:1059FB0022125AED7EA307B50A3A2D377D267A1B64
:105A0B00B07EB307B5047AB307B57E7307B40A2724
:105A1B001B247E7307B50A37BD3248D3C222125AF4
:105A2B00ED7EA307B50A3A2D377D267A1BB0127C83
:105A3B0080DA3B22CAF87CF67EF4FE007EE4007E20
:105A4B007E7B305E30F04C3B7A7B3053DC9F43DC0B
:105A5B00207CB70354807E7B705E707F4C7B7A7B9F
:105A6B0070E5DC547F4480F5DC7E34000112811D2F
:105A7B007E34FE007E24007E7E1BB054BF44407AF1
:105A8B001BB07E34FE0B7A1BF0DAF822CAB8CA1BA5
:105A9B00CA0BC0D17E34FA727E24007E7E1BB030DE
:105AAB00E037300D05C20DE480207E1707B81B14BC
:105ABB007A1707B84D117810E47E14FA717E040042
:105ACB007E7A0BB0D2B4800D74A07E14FA717E0472
:105ADB00007E7A0BB0E47A1BB0D0D1DA0BDA1BDA8A
:105AEB00B832CA796CFF4395105396EF1285877EB7
