:1000000002155ACA79740E7E7001121A0474141201
:1000100019C87CFB30E60874147E7080121A047CC8
:10002000BF20E0030200C47E1400407E040001747F
:10003000211216137AB300107E1F01214D2378037D
:100040000200C26CFF80737EB300111A3B7E0F0169
:10005000212D317D207E1BA00A4F2E4400407A9135
:10006000827A81837EEBE0BCEA7839047AB30011AE
:100070007E7300111A372D317D207E1BB0703974CC
:10008000146C77121A0475F40075DC00E47E34FEFB
:10009000077E24007E7A1BB07E34000A1219127586
:1000A000C76080FE7E1F01217E1B70BCE778047450
:1000B000018001E47AB300110BF07E730010BC7F65
:1000C0003885D200DA7922021A562202110A020376
:1000D000636E00807CB1337CB033680D0468EF7CC4
:1000E000B5337CB43378037F10220468E17D5092ED
:1000F000F77D457D51BF2140067C807F017F121234
:1001000003267EA1D05CB004780320D5C17CB00466
:1001100078075002B2D502036B92D5BE80FF68F615
:100120007CB89CB06C00602AB418057C4102033F87
:1001300050FB80032F00047C9B5E900778F630E430
:10014000067C437D106D0030E3087C437C327C21CB
:100150000A0030F5199F10780E220203681B806890
:10016000F92F1150020B707CB530E7F1801B2D3157
:100170007CB5A5397C5B50110B80780302036B1EA4
:10018000341350034E60801A2B02033F5D22680D2A
:100190005D0078122D220B4068099F11222D000B63
:1001A0000078F90203631203265C800B8068082440
:1001B0008150072CB0500A02036B2CB0400302039D
:1001C000687C8B5D1178267CB17CA5BE1080680AA6
:1001D0005D33780DA5BD80057F100203556D00804D
:1001E000307F017C5B7CB17CA5AD1280245D3378CF
:1001F00006A5BD80F080E1CA887D41AD437CB17C1D
:10020000A5AD122D1450020B047C5BAD232F01DA37
:1002100088A42D05BE008040060B80780480982FAE
:10022000007C437C507C617C7202033FBE24FFFF54
:100230006806BE04FFFF78030203631203265CB066
:100240000468F57CB8A54868EF7CB870039F11225C
:10025000A5B8000302036B2E008150079C8038076D
:100260000203689C8050ED0A51C2E74D51780302A9
:1002700003557E5400807E901A6C0080061B9068A7
:10028000142F11BF1040049F104CAB0330E7EECA8F
:10029000A86CAA80E8DA39DA587C4ABE5080500A45
:1002A0001B8068BC2F1150020B7002033F7EA02000
:1002B000800C7EA01080057EA0086C556D333392B3
:1002C000D5500A6E34FFFF6E24FFFF0B1CA5EC33E4
:1002D00040062F11D5F0F6227CBA247EA2D5137CDD
:1002E000767C65A5CC92E77C5B227F707F517EC4D3
:1002F00000007ED401217E9402FD0203A44005E4A7
:100300007A7BB0227A7BB00B7C227F707F517E6F2C
:1003100000007E9403190203A44005E47A7BB02216
:100320007A7BB00B7C222D0092D50E104E10807D72
:10033000422D445002B2D54E50806C447CB8222CE1
:100340004450120B1C7E40005E507FBE18000078A7
:10035000040B806816A2D57CB8137C4B7CB592E761
:100360007C5B227E1CFFFF229F11227E24FF8020C7
:10037000D5026C456D3322540F2490D43440D430D0
:10038000F30CBEB0414007BEB05B500224204CCC01
:1003900068021BC00B84D389944CCC680B74201268
:1003A000038E80F5CA3B6D889F337CAE7E5BB00BBD
:1003B0005C7007C37D38DA3B8994B42569C2F37E4B
:1003C0005BB00B5CA5F824D0BEB00A501B7E500A6F
:1003D00020F60DAC5CA52D7CCB70034EF00180DDCA
:1003E000AC5DA52D7CDB80D524CFBEB01AA5E8502E
:1003F000055E00DFD2F3900779A3E4936011BCB0EF
:1004000078F77417934CAB30F6B34EF08080AEA300
:10041000E4936010BCB078F77416937C3B7423931C
:100420007C2B89147CB08013742012038E20F2057B
:10043000BEC00250F31B6D29B6000112038E0203E9
:10044000991B6E691600020B6A00BE08000078084E
:100450007E0400FF7E141AB920F21E4CCC681A7F6D
:1004600010E47E1B804C8868070B1C04BCBD78F22E
:10047000C2F6CA0B120578DA0B7E0BB060C0CA0B4D
:1004800012038EDA0B0B0C4CDD68EE1BD078EA8081
:10049000ADD2F07E101080037E10085EB05F800A3F
:1004A000D2F67E100A80057E100AC2F66D119F11E9
:1004B0007E00201B6C7E6B7030F6021A3720F1052F
:1004C0001B6C7E6B6030F6041A261A2430F0051B74
:1004D0006D0B6A20A5EC3382F692F6500A7CEA9FF7
:1004E000229F217F127CAE4C44780F7C457C567C49
:1004F000676C772E00F878EF80122F117CB3337C75
:100500003B9CB140047C3B0B70A5D8EE7CB230E044
:1005100005DAB8C44C3BCA380B207E00207E300080
:10052000BE18000078C1BE1008780730F404C2F489
:1005300080B5CA287CB2BCBD38027CBD120578DA11
:1005400028BC2D500A1BD0E4CA2812037780F07C07
:10055000B213DAB84004C4CAB8C4CA28BEF0804096
:10056000095CDD7805A5DA0260065EF07F1203778C
:10057000DA28A5DADA020399BEF001680F30F40236
:10058000240220F50620F70330F6010420F229BCEE
:10059000BC5025CAB87CBF13B0E67420501174302B
:1005A0007C8A5E80F068081205B85EA00F80031296
:1005B000038EDAB8BCBC78DB30F40F743012038ED3
:1005C000745830F302747812038E30F605742D02DD
:1005D000038E742B20F5F8742020F7F3221B6C7E19
:1005E0006BB010F1021B6C20F60B30E704F404D260
:1005F000F27CCB800520E7057CDB0203BD5EF07F4B
:1006000080F81B6E691600020B6A0030F0076D223D
:100610001B0A200B0D1B0A800203A8E46C22BE30CB
:1006200007500B7F1F2D312E34FFF77E39B0227C0F
:10063000BF20E7A8742E4EF08002038E120762409E
:100640003D7CBD7003047CDB1208797C3D4C336833
:10065000101B307CBE20E40912061B70044C33785A
:10066000F07CBD7CD3BEA0FD481CBCAB5818E49CFC
:10067000BA2CB31801E47CDB020703120762406E58
:100680007CBD041208797AFBA07CAE7CBDA2F492FA
:10069000F0C2F4400260010424051205787E30FFA8
:1006A0000B3012061BCA3812037720F0044CDD68A9
:1006B0000312062FDA38BC3D78E6740E1203777405
:1006C0002B7EFBA030F707742D6EA0FF0BA07AFBEA
:1006D000A012038E7EA00A7EFBB0847AFBA01203D8
:1006E000777EFBB01203779EF80008020399D2F2DE
:1006F0007ED00002045812076240F37CBA2CBD047D
:100700001208797AFBA07CBA7CAE30E701E40420C1
:10071000F4044CDD6805D2F0C2F4042CBD12057857
:100720006C337EFBB0601B20E712147AFBB012061C
:100730001BCA38120377DA380B3080E6047AFBB034
:100740001B3012061BCA381203774CDD68071206ED
:100750002F1BD080E19EF8000930F00312062F0213
:1007600003997CEA7CAF10F7037ED0067CFA1B6EFF
:10077000693600020B6A200207C12D2B204C42482B
:10078000232E0053584F44494355502A4E4645475F
:10079000000420800102001040419398A0A02DA7E2
:1007A00091DD02F67B3C0404040404040404050601
:1007B0000606064E614E002B494E46002D494E4618
:1007C000007D522D557CBE92E67CEB7CBA601F0406
:1007D00070287CB5C2E77E0400FF60067E1407B374
:1007E000D3227E1407BC40047E1407B7D322DA0953
:1007F0009F22CA2BCA2BC3CA09220A0A7E144D1093
:10080000AD109E083AF09E10267CB5C2E77EA05639
:100810007C9BA46E54FFFF2E54C511ACA92D15E48A
:10082000A539CAB8CA1B20E70A1208ECDA1B120263
:100830002C800AF4041208ECDA1B12018CDAA87C72
:10084000B5337CB4334E50806C4424822F1114781D
:10085000FBDA497407BE400A40099E400ACA0201F9
:10086000140BA0CA486C442F117F012F112F112F98
:10087000101478EFCA48CA49227F0F20E73ABEB069
:1008800007400274070A0B2D109E1400097E19B050
:100890002EB0FB501F4C116817E47A19B01B147E60
:1008A00019B0047A19B0B40A0BE47A19B0A5D9EDDD
:1008B0000BA074017A19B0225EE0BF223F800000D5
:1008C0004120000042C80000447A0000461C40005D
:1008D00047C35000497424004B1896804CBEBC207E
:1008E0005A0E1BCA6753C21C749DC5AE7C7B600642
:1008F0005407681623231209117CB75438680A7FFD
:100900001012090E12018C7F01227CB75438032487
:100910001C6CAA2E5408BC7E4400FF0B2A006912EE
:100920000002227D51AD037D027D21AD052D12AD6A
:10093000352D2122CA3B7F30E47AB300F97E541B67
:10094000EB7E4400FF693200066922000469120050
:10095000020B2A007A1F00FE7A0F00FA9F117A1FFD
:10096000010274937E0800F91216827EB300F930FA
:10097000E0F074397E70947E0800FA7E240008123C
:100980000EF07E6300FD6C777E5300FC7C46E41223
:1009900002B2793300021B3A207E6300FF7E5300CF
:1009A000FE7C46E41202B279330006792300047E0D
:1009B0006301017E5301007C46E41202B2793300E8
:1009C0000A79230008691300066903000469F3002B
:1009D000020B3AE07F171200D46913000A69030082
:1009E000081200D47A1F01024D2368597E0F0102BC
:1009F0007F1712022C6D117E0442C812018C7933CC
:100A000000021B3A2069330006692300047E0F01AF
:100A10000212022C6D117E0442C812018C7933003F
:100A200006792300046933000A692300087E0F0158
:100A30000212022C6D117E0442C812018C7933001F
:100A40000A79230008DA3B22CAF87EF300087CBF4B
:100A50005480B480167EB3000B70307EB3000A70F1
:100A60002A7E37000EBE3400026803020B407CBFB2
:100A7000540F14681B14683B0BB16803020B407ED3
:100A8000B3000D70067EB3000C601E020B4080198F
:100A90007EB30012B4040F7EB3000D6003020B405E
:100AA0007EB3000C6003020B407E3410FE7E2400F7
:100AB000FF807D7EB30012B404067EB3000D600299
:100AC000807E7E73000C7CA75EA00F1B7068362EA4
:100AD000707F68040B7078687E2400017CBA600522
:100AE0003E241478FB7E73001A6C665C754D336887
:100AF0000A7E3411007E2400FF80357E3410FE7E95
:100B00002400FF802B7E2400017CBA60053E241463
:100B100078FB7E73001B6C665C754D33680A7E340F
:100B200011007E2400FF80087E3410FE7E2400FF2A
:100B30007A1F00167E3400027A3700148007800086
:100B4000121A568003121A17DAF8227EB30012BE68
:100B5000B00268207EB30008701A7EB3000B7014D8
:100B60007EB3000D700E7EB3000C70087E37000E51
:100B70004D336803021A567EB3000AB4015F740451
:100B80007AB30012E47AB3001A7AB3001B740E7EB3
:100B90007001121A0474127E7020121A0474107EEE
:100BA0007008121A04740E7E7002121A0474127EF7
:100BB0007020121A0474107E7008121A04740E7ECB
:100BC0007001121A0474126C77121A0474137E7076
:100BD00008121A04740E6C77121A04801074037AC7
:100BE000B3001274FF7AB3001A7AB3001B021A7FA3
:100BF0007EB30012B404247EB30008B4021D7EB399
:100C0000000D6003020C897EB3000B707C7EB30084
:100C10000A70767E37000E4D336802806C7E63006A
:100C20000C7C765E700F1B60682F2E607F68040B53
:100C30006078567E2400017CB760053E241478FB62
:100C40007C656E60FF5E63001A7A63001A740E1290
:100C50001A0474117E704080247E2400017CB760E9
:100C6000053E241478FB7C656E60FF5E63001B7A92
:100C700063001B740E121A0474147E7080121A041E
:100C8000740E6C77121A048003021A56021A7F7EC1
:100C9000B300085480BEB0806803020D1A7EB30012
:100CA0000B1BB168191468280BB1786E7E3410A93B
:100CB0007E2400FF7A1F00167E34001280547E349A
:100CC00010BB7E2400FF7A1F00167E340043804252
:100CD0007EB3000A1468191468280BB1783C7E347E
:100CE00010A57E2400FF7A1F00167E3400048022A7
:100CF0007E3411027E2400FF7A1F00167E34000825
:100D000080107E3410877E2400FF7A1F00167E3408
:100D1000001E7A37001480058000021A567E3700C4
:100D20000EBE37001450047A370014021A17CA3B5B
:100D30007A3701487F306D337A37014B020DBF742B
:100D4000387AB3014A7E370148BE34003850047AFD
:100D500073014A1218C97E73014A0A572E540003C0
:100D6000900004F074AF900005F07E17014B7E34C4
:100D700000067E2400011B1A107E73014A0A37CA3E
:100D8000397F137E1400087E0400011217F91BFD41
:100D90007E73014A0A372E3400080A3712118A7E00
:100DA00073014A0A372D737E73014A0A272E3701D1
:100DB0004B7A37014B7E3701489D327A3701487EA6
:100DC0003701484D336803020D3FDA3B227EB30002
:100DD00012B404247EB30008B4021D7EB3000D607B
:100DE00003020E607EB3000B70767EB3000A707053
:100DF0007E37000E4D33680280667E63000C7C7681
:100E00005E700F1B60682C2E607F68040B6078504A
:100E10007E2400017CB760053E241478FB7C654E7F
:100E200063001A7A63001A740E121A0474117E7029
:100E30001080217E2400017CB760053E241478FBDD
:100E40007C654E63001B7A63001B740E121A0474D7
:100E5000147E7020121A04740E6C77121A04800328
:100E6000021A56021A7FCAF8740E6C77121A0474AA
:100E7000111219C87CFB30E20F74117C7F5E70FB8D
:100E8000121A04E47AB300137CBF30E40A74117CB4
:100E90007F4E7080121A047EB3001324FD6846143E
:100EA00068480BB278477CBF30E0427E0800087487
:100EB000201216137E37000E12164D7A37000E7E62
:100EC000B30008546024E0680D24E0680E244078E4
:100ED0000F12132180171218958012121AB5800D67
:100EE000121A5680081211F7800312147BDAF822C6
:100EF000CA3B7A2701087F307A7301077AB301066B
:100F000012183E7EB301063EB012137D4007121840
:100F1000E274FF80617EB3010712137D400712184F
:100F2000E274FE805112183E7EB301063EB04401C9
:100F300012137D40071218E274FD803A6D3380244D
:100F40007E3701081B34BE37010A2803D38001C352
:100F5000920312142A7F132E37010A7A1BB07E37B0
:100F6000010A0B347A37010A7E370108BE37010ABD
:100F700038CE1218E2E4DA3B22CA3B7A3700F97F16
:100F8000307E3400C87A3700FEA9C7AF740E7E7079
:100F900001121A046D337A3700FC7E2700F9BE2453
:100FA000004008057E704080027C757A7300FB74F7
:100FB000111219C830E0107E3700FE7D231B247A01
:100FC0002700FE4D3378E87F032E1700FC7EB30028
:100FD000FB7E70011219B37E7300FB0A277D322E4F
:100FE0003700FC7A3700FC7E3700F99D327A3700F3
:100FF000F97E7300FBBE704050A0D202A9D7AFDAD1
:101000003B2253B2FC43B10374807E34FE077E243E
:10101000007E7A1BB07E34FE077E24007E7E1BB0ED
:1010200030E0F275DC0075F490E46C77121A047409
:10103000017E7008121A0474077E703F121A04743D
:10104000097E703F121A04740B7E7007121A047422
:10105000016C77121A0474027AB30012E47AB300B6
:10106000137AB3001A7AB3001B7E3401007E240089
:10107000C27A1F01417AB301457AB3014674087AF6
:10108000B30147A9D7AF221E0353005400430020E9
:1010900000550053004200200053006500720069B3
:1010A0000061006C00040309041201000202000048
:1010B00040BF3402FF0001010200010902430002A7
:1010C0000100803209040000010202010005240031
:1010D0001001052401000104240202052406000178
:1010E000070582034000FF09040100020A00000016
:1010F00007058102400000070501024000000000D2
:1011000001000803530054004300CA7BCA6BCA5B4A
:10111000CA4BCA3BCA2BCA1BCA0BC0D0C083C082F1
:101120007EF1FC74061219C87CEB74021219C87C9B
:10113000CB74041219C87CDB7CBE30E103121AB8F0
:101140007CBE30E2031215127CBC30E003120E6646
:101150007CBC30E1031216AF7CBC30E203121707EF
:101160007CBD30E1031200037CBE30E0031200CAF4
:101170007AF1FCD082D083D0D0DA0BDA1BDA2BDA0A
:101180003BDA4BDA5BDA6BDA7B32CA3B7D737E3457
:1011900000C87A37001DA9C7AF740E7E7001121AFD
:1011A000046D66BE74004028057E704080027C7F1E
:1011B0007A73001C74111219C830E0107E37001DBC
:1011C0007D231B247A27001D4D3378E87D162E14CD
:1011D00000007E0400017EB3001C7E70011219B372
:1011E0007E73001C0A272D629D72BE704050B4D2DF
:1011F00002A9D7AFDA3B22CAF8740E6C77121A0430
:1012000074111219C820E1537E370014BE34004017
:1012100028057EF04080027CF77E0F00167C7F74EC
:101220002012175C0A2F7E3700149D327A37001483
:101230000A157E1F00162D317A1F00167E37001406
:101240004D33780F74117E700A121A04E47AB300D9
:1012500013800874117E7002121A04DAF822CA3B55
:101260007F3074011217327E34001E1218FA7E0885
:10127000012D1209347E1F012D793300021B3A2003
:1012800074021217327E34001E1218FA7E08012DE5
:101290001209347E1F01317933000679230004746A
:1012A000031217327E34001E1218FA7E08012D1226
:1012B00009347E1F01357933000A79230008121A98
:1012C000A4DA3B2275E900A9D7BA75EA001216DC48
:1012D0001219DDD2AF7EB30012B404F97E080021EA
:1012E00012125E7E1F00217A1F011D7E1F00257ACB
:1012F0001F01197E1F00297A1F01157E08002D7E0F
:10130000341BAD7E2400FF1202EA7E08002D121A63
:10131000647E08002D120F797E3401F41218FA80D1
:10132000BB7EB30009BEB00D50507EA003A4901345
:10133000327302135902135C02137A02135F021311
:101340007A02136202136502136802136B02136EB2
:10135000021371021374021377020A48020BF0029F
:101360000DCD0214C8020C8F0200C70213D6020B67
:101370004B021599021785021AB2021A56CA797CD5
:10138000FB5395EF4396107EE0087CBF30E70543A2
:10139000A010800353A0EF121AAB43A020121AAB87
:1013A00053A0DF3EF01BE078E14395105396EF1217
:1013B0001AAB43A020E5A00A3B5E3400107803D3AB
:1013C0008001C39203121AAB53A0DF5395EF4396EB
:1013D00010A203DA79227EB30008B480227EB30023
:1013E0000B701C7EB3000A70167EB3000D70107E69
:1013F000B3000C700A7E37000EBE34000168030291
:101400001A567EB30012B4040A7E3411007E240002
:10141000FF80087E3410FE7E2400FF7A1F00167EB7
:101420003400017A370014021A17CA796CFF439509
:10143000105396EF7EE0083EF043A020121AABE571
:10144000A00A3B5E34001068034EF00153A0DF1287
:101450001AAB1BE078E15395EF4396103003055328
:10146000A0EF800343A010121AAB43A020121AABC6
:1014700053A0DF43A0107CBFDA7922740E6C771280
:101480001A0474111219C830E03D7E0F0016742042
:101490001216130A1B7E2700149D217A2700147E42
:1014A0001F00162D317A1F00167E3700144D337839
:1014B0000E74117E7048121A04E47AB30013227479
:1014C000117E7040021A0422CAF87EB3000870230D
:1014D0007EB3000D701D7EB3000C70177EB3000B41
:1014E00070117EF3000ABEF08050087E37000E4D6A
:1014F000336805121A568017E47C7F121A044CFFD9
:1015000068047403800274027AB30012121A7FDA3C
:10151000F822E46C77121A0474027AB30012E47AA7
:10152000B30013740E7E7001121A0474117E704899
:10153000121A04740E7E7002121A0474117E70481E
:10154000121A04740E7E7001121A0474147E7090C4
:10155000121A04740E6C77021A047584017E440416
:101560001FE47A49B01B4478F97EF8014C7E0400F0
:10157000FF7E141ABD0B0A405D44681A6920000200
:101580000B0E0B44800A7E0BB07A29B00B240B0C97
:101590001B4478F280DF0212C47EB30012B4041D33
:1015A0007EB30008B481167EB3000B70107EB300CA
:1015B0000D700A7E37000EBE3400016803021A5611
:1015C0007E3410FE7E2400FF7A1F00167E34000158
:1015D0007A370014021A1774806C7712181E7481FF
:1015E0007E70FF12181E748F6C7712181E748C7E1A
:1015F000700F12181E74807E700112181E7E340047
:10160000031218FA74807E700312181E7E3400963E
:101610000218FACA3B7F30CAB80BFD74161219C8FB
:101620007AFBB039BFFFFF800C29BFFFFE1219C83B
:101630007A3BB00B747EFBA07CBA147AFBB04CAA48
:1016400078E729BFFFFF9EF80003DA3B227A3700D4
:10165000F57E3400F67E2400007E1B307E3400F7D9
:101660007E2400007A1B307E3400F57E2400007E4C
:101670001B307E3400F87E2400007A1B307E370059
:10168000F722CA3B7F307AB3010612183E747212F9
:10169000137D7EB3010612137D12183E747312136C
:1016A0007DC20312142A7A3BB01218E2DA3B22CA36
:1016B000F8740E7E7001121A0474111219C87CFBA2
:1016C00030E50874117E7040121A047CBF30E207C6
:1016D00074116C77121A04C202DAF822121A967484
:1016E000807E34FE077E24007E7A1BB07E34FE07A7
:1016F0007E24007E7E1BB030E0F275DC0075F49035
:10170000121002A9D7AF22CAF8740E7E7002121A04
:101710000474111219C87CFB30E50874117E704006
:10172000121A047CBF30E20774116C77121A04DAC3
:10173000F822CAF87CFB121AA41BF068121BF0688E
:10174000121BF068122EF003780F121AA4800AD22E
:10175000A28006D2A18002D2A3DAF822CA3BCA78BC
:101760007F30CAB8800B7EFBB07E3B700B74121AC0
:101770000429AFFFFF7CBA1439BFFFFF4CAA78E6FB
:101780001BFDDA3B227EB30012B4041B7EB30008BB
:10179000B401147EB3000B700E7EB3000D70087E92
:1017A00037000E4D336803021A56021A7F7EB300CB
:1017B00012B404097EB30008BEB0A16803021A5631
:1017C0007E1801417A1F00167E37000E7A3700140A
:1017D000021A177EB30012B404097EB30008BEB02B
:1017E000216803021A567E1801417A1F00167E37BF
:1017F000000E7A370014021A487F217F707F108014
:101800000A7E2B307A1B300B540B34691FFFFD7D91
:10181000011B04790FFFFD4D1178E67F1722CA796D
:101820007CF77CEB12183E747212137D7CBE4480F0
:1018300012137D7CBF12137D1218E2DA7922121A7C
:10184000AB5395EF43961043A01043A020121AAB60
:1018500053A0EF121AAB53A0DF021AAB80120000A4
:101860000000000000000000000000000000000078
:101870007D231B344D2278E62274047E34FE817E63
:1018800024007E7A1BB01219867E34FE877E2400E7
:101890007E7E1BB0227EB3000924DF680A14680A2A
:1018A0000BB178090217D30217AD02199D021A561F
:1018B000744F900000F0744C900001F0744590005B
:1018C00002F07480900003F022744C900000F074D9
:1018D00043900001F07444900002F0748090000383
:1018E000F0225395EF43961053A0EF121AAB43A08A
:1018F00020121AAB43A010021AABCA797D7380077D
:101900007E3403E81219587D371B744D3378F1DAB1
:101910007922CA797D7380077E3403E812185C7DD2
:10192000371B744D3378F1DA79227C7B1B71680B9D
:101930001B70680A0B717808C2A222C2A122C2A33E
:10194000227C7B1B71680B1B70680A0B717808D2B4
:10195000A222D2A122D2A3227D237E3400037D13B2
:101960001B147D3178F87D121B147D2178EC227ECA
:1019700034FE867E24007E7A1BB074027E34FE81A3
:101980007A1BB00219867E34FE827E24007E7E1B86
:10199000B030E6F27E1BB054BF7A1BB0227EB3009B
:1019A00012B404097EB30008BEB0216803021A56BF
:1019B000021A7F7CA77C7B0A5A2E54002012175CE7
:1019C00074117E7001021A047CABE5FC20E7FB7CFD
:1019D000BA4480F5FCE5FC20E7FBE5EC22121A8C0A
:1019E000121AA44391025392FD1219F11215D7E471
:1019F000225395EF4396105395DF43962043A01052
:101A000043A020227CA77C7BE5FC20E7FB7CB7542D
:101A10007FF5FC7AA1EC2274037AB3001374117E73
:101A20007040121A040211F774017E34FE817E2484
:101A3000007E7A1BB002198674067E34FE817E24F5
:101A4000007E7A1BB002198674047AB300137411F5
:101A50007E7040021A0474057AB3001374117E700C
:101A600060021A046D3380020B347E0BB00B1470CD
:101A7000F7225395F143960E53B1BF43B24022E48F
:101A80007AB3001374117E7048021A04121A72C2DB
:101A9000A2C2A1C2A32243B10353B2FC22D2A2D25A
:101AA000A1D2A322C2A2C2A1C2A3227E34000502F7
:101AB0001958021A56021A56222830290000C80066
:101AC0002D000000000000000000000000000000E9
:101AD0000000000000000000000000000000000006
:101AE00000000000000000000000000000000000F6
:101AF00000000000000000000000000000000000E6
:101B000000000000000000000000000000000000D5
:101B100000000000000000000000000000000000C5
:101B200000000000000000000000000000000000B5
:101B300000000000000000000000000000000000A5
:101B40000000000000000000000000000000000095
:101B50000000000000000000000000000000000085
:101B60000000000000000000000000000000000075
:101B70000000000000000000000000000000000065
:101B80000000000000000000000004012100FF1B15
:101B9000E20004012500000000000401290000000B
:101BA000000001001F0000010011000000526564E8
:101BB0003A252E3266252C477265656E3A252E32FF
:101BC00066252C426C75653A252E3266250A00354D
:101BD000304EC1A6B4ABB8D0C6F7284E293A25641A
:101BE0000A004053544349535023000000000000B2
:031BF000000000F2
:00000001FF
