:100000000217287E0800C8021044220217DF539509
:10001000F143960EC2A3C2A2C2A122021AD6CA3BC3
:100020007F30BE38000068387E3BB01213DE793373
:10003000000169230001E41202F869130005690355
:10004000000312018C7E14F0007E04457F12022C06
:100050007933000979230007693300096923000710
:10006000DA3B22021ADD7A3700867E3400877E244E
:1000700000007E1B307E3400887E2400007A1B3016
:100080007E3400867E2400007E1B307E3400897E14
:100090002400007A1B307E37008822021AE4021AFC
:0200A000B0228C
:1000A300021AEBCA3B7F307E0800F1E47E3433331F
:1000B3007E244053120B7FE47A3BB09F11793300C7
:1000C3000379230001DA3B220212F70203DB6E00FD
:1000D300807CB1337CB033680D0468EF7CB5337C2E
:1000E300B43378037F10220468E17D5092F77D4595
:1000F3007D51BF2140067C807F017F1212039E7ECB
:10010300A1D05CB004780320D5C17CB0047807503B
:1001130002B2D50203E392D5BE80FF68F67CB89C99
:10012300B06C00602AB418057C410203B750FB8011
:10013300032F00047C9B5E900778F630E4067C4333
:100143007D106D0030E3087C437C327C210A003053
:10015300F5199F10780E220203E01B8068F92F1116
:1001630050020B707CB530E7F1801B2D317CB5A5B7
:10017300397C5B50110B8078030203E31E34135068
:10018300034E60801A2B0203B75D22680D5D007871
:10019300122D220B4068099F11222D000B0078F9C4
:1001A3000203DB12039E5C800B80680824815007E6
:1001B3002CB0500A0203E32CB040030203E07C8B13
:1001C3005D1178267CB17CA5BE1080680A5D33780A
:1001D3000DA5BD80057F100203CD6D0080307F012A
:1001E3007C5B7CB17CA5AD1280245D337806A5BD14
:1001F30080F080E1CA887D41AD437CB17CA5AD121E
:100203002D1450020B047C5BAD232F01DA88A42D3F
:1002130005BE008040060B80780480982F007C4345
:100223007C507C617C720203B7BE24FFFF6806BE6C
:1002330004FFFF78030203DB12039E5CB00468F53E
:100243007CB8A54868EF7CB870039F1122A5B8005D
:10025300030203E32E008150079C8038070203E06A
:100263009C8050ED0A51C2E74D5178030203CD7EC5
:100273005400807E901A6C0080061B9068142F1126
:10028300BF1040049F104CAB0330E7EECAA86CAA22
:1002930080E8DA39DA587C4ABE5080500A1B8068FD
:1002A300BC2F1150020B700203B774F86CAA6E4096
:1002B300806E0080BEB0FF68277C837C975C3B5CCC
:1002C3007BBF10682AF4400D7C382D15F45C3B503D
:1002D3000F0B04800B7C792D35F45C7B50020B24CF
:1002E300BF10680B7CB020E7067CB420E701B32283
:1002F3007EA020800C7EA01080057EA0086C556D2A
:10030300333392D5500A6E34FFFF6E24FFFF0B1C6C
:10031300A5EC3340062F11D5F0F6227CBA247EA239
:10032300D5137C767C65A5CC92E77C5B227F507EDF
:10033300C400007ED400B27E94034102041C400139
:10034300227CEACA89CA5BCA6B121A5CDA6BDA5B73
:10035300DA897E9403417CAE227F507F617E9403D1
:100363006702041C4001227CEACA89CA5BCA6B1279
:100373001A5CDA6BDA5BDA897E9403677CAE227FE0
:10038300707F517E6F00007E94039102041C400530
:10039300E47A7BB0227A7BB00B7C222D0092D50EBF
:1003A300104E10807D422D445002B2D54E50806CC9
:1003B300447CB8222C4450120B1C7E40005E507FBC
:1003C300BE18000078040B806816A2D57CB8137C95
:1003D3004B7CB592E77C5B227E1CFFFF229F1122A0
:1003E3007E24FF8020D5026C456D3322540F249068
:1003F300D43440D430F30CBEB0414007BEB05B50A0
:100403000224204CCC68021BC00B84D389944CCCAF
:10041300680B742012040680F5CA3B6D889F337CF9
:10042300AE7E5BB00B5C7007C37D38DA3B8994B456
:100433002569C2F37E5BB00B5CA5F824D0BEB00A7D
:10044300501B7E500A20F60DAC5CA52D7CCB7003AF
:100453004EF00180DDAC5DA52D7CDB80D524CFBEC5
:10046300B01AA5E850055E00DFD2F39007F1A3E4CC
:10047300936011BCB078F77417934CAB30F6B34E5E
:10048300F08080AEA3E4936010BCB078F774169349
:100493007C3B7423937C2B89147CB08013742012CF
:1004A300040620F205BEC00250F31B6D29B60001FD
:1004B3001204060204111B6E691600020B6A00BEC9
:1004C30008000078087E0400FF7E141AF820F21E4C
:1004D3004CCC681A7F10E47E1B804C8868070B1C89
:1004E30004BCBD78F2C2F6CA0B1205F0DA0B7E0B20
:1004F300B060C0CA0B120406DA0B0B0C4CDD68EEBD
:100503001BD078EA80ADD2F07E101080037E1008F5
:100513005EB05F800AD2F67E100A80057E100AC2A2
:10052300F66D119F117E00201B6C7E6B7030F602FE
:100533001A3720F1051B6C7E6B6030F6041A261AFD
:100543002430F0051B6D0B6A20A5EC3382F692F67E
:10055300500A7CEA9F229F217F127CAE4C44780F85
:100563007C457C567C676C772E00F878EF80122FE1
:10057300117CB3337C3B9CB140047C3B0B70A5D80E
:10058300EE7CB230E005DAB8C44C3BCA380B207EAF
:1005930000207E3000BE18000078C1BE1008780726
:1005A30030F404C2F480B5CA287CB2BCBD38027CE6
:1005B300BD1205F0DA28BC2D500A1BD0E4CA28125C
:1005C30003EF80F07CB213DAB84004C4CAB8C4CADB
:1005D30028BEF08040095CDD7805A5DA0260065E7E
:1005E300F07F1203EFDA28A5DADA020411BEF00174
:1005F300680F30F402240220F50620F70330F601D9
:100603000420F229BCBC5025CAB87CBF13B0E674E1
:1006130020501174307C8A5E80F068081206305EC8
:10062300A00F8003120406DAB8BCBC78DB30F40FE9
:100633007430120406745830F302747812040630CE
:10064300F605742D020406742B20F5F8742020F7A8
:10065300F3221B6C7E6BB010F1021B6C20F60B3087
:10066300E704F404D2F27CCB800520E7057CDB02AF
:1006730004355EF07F80F81B6E691600020B6A007A
:1006830030F0076D221B0A200B0D1B0A8002042089
:10069300E46C22BE3007500B7F1F2D312E34FFF741
:1006A3007E39B0227CBF20E7A8742E4EF08002046E
:1006B300061207DA403D7CBD7003047CDB1208F1AF
:1006C3007C3D4C3368101B307CBE20E4091206933A
:1006D30070044C3378F07CBD7CD3BEA0FD481CBCB9
:1006E300AB5818E49CBA2CB31801E47CDB02077BFB
:1006F3001207DA406E7CBD041208F17AFBA07CAECF
:100703007CBDA2F492F0C2F44002600104240512FD
:1007130005F07E30FF0B30120693CA381203EF2028
:10072300F0044CDD68031206A7DA38BC3D78E674A2
:100733000E1203EF742B7EFBA030F707742D6EA00F
:10074300FF0BA07AFBA01204067EA00A7EFBB084F6
:100753007AFBA01203EF7EFBB01203EF9EF80008B2
:10076300020411D2F27ED0000204D01207DA40F361
:100773007CBA2CBD041208F17AFBA07CBA7CAE30A3
:10078300E701E40420F4044CDD6805D2F0C2F4046C
:100793002CBD1205F06C337EFBB0601B20E71214F6
:1007A3007AFBB0120693CA381203EFDA380B3080A3
:1007B300E6047AFBB01B30120693CA381203EF4CDF
:1007C300DD68071206A71BD080E19EF8000930F010
:1007D300031206A70204117CEA7CAF10F7037ED054
:1007E300067CFA1B6E693600020B6A200208392D5B
:1007F3002B204C4248232E0053584F444943555015
:100803002A4E464547000420800102001040B90BE0
:10081300101818A51F09557A6EF3B40405050505CC
:1008230004050506060706064E614E002B494E4693
:10083300002D494E46007D522D557CBE92E67CEB41
:100843007CBA601F0470287CB5C2E77E0400FF6099
:10085300067E14082BD3227E14083440047E140829
:100863002FD322DA099F22CA2BCA2BC3CA09220A11
:100873000A7E144D10AD109E083AF09E10267CB5EA
:10088300C2E77EA0567C9BA46E54FFFF2E54C51175
:10089300ACA92D15E4A539CAB8CA1B20E70A120969
:1008A30064DA1B12022C800AF404120964DA1B12A4
:1008B300018CDAA87CB5337CB4334E50806C44246D
:1008C300822F111478FBDA497407BE400A40099E4F
:1008D300400ACA0201140BA0CA486C442F117F01BD
:1008E3002F112F112F101478EFCA48CA49227F0FF6
:1008F30020E73ABEB007400274070A0B2D109E147E
:1009030000097E19B02EB0FB501F4C116817E47A12
:1009130019B01B147E19B0047A19B0B40A0BE47A27
:1009230019B0A5D9ED0BA074017A19B0225EE0BF0E
:10093300223F8000004120000042C80000447A00AA
:1009430000461C400047C35000497424004B1896CE
:10095300804CBEBC205A0E1BCA6753C21C749DC573
:10096300AE7C7B60065407681623231209897CB783
:100973005438680A7F1012098612018C7F01227C89
:10098300B7543803241C6CAA2E5409347E4400FF48
:100993000B2A0069120002227D51AD037D027D21E5
:1009A300AD052D12AD352D2122CAF87EF300087C4A
:1009B300BF5480B480167EB3000B70307EB3000A40
:1009C300702A7E37000EBE3400026803020AA47C3C
:1009D300BF540F14681B14683B0BB16803020AA4CD
:1009E3007EB3000D70067EB3000C601E020AA48065
:1009F300197EB30012B4040F7EB3000D6003020A24
:100A0300A47EB3000C6003020AA47E3412EB7E249E
:100A130000FF807D7EB30012B404067EB3000D6038
:100A230002807E7E73000C7CA75EA00F1B7068366D
:100A33002E707F68040B7078687E2400017CBA6096
:100A4300053E241478FB7E73001A6C665C754D3387
:100A5300680A7E3412ED7E2400FF80357E3412EB6B
:100A63007E2400FF802B7E2400017CBA60053E2497
:100A73001478FB7E73001B6C665C754D33680A7ECD
:100A83003412ED7E2400FF80087E3412EB7E2400B6
:100A9300FF7A1F00167E3400027A37001480078025
:100AA30000121AB08003121A83DAF822CA3B6CFFD1
:100AB3007E1F00216CEE80457E300CAC3E2E140070
:100AC300256D0069D0000869C000067F719F7669B3
:100AD30050000469400002BF7240207F702EF40072
:100AE300062F26795700021B7A407CAF0BF07E90CD
:100AF30004ACA95915008C5905008A0BE07EB3009C
:100B030085BCBE38B36CEE80500A3E0B3480447E05
:100B13005004AC5E4912008C4902008A293000015E
:100B23007ED004ACD74956008C4946008A2962001E
:100B330001BC63281C4912008C4902008A595200E7
:100B43008C5942008A7404ACB75915008C590500BE
:100B53008A0B70BCF738B80BE0BCFE38AC6CEE8087
:100B6300147404ACBE4935008C4925008A693100F0
:100B73000A99340BE0BCFE38E8DA3B22CA3B7A1F01
:100B8300008B7AB3008A7F30BE3800007803020CF2
:100B9300487EB3008ABEB0084003020C487EA0031F
:100BA300A4900BA873020BC0020BC8020BD0020B5C
:100BB300D8020BE0020BE8020BF0020BF8439101A1
:100BC3005392FE80364391025392FD802E4391044B
:100BD3005392FB80264391085392F7801E43911052
:100BE3005392EF80164391205392DF800E4391403E
:100BF3005392BF800643918053927F741F7AB30050
:100C03008F740F7AB30090E47AB300917AB30092B1
:100C130074017AB300937E08008F12143D7401129D
:100C23001A946D33793300019F11793300097923C5
:100C330000077E1F008B79330005792300037E7341
:100C4300008A7A3B70DA3B22CA79740E7E700112F5
:100C53001A707414121A477CFB30E60874147E7001
:100C630080121A707CBF20E003020D0C7E1400403A
:100C73007E04000174211217A57AB300107E1F00B1
:100C8300E54D237803020D0A6CFF80737EB30011D8
:100C93001A3B7E0F00E52D317D207E1BA00A4F2ECF
:100CA3004400407A91827A81837EEBE0BCEA783912
:100CB300047AB300117E7300111A372D317D207E23
:100CC3001BB0703974146C77121A7075F40075DCEC
:100CD30000E47E34FE077E24007E7A1BB07E34005F
:100CE3000A1219D675C76080FE7E1F00E57E1B7051
:100CF300BCE7780474018001E47AB300110BF07E41
:100D0300730010BC7F3885D200DA79227F517F606F
:100D1300BE6800006815691600020B6A00BE080071
:100D2300006808693600044D3378039F1122693641
:100D330000063E343E342D317D20691100020B1A2A
:100D4300007F762EF4000A693700020B7A20120026
:100D5300D1793700021B7A20691600063E143E142F
:100D6300693600020B6A202D3179B100021B1AA0EB
:100D73007F762EF4000A693700020B7A207F051272
:100D830000D4793700021B7A20693600060B3469D8
:100D93002600048D32792600066926000469360090
:100DA30008BD32500B7F062E1400080B341B0A308B
:100DB30069260008E41202F87F016936000C6926EF
:100DC300000A02022C7EB30012BEB00268207EB37A
:100DD3000008701A7EB3000B70147EB3000D700E02
:100DE3007EB3000C70087E37000E4D336803021A81
:100DF300B07EB3000AB4015F74047AB30012E47ADC
:100E0300B3001A7AB3001B740E7E7001121A707449
:100E1300127E7020121A7074107E7008121A707489
:100E23000E7E7002121A7074127E7020121A707481
:100E3300107E7008121A70740E7E7001121A70748C
:100E4300126C77121A7074137E7008121A70740E73
:100E53006C77121A70801074037AB3001274FF7ADD
:100E6300B3001A7AB3001B021ABE7EB30012B40495
:100E7300247EB30008B4021D7EB3000D6003020F8D
:100E8300067EB3000B707C7EB3000A70767E37005B
:100E93000E4D336802806C7E63000C7C765E700FAF
:100EA3001B60682F2E607F68040B6078567E2400D9
:100EB300017CB760053E241478FB7C656E60FF5EA1
:100EC30063001A7A63001A740E121A7074117E701A
:100ED3004080247E2400017CB760053E241478FB07
:100EE3007C656E60FF5E63001B7A63001B740E12E9
:100EF3001A7074147E7080121A70740E6C77121A42
:100F0300708003021AB0021ABE7EB300085480BE7A
:100F1300B0806803020F977EB3000B1BB1681914EE
:100F230068280BB1786E7E3412967E2400FF7A1FF8
:100F330000167E34001280547E3412A87E2400FFF3
:100F43007A1F00167E34004380427EB3000A146881
:100F5300191468280BB1783C7E3412927E2400FF6A
:100F63007A1F00167E34000480227E3412EF7E2422
:100F730000FF7A1F00167E34000880107E3412743E
:100F83007E2400FF7A1F00167E34001E7A37001479
:100F930080058000021AB07E37000EBE3700145061
:100FA300047A370014021A837EB30012B404247E39
:100FB300B30008B4021D7EB3000D600302103E7E31
:100FC300B3000B70767EB3000A70707E37000E4D4F
:100FD30033680280667E63000C7C765E700F1B6054
:100FE300682C2E607F68040B6078507E2400017C9F
:100FF300B760053E241478FB7C654E63001A7A6360
:10100300001A740E121A7074117E701080217E24DF
:1010130000017CB760053E241478FB7C654E6300B9
:101023001B7A63001B740E121A7074147E702012E4
:101033001A70740E6C77121A708003021AB0021AB7
:10104300BECA3B7F307E0800F112001E7E14AA8FB9
:101053007E0444A612018C7F017E3440007E24442A
:10106300FB1200D179330003792300019F00693318
:101073000003692300011202AD500474018001E4EE
:101083007A3BB069F3000369E300016D117E04C488
:10109300FA7F171202AD50086D337E24C4FA801D07
:1010A3006D117E0444FA7F171202AD28086D337E5A
:1010B3002444FA800869330003692300017933006B
:1010C300037923000169330003692300016D117E55
:1010D3000440F01200D1DA3B22CAF8740E6C771286
:1010E3001A707411121A477CFB30E20F74117C7F63
:1010F3005E70FB121A70E47AB300137CBF30E40A0B
:1011030074117C7F4E7080121A707EB3001324FD1D
:1011130068461468480BB278477CBF30E0427E08CB
:10112300000874201217A57E37000E1200667A3766
:10113300000E7EB30008546024E0680D24E0680EBE
:101143002440780F12149A80171219BB8012121AB6
:10115300F5800D121AB08008121377800312164916
:10116300DAF822CA3B7A3700B37F307E3400C87A7C
:101173003700B8A9C7AF740E7E7001121A706D33B1
:101183007A3700B67E2700B3BE24004008057E7080
:101193004080027C757A7300B57411121A4730E0EF
:1011A300107E3700B87D231B247A2700B84D33788F
:1011B300E87F032E1700B67EB300B57E7001121AC6
:1011C300327E7300B50A277D322E3700B67A370098
:1011D300B67E3700B39D327A3700B37E7300B5BE57
:1011E300704050A0D202A9D7AFDA3B2253B2FC43DE
:1011F300B10374807E34FE077E24007E7A1BB07EAA
:1012030034FE077E24007E7E1BB030E0F275DC00E6
:1012130075F490E46C77121A7074017E7008121AD8
:101223007074077E703F121A7074097E703F121A31
:1012330070740B7E7007121A7074016C77121A7037
:1012430074027AB30012E47AB300137AB3001A7A01
:10125300B3001B7E3401007E2400C27A1F00FC7A97
:10126300B301007AB3010174087AB30102A9D7AFBD
:10127300221E035300540043002000550053004234
:10128300002000530065007200690061006C0004D7
:101293000309041201000202000040BF3402FF00F0
:1012A3000101020001090243000201008032090426
:1012B30000000102020100052400100105240100C1
:1012C30001042402020524060001070582034000ED
:1012D300FF09040100020A00000007058102400023
:1012E300000705010240000000000100080353004D
:1012F30054004300CA7BCA6BCA5BCA4BCA3BCA2BA6
:10130300CA1BCA0BC0D0C083C0827EF1FC74061214
:101313001A477CEB7402121A477CCB7404121A47E7
:101323007CDB7CBE30E1031200A17CBE30E2031201
:1013330016E07CBC30E0031210DC7CBC30E103120D
:10134300183D7CBC30E20312186A7CBD30E1031205
:101353000C4B7CBE30E00312000A7AF1FCD082D041
:1013630083D0D0DA0BDA1BDA2BDA3BDA4BDA5BDA2F
:101373006BDA7B32CAF8740E6C77121A707411121E
:101383001A4720E1537E370014BE34004028057EFF
:10139300F04080027CF77E0F00167C7F74201218C9
:1013A300950A2F7E3700149D327A3700140A157E72
:1013B3001F00162D317A1F00167E3700144D337827
:1013C3000F74117E700A121A70E47AB30013800846
:1013D30074117E7002121A70DAF8227CABBEA00F71
:1013E3002802805175BD0075BE00E5BC54F04CBAAF
:1013F300F5BCA9D6BC000000000000000000007E80
:1014030070FAA935BC2BA9C5BCA935DE0AE5BD7C9C
:101413006B6C77E5BE8013E5BD0A4B7D343E343EED
:10142300343E343E34E5BEC4540F0A4B4D437D3441
:10143300221B7078CD7E341000227F7029A7000113
:10144300E5DE54F04CBAF5DE29B700027005A9C5F4
:10145300DE8003A9D5DE7E7B20BE201F280374FF18
:101463002229A70003BEA001280374FF2229370005
:1014730004BE3003280374FF227CB3C42354E07CEE
:101483003B7CBA0354804C3B4C327E34FEA87E2412
:10149300007E7A1B30E4227EB30009BEB00D5050AB
:1014A3007EA003A49014AB730214D20214D50214C9
:1014B300F30214D80214F30214DB0214DE0214E163
:1014C3000214E40214E70214EA0214ED0214F00217
:1014D30009AC020E6D020FAB021696020F0C02004E
:1014E3009E0215A5020DC80217670218E7021AF239
:1014F300021AB07F717F20BE2800006850BE7800BA
:1015030000684A7E37008A4D33684279F200021B35
:101513002AE07E37008A793200046D33793200067F
:101523009F117932000C7922000A79320008801564
:101533009F227D233E243E247F072D1279500002F3
:101543001B0A400B347E27008ABD2338E32275E94A
:1015530000A9D7BA75EA0012180FD2AF7EB30012F2
:10156300B404F912000E7E3400067A37008A7E082E
:1015730000BA7E1800CD1214F67E0800C81200A629
:101583001218BE7E3400037E08003274011215F96E
:101593007E34197F7E08012C74011215F9120AAFEB
:1015A30080FB7EB30008B480227EB3000B701C7EE8
:1015B300B3000A70167EB3000D70107EB3000C707A
:1015C3000A7E37000EBE3400016803021AB07EB3F0
:1015D3000012B4040A7E3412ED7E2400FF80087EDC
:1015E3003412EB7E2400FF7A1F00167E3400017A4A
:1015F300370014021A837C5B7F707D437E43008532
:10160300BE4008400374FF22740CACB41945002596
:10161300740CACB419550026740CACB459F50029FC
:1016230059E500279F00740CACB45915002D5905DA
:10163300002B740CACB45945002F7EB30085047A9B
:10164300B300857CB422740E6C77121A7074111275
:101653001A4730E03D7E0F001674201217A50A1BAF
:101663007E2700149D217A2700147E1F00162D313A
:101673007A1F00167E3700144D33780E74117E7076
:1016830048121A70E47AB300132274117E70400278
:101693001A7022CAF87EB3000870237EB3000D705F
:1016A3001D7EB3000C70177EB3000B70117EF30028
:1016B3000ABEF08050087E37000E4D336805121ABB
:1016C300B08017E47C7F121A704CFF6804740380A7
:1016D3000274027AB30012121ABEDAF822E46C77AB
:1016E300121A7074027AB30012E47AB30013740E00
:1016F3007E7001121A7074117E7048121A70740E83
:101703007E7002121A7074117E7048121A70740E71
:101713007E7001121A7074147E7090121A70740E17
:101723006C77021A707584017E44041FE47A49B011
:101733001B4478F97EF801027E0400FF7E141B45EA
:101743000B0A405D44681A692000020B0E0B4480AB
:101753000A7E0BB07A29B00B240B0C1B4478F28061
:10176300DF0215517EB30012B4041D7EB30008B42A
:1017730081167EB3000B70107EB3000D700A7E37A6
:10178300000EBE3400016803021AB07E3412EB7EF1
:101793002400FF7A1F00167E3400017A37001402FA
:1017A3001A83CA3B7F30CAB80BFD7416121A477AE4
:1017B300FBB039BFFFFF800C29BFFFFE121A477A27
:1017C3003BB00B747EFBA07CBA147AFBB04CAA78B6
:1017D300E729BFFFFF9EF80003DA3B22CA7BCA6BEF
:1017E300CA5BCA4BCA2BCA1BCA0BC0D1C0D0C083A9
:1017F300C082121ACBD082D083D0D0D0D1DA0BDA08
:101803001BDA2BDA4BDA5BDA6BDA7B3243B1035345
:10181300B2FC74807E34FE077E24007E7A1BB07E89
:1018230034FE077E24007E7E1BB030E0F275DC00C0
:1018330075F4901211EFA9D7AF22CAF8740E7E7017
:1018430001121A707411121A477CFB30E5087411E7
:101853007E7040121A707CBF30E20774116C7712ED
:101863001A70C202DAF822CAF8740E7E7002121AD3
:10187300707411121A477CFB30E50874117E7040B6
:10188300121A707CBF30E20774116C77121A70DA87
:10189300F822CA3BCA787F30CAB8800B7EFBB07E81
:1018A3003B700B74121A7029AFFFFF7CBA1439BF57
:1018B300FFFF4CAA78E61BFDDA3B22E47AB30085EE
:1018C3009F117A1F00217E34FEA07E24007E7A1BA6
:1018D300B0438E805389F0758A40758CA2C28DD235
:1018E3008CD2A9227EB30012B4041B7EB30008B4C9
:1018F30001147EB3000B700E7EB3000D70087E37AB
:10190300000E4D336803021AB0021ABE7EB30012F2
:10191300B404097EB30008BEB0A16803021AB07E06
:101923001800FC7A1F00167E37000E7A3700140267
:101933001A837EB30012B404097EB30008BEB0213B
:101943006803021AB07E1800FC7A1F00167E370067
:101953000E7A370014021AA27C5B7E43001C0A3401
:101963005E34000168077CB51219EE80057CB51260
:101973001A057EB3001C047AB3001C2274011219E9
:101983005B7E0800BA7E1F00C9120D0F7E141B7107
:101993007E0400FF7A1F00AE0203308012000000B5
:1019A3000000000000000000000000000000007DB7
:1019B300231B344D2278E6227EB3000924DF680A14
:1019C30014680A0BB1780902193502190F021A1C9F
:1019D300021AB0CA797D7380077E3403E812199E18
:1019E3007D371B744D3378F1DA79227C7B1B716868
:1019F3000B1B70680A0B717808D2A322D2A222D2E1
:101A0300A1227C7B1B71680B1B70680A0B71780821
:101A1300C2A322C2A222C2A1227EB30012B404092D
:101A23007EB30008BEB0216803021AB0021ABE7C5E
:101A3300A77C7B0A5A2E54002012189574117E70CD
:101A430001021A707CABE5FC20E7FB7CBA4480F50D
:101A5300FCE5FC20E7FBE5EC227AB300B27E08004C
:101A6300B27E3400011211667EB300B2227CA77CE1
:101A73007BE5FC20E7FB7CB7547FF5FC7AA1EC22E5
:101A830074037AB3001374117E7040121A70021338
:101A9300777C7BA5BF0104A9D7BC22A9C7BC22744C
:101AA300047AB3001374117E7040021A7074057ABD
:101AB300B3001374117E7060021A70E47AB30013DA
:101AC30074117E7048021A707E1F00210B1C7A1F4E
:101AD300002122C0D1B2EED0D132C0D1B2EDD0D1EB
:101AE30032C0D1B2ECD0D132C0D1B2EBD0D13202BC
:101AF3001AB0021AB0283029004445425547001B4A
:101B03005B313B33366D00494E464F001B5B313B27
:101B130033326D005741524E001B5B313B33336D03
:101B2300004552524F52001B5B313B33316D000A6B
:101B3300001B5B306D005B25735D2025733A2564C4
:101B430020000001001C01000400E500FF1B7C00D5
:101B53000400E900000000000400ED0000000000A4
:101B630001001100000400210000000000004F529A
:101B7300473A20252E33660A0040535443495350B5
:021B830023003D
:00000001FF
