:1000000002156BCA79740E7E70011218F574141201
:1000100018E07CFB30E60874147E70801218F57CC2
:10002000BF20E0030200C47E1400407E040001747F
:10003000211216227AB300107E1F00E84D237803A8
:100040000200C26CFF80737EB300111A3B7E0F006A
:10005000E82D317D207E1BA00A4F2E4400407A916E
:10006000827A81837EEBE0BCEA7839047AB30011AE
:100070007E7300111A372D317D207E1BB0703974CC
:10008000146C771218F575F40075DC00E47E34FE0C
:10009000077E24007E7A1BB07E34000A1218587541
:1000A000C76080FE7E1F00E87E1B70BCE77804748A
:1000B000018001E47AB300110BF07E730010BC7F65
:1000C0003885D200DA7922021927220210EB0203C6
:1000D000A96E00807CB1337CB033680D0468EF7C7E
:1000E000B5337CB43378037F10220468E17D5092ED
:1000F000F77D457D51BF2140067C807F017F121234
:10010000036C7EA1D05CB004780320D5C17CB00420
:1001100078075002B2D50203B192D5BE80FF68F6CF
:100120007CB89CB06C00602AB418057C4102038541
:1001300050FB80032F00047C9B5E900778F630E430
:10014000067C437D106D0030E3087C437C327C21CB
:100150000A0030F5199F10780E220203AE1B80684A
:10016000F92F1150020B707CB530E7F1801B2D3157
:100170007CB5A5397C5B50110B8078030203B11E5E
:10018000341350034E60801A2B0203855D22680DE4
:100190005D0078122D220B4068099F11222D000B63
:1001A0000078F90203A912036C5C800B80680824B4
:1001B0008150072CB0500A0203B12CB04003020357
:1001C000AE7C8B5D1178267CB17CA5BE1080680A60
:1001D0005D33780DA5BD80057F1002039B6D008007
:1001E000307F017C5B7CB17CA5AD1280245D3378CF
:1001F00006A5BD80F080E1CA887D41AD437CB17C1D
:10020000A5AD122D1450020B047C5BAD232F01DA37
:1002100088A42D05BE008040060B80780480982FAE
:10022000007C437C507C617C72020385BE24FFFF0E
:100230006806BE04FFFF78030203A912036C5CB0DA
:100240000468F57CB8A54868EF7CB870039F11225C
:10025000A5B800030203B12E008150079C80380727
:100260000203AE9C8050ED0A51C2E74D5178030263
:10027000039B7E5400807E901A6C0080061B906861
:10028000142F11BF1040049F104CAB0330E7EECA8F
:10029000A86CAA80E8DA39DA587C4ABE5080500A45
:1002A0001B8068BC2F1150020B7002038574F86C20
:1002B000AA6E40806E0080BEB0FF68277C837C976A
:1002C0005C3B5C7BBF10682AF4400D7C382D15F434
:1002D0005C3B500F0B04800B7C792D35F45C7B501C
:1002E000020B24BF10680B7CB020E7067CB420E72B
:1002F00001B3227EA020800C7EA01080057EA00885
:100300006C556D333392D5500A6E34FFFF6E24FF67
:10031000FF0B1CA5EC3340062F11D5F0F6227CBA5A
:10032000247EA2D5137C767C65A5CC92E77C5B22EB
:100330007F707F517EC400007ED400E87E9403432A
:100340000203EA4005E47A7BB0227A7BB00B7C2280
:100350007F707F517E6F00007E94035F0203EA404E
:1003600005E47A7BB0227A7BB00B7C222D0092D5FB
:100370000E104E10807D422D445002B2D54E50805A
:100380006C447CB8222C4450120B1C7E40005E5002
:100390007FBE18000078040B806816A2D57CB813C5
:1003A0007C4B7CB592E77C5B227E1CFFFF229F1179
:1003B000227E24FF8020D5026C456D3322540F2409
:1003C00090D43440D430F30CBEB0414007BEB05B93
:1003D000500224204CCC68021BC00B84D389944C5F
:1003E000CC680B74201203D480F5CA3B6D889F3310
:1003F0007CAE7E5BB00B5C7007C37D38DA3B8994C2
:10040000B42569C2F37E5BB00B5CA5F824D0BEB006
:100410000A501B7E500A20F60DAC5CA52D7CCB70DB
:10042000034EF00180DDAC5DA52D7CDB80D524CFB3
:10043000BEB01AA5E850055E00DFD2F39007BFA357
:10044000E4936011BCB078F77417934CAB30F6B3FB
:100450004EF08080AEA3E4936010BCB078F77416C1
:10046000937C3B7423937C2B89147CB08013742081
:100470001203D420F205BEC00250F31B6D29B60052
:10048000011203D40203DF1B6E691600020B6A001F
:10049000BE08000078087E0400FF7E14198020F258
:1004A0001E4CCC681A7F10E47E1B804C8868070BBA
:1004B0001C04BCBD78F2C2F6CA0B1205BEDA0B7E74
:1004C0000BB060C0CA0B1203D4DA0B0B0C4CDD6806
:1004D000EE1BD078EA80ADD2F07E101080037E1043
:1004E000085EB05F800AD2F67E100A80057E100A90
:1004F000C2F66D119F117E00201B6C7E6B7030F672
:10050000021A3720F1051B6C7E6B6030F6041A2648
:100510001A2430F0051B6D0B6A20A5EC3382F6928D
:10052000F6500A7CEA9F229F217F127CAE4C4478D1
:100530000F7C457C567C676C772E00F878EF801234
:100540002F117CB3337C3B9CB140047C3B0B70A5EA
:10055000D8EE7CB230E005DAB8C44C3BCA380B2088
:100560007E00207E3000BE18000078C1BE100878E2
:100570000730F404C2F480B5CA287CB2BCBD38028E
:100580007CBD1205BEDA28BC2D500A1BD0E4CA2857
:100590001203BD80F07CB213DAB84004C4CAB8C4F8
:1005A000CA28BEF08040095CDD7805A5DA02600645
:1005B0005EF07F1203BDDA28A5DADA0203DFBEF0AF
:1005C00001680F30F402240220F50620F70330F60C
:1005D000010420F229BCBC5025CAB87CBF13B0E688
:1005E0007420501174307C8A5E80F068081205FE19
:1005F0005EA00F80031203D4DAB8BCBC78DB30F401
:100600000F74301203D4745830F30274781203D488
:1006100030F605742D0203D4742B20F5F8742020D5
:10062000F7F3221B6C7E6BB010F1021B6C20F60BF3
:1006300030E704F404D2F27CCB800520E7057CDBB4
:100640000204035EF07F80F81B6E691600020B6ADD
:100650000030F0076D221B0A200B0D1B0A800203DD
:10066000EEE46C22BE3007500B7F1F2D312E34FF7D
:10067000F77E39B0227CBF20E7A8742E4EF08002AE
:1006800003D41207A8403D7CBD7003047CDB120834
:10069000BF7C3D4C3368101B307CBE20E409120641
:1006A0006170044C3378F07CBD7CD3BEA0FD481C47
:1006B000BCAB5818E49CBA2CB31801E47CDB0207ED
:1006C000491207A8406E7CBD041208BF7AFBA07CCB
:1006D000AE7CBDA2F492F0C2F44002600104240595
:1006E0001205BE7E30FF0B30120661CA381203BD00
:1006F00020F0044CDD6803120675DA38BC3D78E65C
:10070000740E1203BD742B7EFBA030F707742D6EA0
:10071000A0FF0BA07AFBA01203D47EA00A7EFBB040
:10072000847AFBA01203BD7EFBB01203BD9EF800CD
:10073000080203DFD2F27ED00002049E1207A84016
:10074000F37CBA2CBD041208BF7AFBA07CBA7CAE45
:1007500030E701E40420F4044CDD6805D2F0C2F473
:10076000042CBD1205BE6C337EFBB0601B20E7126B
:10077000147AFBB0120661CA381203BDDA380B30A6
:1007800080E6047AFBB01B30120661CA381203BD42
:100790004CDD68071206751BD080E19EF800093019
:1007A000F0031206750203DF7CEA7CAF10F7037ECC
:1007B000D0067CFA1B6E693600020B6A200208071D
:1007C0002D2B204C4248232E0053584F444943556B
:1007D000502A4E4645470004208001020010408701
:1007E000D9DEE6E673EDD723483CC1820404040455
:1007F0000404040406060706064E614E002B494E0B
:1008000046002D494E46007D522D557CBE92E67C19
:10081000EB7CBA601F0470287CB5C2E77E0400FF41
:1008200060067E1407F9D3227E14080240047E1469
:1008300007FDD322DA099F22CA2BCA2BC3CA092279
:100840000A0A7E144D10AD109E083AF09E10267CC8
:10085000B5C2E77EA0567C9BA46E54FFFF2E54C504
:1008600011ACA92D15E4A539CAB8CA1B20E70A1294
:100870000932DA1B12022C800AF404120932DA1B44
:1008800012018CDAA87CB5337CB4334E50806C44B2
:1008900024822F111478FBDA497407BE400A4009FC
:1008A0009E400ACA0201140BA0CA486C442F117F53
:1008B000012F112F112F101478EFCA48CA49227F37
:1008C0000F20E73ABEB007400274070A0B2D109EB6
:1008D0001400097E19B02EB0FB501F4C116817E4AC
:1008E0007A19B01B147E19B0047A19B0B40A0BE45B
:1008F0007A19B0A5D9ED0BA074017A19B0225EE087
:10090000BF223F8000004120000042C80000447A1E
:100910000000461C400047C35000497424004B1897
:1009200096804CBEBC205A0E1BCA6753C21C749DD5
:10093000C5AE7C7B60065407681623231209577CDA
:10094000B75438680A7F1012095412018C7F0122B3
:100950007CB7543803241C6CAA2E5409027E440030
:10096000FF0B2A006912000222C2D57CB430E708CE
:10097000B2D56E24FFFF0B247CB630E712B2D56EE1
:1009800034FFFF0B348D326E24FFFF0B2480028D69
:100990003230D5066E34FFFF0B34227D51AD037D1E
:1009A000027D21AD052D12AD352D21226D00741073
:1009B0004D00780B4D2278278D317D126D22227DDE
:1009C000437D326D222F112D445002A50FBF1040E0
:1009D000049F100B901478ED7F016D227D34227DF1
:1009E000417D138D247D022F004004BD0440049DF1
:1009F000040B141478F17D237D317D106D0022CA23
:100A0000F87EF300087CBF5480B480167EB3000BE0
:100A100070307EB3000A702A7E37000EBE340002AA
:100A20006803020AF77CBF540F14681B14683B0B61
:100A3000B16803020AF77EB3000D70067EB3000CA6
:100A4000601E020AF780197EB30012B4040F7EB351
:100A5000000D6003020AF77EB3000C6003020AF780
:100A60007E3410DF7E2400FF807D7EB30012B4044C
:100A7000067EB3000D6002807E7E73000C7CA75E54
:100A8000A00F1B7068362E707F68040B7078687E2C
:100A90002400017CBA60053E241478FB7E73001AA2
:100AA0006C665C754D33680A7E3410E17E2400FF6D
:100AB00080357E3410DF7E2400FF802B7E240001F1
:100AC0007CBA60053E241478FB7E73001B6C665C68
:100AD000754D33680A7E3410E17E2400FF80087E65
:100AE0003410DF7E2400FF7A1F00167E3400027A65
:100AF000370014800780001219278003121908DAC2
:100B0000F8227DD37F70BE78000068136917000259
:100B10000B7A00BE080000680629B7000470036D58
:100B2000332229B700057E7002ACB77F102D350B3C
:100B30001A506D447F072E140007693000020B0A1B
:100B4000209F12793000021B0A2029B700057E7011
:100B500002ACB7693700020B7A202D351B1AD07D05
:100B60005D7F072E140007693000020B0A202F1248
:100B7000793000021B0A20297700050A370B342937
:100B80005700040A251209693957000529A70004EE
:100B900029B70006BCBA500A7F172E340006047A23
:100BA0001BB0297700060A176D006937000969270D
:100BB00000070209AE7EB30012BEB00268207EB309
:100BC0000008701A7EB3000B70147EB3000D700E17
:100BD0007EB3000C70087E37000E4D336803021997
:100BE000277EB3000AB4015F74047AB30012E47A7A
:100BF000B3001A7AB3001B740E7E70011218F574DC
:100C0000127E70201218F574107E70081218F57498
:100C10000E7E70021218F574127E70201218F57490
:100C2000107E70081218F5740E7E70011218F5749B
:100C3000126C771218F574137E70081218F5740E82
:100C40006C771218F5801074037AB3001274FF7A6F
:100C5000B3001A7AB3001B02195E7EB30012B4040B
:100C6000247EB30008B4021D7EB3000D6003020CA5
:100C7000F37EB3000B707C7EB3000A70767E370083
:100C80000E4D336802806C7E63000C7C765E700FC4
:100C90001B60682F2E607F68040B6078567E2400EE
:100CA000017CB760053E241478FB7C656E60FF5EB6
:100CB00063001A7A63001A740E1218F574117E70AC
:100CC0004080247E2400017CB760053E241478FB1C
:100CD0007C656E60FF5E63001B7A63001B740E12FE
:100CE00018F574147E70801218F5740E6C77121853
:100CF000F5800302192702195E7EB300085480BEF6
:100D0000B0806803020D847EB3000B1BB168191418
:100D100068280BB1786E7E34108A7E2400FF7A1F1B
:100D200000167E34001280547E34109C7E2400FF16
:100D30007A1F00167E34004380427EB3000A146896
:100D4000191468280BB1783C7E3410867E2400FF8D
:100D50007A1F00167E34000480227E3410E37E2445
:100D600000FF7A1F00167E34000880107E34106861
:100D70007E2400FF7A1F00167E34001E7A3700148E
:100D8000800580000219277E37000EBE3700145000
:100D9000047A370014021908CA3B7A3700FB7F3007
:100DA0006D337A3700FE020E2974387AB300FD7E67
:100DB0003700FBBE34003850047A7300FD12182748
:100DC0007E7300FD0A572E540003900004F074AFA8
:100DD000900005F07E1700FE7E3400067E240001A0
:100DE0001B1A107E7300FD0A37CA397F137E140068
:100DF000087E0400011217B11BFD7E7300FD0A3747
:100E00002E3400080A3712116B7E7300FD0A372D4D
:100E1000737E7300FD0A272E3700FE7A3700FE7EB0
:100E20003700FB9D327A3700FB7E3700FB4D33687D
:100E300003020DA9DA3B227EB30012B404247EB370
:100E40000008B4021D7EB3000D6003020ECA7EB31B
:100E5000000B70767EB3000A70707E37000E4D3343
:100E6000680280667E63000C7C765E700F1B606893
:100E70002C2E607F68040B6078507E2400017CB7C4
:100E800060053E241478FB7C654E63001A7A63008B
:100E90001A740E1218F574117E701080217E2400D1
:100EA000017CB760053E241478FB7C654E63001B13
:100EB0007A63001B740E1218F574147E70201218D9
:100EC000F5740E6C771218F5800302192702195E6B
:100ED000CAF8740E6C771218F574111218E07CFBC6
:100EE00030E20F74117C7F5E70FB1218F5E47AB368
:100EF00000137CBF30E40A74117C7F4E708012189E
:100F0000F57EB3001324FD68461468480BB2784799
:100F10007CBF30E0427E08000874201216227E3723
:100F2000000E12165C7A37000E7EB300085460245F
:100F3000E0680D24E0680E2440780F1212FB801741
:100F40001217F3801212197C800D121927800812D3
:100F500011D880031213F9DAF822CA3B7A3700C09D
:100F60007F307E3400C87A3700C5A9C7AF740E7EC3
:100F700070011218F56D337A3700C37E2700C0BEAA
:100F800024004008057E704080027C757A7300C2A0
:100F900074111218E030E0107E3700C57D231B2449
:100FA0007A2700C54D3378E87F032E1700C37EB340
:100FB00000C27E70011218CB7E7300C20A277D32F8
:100FC0002E3700C37A3700C37E3700C09D327A3790
:100FD00000C07E7300C2BE704050A0D202A9D7AF3D
:100FE000DA3B2253B2FC43B10374807E34FE077EA9
:100FF00024007E7A1BB07E34FE077E24007E7E1B9A
:10100000B030E0F275DC0075F490E46C771218F5FE
:1010100074017E70081218F574077E703F1218F57F
:1010200074097E703F1218F5740B7E70071218F564
:1010300074016C771218F574027AB30012E47AB373
:1010400000137AB3001A7AB3001B7E3401007E24A9
:1010500000C27A1F00F47AB300F87AB300F974087A
:101060007AB300FAA9D7AF221E03530054004300FD
:10107000200055005300420020005300650072001C
:10108000690061006C0004030904120100020200FF
:101090000040BF3402FF00010102000109024300C9
:1010A000020100803209040000010202010005244F
:1010B0000010010524010001042402020524060099
:1010C00001070582034000FF09040100020A000035
:1010D00000070581024000000705010240000000F2
:1010E0000001000803530054004300CA7BCA6BCAC6
:1010F0005BCA4BCA3BCA2BCA1BCA0BC0D0C083C039
:10110000827EF1FC74061218E07CEB74021218E087
:101110007CCB74041218E07CDB7CBE30E103121936
:101120007F7CBE30E2031215237CBC30E003120E3C
:10113000D07CBC30E1031216917CBC30E203121665
:10114000E97CBD30E1031200037CBE30E0031200F5
:10115000CA7AF1FCD082D083D0D0DA0BDA1BDA2B3A
:10116000DA3BDA4BDA5BDA6BDA7B32CA3B7D737ED1
:101170003400C87A37001DA9C7AF740E7E70011203
:1011800018F56D66BE74004028057E704080027CB4
:101190007F7A73001C74111218E030E0107E370063
:1011A0001D7D231B247A27001D4D3378E87D162EE4
:1011B0001400007E0400017EB3001C7E7001121832
:1011C000CB7E73001C0A272D629D72BE704050B406
:1011D000D202A9D7AFDA3B22CAF8740E6C77121884
:1011E000F574111218E020E1537E370014BE34006C
:1011F0004028057EF04080027CF77E0F00167C7F41
:1012000074201217140A2F7E3700149D327A37008B
:10121000140A157E1F00162D317A1F00167E370026
:10122000144D33780F74117E700A1218F5E47AB3F6
:101230000013800874117E70021218F5DAF8227C0F
:10124000ABBEA00F2802805175BD0075BE00E5BC85
:1012500054F04CBAF5BCA9D6BC0000000000000058
:101260000000007E70FAA935BC2BA9C5BCA935DEEB
:101270000AE5BD7C6B6C77E5BE8013E5BD0A4B7D4E
:10128000343E343E343E343E34E5BEC4540F0A4B43
:101290004D437D34221B7078CD7E341000227F7048
:1012A00029A70001E5DE54F04CBAF5DE29B70002AB
:1012B0007005A9C5DE8003A9D5DE7E7B20BE201F78
:1012C000280374FF2229A70003BEA001280374FF8E
:1012D0002229370004BE3003280374FF227CB3C4E4
:1012E0002354E07C3B7CBA0354804C3B4C327E342C
:1012F000FEA87E24007E7A1B30E4227EB30009BE65
:10130000B00D50507EA003A490130C73021333024F
:10131000133602135402133902135402133C0213FE
:101320003F02134202134502134802134B02134EAD
:101330000213510209FF020C5A020E3702149002E6
:101340000CF90200C7021357020BB50215AA0217C7
:101350003D0219790219277EB30008B480227EB3BA
:10136000000B701C7EB3000A70167EB3000D701067
:101370007EB3000C700A7E37000EBE340001680395
:101380000219277EB30012B4040A7E3410E17E24D1
:1013900000FF80087E3410DF7E2400FF7A1F0016D5
:1013A0007E3400017A370014021908CAF87CFB7FEA
:1013B000717F60BE680000683DBE78000068374CF1
:1013C000FF683379F600021B6AE039F60004E4395D
:1013D000B600059F11793600097926000739B60055
:1013E00006800F6D447402ACB77F072D151B0A40B1
:1013F0000B70BCF738EDDAF822740E6C771218F522
:1014000074111218E030E03D7E0F001674201216A1
:10141000220A1B7E2700149D217A2700147E1F00BC
:10142000162D317A1F00167E3700144D33780E7456
:10143000117E70481218F5E47AB300132274117EFD
:1014400070400218F522E412123F7E0800B1120B20
:10145000027D23E41202F87E1433337E04405312DB
:10146000018C6D117E04458012022C7E14619A7EDF
:1014700004457012018C7E144CCD7E0444C01200D1
:10148000D17F719F001202AD28037F17229F112286
:10149000CAF87EB3000870237EB3000D701D7EB3C2
:1014A000000C70177EB3000B70117EF3000ABEF0C3
:1014B0008050087E37000E4D3368051219278017BB
:1014C000E47C7F1218F54CFF6804740380027402F8
:1014D0007AB3001212195EDAF82275E900A9D7BAB8
:1014E00075EA001216BE1215E8D2AF7EB30012B430
:1014F00004F91214467A1F00217A1F00E47E0800C6
:10150000257E341A2C7E2400FF1203307E0800252D
:101510001219437E080025120F5A7E34000112185A
:101520004080CFE46C771218F574027AB30012E4AD
:101530007AB30013740E7E70011218F574117E7068
:10154000481218F5740E7E70021218F574117E7030
:10155000481218F5740E7E70011218F574147E701E
:10156000901218F5740E6C770218F57584017E449C
:10157000041FE47A49B01B4478F97EF800FF7E042A
:1015800000FF7E1419840B0A405D44681A6920002C
:10159000020B0E0B44800A7E0BB07A29B00B240B91
:1015A0000C1B4478F280DF0214DA7EB30012B4041C
:1015B0001D7EB30008B481167EB3000B70107EB39D
:1015C000000D700A7E37000EBE3400016803021958
:1015D000277E3410DF7E2400FF7A1F00167E340041
:1015E000017A3700140219084391015392FE741FC7
:1015F0007AB300C0740F7AB300C1E47AB300C27A40
:10160000B300C374017AB300C47E0800C012129EF6
:1016100074011219357E0800B17E18008974140215
:1016200013ABCA3B7F30CAB80BFD74161218E07AB0
:10163000FBB039BFFFFF800C29BFFFFE1218E07A14
:101640003BB00B747EFBA07CBA147AFBB04CAA783A
:10165000E729BFFFFF9EF80003DA3B227A3700BC80
:101660007E3400BD7E2400007E1B307E3400BE7EB2
:101670002400007A1B307E3400BC7E2400007E1BD8
:10168000307E3400BF7E2400007A1B307E3700BEDF
:1016900022CAF8740E7E70011218F574111218E047
:1016A0007CFB30E50874117E70401218F57CBF3069
:1016B000E20774116C771218F5C202DAF8221219D7
:1016C0006B74807E34FE077E24007E7A1BB07E34ED
:1016D000FE077E24007E7E1BB030E0F275DC0075D4
:1016E000F490120FE3A9D7AF22CAF8740E7E7002ED
:1016F0001218F574111218E07CFB30E50874117EA5
:1017000070401218F57CBF30E20774116C77121824
:10171000F5DAF822CA3BCA787F30CAB8800B7EFB64
:10172000B07E3B700B741218F529AFFFFF7CBA1422
:1017300039BFFFFF4CAA78E61BFDDA3B227EB300DF
:1017400012B4041B7EB30008B401147EB3000B7006
:101750000E7EB3000D70087E37000E4D3368030215
:10176000192702195E7EB30012B404097EB3000883
:10177000BEB0A168030219277E1800F47A1F001674
:101780007E37000E7A3700140219087EB30012B4B7
:1017900004097EB30008BEB02168030219277E1831
:1017A00000F47A1F00167E37000E7A3700140219F3
:1017B000197F217F707F10800A7E2B307A1B300BBF
:1017C000540B34691FFFFD7D011B04790FFFFD4D94
:1017D0001178E67F17228012000000000000000050
:1017E000000000000000000000007D231B344D229B
:1017F00078E6227EB3000924DF680A14680A0BB178
:10180000780902178B0217650218B5021927744F61
:10181000900000F0744C900001F07445900002F0CC
:101820007480900003F022744C900000F074439098
:101830000001F07444900002F07480900003F022E4
:10184000CA797D7380077E3403E812189E7D371BAA
:10185000744D3378F1DA7922CA797D7380077E344A
:1018600003E81217D67D371B744D3378F1DA7922ED
:101870007C7B1B71680B1B70680A0B717808C2A314
:1018800022C2A222C2A1227C7B1B71680B1B706842
:101890000A0B717808D2A322D2A222D2A1227D23E0
:1018A0007E3400037D131B147D3178F87D121B14E8
:1018B0007D2178EC227EB30012B404097EB30008C7
:1018C000BEB021680302192702195E7CA77C7B0A3F
:1018D0005A2E54002012171474117E70010218F54C
:1018E0007CABE5FC20E7FB7CBA4480F5FCE5FC2002
:1018F000E7FBE5EC227CA77C7BE5FC20E7FB7CB7E3
:10190000547FF5FC7AA1EC2274037AB300137411AE
:101910007E70401218F50211D874047AB300137463
:10192000117E70400218F574057AB3001374117EAD
:1019300070600218F57C7BA5BF0104A9D7BC22A961
:10194000C7BC226D3380020B347E0BB00B1470F7D2
:10195000225395F143960E53B1BF43B24022E47A2D
:10196000B3001374117E70480218F543B10353B2EB
:10197000FC22D2A3D2A2D2A1220219270219272225
:10198000283029000064002500000000000000004D
:101990000000000000000000000000000000000047
:1019A0000000000000000000000000000000000037
:1019B0000000000000000000000000000000000027
:1019C0000000000000000000000000000000000017
:1019D0000000000000000000000000000000000007
:1019E000000000000000000000000000000400E80B
:1019F00000FF1A23000400EC00000000000400F0C7
:101A0000000000000001001F0000010011000000A4
:101A100035304EC1A6B4ABB8D0C6F7284E293A250A
:101A2000640A0040535443495350230070706D3A88
:061A3000252E32660A00BB
:00000001FF
