:100000000216007E34000102187222020CDB5395A6
:10001000F143960ED2A3C2A2C2A1220200C3CA3BE0
:100020007F30BE38000068387E3BB012135E7933F3
:10003000000169230001E412023A69130005690313
:1000400000031200CE7E14F0007E04457F12016E84
:100050007933000979230007693300096923000710
:10006000DA3B220219387A3700217E3400227E24BE
:1000700000007E1B307E3400237E2400007A1B307B
:100080007E3400217E2400007E1B307E3400247EDE
:100090002400007A1B307E3700232202193F021908
:0200A0001D221F
:1000A300021946801200000000000000000000005A
:1000B300000000000000007D231B344D2278E6225F
:0700C300C0D1B2EED0D13232
:1000CB000212185D22680D5D0078122D220B40681C
:1000DB00099F11222D000B0078F902031D1202E07B
:1000EB005C800B806808248150072CB0500A0203F7
:1000FB00252CB040030203227C8B5D1178267CB14A
:10010B007CA5BE1080680A5D33780DA5BD80057F88
:10011B001002030F6D0080307F017C5B7CB17CA5EE
:10012B00AD1280245D337806A5BD80F080E1CA88CE
:10013B007D41AD437CB17CA5AD122D1450020B0457
:10014B007C5BAD232F01DA88A42D05BE0080400611
:10015B000B80780480982F007C437C507C617C72F0
:10016B000202F9BE24FFFF6806BE04FFFF780302FC
:10017B00031D1202E05CB00468F57CB8A54868EF7B
:10018B007CB870039F1122A5B800030203252E0033
:10019B008150079C8038070203229C8050ED0A5146
:1001AB00C2E74D51780302030F7E5400807E901AF4
:1001BB006C0080061B9068142F11BF1040049F1019
:1001CB004CAB0330E7EECAA86CAA80E8DA39DA58F0
:1001DB007C4ABE5080500A1B8068BC2F1150020B0A
:1001EB00700202F974F86CAA6E40806E0080BEB08B
:1001FB00FF68277C837C975C3B5C7BBF10682AF491
:10020B00400D7C382D15F45C3B500F0B04800B7CA0
:10021B00792D35F45C7B50020B24BF10680B7CB03E
:10022B0020E7067CB420E701B3227EA020800C7E61
:10023B00A01080057EA0086C556D333392D5500A03
:10024B006E34FFFF6E24FFFF0B1CA5EC3340062F13
:10025B0011D5F0F6227CBA247EA2D5137C767C6570
:10026B00A5CC92E77C5B227F507EC400007ED4003D
:10027B004D7E94028302035E4001227CEACA89CA46
:10028B005BCA6B1218C9DA6BDA5BDA897E9402836C
:10029B007CAE227F507F617E9402A902035E4001F7
:1002AB00227CEACA89CA5BCA6B1218C9DA6BDA5BA1
:1002BB00DA897E9402A97CAE227F707F517E6F001B
:1002CB00007E9402D302035E4005E47A7BB0227A6F
:1002DB007BB00B7C222D0092D50E104E10807D42F0
:1002EB002D445002B2D54E50806C447CB8222C4425
:1002FB0050120B1C7E40005E507FBE18000078042D
:10030B000B806816A2D57CB8137C4B7CB592E77C2E
:10031B005B227E1CFFFF229F11227E24FF8020D5B3
:10032B00026C456D3322540F2490D43440D430F3F7
:10033B000CBEB0414007BEB05B500224204CCC68D1
:10034B00021BC00B84D389944CCC680B7420120312
:10035B004880F5CA3B6D889F337CAE7E5BB00B5CEF
:10036B007007C37D38DA3B8994B42569C2F37E5B91
:10037B00B00B5CA5F824D0BEB00A501B7E500A20EF
:10038B00F60DAC5CA52D7CCB70034EF00180DDAC83
:10039B005DA52D7CDB80D524CFBEB01AA5E850051A
:1003AB005E00DFD2F3900733A3E4936011BCB07807
:1003BB00F77417934CAB30F6B34EF08080AEA3E4DA
:1003CB00936010BCB078F77416937C3B7423937CCA
:1003DB002B89147CB08013742012034820F205BEC5
:1003EB00C00250F31B6D29B60001120348020353E0
:1003FB001B6E691600020B6A00BE08000078087EAF
:10040B000400FF7E14195320F21E4CCC681A7F1087
:10041B00E47E1B804C8868070B1C04BCBD78F2C2C1
:10042B00F6CA0B120532DA0B7E0BB060C0CA0B1288
:10043B000348DA0B0B0C4CDD68EE1BD078EA80AD71
:10044B00D2F07E101080037E10085EB05F800AD25F
:10045B00F67E100A80057E100AC2F66D119F117E82
:10046B0000201B6C7E6B7030F6021A3720F1051BD7
:10047B006C7E6B6030F6041A261A2430F0051B6D67
:10048B000B6A20A5EC3382F692F6500A7CEA9F2287
:10049B009F217F127CAE4C44780F7C457C567C6749
:1004AB006C772E00F878EF80122F117CB3337C3BE6
:1004BB009CB140047C3B0B70A5D8EE7CB230E005C0
:1004CB00DAB8C44C3BCA380B207E00207E3000BE0D
:1004DB0018000078C1BE1008780730F404C2F4800D
:1004EB00B5CA287CB2BCBD38027CBD120532DA28F5
:1004FB00BC2D500A1BD0E4CA2812033180F07CB209
:10050B0013DAB84004C4CAB8C4CA28BEF080400984
:10051B005CDD7805A5DA0260065EF07F120331DA46
:10052B0028A5DADA020353BEF001680F30F4022477
:10053B000220F50620F70330F6010420F229BCBC9B
:10054B005025CAB87CBF13B0E67420501174307CB0
:10055B008A5E80F068081205725EA00F800312039A
:10056B0048DAB8BCBC78DB30F40F74301203487433
:10057B005830F302747812034830F605742D0203D9
:10058B0048742B20F5F8742020F7F3221B6C7E6B3C
:10059B00B010F1021B6C20F60B30E704F404D2F21E
:1005AB007CCB800520E7057CDB0203775EF07F8048
:1005BB00F81B6E691600020B6A0030F0076D221BE8
:1005CB000A200B0D1B0A80020362E46C22BE30076B
:1005DB00500B7F1F2D312E34FFF77E39B0227CBF9D
:1005EB0020E7A8742E4EF08002034812071C403DF2
:1005FB007CBD7003047CDB1208337C3D4C336810EC
:10060B001B307CBE20E4091205D570044C3378F006
:10061B007CBD7CD3BEA0FD481CBCAB5818E49CBA77
:10062B002CB31801E47CDB0206BD12071C406E7C68
:10063B00BD041208337AFBA07CAE7CBDA2F492F011
:10064B00C2F4400260010424051205327E30FF0B18
:10065B00301205D5CA3812033120F0044CDD680383
:10066B001205E9DA38BC3D78E6740E120331742BAF
:10067B007EFBA030F707742D6EA0FF0BA07AFBA0BA
:10068B001203487EA00A7EFBB0847AFBA0120331D2
:10069B007EFBB01203319EF80008020353D2F27EA8
:1006AB00D00002041212071C40F37CBA2CBD0412BA
:1006BB0008337AFBA07CBA7CAE30E701E40420F46B
:1006CB00044CDD6805D2F0C2F4042CBD1205326C6B
:1006DB00337EFBB0601B20E712147AFBB01205D5FA
:1006EB00CA38120331DA380B3080E6047AFBB01BC0
:1006FB00301205D5CA381203314CDD68071205E9F3
:10070B001BD080E19EF8000930F0031205E90203CB
:10071B00537CEA7CAF10F7037ED0067CFA1B6E6924
:10072B003600020B6A2002077B2D2B204C424823FC
:10073B002E0053584F44494355502A4E46454700C7
:10074B000420800102001040FB4D525A5AE7614BC6
:10075B0097BCB035F6030404040403040405050632
:10076B0006054E614E002B494E46002D494E460064
:10077B007D522D557CBE92E67CEB7CBA601F0470DB
:10078B00287CB5C2E77E0400FF60067E14076DD39C
:10079B00227E14077640047E140771D322DA099F58
:1007AB0022CA2BCA2BC3CA09220A0A7E144D10ADCA
:1007BB00109E083AF09E10267CB5C2E77EA0567CB0
:1007CB009BA46E54FFFF2E54C511ACA92D15E4A5A7
:1007DB0039CAB8CA1B20E70A1208A6DA1B12016E27
:1007EB00800AF4041208A6DA1B1200CEDAA87CB534
:1007FB00337CB4334E50806C4424822F111478FB1D
:10080B00DA497407BE400A40099E400ACA02011425
:10081B000BA0CA486C442F117F012F112F112F10E1
:10082B001478EFCA48CA49227F0F20E73ABEB007B7
:10083B00400274070A0B2D109E1400097E19B02E6E
:10084B00B0FB501F4C116817E47A19B01B147E19BA
:10085B00B0047A19B0B40A0BE47A19B0A5D9ED0B30
:10086B00A074017A19B0225EE0BF223F80000041E4
:10087B0020000042C80000447A0000461C4000479C
:10088B00C35000497424004B1896804CBEBC205AB0
:10089B000E1BCA6753C21C749DC5AE7C7B6006548D
:1008AB0007681623231208CB7CB75438680A7F10CD
:1008BB001208C81200CE7F01227CB7543803241CC7
:1008CB006CAA2E5408767E4400FF0B2A0069120096
:1008DB0002227D51AD037D027D21AD052D12AD357B
:1008EB002D21226D0074104D00780B4D2278278D31
:1008FB00317D126D22227D437D326D222F112D44CD
:10090B005002A50FBF1040049F100B901478ED7F81
:10091B00016D227D34227D417D138D247D022F00BC
:10092B004004BD0440049D040B141478F17D237D19
:10093B00317D106D0022C2D57CB030E708B2D59F57
:10094B00229F207F027CB430E713B2D59F229F21D8
:10095B007F121208F09F229F207F0280031208F063
:10096B0030D5069F229F217F12226CAA4D11681E43
:10097B001E54500C7E1B007A190068120B1C0B14B2
:10098B000B1A001B18000B1D0B151B5478F222CAF7
:10099B00F87EF300087CBF5480B480167EB3000B46
:1009AB0070307EB3000A702A7E37000EBE34000210
:1009BB006803020A927CBF540F14681B14683B0B2C
:1009CB00B16803020A927EB3000D70067EB3000C71
:1009DB00601E020A9280197EB30012B4040F7EB31C
:1009EB00000D6003020A927EB3000C6003020A92B0
:1009FB007E34120C7E2400FF807D7EB30012B40483
:100A0B00067EB3000D6002807E7E73000C7CA75EB9
:100A1B00A00F1B7068362E707F68040B7078687E91
:100A2B002400017CBA60053E241478FB7E73001A07
:100A3B006C665C754D33680A7E34120E7E2400FFA3
:100A4B0080357E34120C7E2400FF802B7E24000127
:100A5B007CBA60053E241478FB7E73001B6C665CCD
:100A6B00754D33680A7E34120E7E2400FF80087E9B
:100A7B0034120C7E2400FF7A1F00167E3400027A9B
:100A8B003700148007800012191D80031218F0DA4A
:100A9B00F822CA3B7A1F00267AB300257F30BE3876
:100AAB0000007803020B667EB30025BEB00840033E
:100ABB00020B667EA003A4900AC673020ADE020A2A
:100ACB00E6020AEE020AF6020AFE020B06020B0E01
:100ADB00020B164391015392FE80364391025392BF
:100AEB00FD802E4391045392FB8026439108539231
:100AFB00F7801E4391105392EF801643912053922F
:100B0B00DF800E4391405392BF80064391805392F6
:100B1B007F741F7AB3002A740F7AB3002BE47AB375
:100B2B00002C7AB3002D74017AB3002E7E08002AB4
:100B3B001213BD74011219016D33793300019F112A
:100B4B0079330009792300077E1F002679330005CE
:100B5B00792300037E7300257A3B70DA3B22CA7936
:100B6B00740E7E70011218DD74141218B47CFB30F5
:100B7B00E60874147E70801218DD7CBF20E003023F
:100B8B000C2A7E1400407E04000174211216B87AE0
:100B9B00B300107E1F007A4D237803020C286CFFE4
:100BAB0080737EB300111A3B7E0F007A2D317D20AE
:100BBB007E1BA00A4F2E4400407A91827A81837E5D
:100BCB00EBE0BCEA7839047AB300117E7300111A9A
:100BDB00372D317D207E1BB0703974146C77121851
:100BEB00DD75F40075DC00E47E34FE077E24007EA8
:100BFB007A1BB07E34000A12185A75C76080FE7ECD
:100C0B001F007A7E1B70BCE7780474018001E47AC4
:100C1B00B300110BF07E730010BC7F3885D200DA65
:100C2B00792275E900A9D7BA75EA001216F2D2AF8C
:100C3B007EB30012B404F912000E7E08006AE47E43
:100C4B003433337E244053120A9DE47E34FEA07E5F
:100C5B0024007E7A1BB0438E805389F0758A4075D1
:100C6B008CA2C28DD28CD2A96D44800F7E7300757D
:100C7B007402ACB75945005C7CB7047AB300757E3F
:100C8B00730075BE700540E4E47AB300777AB30065
:100C9B00687EB3007660FA7E17005A6D007E18EA04
:100CAB00601209417D73BE74001E401DBE7400C8E6
:100CBB0038177D3712177812167D7A37004B7E1452
:100CCB0019FF7E0400FF120272E47AB3007680C132
:100CDB00CA7BCA6BCA5BCA4BCA2BCA1BCA0BC0D115
:100CEB00C0D0C083C0827E3700580B347A3700588F
:100CFB007E08006A12001E6D117E043FC01201EFC8
:100D0B00280474018001E47AB30079B401497EB3FD
:100D1B00007870437EB30055701074017AB30055A0
:100D2B007E3700587A370066802D7EB300697027B6
:100D3B0074017AB300697E3700587A3700567E37D4
:100D4B0000569E3700667A37005A7AB30076E47AFB
:100D5B00B300557AB300697E7300797A730078D04B
:100D6B0082D083D0D0D0D1DA0BDA1BDA2BDA4BDA84
:100D7B005BDA6BDA7B327EB30012BEB00268207E88
:100D8B00B30008701A7EB3000B70147EB3000D70A5
:100D9B000E7EB3000C70087E37000E4D33680302D5
:100DAB00191D7EB3000AB4015F74047AB30012E418
:100DBB007AB3001A7AB3001B740E7E70011218DD21
:100DCB0074127E70201218DD74107E70081218DDFC
:100DDB00740E7E70021218DD74127E70201218DDF4
:100DEB0074107E70081218DD740E7E70011218DDFF
:100DFB0074126C771218DD74137E70081218DD7480
:100E0B000E6C771218DD801074037AB3001274FF26
:100E1B007AB3001A7AB3001B02192B7EB30012B4FB
:100E2B0004247EB30008B4021D7EB3000D600302E0
:100E3B000EBF7EB3000B707C7EB3000A70767E37DC
:100E4B00000E4D336802806C7E63000C7C765E7006
:100E5B000F1B60682F2E607F68040B6078567E2412
:100E6B0000017CB760053E241478FB7C656E60FF47
:100E7B005E63001A7A63001A740E1218DD74117E09
:100E8B00704080247E2400017CB760053E241478DA
:100E9B00FB7C656E60FF5E63001B7A63001B740E48
:100EAB001218DD74147E70801218DD740E6C7712BC
:100EBB0018DD800302191D02192B7EB30008548024
:100ECB00BEB0806803020F507EB3000B1BB16819D4
:100EDB001468280BB1786E7E3411B77E2400FF7A2C
:100EEB001F00167E34001280547E3411C97E2400FC
:100EFB00FF7A1F00167E34004380427EB3000A1433
:100F0B0068191468280BB1783C7E3411B37E240029
:100F1B00FF7A1F00167E34000480227E3412107E6E
:100F2B002400FF7A1F00167E34000880107E3411D7
:100F3B00957E2400FF7A1F00167E34001E7A370040
:100F4B00148005800002191D7E37000EBE37001479
:100F5B0050047A3700140218F07EB30012B4042444
:100F6B007EB30008B4021D7EB3000D6003020FF7C1
:100F7B007EB3000B70767EB3000A70707E37000E66
:100F8B004D33680280667E63000C7C765E700F1BAF
:100F9B0060682C2E607F68040B6078507E24000103
:100FAB007CB760053E241478FB7C654E63001A7A8F
:100FBB0063001A740E1218DD74117E701080217E7E
:100FCB002400017CB760053E241478FB7C654E63DE
:100FDB00001B7A63001B740E1218DD74147E7020D4
:100FEB001218DD740E6C771218DD800302191D02C6
:100FFB00192BCAF8740E6C771218DD74111218B411
:10100B007CFB30E20F74117C7F5E70FB1218DDE409
:10101B007AB300137CBF30E40A74117C7F4E70806E
:10102B001218DD7EB3001324FD68461468480BB21A
:10103B0078477CBF30E0427E08000874201216B857
:10104B007E37000E1200667A37000E7EB30008540E
:10105B006024E0680D24E0680E2440780F12141A07
:10106B00801712183F8012121950800D12191D8013
:10107B00081212988003121521DAF822CA3B7A372C
:10108B00004E7F307E3400C87A370053A9C7AF7447
:10109B000E7E70011218DD6D337A3700517E2700FA
:1010AB004EBE24004008057E704080027C757A732A
:1010BB00005074111218B430E0107E3700537D23AA
:1010CB001B247A2700534D3378E87F032E170051EA
:1010DB007EB300507E700112189F7E7300500A275A
:1010EB007D322E3700517A3700517E37004E9D32BC
:1010FB007A37004E7E730050BE704050A0D202A9CA
:10110B00D7AFDA3B2253B2FC43B10374807E34FE7B
:10111B00077E24007E7A1BB07E34FE077E24007E81
:10112B007E1BB030E0F275DC0075F490E46C771246
:10113B0018DD74017E70081218DD74077E703F1283
:10114B0018DD74097E703F1218DD740B7E70071268
:10115B0018DD74016C771218DD74027AB30012E497
:10116B007AB300137AB3001A7AB3001B7E340100F2
:10117B007E2400C27A1F00867AB3008A7AB3008B72
:10118B0074087AB3008CA9D7AF221E035300540006
:10119B00430020005500530042002000530065001F
:1011AB007200690061006C00040309041201000263
:1011BB0002000040BF3402FF0001010200010902DE
:1011CB004300020100803209040000010202010009
:1011DB00052400100105240100010424020205244A
:1011EB00060001070582034000FF09040100020A03
:1011FB0000000007058102400000070501024000C6
:10120B0000000001000803530054004300CA7BCACE
:10121B006BCA5BCA4BCA3BCA2BCA1BCA0BC0D0C01A
:10122B0083C0827EF1FC74061218B47CEB7402123C
:10123B0018B47CCB74041218B47CDB7CBE30E10395
:10124B001200A17CBE30E2031215B87CBC30E00367
:10125B00120FFD7CBC30E1031217207CBC30E20383
:10126B0012174D7CBD30E103120B697CBE30E003DD
:10127B0012000A7AF1FCD082D083D0D0DA0BDA1BC1
:10128B00DA2BDA3BDA4BDA5BDA6BDA7B32CAF874DD
:10129B000E6C771218DD74111218B420E1537E37DF
:1012AB000014BE34004028057EF04080027CF77E9F
:1012BB000F00167C7F74201217A20A2F7E370014A2
:1012CB009D327A3700140A157E1F00162D317A1FB6
:1012DB0000167E3700144D33780F74117E700A128E
:1012EB0018DDE47AB30013800874117E70021218B3
:1012FB00DDDAF822CAF87CFB9F117A1F00258011DA
:10130B007402ACB77F702DF50B7A20592500290B91
:10131B0070BCF738EB7E0800297CBF1214767E7008
:10132B000180167402ACB7495500296D447E0F003D
:10133B00252F027A0F00250B700A1F1B140A27BDDD
:10134B002148E00A1F6D001B0D7E1F00251208F0BF
:10135B00DAF8227CABBEA00F2802805175BD007558
:10136B00BE00E5BC54F04CBAF5BCA9D6BC000000DD
:10137B00000000000000007E70FAA935BC2BA9C547
:10138B00BCA935DE0AE5BD7C6B6C77E5BE8013E549
:10139B00BD0A4B7D343E343E343E343E34E5BEC450
:1013AB00540F0A4B4D437D34221B7078CD7E341085
:1013BB0000227F7029A70001E5DE54F04CBAF5DE60
:1013CB0029B700027005A9C5DE8003A9D5DE7E7B97
:1013DB0020BE201F280374FF2229A70003BEA001F3
:1013EB00280374FF2229370004BE3003280374FF3F
:1013FB00227CB3C42354E07C3B7CBA0354804C3B2B
:10140B004C327E34FEA87E24007E7A1B30E4227E92
:10141B00B30009BEB00D50507EA003A490142B73E3
:10142B00021452021455021473021458021473025C
:10143B00145B02145E02146102146402146702143A
:10144B006A02146D02147002099A020E26020F64CE
:10145B0002156E020EC502009E0214CD020D810212
:10146B00163F0217CB02194D02191DCAF87CFB7FE0
:10147B00706C7780406C66802C7402ACB67F072D45
:10148B0015694000020B0A20BD2428177402ACB664
:10149B007F072D151B0A407402ACB67F072D1579FB
:1014AB002000020B600A0F1B040A179D010A16BDD0
:1014BB001048C60B700A1F1B140A27BD2148B6DA49
:1014CB00F8227EB30008B480227EB3000B701C7E22
:1014DB00B3000A70167EB3000D70107EB3000C7053
:1014EB000A7E37000EBE340001680302191D7EB35D
:1014FB000012B4040A7E34120E7E2400FF80087E94
:10150B0034120C7E2400FF7A1F00167E3400017A01
:10151B003700140218F0740E6C771218DD74111268
:10152B0018B430E03D7E0F001674201216B80A1B5B
:10153B007E2700149D217A2700147E1F00162D3163
:10154B007A1F00167E3700144D33780E74117E709F
:10155B00481218DDE47AB300132274117E70400236
:10156B0018DD22CAF87EB3000870237EB3000D701D
:10157B001D7EB3000C70177EB3000B70117EF30051
:10158B000ABEF08050087E37000E4D3368051219E5
:10159B001D8017E47C7F1218DD4CFF6804740380F8
:1015AB000274027AB3001212192BDAF822E46C7768
:1015BB001218DD74027AB30012E47AB30013740EBE
:1015CB007E70011218DD74117E70481218DD740ED6
:1015DB007E70021218DD74117E70481218DD740EC5
:1015EB007E70011218DD74147E70901218DD740E6B
:1015FB006C770218DD7584017E44041FE47A49B0D0
:10160B001B4478F97EF8008C7E0400FF7E1419577A
:10161B000B0A405D44681A692000020B0E0B4480D4
:10162B000A7E0BB07A29B00B240B0C1B4478F2808A
:10163B00DF020C2D7EB30012B4041D7EB30008B480
:10164B0081167EB3000B70107EB3000D700A7E37CF
:10165B00000EBE340001680302191D7E34120C7E8D
:10166B002400FF7A1F00167E3400017A3700140223
:10167B0018F0CAF87EB3006860087E08005C740539
:10168B0080147EF30077BEF000281DBEF003400BE4
:10169B007E08005C7CBF1212FF800F7E70027CBF45
:1016AB00ACB74935005A80026D33DAF822CA3B7F5A
:1016BB0030CAB80BFD74161218B47AFBB039BFFFE1
:1016CB00FF800C29BFFFFE1218B47A3BB00B747E5F
:1016DB00FBA07CBA147AFBB04CAA78E729BFFFFFBA
:1016EB009EF80003DA3B2243B10353B2FC74807EB5
:1016FB0034FE077E24007E7A1BB07E34FE077E24E8
:10170B00007E7E1BB030E0F275DC0075F490121198
:10171B0010A9D7AF22CAF8740E7E70011218DD74AF
:10172B00111218B47CFB30E50874117E704012184E
:10173B00DD7CBF30E20774116C771218DDC202DA60
:10174B00F822CAF8740E7E70021218DD741112188A
:10175B00B47CFB30E50874117E70401218DD7CBF41
:10176B0030E20774116C771218DDDAF8227D437EB4
:10177B007300777402ACB75945005C7CB7047AB33D
:10178B0000777E730077BE7005400BE47AB3007769
:10179B0074017AB3006822CA3BCA787F30CAB8801A
:1017AB000B7EFBB07E3B700B741218DD29AFFFFF75
:1017BB007CBA1439BFFFFF4CAA78E61BFDDA3B223B
:1017CB007EB30012B4041B7EB30008B401147EB3C5
:1017DB00000B700E7EB3000D70087E37000E4D337C
:1017EB00680302191D02192B7EB30012B404097E83
:1017FB00B30008BEB0A1680302191D7E1800867ADB
:10180B001F00167E37000E7A3700140218F07EB3D5
:10181B000012B404097EB30008BEB021680302199C
:10182B001D7E1800867A1F00167E37000E7A370051
:10183B001402190F7EB3000924DF680A14680A0B1F
:10184B00B178090218190217F302188902191DCA77
:10185B00797D7380077E3403E81200A67D371B74F5
:10186B004D3378F1DA79227D237E3400037D131B0F
:10187B00147D3178F87D121B147D2178EC227EB318
:10188B000012B404097EB30008BEB021680302192C
:10189B001D02192B7CA77C7B0A5A2E540020121791
:1018AB00A274117E70010218DD7CABE5FC20E7FB16
:1018BB007CBA4480F5FCE5FC20E7FBE5EC227AB32F
:1018CB00004D7E08004D7E3400011210877EB30060
:1018DB004D227CA77C7BE5FC20E7FB7CB7547FF596
:1018EB00FC7AA1EC2274037AB3001374117E70405E
:1018FB001218DD0212987C7BA5BF0104A9D7BC226C
:10190B00A9C7BC2274047AB3001374117E70400211
:10191B0018DD74057AB3001374117E70600218DD44
:10192B00E47AB3001374117E70480218DDC0D1B293
:10193B00EDD0D132C0D1B2ECD0D132C0D1B2EBD0DC
:10194B00D13202191D02191D283029000001005542
:10195B0000000200560000000200580000000200C8
:10196B005A00000002006600000001006800000140
:10197B000069000001007600000100770000010003
:10198B0079000001001C010004007A00FF1A090015
:10199B0004007E0000000000040082000000000034
:1019AB0001001D0000010011000000444542554795
:1019BB00001B5B313B33366D00494E464F001B5BC2
:1019CB00313B33326D005741524E001B5B313B3381
:1019DB00336D004552524F52001B5B313B33316D1F
:1019EB00000A001B5B306D005B25735D2025733A8D
:1019FB002564200042504D3A2025750D0A004053B6
:0D1A0B005443495350230000000000000028
:00000001FF
