:100000000216197E3400010218A322020CF4539543
:10001000F143960ED2A3C2A2C2A1220200C3CA3BE0
:100020007F30BE38000068387E3BB01213777933DA
:10003000000169230001E412023A69130005690313
:1000400000031200CE7E14F0007E04457F12016E84
:100050007933000979230007693300096923000710
:10006000DA3B220219697A3700217E3400227E248D
:1000700000007E1B307E3400237E2400007A1B307B
:100080007E3400217E2400007E1B307E3400247EDE
:100090002400007A1B307E370023220219700219D7
:0200A0004E22EE
:1000A3000219778012000000000000000000000029
:1000B300000000000000007D231B344D2278E6225F
:0700C300C0D1B2EED0D13232
:1000CB000212315D22680D5D0078122D220B406803
:1000DB00099F11222D000B0078F902031D1202E07B
:1000EB005C800B806808248150072CB0500A0203F7
:1000FB00252CB040030203227C8B5D1178267CB14A
:10010B007CA5BE1080680A5D33780DA5BD80057F88
:10011B001002030F6D0080307F017C5B7CB17CA5EE
:10012B00AD1280245D337806A5BD80F080E1CA88CE
:10013B007D41AD437CB17CA5AD122D1450020B0457
:10014B007C5BAD232F01DA88A42D05BE0080400611
:10015B000B80780480982F007C437C507C617C72F0
:10016B000202F9BE24FFFF6806BE04FFFF780302FC
:10017B00031D1202E05CB00468F57CB8A54868EF7B
:10018B007CB870039F1122A5B800030203252E0033
:10019B008150079C8038070203229C8050ED0A5146
:1001AB00C2E74D51780302030F7E5400807E901AF4
:1001BB006C0080061B9068142F11BF1040049F1019
:1001CB004CAB0330E7EECAA86CAA80E8DA39DA58F0
:1001DB007C4ABE5080500A1B8068BC2F1150020B0A
:1001EB00700202F974F86CAA6E40806E0080BEB08B
:1001FB00FF68277C837C975C3B5C7BBF10682AF491
:10020B00400D7C382D15F45C3B500F0B04800B7CA0
:10021B00792D35F45C7B50020B24BF10680B7CB03E
:10022B0020E7067CB420E701B3227EA020800C7E61
:10023B00A01080057EA0086C556D333392D5500A03
:10024B006E34FFFF6E24FFFF0B1CA5EC3340062F13
:10025B0011D5F0F6227CBA247EA2D5137C767C6570
:10026B00A5CC92E77C5B227F507EC400007ED4003D
:10027B004D7E94028302035E4001227CEACA89CA46
:10028B005BCA6B1218FADA6BDA5BDA897E9402833B
:10029B007CAE227F507F617E9402A902035E4001F7
:1002AB00227CEACA89CA5BCA6B1218FADA6BDA5B70
:1002BB00DA897E9402A97CAE227F707F517E6F001B
:1002CB00007E9402D302035E4005E47A7BB0227A6F
:1002DB007BB00B7C222D0092D50E104E10807D42F0
:1002EB002D445002B2D54E50806C447CB8222C4425
:1002FB0050120B1C7E40005E507FBE18000078042D
:10030B000B806816A2D57CB8137C4B7CB592E77C2E
:10031B005B227E1CFFFF229F11227E24FF8020D5B3
:10032B00026C456D3322540F2490D43440D430F3F7
:10033B000CBEB0414007BEB05B500224204CCC68D1
:10034B00021BC00B84D389944CCC680B7420120312
:10035B004880F5CA3B6D889F337CAE7E5BB00B5CEF
:10036B007007C37D38DA3B8994B42569C2F37E5B91
:10037B00B00B5CA5F824D0BEB00A501B7E500A20EF
:10038B00F60DAC5CA52D7CCB70034EF00180DDAC83
:10039B005DA52D7CDB80D524CFBEB01AA5E850051A
:1003AB005E00DFD2F3900733A3E4936011BCB07807
:1003BB00F77417934CAB30F6B34EF08080AEA3E4DA
:1003CB00936010BCB078F77416937C3B7423937CCA
:1003DB002B89147CB08013742012034820F205BEC5
:1003EB00C00250F31B6D29B60001120348020353E0
:1003FB001B6E691600020B6A00BE08000078087EAF
:10040B000400FF7E14198420F21E4CCC681A7F1056
:10041B00E47E1B804C8868070B1C04BCBD78F2C2C1
:10042B00F6CA0B120532DA0B7E0BB060C0CA0B1288
:10043B000348DA0B0B0C4CDD68EE1BD078EA80AD71
:10044B00D2F07E101080037E10085EB05F800AD25F
:10045B00F67E100A80057E100AC2F66D119F117E82
:10046B0000201B6C7E6B7030F6021A3720F1051BD7
:10047B006C7E6B6030F6041A261A2430F0051B6D67
:10048B000B6A20A5EC3382F692F6500A7CEA9F2287
:10049B009F217F127CAE4C44780F7C457C567C6749
:1004AB006C772E00F878EF80122F117CB3337C3BE6
:1004BB009CB140047C3B0B70A5D8EE7CB230E005C0
:1004CB00DAB8C44C3BCA380B207E00207E3000BE0D
:1004DB0018000078C1BE1008780730F404C2F4800D
:1004EB00B5CA287CB2BCBD38027CBD120532DA28F5
:1004FB00BC2D500A1BD0E4CA2812033180F07CB209
:10050B0013DAB84004C4CAB8C4CA28BEF080400984
:10051B005CDD7805A5DA0260065EF07F120331DA46
:10052B0028A5DADA020353BEF001680F30F4022477
:10053B000220F50620F70330F6010420F229BCBC9B
:10054B005025CAB87CBF13B0E67420501174307CB0
:10055B008A5E80F068081205725EA00F800312039A
:10056B0048DAB8BCBC78DB30F40F74301203487433
:10057B005830F302747812034830F605742D0203D9
:10058B0048742B20F5F8742020F7F3221B6C7E6B3C
:10059B00B010F1021B6C20F60B30E704F404D2F21E
:1005AB007CCB800520E7057CDB0203775EF07F8048
:1005BB00F81B6E691600020B6A0030F0076D221BE8
:1005CB000A200B0D1B0A80020362E46C22BE30076B
:1005DB00500B7F1F2D312E34FFF77E39B0227CBF9D
:1005EB0020E7A8742E4EF08002034812071C403DF2
:1005FB007CBD7003047CDB1208337C3D4C336810EC
:10060B001B307CBE20E4091205D570044C3378F006
:10061B007CBD7CD3BEA0FD481CBCAB5818E49CBA77
:10062B002CB31801E47CDB0206BD12071C406E7C68
:10063B00BD041208337AFBA07CAE7CBDA2F492F011
:10064B00C2F4400260010424051205327E30FF0B18
:10065B00301205D5CA3812033120F0044CDD680383
:10066B001205E9DA38BC3D78E6740E120331742BAF
:10067B007EFBA030F707742D6EA0FF0BA07AFBA0BA
:10068B001203487EA00A7EFBB0847AFBA0120331D2
:10069B007EFBB01203319EF80008020353D2F27EA8
:1006AB00D00002041212071C40F37CBA2CBD0412BA
:1006BB0008337AFBA07CBA7CAE30E701E40420F46B
:1006CB00044CDD6805D2F0C2F4042CBD1205326C6B
:1006DB00337EFBB0601B20E712147AFBB01205D5FA
:1006EB00CA38120331DA380B3080E6047AFBB01BC0
:1006FB00301205D5CA381203314CDD68071205E9F3
:10070B001BD080E19EF8000930F0031205E90203CB
:10071B00537CEA7CAF10F7037ED0067CFA1B6E6924
:10072B003600020B6A2002077B2D2B204C424823FC
:10073B002E0053584F44494355502A4E46454700C7
:10074B000420800102001040FB4D525A5AE7614BC6
:10075B0097BCB035F6030404040403040405050632
:10076B0006054E614E002B494E46002D494E460064
:10077B007D522D557CBE92E67CEB7CBA601F0470DB
:10078B00287CB5C2E77E0400FF60067E14076DD39C
:10079B00227E14077640047E140771D322DA099F58
:1007AB0022CA2BCA2BC3CA09220A0A7E144D10ADCA
:1007BB00109E083AF09E10267CB5C2E77EA0567CB0
:1007CB009BA46E54FFFF2E54C511ACA92D15E4A5A7
:1007DB0039CAB8CA1B20E70A1208A6DA1B12016E27
:1007EB00800AF4041208A6DA1B1200CEDAA87CB534
:1007FB00337CB4334E50806C4424822F111478FB1D
:10080B00DA497407BE400A40099E400ACA02011425
:10081B000BA0CA486C442F117F012F112F112F10E1
:10082B001478EFCA48CA49227F0F20E73ABEB007B7
:10083B00400274070A0B2D109E1400097E19B02E6E
:10084B00B0FB501F4C116817E47A19B01B147E19BA
:10085B00B0047A19B0B40A0BE47A19B0A5D9ED0B30
:10086B00A074017A19B0225EE0BF223F80000041E4
:10087B0020000042C80000447A0000461C4000479C
:10088B00C35000497424004B1896804CBEBC205AB0
:10089B000E1BCA6753C21C749DC5AE7C7B6006548D
:1008AB0007681623231208CB7CB75438680A7F10CD
:1008BB001208C81200CE7F01227CB7543803241CC7
:1008CB006CAA2E5408767E4400FF0B2A0069120096
:1008DB0002227D51AD037D027D21AD052D12AD357B
:1008EB002D21226D0074104D00780B4D2278278D31
:1008FB00317D126D22227D437D326D222F112D44CD
:10090B005002A50FBF1040049F100B901478ED7F81
:10091B00016D227D34227D417D138D247D022F00BC
:10092B004004BD0440049D040B141478F17D237D19
:10093B00317D106D0022C2D57CB030E708B2D59F57
:10094B00229F207F027CB430E713B2D59F229F21D8
:10095B007F121208F09F229F207F0280031208F063
:10096B0030D5069F229F217F12226CAA4D11681E43
:10097B001E54500C7E1B007A190068120B1C0B14B2
:10098B000B1A001B18000B1D0B151B5478F222CAF7
:10099B00F87EF300087CBF5480B480167EB3000B46
:1009AB0070307EB3000A702A7E37000EBE34000210
:1009BB006803020A927CBF540F14681B14683B0B2C
:1009CB00B16803020A927EB3000D70067EB3000C71
:1009DB00601E020A9280197EB30012B4040F7EB31C
:1009EB00000D6003020A927EB3000C6003020A92B0
:1009FB007E3412257E2400FF807D7EB30012B4046A
:100A0B00067EB3000D6002807E7E73000C7CA75EB9
:100A1B00A00F1B7068362E707F68040B7078687E91
:100A2B002400017CBA60053E241478FB7E73001A07
:100A3B006C665C754D33680A7E3412277E2400FF8A
:100A4B0080357E3412257E2400FF802B7E2400010E
:100A5B007CBA60053E241478FB7E73001B6C665CCD
:100A6B00754D33680A7E3412277E2400FF80087E82
:100A7B003412257E2400FF7A1F00167E3400027A82
:100A8B003700148007800012194E8003121921DAE7
:100A9B00F822CA3B7A1F00267AB300257F30BE3876
:100AAB0000007803020B667EB30025BEB00840033E
:100ABB00020B667EA003A4900AC673020ADE020A2A
:100ACB00E6020AEE020AF6020AFE020B06020B0E01
:100ADB00020B164391015392FE80364391025392BF
:100AEB00FD802E4391045392FB8026439108539231
:100AFB00F7801E4391105392EF801643912053922F
:100B0B00DF800E4391405392BF80064391805392F6
:100B1B007F741F7AB3002A740F7AB3002BE47AB375
:100B2B00002C7AB3002D74017AB3002E7E08002AB4
:100B3B001213D674011219326D33793300019F11E0
:100B4B0079330009792300077E1F002679330005CE
:100B5B00792300037E7300257A3B70DA3B2275E91B
:100B6B0000A9D7BA75EA0012170BD2AF7EB30012E9
:100B7B00B404F912000E7E08006AE47E3433337E2F
:100B8B00244053120A9DE47E34FEA07E24007E7A1C
:100B9B001BB0438E805389F0758A40758CA2C28D31
:100BAB00D28CD2A96D44800F7E7300757402ACB7E2
:100BBB005945005C7CB7047AB300757E730075BE33
:100BCB00700540E4E47AB300777AB300687EB30033
:100BDB007660497E17005A6D007E18EA6012094153
:100BEB007D73BE74001E4020BE7400C8381A7D375A
:100BFB001217911216967A37004B7A7700497E14AA
:100C0B001A427E0400FF800C7A77004B7E141A3058
:100C1B007E0400FF120272E47AB300767E34000A7F
:100C2B0012187380A8CA79740E7E700112190E7493
:100C3B00141218E57CFB30E60874147E70801219D0
:100C4B000E7CBF20E003020CF17E1400407E0400FA
:100C5B000174211216D17AB300107E1F007A4D2336
:100C6B007803020CEF6CFF80737EB300111A3B7E8E
:100C7B000F007A2D317D207E1BA00A4F2E440040A1
:100C8B007A91827A81837EEBE0BCEA7839047AB37D
:100C9B0000117E7300111A372D317D207E1BB07031
:100CAB003974146C7712190E75F40075DC00E47E40
:100CBB0034FE077E24007E7A1BB07E34000A1218A5
:100CCB008B75C76080FE7E1F007A7E1B70BCE77839
:100CDB000474018001E47AB300110BF07E730010F1
:100CEB00BC7F3885D200DA7922CA7BCA6BCA5BCA51
:100CFB004BCA2BCA1BCA0BC0D1C0D0C083C0827ECB
:100D0B003700580B347A3700587E08006A12001EE1
:100D1B006D117E043FC01201EF280474018001E4C1
:100D2B007AB30079B401497EB3007870437EB30087
:100D3B0055701074017AB300557E3700587A37001E
:100D4B0066802D7EB30069702774017AB300697ECB
:100D5B003700587A3700567E3700569E3700667A32
:100D6B0037005A7AB30076E47AB300557AB3006948
:100D7B007E7300797A730078D082D083D0D0D0D1B3
:100D8B00DA0BDA1BDA2BDA4BDA5BDA6BDA7B327ED5
:100D9B00B30012BEB00268207EB30008701A7EB397
:100DAB00000B70147EB3000D700E7EB3000C700838
:100DBB007E37000E4D33680302194E7EB3000AB422
:100DCB00015F74047AB30012E47AB3001A7AB300A9
:100DDB001B740E7E700112190E74127E7020121984
:100DEB000E74107E700812190E740E7E700212199A
:100DFB000E74127E702012190E74107E7008121968
:100E0B000E740E7E700112190E74126C7712190E7D
:100E1B0074137E700812190E740E6C7712190E80F3
:100E2B001074037AB3001274FF7AB3001A7AB3000A
:100E3B001B02195C7EB30012B404247EB30008B409
:100E4B00021D7EB3000D6003020ED87EB3000B7043
:100E5B007C7EB3000A70767E37000E4D33680280BD
:100E6B006C7E63000C7C765E700F1B60682F2E60AF
:100E7B007F68040B6078567E2400017CB760053ECA
:100E8B00241478FB7C656E60FF5E63001A7A630046
:100E9B001A740E12190E74117E704080247E240079
:100EAB00017CB760053E241478FB7C656E60FF5EA9
:100EBB0063001B7A63001B740E12190E74147E7080
:100ECB008012190E740E6C7712190E800302194ED4
:100EDB0002195C7EB300085480BEB0806803020F19
:100EEB00697EB3000B1BB168191468280BB1786EBF
:100EFB007E3411D07E2400FF7A1F00167E34001240
:100F0B0080547E3411E27E2400FF7A1F00167E345B
:100F1B00004380427EB3000A1468191468280BB191
:100F2B00783C7E3411CC7E2400FF7A1F00167E3471
:100F3B00000480227E3412297E2400FF7A1F0016C3
:100F4B007E34000880107E3411AE7E2400FF7A1FA1
:100F5B0000167E34001E7A370014800580000219BB
:100F6B004E7E37000EBE37001450047A3700140241
:100F7B0019217EB30012B404247EB30008B4021D01
:100F8B007EB3000D60030210107EB3000B70767EF3
:100F9B00B3000A70707E37000E4D33680280667E98
:100FAB0063000C7C765E700F1B60682C2E607F6874
:100FBB00040B6078507E2400017CB760053E24143E
:100FCB0078FB7C654E63001A7A63001A740E121953
:100FDB000E74117E701080217E2400017CB7600599
:100FEB003E241478FB7C654E63001B7A63001B74F4
:100FFB000E12190E74147E702012190E740E6C776B
:10100B0012190E800302194E02195CCAF8740E6C89
:10101B007712190E74111218E57CFB30E20F741164
:10102B007C7F5E70FB12190EE47AB300137CBF3029
:10103B00E40A74117C7F4E708012190E7EB300137C
:10104B0024FD68461468480BB278477CBF30E042F9
:10105B007E08000874201216D17E37000E1200662F
:10106B007A37000E7EB30008546024E0680D24E04C
:10107B00680E2440780F1214338017121858801200
:10108B00121981800D12194E80081212B1800312B1
:10109B00153ADAF822CA3B7A37004E7F307E34009D
:1010AB00C87A370053A9C7AF740E7E700112190EA0
:1010BB006D337A3700517E27004EBE240040080561
:1010CB007E704080027C757A73005074111218E5A3
:1010DB0030E0107E3700537D231B247A2700534DBD
:1010EB003378E87F032E1700517EB300507E7001DA
:1010FB001218D07E7300500A277D322E3700517A9A
:10110B003700517E37004E9D327A37004E7E73008A
:10111B0050BE704050A0D202A9D7AFDA3B2253B2D7
:10112B00FC43B10374807E34FE077E24007E7A1B61
:10113B00B07E34FE077E24007E7E1BB030E0F2755D
:10114B00DC0075F490E46C7712190E74017E700854
:10115B0012190E74077E703F12190E74097E703FC0
:10116B0012190E740B7E700712190E74016C771224
:10117B00190E74027AB30012E47AB300137AB30037
:10118B001A7AB3001B7E3401007E2400C27A1F0042
:10119B00867AB3008A7AB3008B74087AB3008CA971
:1011AB00D7AF221E035300540043002000550053B9
:1011BB000042002000530065007200690061006C62
:1011CB0000040309041201000202000040BF3402B4
:1011DB00FF000101020001090243000201008032FD
:1011EB00090400000102020100052400100105247E
:1011FB0001000104240202052406000107058203F5
:10120B004000FF09040100020A00000007058102EB
:10121B004000000705010240000000000100080328
:10122B00530054004300CA7BCA6BCA5BCA4BCA3B10
:10123B00CA2BCA1BCA0BC0D0C083C0827EF1FC7400
:10124B00061218E57CEB74021218E57CCB740412C1
:10125B0018E57CDB7CBE30E1031200A17CBE30E2E2
:10126B00031215D17CBC30E0031210167CBC30E1AC
:10127B00031217397CBC30E2031217667CBD30E1D8
:10128B0003120C307CBE30E00312000A7AF1FCD062
:10129B0082D083D0D0DA0BDA1BDA2BDA3BDA4BDADB
:1012AB005BDA6BDA7B32CAF8740E6C7712190E7438
:1012BB00111218E520E1537E370014BE340040288C
:1012CB00057EF04080027CF77E0F00167C7F742039
:1012DB001217BB0A2F7E3700149D327A3700140A7F
:1012EB00157E1F00162D317A1F00167E3700144D08
:1012FB0033780F74117E700A12190EE47AB300134F
:10130B00800874117E700212190EDAF822CAF87C6A
:10131B00FB9F117A1F002580117402ACB77F702DD3
:10132B00F50B7A20592500290B70BCF738EB7E089A
:10133B0000297CBF12148F7E700180167402ACB72B
:10134B00495500296D447E0F00252F027A0F002589
:10135B000B700A1F1B140A27BD2148E00A1F6D00E2
:10136B001B0D7E1F00251208F0DAF8227CABBEA005
:10137B000F2802805175BD0075BE00E5BC54F04CC2
:10138B00BAF5BCA9D6BC00000000000000000000AC
:10139B007E70FAA935BC2BA9C5BCA935DE0AE5BD03
:1013AB007C6B6C77E5BE8013E5BD0A4B7D343E3418
:1013BB003E343E343E34E5BEC4540F0A4B4D437DA0
:1013CB0034221B7078CD7E341000227F7029A70049
:1013DB0001E5DE54F04CBAF5DE29B700027005A921
:1013EB00C5DE8003A9D5DE7E7B20BE201F280374BB
:1013FB00FF2229A70003BEA001280374FF2229376F
:10140B000004BE3003280374FF227CB3C42354E0D2
:10141B007C3B7CBA0354804C3B4C327E34FEA87E22
:10142B0024007E7A1B30E4227EB30009BEB00D503F
:10143B00507EA003A49014447302146B02146E022A
:10144B00148C02147102148C02147402147702149B
:10145B007A02147D0214800214830214860214890A
:10146B0002099A020E3F020F7D021587020EDE0261
:10147B00009E0214E6020D9A0216580217E4021996
:10148B007E02194ECAF87CFB7F706C7780406C66CD
:10149B00802C7402ACB67F072D15694000020B0A35
:1014AB0020BD2428177402ACB67F072D151B0A40EC
:1014BB007402ACB67F072D15792000020B600A0F62
:1014CB001B040A179D010A16BD1048C60B700A1F94
:1014DB001B140A27BD2148B6DAF8227EB30008B4E4
:1014EB0080227EB3000B701C7EB3000A70167EB395
:1014FB00000D70107EB3000C700A7E37000EBE34E8
:10150B000001680302194E7EB30012B4040A7E3444
:10151B0012277E2400FF80087E3412257E2400FFD4
:10152B007A1F00167E3400017A37001402192174D9
:10153B000E6C7712190E74111218E530E03D7E0F08
:10154B00001674201216D10A1B7E2700149D217AD7
:10155B002700147E1F00162D317A1F00167E3700D0
:10156B00144D33780E74117E704812190EE47AB351
:10157B0000132274117E704002190E22CAF87EB33A
:10158B00000870237EB3000D701D7EB3000C701726
:10159B007EB3000B70117EF3000ABEF08050087E04
:1015AB0037000E4D33680512194E8017E47C7F12FD
:1015BB00190E4CFF68047403800274027AB3001294
:1015CB0012195CDAF822E46C7712190E74027AB3F2
:1015DB000012E47AB30013740E7E700112190E74AC
:1015EB00117E704812190E740E7E700212190E7451
:1015FB00117E704812190E740E7E700112190E7442
:10160B00147E709012190E740E6C7702190E75847D
:10161B00017E44041FE47A49B01B4478F97EF8003C
:10162B008C7E0400FF7E1419880B0A405D44681AF7
:10163B00692000020B0E0B44800A7E0BB07A29B096
:10164B000B240B0C1B4478F280DF020B697EB3007A
:10165B0012B4041D7EB30008B481167EB3000B7068
:10166B00107EB3000D700A7E37000EBE3400016889
:10167B000302194E7E3412257E2400FF7A1F0016BA
:10168B007E3400017A370014021921CAF87EB300A8
:10169B006860087E08005C740580147EF30077BEDA
:1016AB00F000281DBEF003400B7E08005C7CBF12CF
:1016BB001318800F7E70027CBFACB74935005A807F
:1016CB00026D33DAF822CA3B7F30CAB80BFD7416B1
:1016DB001218E57AFBB039BFFFFF800C29BFFFFE64
:1016EB001218E57A3BB00B747EFBA07CBA147AFB24
:1016FB00B04CAA78E729BFFFFF9EF80003DA3B2224
:10170B0043B10353B2FC74807E34FE077E24007E0B
:10171B007A1BB07E34FE077E24007E7E1BB030E049
:10172B00F275DC0075F490121129A9D7AF22CAF813
:10173B00740E7E700112190E74111218E57CFB30B9
:10174B00E50874117E704012190E7CBF30E20774ED
:10175B00116C7712190EC202DAF822CAF8740E7ED7
:10176B00700212190E74111218E57CFB30E5087427
:10177B00117E704012190E7CBF30E20774116C772A
:10178B0012190EDAF8227D437E7300777402ACB720
:10179B005945005C7CB7047AB300777E730077BE43
:1017AB007005400BE47AB3007774017AB3006822BA
:1017BB00CA3BCA787F30CAB8800B7EFBB07E3B70C9
:1017CB000B7412190E29AFFFFF7CBA1439BFFFFF40
:1017DB004CAA78E61BFDDA3B227EB30012B4041B45
:1017EB007EB30008B401147EB3000B700E7EB30001
:1017FB000D70087E37000E4D33680302194E021927
:10180B005C7EB30012B404097EB30008BEB0A168BD
:10181B000302194E7E1800867A1F00167E37000EC3
:10182B007A3700140219217EB30012B404097EB377
:10183B000008BEB021680302194E7E1800867A1F7D
:10184B0000167E37000E7A3700140219407EB30063
:10185B000924DF680A14680A0BB1780902183202EE
:10186B00180C0218BA02194ECA797D7380077E34A0
:10187B0003E81218A37D371B744D3378F1DA792204
:10188B00CA797D7380077E3403E81200A67D371B6F
:10189B00744D3378F1DA79227D237E3400037D1386
:1018AB001B147D3178F87D121B147D2178EC227E80
:1018BB00B30012B404097EB30008BEB02168030262
:1018CB00194E02195C7CA77C7B0A5A2E54002012FD
:1018DB0017BB74117E700102190E7CABE5FC20E77F
:1018EB00FB7CBA4480F5FCE5FC20E7FBE5EC227AB7
:1018FB00B3004D7E08004D7E3400011210A07EB364
:10190B00004D227CA77C7BE5FC20E7FB7CB7547F5A
:10191B00F5FC7AA1EC2274037AB3001374117E7078
:10192B004012190E0212B17C7BA5BF0104A9D7BCD2
:10193B0022A9C7BC2274047AB3001374117E7040C1
:10194B0002190E74057AB3001374117E70600219BC
:10195B000EE47AB3001374117E704802190EC0D1D5
:10196B00B2EDD0D132C0D1B2ECD0D132C0D1B2EBCA
:10197B00D0D13202194E02194E2830290000010035
:10198B005500000200560000000200580000000243
:10199B00005A000000020066000000010068000011
:1019AB0001006900000100760000010077000001D2
:1019BB000079000001001C010004007A00FF1A5698
:1019CB000004007E00000000000400820000000004
:1019DB000001001D000001001100000044454255AC
:1019EB0047001B5B313B33366D00494E464F001BA6
:1019FB005B313B33326D005741524E001B5B313B29
:101A0B0033336D004552524F52001B5B313B333128
:101A1B006D000A001B5B306D005B25735D20257329
:101A2B003A25642000496E76616C69642042504D02
:101A3B003A2025750D0A0042504D3A202575202875
:101A4B007261773A202575290D0A0040535443499A
:0A1A5B0053502300000000000000BB
:00000001FF
