:1000000002176D7E340001021A1722021ABD5395A1
:10001000F143960ED2A3C2A2C2A122021B23CA3B65
:100020007F30BE38000068387E3BB01213CD793384
:10003000000169230001E41202F869130005690355
:10004000000312018C7E14F0007E04457F12022C06
:100050007933000979230007693300096923000710
:10006000DA3B22021B2A7A3702867E3402877E24FC
:1000700000007E1B307E3402887E2400007A1B3014
:100080007E3402867E2400007E1B307E3402897E10
:100090002400007A1B307E37028822021B31021AAC
:0200A000FD223F
:1000A300021B387D027D136D226D3380107D533E1C
:1000B300547D315E3400014D351E140B24BD0238CE
:1000C300EC22021AFD021AFD02126E02046B6E008C
:1000D300807CB1337CB033680D0468EF7CB5337C2E
:1000E300B43378037F10220468E17D5092F77D4595
:1000F3007D51BF2140067C807F017F1212042E7E3A
:10010300A1D05CB004780320D5C17CB0047807503B
:1001130002B2D502047392D5BE80FF68F67CB89C08
:10012300B06C00602AB418057C4102044750FB8080
:10013300032F00047C9B5E900778F630E4067C4333
:100143007D106D0030E3087C437C327C210A003053
:10015300F5199F10780E220204701B8068F92F1185
:1001630050020B707CB530E7F1801B2D317CB5A5B7
:10017300397C5B50110B8078030204731E341350D7
:10018300034E60801A2B0204475D22680D5D0078E0
:10019300122D220B4068099F11222D000B0078F9C4
:1001A30002046B12042E5C800B80680824815007C4
:1001B3002CB0500A0204732CB040030204707C8BF1
:1001C3005D1178267CB17CA5BE1080680A5D33780A
:1001D3000DA5BD80057F1002045D6D0080307F0199
:1001E3007C5B7CB17CA5AD1280245D337806A5BD14
:1001F30080F080E1CA887D41AD437CB17CA5AD121E
:100203002D1450020B047C5BAD232F01DA88A42D3F
:1002130005BE008040060B80780480982F007C4345
:100223007C507C617C72020447BE24FFFF6806BEDB
:1002330004FFFF780302046B12042E5CB00468F51C
:100243007CB8A54868EF7CB870039F1122A5B8005D
:10025300030204732E008150079C80380702047048
:100263009C8050ED0A51C2E74D51780302045D7E34
:100273005400807E901A6C0080061B9068142F1126
:10028300BF1040049F104CAB0330E7EECAA86CAA22
:1002930080E8DA39DA587C4ABE5080500A1B8068FD
:1002A300BC2F1150020B7002044774F86CAA6E4005
:1002B300806E0080BEB0FF68277C837C975C3B5CCC
:1002C3007BBF10682AF4400D7C382D15F45C3B503D
:1002D3000F0B04800B7C792D35F45C7B50020B24CF
:1002E300BF10680B7CB020E7067CB420E701B32283
:1002F3007EA020800C7EA01080057EA0086C556D2A
:10030300333392D5500A6E34FFFF6E24FFFF0B1C6C
:10031300A5EC3340062F11D5F0F6227CBA247EA239
:10032300D5137C767C65A5CC92E77C5B227F507EDF
:10033300C400007ED402B27E9403410204AC4001A7
:10034300227CEACA89CA5BCA6B121A83DA6BDA5B4C
:10035300DA897E9403417CAE227F507F617E9403D1
:10036300670204AC4001227CEACA89CA5BCA6B12E9
:100373001A83DA6BDA5BDA897E9403677CAE227FB9
:10038300707F517E6F00007E9403910204AC4005A0
:10039300E47A7BB0227A7BB00B7C227CB5A2E7D2D5
:1003A300E77C1B7CB4334009680DB4FF0BA5BDFF8C
:1003B3000302046B020473227C0B2481C2E0F582E6
:1003C300F4042CB07C2BC3137C4B7CB592E77C5B91
:1003D3007F417CB6A2E77CB1A5BA7F02C313340088
:1003E30094007C2B7EA091A47CBA13F494FEACB24F
:1003F300337CBA33248CD3137C5BE492E77C6B6C41
:10040300777E403F7583027F517F017F1412022C58
:100413007F051200D49E240080D583EB7E01826C7D
:10042300110E041E042D205E407F222D0092D50E56
:10043300104E10807D422D445002B2D54E50806C38
:10044300447CB8222C4450120B1C7E40005E507F2B
:10045300BE18000078040B806816A2D57CB8137C04
:100463004B7CB592E77C5B227E1CFFFF229F11220F
:100473007E24FF8020D5026C456D3322540F2490D7
:10048300D43440D430F30CBEB0414007BEB05B500F
:100493000224204CCC68021BC00B84D389944CCC1F
:1004A300680B742012049680F5CA3B6D889F337CD9
:1004B300AE7E5BB00B5C7007C37D38DA3B8994B4C6
:1004C3002569C2F37E5BB00B5CA5F824D0BEB00AED
:1004D300501B7E500A20F60DAC5CA52D7CCB70031F
:1004E3004EF00180DDAC5DA52D7CDB80D524CFBE35
:1004F300B01AA5E850055E00DFD2F3900881A3E4AB
:10050300936011BCB078F77417934CAB30F6B34ECD
:10051300F08080AEA3E4936010BCB078F7741693B8
:100523007C3B7423937C2B89147CB080137420123E
:10053300049620F205BEC00250F31B6D29B60001DC
:100543001204960204A11B6E691600020B6A00BE18
:1005530008000078087E0400FF7E141B3F20F21E73
:100563004CCC681A7F10E47E1B804C8868070B1CF8
:1005730004BCBD78F2C2F6CA0B120680DA0B7E0BFE
:10058300B060C0CA0B120496DA0B0B0C4CDD68EE9C
:100593001BD078EA80ADD2F07E101080037E100865
:1005A3005EB05F800AD2F67E100A80057E100AC212
:1005B300F66D119F117E00201B6C7E6B7030F6026E
:1005C3001A3720F1051B6C7E6B6030F6041A261A6D
:1005D3002430F0051B6D0B6A20A5EC3382F692F6EE
:1005E300500A7CEA9F229F217F127CAE4C44780FF5
:1005F3007C457C567C676C772E00F878EF80122F51
:10060300117CB3337C3B9CB140047C3B0B70A5D87D
:10061300EE7CB230E005DAB8C44C3BCA380B207E1E
:1006230000207E3000BE18000078C1BE1008780795
:1006330030F404C2F480B5CA287CB2BCBD38027C55
:10064300BD120680DA28BC2D500A1BD0E4CA28123A
:10065300047F80F07CB213DAB84004C4CAB8C4CAB9
:1006630028BEF08040095CDD7805A5DA0260065EED
:10067300F07F12047FDA28A5DADA0204A1BEF001C2
:10068300680F30F402240220F50620F70330F60148
:100693000420F229BCBC5025CAB87CBF13B0E67451
:1006A30020501174307C8A5E80F068081206C05EA8
:1006B300A00F8003120496DAB8BCBC78DB30F40FC9
:1006C3007430120496745830F3027478120496301E
:1006D300F605742D020496742B20F5F8742020F788
:1006E300F3221B6C7E6BB010F1021B6C20F60B30F7
:1006F300E704F404D2F27CCB800520E7057CDB021F
:1007030004C55EF07F80F81B6E691600020B6A0059
:1007130030F0076D221B0A200B0D1B0A800204B068
:10072300E46C22BE3007500B7F1F2D312E34FFF7B0
:100733007E39B0227CBF20E7A8742E4EF0800204DD
:100743009612086A403D7CBD7003047CDB1209816C
:100753007C3D4C3368101B307CBE20E40912072318
:1007630070044C3378F07CBD7CD3BEA0FD481CBC28
:10077300AB5818E49CBA2CB31801E47CDB02080BD9
:1007830012086A406E7CBD041209817AFBA07CAE1C
:100793007CBDA2F492F0C2F440026001042405126D
:1007A30006807E30FF0B30120723CA3812047F20E5
:1007B300F0044CDD6803120737DA38BC3D78E67481
:1007C3000E12047F742B7EFBA030F707742D6EA0EE
:1007D300FF0BA07AFBA01204967EA00A7EFBB084D6
:1007E3007AFBA012047F7EFBB012047F9EF8000800
:1007F3000204A1D2F27ED00002056012086A40F31F
:100803007CBA2CBD041209817AFBA07CBA7CAE3081
:10081300E701E40420F4044CDD6805D2F0C2F404DB
:100823002CBD1206806C337EFBB0601B20E71214D4
:100833007AFBB0120723CA3812047FDA380B3080F0
:10084300E6047AFBB01B30120723CA3812047F4C2C
:10085300DD68071207371BD080E19EF8000930F0EE
:10086300031207370204A17CEA7CAF10F7037ED0A2
:10087300067CFA1B6E693600020B6A200208C92D3A
:100883002B204C4248232E0053584F444943555084
:100893002A4E464547000420800102001040499B30
:1008A300A0A8A835AF99E50AFE834405050505050B
:1008B30005050506070707074E614E002B494E46FF
:1008C300002D494E46007D522D557CBE92E67CEBB1
:1008D3007CBA601F0470287CB5C2E77E0400FF6009
:1008E300067E1408BBD3227E1408C440047E140879
:1008F300BFD322DA099F22CA2BCA2BC3CA09220AF1
:100903000A7E144D10AD109E083AF09E10267CB559
:10091300C2E77EA0567C9BA46E54FFFF2E54C511E4
:10092300ACA92D15E4A539CAB8CA1B20E70A1209D8
:10093300F4DA1B12022C800AF4041209F4DA1B12F3
:10094300018CDAA87CB5337CB4334E50806C4424DC
:10095300822F111478FBDA497407BE400A40099EBE
:10096300400ACA0201140BA0CA486C442F117F012C
:100973002F112F112F101478EFCA48CA49227F0F65
:1009830020E73ABEB007400274070A0B2D109E14ED
:1009930000097E19B02EB0FB501F4C116817E47A82
:1009A30019B01B147E19B0047A19B0B40A0BE47A97
:1009B30019B0A5D9ED0BA074017A19B0225EE0BF7E
:1009C300223F8000004120000042C80000447A001A
:1009D30000461C400047C35000497424004B18963E
:1009E300804CBEBC205A0E1BCA6753C21C749DC5E3
:1009F300AE7C7B6006540768162323120A197CB762
:100A03005438680A7F10120A1612018C7F01227C67
:100A1300B7543803241C6CAA2E5409C47E4400FF27
:100A23000B2A0069120002227D51AD037D027D2154
:100A3300AD052D12AD352D21226CAA4D11681E1E58
:100A430054500C7E1B007A190068120B1C0B140BFC
:100A53001A001B18000B1D0B151B5478F222CAF841
:100A63007EF300087CBF5480B480167EB3000B7005
:100A7300307EB3000A702A7E37000EBE340002684F
:100A830003020B597CBF540F14681B14683B0BB152
:100A93006803020B597EB3000D70067EB3000C6031
:100AA3001E020B5980197EB30012B4040F7EB300EB
:100AB3000D6003020B597EB3000C6003020B597ED9
:100AC3003412627E2400FF807D7EB30012B40406DC
:100AD3007EB3000D6002807E7E73000C7CA75EA057
:100AE3000F1B7068362E707F68040B7078687E2445
:100AF30000017CBA60053E241478FB7E73001A6CF7
:100B0300665C754D33680A7E3412647E2400FF8070
:100B1300357E3412627E2400FF802B7E2400017C0C
:100B2300BA60053E241478FB7E73001B6C665C750B
:100B33004D33680A7E3412647E2400FF80087E34BD
:100B430012627E2400FF7A1F00167E3400027A3779
:100B5300001480078000121AFD8003121AD0DAF8FD
:100B630022121A9774FF7E08028A7E7001121B18E4
:100B730070097EB3028ABEB015680374012274093A
:100B83007E08028B7E7001121B1860037402227EA2
:100B9300B3028B44407AB3028B74097E73028B12C7
:100BA3001A4460037402227E34000A1219E77402A5
:100BB3007E70E0121A4474037E7002121A44E47ABF
:100BC300B3028B74067E73028B121A4460037403A0
:100BD3002274047E73028B121A446003740322741A
:100BE300057E73028B121A44600374032274087E19
:100BF300700F121A4474097E7003121A44740A7E29
:100C03007023121A44740C7E703F121A44740D7EC2
:100C1300703F121A4474107E707F121A4474217E3E
:100C23007001121A44E47E08028C7E7001121B18B4
:100C330074017E08028C7E7001121B1874017AB352
:100C4300001DE422CA3B7A1F028B7AB3028A7F30EB
:100C5300BE3800007803020D107EB3028ABEB008CE
:100C63004003020D107EA003A4900C7073020C8845
:100C7300020C90020C98020CA0020CA8020CB00209
:100C83000CB8020CC04391015392FE80364391028B
:100C93005392FD802E4391045392FB802643910887
:100CA3005392F7801E4391105392EF801643912085
:100CB3005392DF800E4391405392BF80064391804D
:100CC30053927F741F7AB3028F740F7AB30290E446
:100CD3007AB302917AB3029274017AB302937E08D3
:100CE300028F12142C7401121AE16D33793300014F
:100CF3009F1179330009792300077E1F028B793313
:100D03000005792300037E73028A7A3B70DA3B2263
:100D1300CA79740E7E7001121AAA7414121A6E7CA8
:100D2300FB30E60874147E7080121AAA7CBF20E0A0
:100D330003020DD47E1400407E04000174211217B7
:100D4300EA7AB300107E1F02BA4D237803020DD254
:100D53006CFF80737EB300111A3B7E0F02BA2D31F4
:100D63007D207E1BA00A4F2E4400407A91827A8117
:100D7300837EEBE0BCEA7839047AB300117E73001A
:100D8300111A372D317D207E1BB0703974146C77A6
:100D9300121AAA75F40075DC00E47E34FE077E2483
:100DA300007E7A1BB07E34000A1219FF75C760807B
:100DB300FE7E1F02BA7E1B70BCE7780474018001BB
:100DC300E47AB300110BF07E730010BC7F3885D238
:100DD30000DA79227EB30012BEB00268207EB3002F
:100DE30008701A7EB3000B70147EB3000D700E7E74
:100DF300B3000C70087E37000E4D336803021AFDF2
:100E03007EB3000AB4015F74047AB30012E47AB3C8
:100E1300001A7AB3001B740E7E7001121AAA7412A0
:100E23007E7020121AAA74107E7008121AAA740E09
:100E33007E7002121AAA74127E7020121AAA7410FB
:100E43007E7008121AAA740E7E7001121AAA741206
:100E53006C77121AAA74137E7008121AAA740E6C95
:100E630077121AAA801074037AB3001274FF7AB34C
:100E7300001A7AB3001B021B0B7EB30012B40424C6
:100E83007EB30008B4021D7EB3000D6003020F158C
:100E93007EB3000B707C7EB3000A70767E37000E43
:100EA3004D336802806C7E63000C7C765E700F1B92
:100EB30060682F2E607F68040B6078567E240001E3
:100EC3007CB760053E241478FB7C656E60FF5E632F
:100ED300001A7A63001A740E121AAA74117E7040F3
:100EE30080247E2400017CB760053E241478FB7CBB
:100EF300656E60FF5E63001B7A63001B740E121A3B
:100F0300AA74147E7080121AAA740E6C77121AAA2D
:100F13008003021AFD021B0B7EB300085480BEB08F
:100F2300806803020FA67EB3000B1BB16819146817
:100F3300280BB1786E7E34120D7E2400FF7A1F00D9
:100F4300167E34001280547E34121F7E2400FF7AF2
:100F53001F00167E34004380427EB3000A146819D2
:100F63001468280BB1783C7E3412097E2400FF7A82
:100F73001F00167E34000480227E3412667E240015
:100F8300FF7A1F00167E34000880107E3411EB7E3A
:100F93002400FF7A1F00167E34001E7A3700148067
:100FA300058000021AFD7E37000EBE370014500480
:100FB3007A370014021AD07EB30012B404247EB32D
:100FC3000008B4021D7EB3000D600302104D7EB312
:100FD300000B70767EB3000A70707E37000E4D33BF
:100FE300680280667E63000C7C765E700F1B60680F
:100FF3002C2E607F68040B6078507E2400017CB740
:1010030060053E241478FB7C654E63001A7A630006
:101013001A740E121AAA74117E701080217E240095
:10102300017CB760053E241478FB7C654E63001B8E
:101033007A63001B740E121AAA74147E7020121A9B
:10104300AA740E6C77121AAA8003021AFD021B0BF4
:10105300CAF8740E6C77121AAA7411121A6E7CFBFA
:1010630030E20F74117C7F5E70FB121AAAE47AB32C
:1010730000137CBF30E40A74117C7F4E7080121A17
:10108300AA7EB3001324FD68461468480BB2784760
:101093007CBF30E0427E08000874201217EA7E37D6
:1010A300000E1200667A37000E7EB30008546024E7
:1010B300E0680D24E0680E2440780F12148980172D
:1010C3001219CC80121200C8800D121AFD8008126A
:1010D3001366800312168EDAF822CA3B7A3702B3FC
:1010E3007F307E3400C87A3702B8A9C7AF740E7E4A
:1010F3007001121AAA6D337A3702B67E2702B3BE85
:1011030024004008057E704080027C757A7302B526
:101113007411121A6E30E0107E3702B87D231B243F
:101123007A2702B84D3378E87F032E1702B67EB3D1
:1011330002B57E7001121A597E7302B50A277D32F9
:101143002E3702B67A3702B67E3702B39D327A372C
:1011530002B37E7302B5BE704050A0D202A9D7AFCE
:10116300DA3B2253B2FC43B10374807E34FE077E24
:1011730024007E7A1BB07E34FE077E24007E7E1B15
:10118300B030E0F275DC0075F490E46C77121AAAC3
:1011930074017E7008121AAA74077E703F121AAA8D
:1011A30074097E703F121AAA740B7E7007121AAA72
:1011B30074016C77121AAA74027AB30012E47AB338
:1011C30000137AB3001A7AB3001B7E3401007E2425
:1011D30000C27A1F02D17AB302D57AB302D6740859
:1011E3007AB302D7A9D7AF221E035300540043009A
:1011F3002000550053004200200053006500720098
:10120300690061006C00040309041201000202007A
:101213000040BF3402FF0001010200010902430044
:1012230002010080320904000001020201000524CA
:101233000010010524010001042402020524060014
:1012430001070582034000FF09040100020A0000B0
:10125300000705810240000007050102400000006D
:101263000001000803530054004300CA7BCA6BCA41
:101273005BCA4BCA3BCA2BCA1BCA0BC0D0C083C0B4
:10128300827EF1FC7406121A6E7CEB7402121A6EE3
:101293007CCB7404121A6E7CDB7CBE30E10312003B
:1012A300A17CBE30E2031217257CBC30E003121090
:1012B300537CBC30E1031218807CBC30E20312186B
:1012C300AD7CBD30E103120D137CBE30E003120090
:1012D3000A7AF1FCD082D083D0D0DA0BDA1BDA2B76
:1012E300DA3BDA4BDA5BDA6BDA7B32CA3B7A270218
:1012F3008F7F307A73028E7AB3028D1219757EB3A3
:10130300028D3EB01215407EB3028E1215401219A3
:10131300757EB3028D3EB04401121540E48017D2AE
:10132300031215997EA302910A3A2D377D267A1B63
:10133300B07EB30291047AB302917E27028F1B24FD
:101343007E7302910A37BD3240D5C2031215997ECE
:10135300A302910A3A2D377D267A1BB01219B0E405
:10136300DA3B22CAF8740E6C77121AAA7411121A95
:101373006E20E1537E370014BE34004028057EF012
:101383004080027CF77E0F00167C7F74201218D8F1
:101393000A2F7E3700149D327A3700140A157E1FF8
:1013A30000162D317A1F00167E3700144D33780F47
:1013B30074117E700A121AAAE47AB30013800874B7
:1013C300117E7002121AAADAF8227CABBEA00F2893
:1013D30002805175BD0075BE00E5BC54F04CBAF5F2
:1013E300BCA9D6BC000000000000000000007E7015
:1013F300FAA935BC2BA9C5BCA935DE0AE5BD7C6BB2
:101403006C77E5BE8013E5BD0A4B7D343E343E3434
:101413003E343E34E5BEC4540F0A4B4D437D342263
:101423001B7078CD7E341000227F7029A70001E560
:10143300DE54F04CBAF5DE29B700027005A9C5DE0B
:101443008003A9D5DE7E7B20BE201F280374FF22E4
:1014530029A70003BEA001280374FF222937000433
:10146300BE3003280374FF227CB3C42354E07C3BC7
:101473007CBA0354804C3B4C327E34FEA87E24005D
:101483007E7A1B30E4227EB30009BEB00D50507E3D
:10149300A003A490149A730214C10214C40214E2A8
:1014A3000214C70214E20214CA0214CD0214D002B9
:1014B30014D30214D60214D90214DC0214DF020A74
:1014C30061020E7C020FBA0216DB020F1B02009EA2
:1014D3000215ED020DD70217AC0219010200C50275
:1014E3001AFDCA3B7A2702907F307A73028F7AB350
:1014F300028E1219757EB3028E3EB012154050351E
:101503007EB3028F121540502C6D3380147F132E3F
:101513003702927E1BB0121540501A7E3702920B8F
:10152300347A3702927E370290BE37029238DE1247
:1015330019B0E480051219B07401DA3B22CA797C30
:10154300FB5395EF4396107EE0087CBF30E70543DD
:10155300A010800353A0EF12000343A02012000346
:1015630053A0DF3EF01BE078E14395105396EF1252
:10157300000343A020E5A00A3B5E3400107803D3A8
:101583008001C3920312000353A0DF5395EF4396E8
:1015930010A203DA7922CA796CFF4395105396EFB0
:1015A3001200037EE0083EF043A020120003E5A0F2
:1015B3000A3B5E34001068034EF00153A0DF1200B3
:1015C300031BE078E15395EF43961030030553A0D6
:1015D300EF800343A01012000343A0201200035323
:1015E300A0DF43A0107CBFDA79227EB30008B48069
:1015F300227EB3000B701C7EB3000A70167EB3000C
:101603000D70107EB3000C700A7E37000EBE3400DE
:10161300016803021AFD7EB30012B4040A7E341279
:10162300647E2400FF80087E3412627E2400FF7AE9
:101633001F00167E3400017A370014021AD075E9B0
:1016430000A9D7BA75EA00121824D2AF7EB30012EC
:10165300B404F912000E121852120B647E0802C66B
:10166300E47E3433337E244053120C477E0802C693
:1016730012001E7E141FCC7E0400FF7A1F02AE12DE
:1016830003307E3400141219E780E1740E6C771274
:101693001AAA7411121A6E30E03D7E0F00167420E0
:1016A3001217EA0A1B7E2700149D217A2700147E55
:1016B3001F00162D317A1F00167E3700144D337824
:1016C3000E74117E7048121AAAE47AB300132274BE
:1016D300117E7040021AAA22CAF87EB30008702352
:1016E3007EB3000D701D7EB3000C70177EB3000B2C
:1016F30070117EF3000ABEF08050087E37000E4D55
:10170300336805121AFD8017E47C7F121AAA4CFF76
:1017130068047403800274027AB30012121B0BDA9A
:10172300F822E46C77121AAA74027AB30012E47AEC
:10173300B30013740E7E7001121AAA74117E7048DE
:10174300121AAA740E7E7002121AAA74117E7048BD
:10175300121AAA740E7E7001121AAA74147E709063
:10176300121AAA740E6C77021AAA7584017E4404B5
:101773001FE47A49B01B4478F97EF802D77E04004F
:10178300FF7E141F8C0B0A405D44681A6920000217
:101793000B0E0B44800A7E0BB07A29B00B240B0C82
:1017A3001B4478F280DF0216417EB30012B4041D9D
:1017B3007EB30008B481167EB3000B70107EB300B5
:1017C3000D700A7E37000EBE3400016803021AFD55
:1017D3007E3412627E2400FF7A1F00167E340001DD
:1017E3007A370014021AD0CA3B7F30CAB80BFD7493
:1017F30016121A6E7AFBB039BFFFFF800C29BFFFA8
:10180300FE121A6E7A3BB00B747EFBA07CBA147A7C
:10181300FBB04CAA78E729BFFFFF9EF80003DA3B31
:101823002243B10353B2FC74807E34FE077E24004E
:101833007E7A1BB07E34FE077E24007E7E1BB03092
:10184300E0F275DC0075F490121166A9D7AF22CAD5
:101853003B6D777E6401000B741E64BE6400013827
:10186300F66D667D367D271200A67D263E2459320D
:1018730000210B64BE64010040E9DA3B22CAF8741C
:101883000E7E7001121AAA7411121A6E7CFB30E5D7
:101893000874117E7040121AAA7CBF30E2077411DB
:1018A3006C77121AAAC202DAF822CAF8740E7E7092
:1018B30002121AAA7411121A6E7CFB30E508741115
:1018C3007E7040121AAA7CBF30E20774116C771243
:1018D3001AAADAF822CA3BCA787F30CAB8800B7ECC
:1018E300FBB07E3B700B74121AAA29AFFFFF7CBAC0
:1018F3001439BFFFFF4CAA78E61BFDDA3B227EB307
:101903000012B4041B7EB30008B401147EB3000BB1
:10191300700E7EB3000D70087E37000E4D336803E2
:10192300021AFD021B0B7EB30012B404097EB3003E
:1019330008BEB0A16803021AFD7E1802D17A1F0007
:10194300167E37000E7A370014021AD07EB30012C7
:10195300B404097EB30008BEB0216803021AFD7EF9
:101963001802D17A1F00167E37000E7A3700140250
:101973001AEF5395EF43961043A01012000343A0B0
:101983002012000353A0EF12000353A0DF02000351
:1019930080120000000000000000000000000000B2
:1019A300000000007D231B344D2278E62253A0DF84
:1019B3001200035395EF43961053A0EF1200034315
:1019C300A02012000343A010227EB3000924DF6885
:1019D3000A14680A0BB1780902194F021929021A6D
:1019E3002E021AFDCA797D7380077E3403E8121A2A
:1019F300177D371B744D3378F1DA7922CA797D73F9
:101A030080077E3403E81219937D371B744D3378B6
:101A1300F1DA79227D237E3400037D131B147D319B
:101A230078F87D121B147D2178EC227EB30012B46A
:101A330004097EB30008BEB0216803021AFD021B2D
:101A43000B7A73028D7CAB74577C7A7E08028D7E91
:101A53002400010214E57CA77C7B0A5A2E54002043
:101A63001218D874117E7001021AAA7CABE5FC200F
:101A7300E7FB7CBA4480F5FCE5FC20E7FBE5EC22C0
:101A83007AB302B27E0802B27E3400011210DD7E08
:101A9300B302B2225395EF4396105395DF4396203A
:101AA30043A01043A020227CA77C7BE5FC20E7FB1E
:101AB3007CB7547FF5FC7AA1EC22CA1BC0D17E1FF0
:101AC30002210B1C7A1F0221D0D1DA1B3274037A54
:101AD300B3001374117E7040121AAA0213667C7B42
:101AE300A5BF0104A9D7BC22A9C7BC2274047AB339
:101AF300001374117E7040021AAA74057AB300139E
:101B030074117E7060021AAAE47AB3001374117E12
:101B13007048021AAA7C677C7B74570A260212EE6D
:101B2300C0D1B2EED0D132C0D1B2EDD0D132C0D11A
:101B3300B2ECD0D132C0D1B2EBD0D13228302900AF
:101B4300000000003CC90A353D48FB873D96A93F8C
:101B53003DC8BD233DFAB29E3E1640643E2F10AAF7
:101B63003E47C5AC3E605C033E78CFC03E888E9B4B
:101B73003E94A03C3EA09AED3EAC7CD93EB84428AE
:101B83003EC3EF073ECF7BC03EDAE87D3EE6336AD5
:101B93003EF15AF33EFC5D203F039C413F08F5A113
:101BA3003F0E39D63F1368273F187FBB3F1D7FD8B1
:101BB3003F2267943F2736593F2BEB4A3F3085C27C
:101BC3003F3504F73F3968403F3DAEF73F41D87397
:101BD3003F45E3FC3F49D10B3F4D9F0A3F514D40E9
:101BE3003F54DB383F58485A3F5B94213F5EBE0663
:101BF3003F61C5933F64AA543F676BD33F6A09AB08
:101C03003F6C83663F6ED8A13F7109073F7314444D
:101C13003F74FA053F76BA063F7853F43F79C79B82
:101C23003F7B14BA3F7C3B2E3F7D3AB43F7E132B60
:101C33003F7EC4723F7F4E663F7FB1073F7FEC46D6
:101C43003F8000003F7FEC463F7FB1073F7F4E66FA
:101C53003F7EC4723F7E132B3F7D3AB43F7C3B2EC5
:101C63003F7B14BA3F79C79B3F7853F43F76BA065C
:101C73003F74FA053F7314443F7109073F6ED8A1BF
:101C83003F6C83663F6A09AB3F676BD33F64AA54DB
:101C93003F61C5933F5EBE063F5B94213F58485A60
:101CA3003F54DB383F514D403F4D9F0A3F49D10BD5
:101CB3003F45E3FC3F41D8733F3DAEF73F396840B2
:101CC3003F3504F73F3085C23F2BEB4A3F27365958
:101CD3003F2267943F1D7FD83F187FBB3F13682780
:101CE3003F0E39D63F08F5A13F039C413EFC5D20E2
:101CF3003EF15AF33EE6336A3EDAE87D3ECF7BC0DF
:101D03003EC3EF073EB844283EAC7CD93EA09AEDD3
:101D13003E94A03C3E888E9B3E78CFC03E605C03E1
:101D23003E47C5AC3E2F10AA3E1640643DFAB29E14
:101D33003DC8BD233D96A93F3D48FB873CC90A35B5
:101D43003F8000003F7FEC463F7FB1073F7F4E66F9
:101D53003F7EC4723F7E132B3F7D3AB43F7C3B2EC4
:101D63003F7B14BA3F79C79B3F7853F43F76BA065B
:101D73003F74FA053F7314443F7109073F6ED8A1BE
:101D83003F6C83663F6A09AB3F676BD33F64AA54DA
:101D93003F61C5933F5EBE063F5B94213F58485A5F
:101DA3003F54DB383F514D403F4D9F0A3F49D10BD4
:101DB3003F45E3FC3F41D8733F3DAEF73F396840B1
:101DC3003F3504F73F3085C23F2BEB4A3F27365957
:101DD3003F2267943F1D7FD83F187FBB3F1368277F
:101DE3003F0E39D63F08F5A13F039C413EFC5D20E1
:101DF3003EF15AF33EE6336A3EDAE87D3ECF7BC0DE
:101E03003EC3EF073EB844283EAC7CD93EA09AEDD2
:101E13003E94A03C3E888E9B3E78CFC03E605C03E0
:101E23003E47C5AC3E2F10AA3E1640643DFAB29E13
:101E33003DC8BD233D96A93F3D48FB873CC90A35B4
:101E430000000000BCC90A35BD48FB87BD96A93F09
:101E5300BDC8BD23BDFAB29EBE164064BE2F10AAF4
:101E6300BE47C5ACBE605C03BE78CFC0BE888E9B48
:101E7300BE94A03CBEA09AEDBEAC7CD9BEB84428AB
:101E8300BEC3EF07BECF7BC0BEDAE87DBEE6336AD2
:101E9300BEF15AF3BEFC5D20BF039C41BF08F5A110
:101EA300BF0E39D6BF136827BF187FBBBF1D7FD8AE
:101EB300BF226794BF273659BF2BEB4ABF3085C279
:101EC300BF3504F7BF396840BF3DAEF7BF41D87394
:101ED300BF45E3FCBF49D10BBF4D9F0ABF514D40E6
:101EE300BF54DB38BF58485ABF5B9421BF5EBE0660
:101EF300BF61C593BF64AA54BF676BD3BF6A09AB05
:101F0300BF6C8366BF6ED8A1BF710907BF7314444A
:101F1300BF74FA05BF76BA06BF7853F4BF79C79B7F
:101F2300BF7B14BABF7C3B2EBF7D3AB4BF7E132B5D
:101F3300BF7EC472BF7F4E66BF7FB107BF7FEC46D3
:101F43004445425547001B5B313B33366D00494ED8
:101F5300464F001B5B313B33326D005741524E00FD
:101F63001B5B313B33336D004552524F52001B5BB9
:101F7300313B33316D000A001B5B306D005B257311
:101F83005D2025733A256420000001001C01000434
:101F930002BA00FF1FBD000402BE000000000004DF
:101FA30002C2000000000001001D0000010011003A
:101FB3000004022100000000000040535443495331
:0D1FC30050230000000000000025660A0009
:00000001FF
