:10000000021550CA79740E7E70011219F27414121E
:1000100019B67CFB30E60874147E70801219F27CED
:10002000BF20E0030200C47E1400407E040001747F
:10003000211215CD7AB300107E1F01214D237803C4
:100040000200C26CFF80737EB300111A3B7E0F0169
:10005000212D317D207E1BA00A4F2E4400407A9135
:10006000827A81837EEBE0BCEA7839047AB30011AE
:100070007E7300111A372D317D207E1BB0703974CC
:10008000146C771219F275F40075DC00E47E34FE0E
:10009000077E24007E7A1BB07E34000A1219007598
:1000A000C76080FE7E1F01217E1B70BCE778047450
:1000B000018001E47AB300110BF07E730010BC7F65
:1000C0003885D200DA7922021A442202110A020388
:1000D000636E00807CB1337CB033680D0468EF7CC4
:1000E000B5337CB43378037F10220468E17D5092ED
:1000F000F77D457D51BF2140067C807F017F121234
:1001000003267EA1D05CB004780320D5C17CB00466
:1001100078075002B2D502036B92D5BE80FF68F615
:100120007CB89CB06C00602AB418057C4102033F87
:1001300050FB80032F00047C9B5E900778F630E430
:10014000067C437D106D0030E3087C437C327C21CB
:100150000A0030F5199F10780E220203681B806890
:10016000F92F1150020B707CB530E7F1801B2D3157
:100170007CB5A5397C5B50110B80780302036B1EA4
:10018000341350034E60801A2B02033F5D22680D2A
:100190005D0078122D220B4068099F11222D000B63
:1001A0000078F90203631203265C800B8068082440
:1001B0008150072CB0500A02036B2CB0400302039D
:1001C000687C8B5D1178267CB17CA5BE1080680AA6
:1001D0005D33780DA5BD80057F100203556D00804D
:1001E000307F017C5B7CB17CA5AD1280245D3378CF
:1001F00006A5BD80F080E1CA887D41AD437CB17C1D
:10020000A5AD122D1450020B047C5BAD232F01DA37
:1002100088A42D05BE008040060B80780480982FAE
:10022000007C437C507C617C7202033FBE24FFFF54
:100230006806BE04FFFF78030203631203265CB066
:100240000468F57CB8A54868EF7CB870039F11225C
:10025000A5B8000302036B2E008150079C8038076D
:100260000203689C8050ED0A51C2E74D51780302A9
:1002700003557E5400807E901A6C0080061B9068A7
:10028000142F11BF1040049F104CAB0330E7EECA8F
:10029000A86CAA80E8DA39DA587C4ABE5080500A45
:1002A0001B8068BC2F1150020B7002033F7EA02000
:1002B000800C7EA01080057EA0086C556D333392B3
:1002C000D5500A6E34FFFF6E24FFFF0B1CA5EC33E4
:1002D00040062F11D5F0F6227CBA247EA2D5137CDD
:1002E000767C65A5CC92E77C5B227F707F517EC4D3
:1002F00000007ED401217E9402FD0203A44005E4A7
:100300007A7BB0227A7BB00B7C227F707F517E6F2C
:1003100000007E9403190203A44005E47A7BB02216
:100320007A7BB00B7C222D0092D50E104E10807D72
:10033000422D445002B2D54E50806C447CB8222CE1
:100340004450120B1C7E40005E507FBE18000078A7
:10035000040B806816A2D57CB8137C4B7CB592E761
:100360007C5B227E1CFFFF229F11227E24FF8020C7
:10037000D5026C456D3322540F2490D43440D430D0
:10038000F30CBEB0414007BEB05B500224204CCC01
:1003900068021BC00B84D389944CCC680B74201268
:1003A000038E80F5CA3B6D889F337CAE7E5BB00BBD
:1003B0005C7007C37D38DA3B8994B42569C2F37E4B
:1003C0005BB00B5CA5F824D0BEB00A501B7E500A6F
:1003D00020F60DAC5CA52D7CCB70034EF00180DDCA
:1003E000AC5DA52D7CDB80D524CFBEB01AA5E8502E
:1003F000055E00DFD2F3900779A3E4936011BCB0EF
:1004000078F77417934CAB30F6B34EF08080AEA300
:10041000E4936010BCB078F77416937C3B7423931C
:100420007C2B89147CB08013742012038E20F2057B
:10043000BEC00250F31B6D29B6000112038E0203E9
:10044000991B6E691600020B6A00BE08000078084E
:100450007E0400FF7E141AA720F21E4CCC681A7F7F
:1004600010E47E1B804C8868070B1C04BCBD78F22E
:10047000C2F6CA0B120578DA0B7E0BB060C0CA0B4D
:1004800012038EDA0B0B0C4CDD68EE1BD078EA8081
:10049000ADD2F07E101080037E10085EB05F800A3F
:1004A000D2F67E100A80057E100AC2F66D119F11E9
:1004B0007E00201B6C7E6B7030F6021A3720F1052F
:1004C0001B6C7E6B6030F6041A261A2430F0051B74
:1004D0006D0B6A20A5EC3382F692F6500A7CEA9FF7
:1004E000229F217F127CAE4C44780F7C457C567C49
:1004F000676C772E00F878EF80122F117CB3337C75
:100500003B9CB140047C3B0B70A5D8EE7CB230E044
:1005100005DAB8C44C3BCA380B207E00207E300080
:10052000BE18000078C1BE1008780730F404C2F489
:1005300080B5CA287CB2BCBD38027CBD120578DA11
:1005400028BC2D500A1BD0E4CA2812037780F07C07
:10055000B213DAB84004C4CAB8C4CA28BEF0804096
:10056000095CDD7805A5DA0260065EF07F1203778C
:10057000DA28A5DADA020399BEF001680F30F40236
:10058000240220F50620F70330F6010420F229BCEE
:10059000BC5025CAB87CBF13B0E67420501174302B
:1005A0007C8A5E80F068081205B85EA00F80031296
:1005B000038EDAB8BCBC78DB30F40F743012038ED3
:1005C000745830F302747812038E30F605742D02DD
:1005D000038E742B20F5F8742020F7F3221B6C7E19
:1005E0006BB010F1021B6C20F60B30E704F404D260
:1005F000F27CCB800520E7057CDB0203BD5EF07F4B
:1006000080F81B6E691600020B6A0030F0076D223D
:100610001B0A200B0D1B0A800203A8E46C22BE30CB
:1006200007500B7F1F2D312E34FFF77E39B0227C0F
:10063000BF20E7A8742E4EF08002038E120762409E
:100640003D7CBD7003047CDB1208797C3D4C336833
:10065000101B307CBE20E40912061B70044C33785A
:10066000F07CBD7CD3BEA0FD481CBCAB5818E49CFC
:10067000BA2CB31801E47CDB020703120762406E58
:100680007CBD041208797AFBA07CAE7CBDA2F492FA
:10069000F0C2F4400260010424051205787E30FFA8
:1006A0000B3012061BCA3812037720F0044CDD68A9
:1006B0000312062FDA38BC3D78E6740E1203777405
:1006C0002B7EFBA030F707742D6EA0FF0BA07AFBEA
:1006D000A012038E7EA00A7EFBB0847AFBA01203D8
:1006E000777EFBB01203779EF80008020399D2F2DE
:1006F0007ED00002045812076240F37CBA2CBD047D
:100700001208797AFBA07CBA7CAE30E701E40420C1
:10071000F4044CDD6805D2F0C2F4042CBD12057857
:100720006C337EFBB0601B20E712147AFBB012061C
:100730001BCA38120377DA380B3080E6047AFBB034
:100740001B3012061BCA381203774CDD68071206ED
:100750002F1BD080E19EF8000930F00312062F0213
:1007600003997CEA7CAF10F7037ED0067CFA1B6EFF
:10077000693600020B6A200207C12D2B204C42482B
:10078000232E0053584F44494355502A4E4645475F
:10079000000420800102001040419398A0A02DA7E2
:1007A00091DD02F67B3C0404040404040404050601
:1007B0000606064E614E002B494E46002D494E4618
:1007C000007D522D557CBE92E67CEB7CBA601F0406
:1007D00070287CB5C2E77E0400FF60067E1407B374
:1007E000D3227E1407BC40047E1407B7D322DA0953
:1007F0009F22CA2BCA2BC3CA09220A0A7E144D1093
:10080000AD109E083AF09E10267CB5C2E77EA05639
:100810007C9BA46E54FFFF2E54C511ACA92D15E48A
:10082000A539CAB8CA1B20E70A1208ECDA1B120263
:100830002C800AF4041208ECDA1B12018CDAA87C72
:10084000B5337CB4334E50806C4424822F1114781D
:10085000FBDA497407BE400A40099E400ACA0201F9
:10086000140BA0CA486C442F117F012F112F112F98
:10087000101478EFCA48CA49227F0F20E73ABEB069
:1008800007400274070A0B2D109E1400097E19B050
:100890002EB0FB501F4C116817E47A19B01B147E60
:1008A00019B0047A19B0B40A0BE47A19B0A5D9EDDD
:1008B0000BA074017A19B0225EE0BF223F800000D5
:1008C0004120000042C80000447A0000461C40005D
:1008D00047C35000497424004B1896804CBEBC207E
:1008E0005A0E1BCA6753C21C749DC5AE7C7B600642
:1008F0005407681623231209117CB75438680A7FFD
:100900001012090E12018C7F01227CB75438032487
:100910001C6CAA2E5408BC7E4400FF0B2A006912EE
:100920000002227D51AD037D027D21AD052D12AD6A
:10093000352D2122CA3B7F30E47AB300F97E541B67
:10094000D97E4400FF693200066922000469120062
:10095000020B2A007A1F00FE7A0F00FA9F117A1FFD
:10096000010274937E0800F91216707EB300F9300C
:10097000E0F074397E70947E0800FA7E240008123C
:100980000EF07E6300FD6C777E5300FC7C46E41223
:1009900002B2793300021B3A207E6300FF7E5300CF
:1009A000FE7C46E41202B279330006792300047E0D
:1009B0006301017E5301007C46E41202B2793300E8
:1009C0000A79230008691300066903000469F3002B
:1009D000020B3AE07F171200D46913000A69030082
:1009E000081200D47A1F01024D2368597E0F0102BC
:1009F0007F1712022C6D117E0442C812018C7933CC
:100A000000021B3A2069330006692300047E0F01AF
:100A10000212022C6D117E0442C812018C7933003F
:100A200006792300046933000A692300087E0F0158
:100A30000212022C6D117E0442C812018C7933001F
:100A40000A79230008DA3B22CAF87EF300087CBF4B
:100A50005480B480167EB3000B70307EB3000A70F1
:100A60002A7E37000EBE3400026803020B407CBFB2
:100A7000540F14681B14683B0BB16803020B407ED3
:100A8000B3000D70067EB3000C601E020B4080198F
:100A90007EB30012B4040F7EB3000D6003020B405E
:100AA0007EB3000C6003020B407E3410FE7E2400F7
:100AB000FF807D7EB30012B404067EB3000D600299
:100AC000807E7E73000C7CA75EA00F1B7068362EA4
:100AD000707F68040B7078687E2400017CBA600522
:100AE0003E241478FB7E73001A6C665C754D336887
:100AF0000A7E3411007E2400FF80357E3410FE7E95
:100B00002400FF802B7E2400017CBA60053E241463
:100B100078FB7E73001B6C665C754D33680A7E340F
:100B200011007E2400FF80087E3410FE7E2400FF2A
:100B30007A1F00167E3400027A3700148007800086
:100B4000121A448003121A05DAF8227EB30012BE8C
:100B5000B00268207EB30008701A7EB3000B7014D8
:100B60007EB3000D700E7EB3000C70087E37000E51
:100B70004D336803021A447EB3000AB4015F740463
:100B80007AB30012E47AB3001A7AB3001B740E7EB3
:100B900070011219F274127E70201219F274107E14
:100BA00070081219F2740E7E70021219F274127E1D
:100BB00070201219F274107E70081219F2740E7EF1
:100BC00070011219F274126C771219F274137E709C
:100BD000081219F2740E6C771219F2801074037AED
:100BE000B3001274FF7AB3001A7AB3001B021A6DB5
:100BF0007EB30012B404247EB30008B4021D7EB399
:100C0000000D6003020C897EB3000B707C7EB30084
:100C10000A70767E37000E4D336802806C7E63006A
:100C20000C7C765E700F1B60682F2E607F68040B53
:100C30006078567E2400017CB760053E241478FB62
:100C40007C656E60FF5E63001A7A63001A740E1290
:100C500019F274117E704080247E2400017CB760FC
:100C6000053E241478FB7C656E60FF5E63001B7A92
:100C700063001B740E1219F274147E70801219F244
:100C8000740E6C771219F28003021A44021A6D7EF8
:100C9000B300085480BEB0806803020D1A7EB30012
:100CA0000B1BB168191468280BB1786E7E3410A93B
:100CB0007E2400FF7A1F00167E34001280547E349A
:100CC00010BB7E2400FF7A1F00167E340043804252
:100CD0007EB3000A1468191468280BB1783C7E347E
:100CE00010A57E2400FF7A1F00167E3400048022A7
:100CF0007E3411027E2400FF7A1F00167E34000825
:100D000080107E3410877E2400FF7A1F00167E3408
:100D1000001E7A37001480058000021A447E3700D6
:100D20000EBE37001450047A370014021A05CA3B6D
:100D30007A3701487F306D337A37014B020DBF742B
:100D4000387AB3014A7E370148BE34003850047AFD
:100D500073014A1218B77E73014A0A572E540003D2
:100D6000900004F074AF900005F07E17014B7E34C4
:100D700000067E2400011B1A107E73014A0A37CA3E
:100D8000397F137E1400087E0400011217E71BFD53
:100D90007E73014A0A372E3400080A3712118A7E00
:100DA00073014A0A372D737E73014A0A272E3701D1
:100DB0004B7A37014B7E3701489D327A3701487EA6
:100DC0003701484D336803020D3FDA3B227EB30002
:100DD00012B404247EB30008B4021D7EB3000D607B
:100DE00003020E607EB3000B70767EB3000A707053
:100DF0007E37000E4D33680280667E63000C7C7681
:100E00005E700F1B60682C2E607F68040B6078504A
:100E10007E2400017CB760053E241478FB7C654E7F
:100E200063001A7A63001A740E1219F274117E703C
:100E30001080217E2400017CB760053E241478FBDD
:100E40007C654E63001B7A63001B740E1219F274EA
:100E5000147E70201219F2740E6C771219F280034E
:100E6000021A44021A6DCAF8740E6C771219F274E1
:100E7000111219B67CFB30E20F74117C7F5E70FB9F
:100E80001219F2E47AB300137CBF30E40A74117CC7
:100E90007F4E70801219F27EB3001324FD68461451
:100EA00068480BB278477CBF30E0427E0800087487
:100EB000201215CD7E37000E1216077A37000E7EEF
:100EC000B30008546024E0680D24E0680E244078E4
:100ED0000F1212C180171218838012121AA3800DEC
:100EE000121A4480081211F78003121471DAF822E2
:100EF000CA3B7A2701087F307A7301077AB301066B
:100F000012182C7EB301063EB012131D40071218B2
:100F1000D074FF80617EB3010712131D40071218C1
:100F2000D074FE805112182C7EB301063EB04401ED
:100F300012131D40071218D074FD803A6D338024BF
:100F40007E3701081B34BE37010A2803D38001C352
:100F500092031214207F132E37010A7A1BB07E37BA
:100F6000010A0B347A37010A7E370108BE37010ABD
:100F700038CE1218D0E4DA3B22CA3B7A3700F97F28
:100F8000307E3400C87A3700FEA9C7AF740E7E7079
:100F9000011219F26D337A3700FC7E2700F9BE2466
:100FA000004008057E704080027C757A7300FB74F7
:100FB000111219B630E0107E3700FE7D231B247A13
:100FC0002700FE4D3378E87F032E1700FC7EB30028
:100FD000FB7E70011219A17E7300FB0A277D322E61
:100FE0003700FC7A3700FC7E3700F99D327A3700F3
:100FF000F97E7300FBBE704050A0D202A9D7AFDAD1
:101000003B2253B2FC43B10374807E34FE077E243E
:10101000007E7A1BB07E34FE077E24007E7E1BB0ED
:1010200030E0F275DC0075F490E46C771219F2741C
:10103000017E70081219F274077E703F1219F27463
:10104000097E703F1219F2740B7E70071219F27448
:10105000016C771219F274027AB30012E47AB300C9
:10106000137AB3001A7AB3001B7E3401007E240089
:10107000C27A1F01417AB301457AB3014674087AF6
:10108000B30147A9D7AF221E0353005400430020E9
:1010900000550053004200200053006500720069B3
:1010A0000061006C00040309041201000202000048
:1010B00040BF3402FF0001010200010902430002A7
:1010C0000100803209040000010202010005240031
:1010D0001001052401000104240202052406000178
:1010E000070582034000FF09040100020A00000016
:1010F00007058102400000070501024000000000D2
:1011000001000803530054004300CA7BCA6BCA5B4A
:10111000CA4BCA3BCA2BCA1BCA0BC0D0C083C082F1
:101120007EF1FC74061219B67CEB74021219B67CBF
:10113000CB74041219B67CDB7CBE30E103121AA614
:101140007CBE30E2031215087CBC30E003120E6650
:101150007CBC30E10312169D7CBC30E2031216F514
:101160007CBD30E1031200037CBE30E0031200CAF4
:101170007AF1FCD082D083D0D0DA0BDA1BDA2BDA0A
:101180003BDA4BDA5BDA6BDA7B32CA3B7D737E3457
:1011900000C87A37001DA9C7AF740E7E70011219FE
:1011A000F26D66BE74004028057E704080027C7F30
:1011B0007A73001C74111219B630E0107E37001DCE
:1011C0007D231B247A27001D4D3378E87D162E14CD
:1011D00000007E0400017EB3001C7E70011219A184
:1011E0007E73001C0A272D629D72BE704050B4D2DF
:1011F00002A9D7AFDA3B22CAF8740E6C771219F243
:1012000074111219B620E1537E370014BE34004029
:1012100028057EF04080027CF77E0F00167C7F74EC
:101220002012174A0A2F7E3700149D327A37001495
:101230000A157E1F00162D317A1F00167E37001406
:101240004D33780F74117E700A1219F2E47AB300EC
:1012500013800874117E70021219F2DAF822CA3B68
:101260007F3074011217207E34014D1218E87E0879
:10127000012D1209347E1F012D793300021B3A2003
:1012800074021217207E34014D1218E87E08012DD9
:101290001209347E1F01317933000679230004746A
:1012A000031217207E34014D1218E87E08012D121A
:1012B00009347E1F01357933000A79230008DA3BAF
:1012C000227EB30009BEB00D50507EA003A4901240
:1012D000D2730212F90212FC02131A0212FF021355
:1012E0001A02130202130502130802130B02130E53
:1012F000021311021314021317020A48020BF00220
:101300000DCD0214BE020C8F0200C70213CC020BDB
:101310004B02158F021773021AA0021A44CA797C75
:10132000FB5395EF4396107EE0087CBF30E7054302
:10133000A010800353A0EF121A9943A020121A990B
:1013400053A0DF3EF01BE078E14395105396EF1277
:101350001A9943A020E5A00A3B5E3400107803D31D
:101360008001C39203121A9953A0DF5395EF43965D
:1013700010A203DA792275E900A9D7BA75EA00123A
:1013800016CA1219CBD2AF7EB30012B404F97E088C
:10139000002112125E7E1F00217A1F011D7E1F0098
:1013A000257A1F01197E1F00297A1F01157E08006A
:1013B0002D7E341B9B7E2400FF1202EA7E08002D46
:1013C000121A527E08002D120F7980C27EB30008D7
:1013D000B480227EB3000B701C7EB3000A70167EB0
:1013E000B3000D70107EB3000C700A7E37000EBE85
:1013F0003400016803021A447EB30012B4040A7E6A
:101400003411007E2400FF80087E3410FE7E24000C
:10141000FF7A1F00167E3400017A370014021A0585
:10142000CA796CFF4395105396EF7EE0083EF04377
:10143000A020121A99E5A00A3B5E34001068034E02
:10144000F00153A0DF121A991BE078E15395EF43A6
:10145000961030030553A0EF800343A010121A9991
:1014600043A020121A9953A0DF43A0107CBFDA7961
:1014700022740E6C771219F274111219B630E03D15
:101480007E0F001674201215CD0A1B7E2700149DB6
:10149000217A2700147E1F00162D317A1F00167E38
:1014A0003700144D33780E74117E70481219F2E42F
:1014B0007AB300132274117E70400219F222CAF826
:1014C0007EB3000870237EB3000D701D7EB3000C48
:1014D00070177EB3000B70117EF3000ABEF08050CF
:1014E000087E37000E4D336805121A448017E47CDD
:1014F0007F1219F24CFF68047403800274027AB3FD
:101500000012121A6DDAF822E46C771219F27402E2
:101510007AB30012E47AB30013740E7E70011219CC
:10152000F274117E70481219F2740E7E7002121954
:10153000F274117E70481219F2740E7E7001121945
:10154000F274147E70901219F2740E6C770219F214
:101550007584017E44041FE47A49B01B4478F97E07
:10156000F8014C7E0400FF7E141AAB0B0A405D4468
:10157000681A692000020B0E0B44800A7E0BB07AB9
:1015800029B00B240B0C1B4478F280DF0213767E0B
:10159000B30012B4041D7EB30008B481167EB300FC
:1015A0000B70107EB3000D700A7E37000EBE340043
:1015B000016803021A447E3410FE7E2400FF7A1F65
:1015C00000167E3400017A370014021A05CA3B7FE8
:1015D00030CAB80BFD74161219B67AFBB039BFFFCA
:1015E000FF800C29BFFFFE1219B67A3BB00B747E48
:1015F000FBA07CBA147AFBB04CAA78E729BFFFFFA6
:101600009EF80003DA3B227A3700F57E3400F67E3E
:101610002400007E1B307E3400F77E2400007A1BFD
:10162000307E3400F57E2400007E1B307E3400F8CE
:101630007E2400007A1B307E3700F72274806C779E
:1016400012180C74817E70FF12180C748F6C771254
:10165000180C74807E700112180C7E34000312186E
:10166000E874807E700312180C7E3400960218E82D
:10167000CA3B7F307AB3010612182C747212131D04
:101680007EB3010612131D12182C747312131DC29F
:10169000031214207A3BB01218D0DA3B22CAF87435
:1016A0000E7E70011219F274111219B67CFB30E52E
:1016B0000874117E70401219F27CBF30E207741179
:1016C0006C771219F2C202DAF822121A8474807E40
:1016D00034FE077E24007E7A1BB07E34FE077E2413
:1016E000007E7E1BB030E0F275DC0075F4901210C5
:1016F00002A9D7AF22CAF8740E7E70021219F274D2
:10170000111219B67CFB30E50874117E7040121975
:10171000F27CBF30E20774116C771219F2DAF8220A
:10172000CAF87CFB121A921BF068121BF068121B9D
:10173000F068122EF003780F121A92800AD2A2805B
:1017400006D2A18002D2A3DAF822CA3BCA787F303F
:10175000CAB8800B7EFBB07E3B700B741219F22965
:10176000AFFFFF7CBA1439BFFFFF4CAA78E61BFD20
:10177000DA3B227EB30012B4041B7EB30008B4012E
:10178000147EB3000B700E7EB3000D70087E370020
:101790000E4D336803021A44021A6D7EB30012B470
:1017A00004097EB30008BEB0A16803021A447E1883
:1017B00001417A1F00167E37000E7A370014021A94
:1017C000057EB30012B404097EB30008BEB02168E0
:1017D00003021A447E1801417A1F00167E37000E5C
:1017E0007A370014021A367F217F707F10800A7EBC
:1017F0002B307A1B300B540B34691FFFFD7D011B0E
:1018000004790FFFFD4D1178E67F1722CA797CF726
:101810007CEB12182C747212131D7CBE44801213C0
:101820001D7CBF12131D1218D0DA7922121A995397
:1018300095EF43961043A01043A020121A9953A08D
:10184000EF121A9953A0DF021A99801200000000CB
:1018500000000000000000000000000000007D23E8
:101860001B344D2278E62274047E34FE817E2400EF
:101870007E7A1BB01219747E34FE877E24007E7E31
:101880001BB0227EB3000924DF680A14680A0BB17A
:1018900078090217C102179B02198B021A44744F70
:1018A000900000F0744C900001F07445900002F03C
:1018B0007480900003F022744C900000F074439008
:1018C0000001F07444900002F07480900003F02254
:1018D0005395EF43961053A0EF121A9943A020128C
:1018E0001A9943A010021A99CA797D7380077E3431
:1018F00003E81219467D371B744D3378F1DA7922EB
:10190000CA797D7380077E3403E812184A7D371B3D
:10191000744D3378F1DA79227C7B1B71680B1B7074
:10192000680A0B717808C2A222C2A122C2A3227C3B
:101930007B1B71680B1B70680A0B717808D2A2229E
:10194000D2A122D2A3227D237E3400037D131B1457
:101950007D3178F87D121B147D2178EC227E34FED7
:10196000867E24007E7A1BB074027E34FE817A1B50
:10197000B00219747E34FE827E24007E7E1BB0305D
:10198000E6F27E1BB054BF7A1BB0227EB30012B4C5
:1019900004097EB30008BEB0216803021A44021A8B
:1019A0006D7CA77C7B0A5A2E54002012174A7411B2
:1019B0007E70010219F27CABE5FC20E7FB7CBA44A7
:1019C00080F5FCE5FC20E7FBE5EC22121A7A121AFE
:1019D000924391025392FD1219DF12163CE42253F6
:1019E00095EF4396105395DF43962043A01043A0F4
:1019F00020227CA77C7BE5FC20E7FB7CB7547FF5AD
:101A0000FC7AA1EC2274037AB3001374117E704047
:101A10001219F20211F774017E34FE817E24007ED9
:101A20007A1BB002197474067E34FE817E24007E17
:101A30007A1BB002197474047AB3001374117E70A7
:101A4000400219F274057AB3001374117E706002BB
:101A500019F26D3380020B347E0BB00B1470F72239
:101A60005395F143960E53B1BF43B24022E47AB38B
:101A7000001374117E70480219F2121A60C2A2C2D9
:101A8000A1C2A32243B10353B2FC22D2A2D2A1D25B
:101A9000A322C2A2C2A1C2A3227E3400050219461B
:101AA000021A44021A44222830290000C8002D00DE
:101AB0000000000000000000000000000000000026
:101AC0000000000000000000000000000000000016
:101AD0000000000000000000000000000000000006
:101AE00000000000000000000000000000000000F6
:101AF00000000000000000000000000000000000E6
:101B000000000000000000000000000000000000D5
:101B100000000000000000000000000000000000C5
:101B200000000000000000000000000000000000B5
:101B300000000000000000000000000000000000A5
:101B40000000000000000000000000000000000095
:101B50000000000000000000000000000000000085
:101B60000000000000000000000000000000000075
:101B7000000000000000000004012100FF1BD00055
:101B800004012500000000000401290000000000FD
:101B900001001F00000100110000005265643A2599
:101BA0002E3266252C477265656E3A252E326625E3
:101BB0002C426C75653A252E3266250A0035304E6A
:101BC000C1A6B4ABB8D0C6F7284E293A25640A009E
:101BD00040535443495350230000000000000000CC
:011BE0000004
:00000001FF
