:10000000021895CA79740E7E7001121B4574141281
:100010001B1C7CFB30E60874147E7080121B457C30
:10002000BF20E0030200C47E1400407E040001747F
:10003000211219127AB300107E1F009A4D23780303
:100040000200C26CFF80737EB300111A3B7E0F006A
:100050009A2D317D207E1BA00A4F2E4400407A91BC
:10006000827A81837EEBE0BCEA7839047AB30011AE
:100070007E7300111A372D317D207E1BB0703974CC
:10008000146C77121B4575F40075DC00E47E34FEB9
:10009000077E24007E7A1BB07E34000A121AD975BE
:1000A000C76080FE7E1F009A7E1B70BCE7780474D8
:1000B000018001E47AB300110BF07E730010BC7F65
:1000C0003885D200DA7922021B77220214CE02058B
:1000D000706E00807CB1337CB033680D0468EF7CB7
:1000E000B5337CB43378037F10220468E17D5092ED
:1000F000F77D457D51BF2140067C807F017F121234
:1001000005337EA1D05CB004780320D5C17CB00457
:1001100078075002B2D502057892D5BE80FF68F606
:100120007CB89CB06C00602AB418057C4102054C78
:1001300050FB80032F00047C9B5E900778F630E430
:10014000067C437D106D0030E3087C437C327C21CB
:100150000A0030F5199F10780E220205751B806881
:10016000F92F1150020B707CB530E7F1801B2D3157
:100170007CB5A5397C5B50110B8078030205781E95
:10018000341350034E60801A2B02054C5D22680D1B
:100190005D0078122D220B4068099F11222D000B63
:1001A0000078F90205701205335C800B8068082422
:1001B0008150072CB0500A0205782CB0400302058C
:1001C000757C8B5D1178267CB17CA5BE1080680A99
:1001D0005D33780DA5BD80057F100205626D00803E
:1001E000307F017C5B7CB17CA5AD1280245D3378CF
:1001F00006A5BD80F080E1CA887D41AD437CB17C1D
:10020000A5AD122D1450020B047C5BAD232F01DA37
:1002100088A42D05BE008040060B80780480982FAE
:10022000007C437C507C617C7202054CBE24FFFF45
:100230006806BE04FFFF78030205701205335CB048
:100240000468F57CB8A54868EF7CB870039F11225C
:10025000A5B800030205782E008150079C8038075E
:100260000205759C8050ED0A51C2E74D517803029A
:1002700005627E5400807E901A6C0080061B906898
:10028000142F11BF1040049F104CAB0330E7EECA8F
:10029000A86CAA80E8DA39DA587C4ABE5080500A45
:1002A0001B8068BC2F1150020B7002054C74F86C57
:1002B000AA6E40806E0080BEB0FF68277C837C976A
:1002C0005C3B5C7BBF10682AF4400D7C382D15F434
:1002D0005C3B500F0B04800B7C792D35F45C7B501C
:1002E000020B24BF10680B7CB020E7067CB420E72B
:1002F00001B3227EA020800C7EA01080057EA00885
:100300006C556D333392D5500A6E34FFFF6E24FF67
:10031000FF0B1CA5EC3340062F11D5F0F6227CBA5A
:10032000247EA2D5137C767C65A5CC92E77C5B22EB
:100330007CB5337CB43392D54E5080248140039FEA
:1003400011227C457C567C676C7724E0500E7E1C25
:10035000FFFF221E341E2450034E60800478F430C8
:10036000D50A6E34FFFF6E24FFFF0B1C227F507EE8
:10037000C400007ED400927E94037E0205B1400149
:10038000227CEACA89CA5BCA6B121B31DA6BDA5B60
:10039000DA897E94037E7CAE227F707F517EC4001A
:1003A000007ED400007E9403AC0205B14005E47ADF
:1003B0007BB0227A7BB00B7C227F507F617E9403DE
:1003C000C40205B14001227CEACA89CA5BCA6B1229
:1003D0001B31DA6BDA5BDA897E9403C47CAE227F50
:1003E000707F517E6F00007E9403EE0205B14005E0
:1003F000E47A7BB0227A7BB00B7C223A70FA83BC21
:10040000AAE9E43E81E0F8BF9DE9E63F80000039BB
:10041000283C1ABB9969663DA335E3BF255DE73FDC
:10042000C90FDB418DDBCCC44936EE45C9913FC5D0
:10043000B0F83D3F800000C317F534452FFA73C66E
:100440000AFDDD1204D204A2E192F77DE51420E05A
:100450001C7E9403FB7E8400FF74041209C080217B
:100460001204D230E1046EE4800020E0E47F617E7B
:1004700094040F7E8400FF74041209C07F061201E9
:100480008C7D5E5D2268055EA0806C4A221204D2DB
:10049000CAB87F617E9404337E8400FF740312091E
:1004A000C07F0612018C7F067F617F107E9404233B
:1004B0007E8400FF74031209C0DAB830E00B7F06B7
:1004C00012022C7D5EB2F780BA7F017F1612022CD9
:1004D00080AF7DE25E407FBE244F0040051BFD02E1
:1004E00005707E14F9837E043E2212018CBE243FE7
:1004F00080400E7F011203301202F36E4080120022
:10050000D4E45D2268242E240180BE243F80401A5A
:100510007F011203307CB704C2E07C4BCAB81202E0
:10052000FD6E40801200D4DAB8035D2268049E2478
:100530000080222D0092D50E104E10807D422D4459
:100540005002B2D54E50806C447CB8222C445012DC
:100550000B1C7E40005E507FBE18000078040B80AC
:100560006816A2D57CB8137C4B7CB592E77C5B22E5
:100570007E1CFFFF229F11227E24FF8020D5026C6B
:10058000456D3322540F2490D43440D430F30CBE44
:10059000B0414007BEB05B500224204CCC68021B27
:1005A000C00B84D389944CCC680B742012059B80BB
:1005B000F5CA3B6D889F337CAE7E5BB00B5C7007E9
:1005C000C37D38DA3B8994B42569C2F37E5BB00BF6
:1005D0005CA5F824D0BEB00A501B7E500A20F60D50
:1005E000AC5CA52D7CCB70034EF00180DDAC5DA52D
:1005F0002D7CDB80D524CFBEB01AA5E850055E0067
:10060000DFD2F3900986A3E4936011BCB078F7744D
:1006100017934CAB30F6B34EF08080AEA3E49360FA
:1006200010BCB078F77416937C3B7423937C2B89B1
:10063000147CB08013742012059B20F205BEC0020A
:1006400050F31B6D29B6000112059B0205A61B6E17
:10065000691600020B6A00BE08000078087E0400DC
:10066000FF7E141BAE20F21E4CCC681A7F10E47E75
:100670001B804C8868070B1C04BCBD78F2C2F6CA0C
:100680000B120785DA0B7E0BB060C0CA0B12059BFC
:10069000DA0B0B0C4CDD68EE1BD078EA80ADD2F0A3
:1006A0007E101080037E10085EB05F800AD2F67E56
:1006B000100A80057E100AC2F66D119F117E00207F
:1006C0001B6C7E6B7030F6021A3720F1051B6C7EB6
:1006D0006B6030F6041A261A2430F0051B6D0B6A85
:1006E00020A5EC3382F692F6500A7CEA9F229F21E5
:1006F0007F127CAE4C44780F7C457C567C676C77CF
:100700002E00F878EF80122F117CB3337C3B9CB124
:1007100040047C3B0B70A5D8EE7CB230E005DAB823
:10072000C44C3BCA380B207E00207E3000BE18002F
:100730000078C1BE1008780730F404C2F480B5CA4E
:10074000287CB2BCBD38027CBD120785DA28BC2DDE
:10075000500A1BD0E4CA2812058480F07CB213DA58
:10076000B84004C4CAB8C4CA28BEF08040095CDDE1
:100770007805A5DA0260065EF07F120584DA28A506
:10078000DADA0205A6BEF001680F30F40224022076
:10079000F50620F70330F6010420F229BCBC5025F1
:1007A000CAB87CBF13B0E67420501174307C8A5EE6
:1007B00080F068081207C55EA00F800312059BDA5F
:1007C000B8BCBC78DB30F40F743012059B74583021
:1007D000F302747812059B30F605742D02059B74A4
:1007E0002B20F5F8742020F7F3221B6C7E6BB010E1
:1007F000F1021B6C20F60B30E704F404D2F27CCB40
:10080000800520E7057CDB0205CA5EF07F80F81BCF
:100810006E691600020B6A0030F0076D221B0A2079
:100820000B0D1B0A800205B5E46C22BE3007500B8D
:100830007F1F2D312E34FFF77E39B0227CBF20E799
:10084000A8742E4EF08002059B12096F403D7CBDBE
:100850007003047CDB120AB37C3D4C3368101B3000
:100860007CBE20E40912082870044C3378F07CBD6B
:100870007CD3BEA0FD481CBCAB5818E49CBA2CB37A
:100880001801E47CDB02091012096F406E7CBD0484
:10089000120AB37AFBA07CAE7CBDA2F492F0C2F443
:1008A000400260010424051207857E30FF0B3012E0
:1008B0000828CA3812058420F0044CDD68031208A9
:1008C0003CDA38BC3D78E6740E120584742B7EFB4E
:1008D000A030F707742D6EA0FF0BA07AFBA01205C5
:1008E0009B7EA00A7EFBB0847AFBA01205847EFB6F
:1008F000B01205849EF800080205A6D2F27ED00050
:1009000002066512096F40F37CBA2CBD04120AB3CB
:100910007AFBA07CBA7CAE30E701E40420F4044CFE
:10092000DD6805D2F0C2F4042CBD1207856C337E5D
:10093000FBB0601B20E712147AFBB0120828CA38FB
:10094000120584DA380B3080E6047AFBB01B3012D3
:100950000828CA381205844CDD680712083C1BD0F1
:1009600080E19EF8000930F00312083C0205A67CE5
:10097000EA7CAF10F7037ED0067CFA1B6E69360066
:10098000020B6A200209FB2D2B204C4248232E002B
:1009900053584F44494355502A4E4645470004207A
:1009A0008001020010404EA0A5ADAD3AB49EEA0F02
:1009B000038849060606060606060607080908080B
:1009C000CAB87F0112018CDAB87F510B4A20693412
:1009D00000020B4E7F05CAB812018C0B4A00691445
:1009E00000020B4E1200D4DAB81478E8224E614EA1
:1009F000002B494E46002D494E46007D522D557C18
:100A0000BE92E67CEB7CBA601F0470287CB5C2E71E
:100A10007E0400FF60067E1409EDD3227E1409F6E1
:100A200040047E1409F1D322DA099F22CA2BCA2B73
:100A3000C3CA09220A0A7E144D10AD109E083AF06E
:100A40009E10267CB5C2E77EA0567C9BA46E54FF08
:100A5000FF2E54C511ACA92D15E4A539CAB8CA1B7F
:100A600020E70A120B26DA1B12022C800AF4041269
:100A70000B26DA1B12018CDAA87CB5337CB4334E1A
:100A800050806C4424822F111478FBDA497407BE1D
:100A9000400A40099E400ACA0201140BA0CA486CD1
:100AA000442F117F012F112F112F101478EFCA48F6
:100AB000CA49227F0F20E73ABEB007400274070AF6
:100AC0000B2D109E1400097E19B02EB0FB501F4C48
:100AD000116817E47A19B01B147E19B0047A19B0A2
:100AE000B40A0BE47A19B0A5D9ED0BA074017A19F8
:100AF000B0225EE0BF223F8000004120000042C8DB
:100B00000000447A0000461C400047C3500049746E
:100B100024004B1896804CBEBC205A0E1BCA67534B
:100B2000C21C749DC5AE7C7B6006540768162323E7
:100B3000120B4B7CB75438680A7F10120B48120115
:100B40008C7F01227CB7543803241C6CAA2E540AD3
:100B5000F67E4400FF0B2A0069120002227D51AD8F
:100B6000037D027D21AD052D12AD352D2122CA3B1D
:100B70007A1F006B7AB3006A7F30BE3800007803BA
:100B8000020C877EB3006ABEB0104003020C877E61
:100B9000A003A4900B9773020BC7020BCF020BD7D5
:100BA000020BDF020BE7020BEF020BF7020BFF0257
:100BB0000C07020C0F020C17020C1F020C27020C70
:100BC0002F020C37020C3D4391015392FE806E437D
:100BD00091025392FD80664391045392FB805E43E1
:100BE00091085392F780564391105392EF804E43F1
:100BF00091205392DF80464391405392BF803E4301
:100C0000918053927F80364393015394FE802E430C
:100C100093025394FD80264393045394FB801E4318
:100C200093085394F780164393105394EF800E4328
:100C300093205394DF80064393405394BF741F7AEC
:100C4000B3006F740F7AB30070E47AB300717AB3B3
:100C5000007274017AB300737E08006F1216147468
:100C600001121B856D33793300019F11793300091F
:100C7000792300077E1F006B793300057923000379
:100C80007E73006A7A3B70DA3B226D337E244248E1
:100C90007A1F006A7E3466667E243F667A1F006E85
:100CA0007E0800346D337E24447A120F856D337EC6
:100CB0002442487A1F006A7E3466667E243F667A44
:100CC0001F006E7E0800466D337E24447A120F8525
:100CD0006D337E2442487A1F006A7E3466667E2425
:100CE0003F667A1F006E7E0800586D337E24447A7A
:100CF000120F8575E900A9D7BA75EA001219AE7E00
:100D0000080025E47E3433337E244053120B6ED228
:100D1000AF7EB30012B404F97E0800251217217EBD
:100D200037002612184D7D237CB61202F87A1F0078
:100D3000307E080034CA0B7E1F0030120330DA0BFD
:100D4000120EA57D237CB61202F87E080046CA0B5F
:100D5000120330DA0B120EA57D237CB61202F87E48
:100D6000080058CA0B120330DA0B120EA57D237C43
:100D7000B61202F87F316DFF7EE447007E1F00301F
:100D80007F0712022C7A1F008E7F137F0712022C1E
:100D90007A1F008A7E141C3B7E0400FF12036D0242
:100DA0000D18CAF87EF300087CBF5480B480167E0C
:100DB000B3000B70307EB3000A702A7E37000EBE7F
:100DC0003400026803020E9A7CBF540F14681B148F
:100DD000683B0BB16803020E9A7EB3000D70067E6D
:100DE000B3000C601E020E9A80197EB30012B40488
:100DF0000F7EB3000D6003020E9A7EB3000C6003F9
:100E0000020E9A7E3414C27E2400FF807D7EB300E1
:100E100012B404067EB3000D6002807E7E73000C67
:100E20007CA75EA00F1B7068362E707F68040B7065
:100E300078687E2400017CBA60053E241478FB7E2D
:100E400073001A6C665C754D33680A7E3414C47E78
:100E50002400FF80357E3414C27E2400FF802B7E68
:100E60002400017CBA60053E241478FB7E73001BCD
:100E70006C665C754D33680A7E3414C47E2400FFB2
:100E800080087E3414C27E2400FF7A1F00167E3450
:100E900000027A37001480078000121B778003124B
:100EA0001B58DAF8227D437F700B7A301A261A24F9
:100EB0007D141A081A00120B5D740E7F511EB40EB9
:100EC000A450044EB480001478F369D7000A7D1D45
:100ED0001A021A00693700021A261A24120B5D74CE
:100EE0000E1E340E2450034E60801478F42F516986
:100EF00017000C1A021A00693700041A261A241265
:100F00000B5D740E1E340E2450034E60801478F472
:100F10002F516917000E1A021A00693700061A26A7
:100F20001A24120B5D740E1E340E2450034E608082
:100F30001478F49F51691700101A021A00693700DB
:100F4000081A261A24120B5D740E1E340E24500348
:100F50004E60801478F49F51BE587FFF08067E587B
:100F60007FFF800ABE5C800058047E5C80007D3B71
:100F700079D7000C7947000A6927000E79270010FD
:100F800079B7000E22CA3B7F717F307E0F006A7EE8
:100F9000340FDA7E2440C912018C7F0712022C7AAA
:100FA0001F00721204436D117E04C00012018C7A7E
:100FB0001F00767E1F00721204437F617E7F006EE9
:100FC0006D337E24C0007F0712018C7F0612018CD6
:100FD0007F617F177F0712018C7F717E3440001B79
:100FE0003A306D117E0446807E1F007612018C120D
:100FF0000330793300027E344000793300046D11F0
:101000007E0446807F1612018C120330793300066D
:101010006D117E0446807F1712018C1203307933E4
:1010200000086D337933000A7933000C7933000EF0
:1010300079330010DA3B227EB30012BEB002682082
:101040007EB30008701A7EB3000B70147EB3000DDF
:10105000700E7EB3000C70087E37000E4D336803AF
:10106000021B777EB3000AB4015F74047AB30012E6
:10107000E47AB3001A7AB3001B740E7E7001121B5F
:101080004574127E7020121B4574107E7008121B6E
:1010900045740E7E7002121B4574127E7020121B66
:1010A0004574107E7008121B45740E7E7001121B71
:1010B0004574126C77121B4574137E7008121B4521
:1010C000740E6C77121B45801074037AB30012748F
:1010D000FF7AB3001A7AB3001B021B937EB300128F
:1010E000B404247EB30008B4021D7EB3000D600377
:1010F0000211757EB3000B707C7EB3000A70767EA1
:1011000037000E4D336802806C7E63000C7C765E87
:10111000700F1B60682F2E607F68040B6078567E0E
:101120002400017CB760053E241478FB7C656E606A
:10113000FF5E63001A7A63001A740E121B45741165
:101140007E704080247E2400017CB760053E24141C
:1011500078FB7C656E60FF5E63001B7A63001B7426
:101160000E121B4574147E7080121B45740E6C7732
:10117000121B458003021B77021B937EB3000854A9
:1011800080BEB08068030212067EB3000B1BB168FC
:10119000191468280BB1786E7E34146D7E2400FF1C
:1011A0007A1F00167E34001280547E34147F7E2411
:1011B00000FF7A1F00167E34004380427EB3000A8F
:1011C0001468191468280BB1783C7E3414697E24A5
:1011D00000FF7A1F00167E34000480227E3414C67D
:1011E0007E2400FF7A1F00167E34000880107E34B3
:1011F000144B7E2400FF7A1F00167E34001E7A37BF
:10120000001480058000021B777E37000EBE370079
:101210001450047A370014021B587EB30012B40431
:10122000247EB30008B4021D7EB3000D60030212D9
:10123000AD7EB3000B70767EB3000A70707E37000F
:101240000E4D33680280667E63000C7C765E700F04
:101250001B60682C2E607F68040B6078507E240031
:10126000017CB760053E241478FB7C654E63001A50
:101270007A63001A740E121B4574117E701080215F
:101280007E2400017CB760053E241478FB7C654E0B
:1012900063001B7A63001B740E121B4574147E706E
:1012A00020121B45740E6C77121B458003021B77BE
:1012B000021B93CAF8740E6C77121B457411121B33
:1012C0001C7CFB30E20F74117C7F5E70FB121B45AF
:1012D000E47AB300137CBF30E40A74117C7F4E7053
:1012E00080121B457EB3001324FD68461468480B2A
:1012F000B278477CBF30E0427E08000874201219A3
:10130000127E37000E12194C7A37000E7EB3000899
:10131000546024E0680D24E0680E2440780F121613
:10132000718017121ABE8012121BAA800D121B7731
:10133000800812154E800312176EDAF822CA3B7A23
:101340003700937F307E3400C87A370098A9C7AF42
:10135000740E7E7001121B456D337A3700967E271E
:101360000093BE24004008057E704080027C757AA0
:101370007300957411121B1C30E0107E3700987DAD
:10138000231B247A2700984D3378E87F032E17001B
:10139000967EB300957E7001121B077E7300950A3E
:1013A000277D322E3700967A3700967E3700939D40
:1013B000327A3700937E730095BE704050A0D202FF
:1013C000A9D7AFDA3B2253B2FC43B10374807E3419
:1013D000FE077E24007E7A1BB07E34FE077E24004A
:1013E0007E7E1BB030E0F275DC0075F490E46C7723
:1013F000121B4574017E7008121B4574077E703FF6
:10140000121B4574097E703F121B45740B7E7007DA
:10141000121B4574016C77121B4574027AB30012DB
:10142000E47AB300137AB3001A7AB3001B7E340156
:10143000007E2400C27A1F00A67AB300AA7AB30005
:10144000AB74087AB300ACA9D7AF221E0353005483
:101450000043002000550053004200200053006567
:10146000007200690061006C0004030904120100AD
:101470000202000040BF3402FF0001010200010926
:10148000024300020100803209040000010202014F
:1014900000052400100105240100010424020205B6
:1014A00024060001070582034000FF090401000231
:1014B0000A00000007058102400000070501024004
:1014C0000000000001000803530054004300CA7BE1
:1014D000CA6BCA5BCA4BCA3BCA2BCA1BCA0BC0D059
:1014E000C083C0827EF1FC7406121B1C7CEB74026C
:1014F000121B1C7CCB7404121B1C7CDB7CBE30E1F9
:1015000003121BAD7CBE30E2031218057CBC30E038
:10151000031212B37CBC30E1031219817CBC30E2AF
:10152000031219D97CBD30E1031200037CBE30E008
:10153000031200CA7AF1FCD082D083D0D0DA0BDA61
:101540001BDA2BDA3BDA4BDA5BDA6BDA7B32CAF87E
:10155000740E6C77121B457411121B1C20E1537E14
:10156000370014BE34004028057EF04080027CF72E
:101570007E0F00167C7F7420121A040A2F7E37001B
:10158000149D327A3700140A157E1F00162D317A09
:101590001F00167E3700144D33780F74117E700AC9
:1015A000121B45E47AB30013800874117E70021296
:1015B0001B45DAF8227CABBEA00F2802805175BD16
:1015C0000075BE00E5BC54F04CBAF5BCA9D6BC0011
:1015D0000000000000000000007E70FAA935BC2B5E
:1015E000A9C5BCA935DE0AE5BD7C6B6C77E5BE807C
:1015F00013E5BD0A4B7D343E343E343E343E34E583
:10160000BEC4540F0A4B4D437D34221B7078CD7EEF
:10161000341000227F7029A70001E5DE54F04CBA97
:10162000F5DE29B700027005A9C5DE8003A9D5DE65
:101630007E7B20BE201F280374FF2229A70003BE43
:10164000A001280374FF2229370004BE30032803B9
:1016500074FF227CB3C42354E07C3B7CBA035480E7
:101660004C3B4C327E34FEA87E24007E7A1B30E454
:10167000227EB30009BEB00D50507EA003A4901688
:1016800082730216A90216AC0216CA0216AF02161F
:10169000CA0216B20216B50216B80216BB0216BE70
:1016A0000216C10216C40216C7020DA20210DC0205
:1016B000121A0217BB02117B0200C70216CD0210DC
:1016C000370218D4021A2D021BA7021B777EB30023
:1016D00008B480227EB3000B701C7EB3000A701623
:1016E0007EB3000D70107EB3000C700A7E37000EC2
:1016F000BE3400016803021B777EB30012B4040AF3
:101700007E3414C47E2400FF80087E3414C27E24FC
:1017100000FF7A1F00167E3400017A370014021B86
:1017200058CA3B7F30BE38000078086D337E24BF36
:101730008080387E3BB01215B579330001692300F3
:1017400001E41202F8691300056903000312018C19
:101750007E14F0007E04457F12022C793300097953
:101760002300076933000969230007DA3B22740E5E
:101770006C77121B457411121B1C30E03D7E0F006C
:101780001674201219120A1B7E2700149D217A2735
:1017900000147E1F00162D317A1F00167E370014AC
:1017A0004D33780E74117E7048121B45E47AB300F5
:1017B000132274117E7040021B4522CAF87EB300CA
:1017C0000870237EB3000D701D7EB3000C70177E71
:1017D000B3000B70117EF3000ABEF08050087E3714
:1017E000000E4D336805121B778017E47C7F121BB7
:1017F000454CFF68047403800274027AB30012122D
:101800001B93DAF822E46C77121B4574027AB3005A
:1018100012E47AB30013740E7E7001121B4574112A
:101820007E7048121B45740E7E7002121B457411A7
:101830007E7048121B45740E7E7001121B45741495
:101840007E7090121B45740E6C77021B457D23E45D
:101850001202F86DFF7EE445007F071200D17F077A
:1018600012022C7F716DDD7EC43F807F061202ADB7
:1018700028027F766DDD7EC4BF807F177F0612024F
:10188000AD50027F767E14FE007E0446FF7F171265
:10189000018C0203307584017E44041FE47A49B050
:1018A0001B4478F97EF800AC7E0400FF7E141BFB1D
:1018B0000B0A405D44681A692000020B0E0B44803D
:1018C0000A7E0BB07A29B00B240B0C1B4478F280F3
:1018D000DF020C8A7EB30012B4041D7EB30008B48C
:1018E00081167EB3000B70107EB3000D700A7E3738
:1018F000000EBE3400016803021B777E3414C27EE2
:101900002400FF7A1F00167E3400017A370014028B
:101910001B58CA3B7F30CAB80BFD7416121B1C7AC9
:10192000FBB039BFFFFF800C29BFFFFE121B1C7AE2
:101930003BB00B747EFBA07CBA147AFBB04CAA7847
:10194000E729BFFFFF9EF80003DA3B227A37002128
:101950007E3400227E2400007E1B307E3400237EF5
:101960002400007A1B307E3400217E2400007E1B80
:10197000307E3400247E2400007A1B307E37002322
:1019800022CAF8740E7E7001121B457411121B1CC2
:101990007CFB30E50874117E7040121B457CBF3023
:1019A000E20774116C77121B45C202DAF822121B8F
:1019B000A074807E34FE077E24007E7A1BB07E34C5
:1019C000FE077E24007E7E1BB030E0F275DC0075E1
:1019D000F4901213C6A9D7AF22CAF8740E7E700213
:1019E000121B457411121B1C7CFB30E50874117E20
:1019F0007040121B457CBF30E20774116C77121BDC
:101A000045DAF822CA3BCA787F30CAB8800B7EFB21
:101A1000B07E3B700B74121B4529AFFFFF7CBA14DC
:101A200039BFFFFF4CAA78E61BFDDA3B227EB300EC
:101A300012B4041B7EB30008B401147EB3000B7013
:101A40000E7EB3000D70087E37000E4D3368030222
:101A50001B77021B937EB30012B404097EB3000807
:101A6000BEB0A16803021B777E1800A67A1F00167D
:101A70007E37000E7A370014021B587EB30012B472
:101A800004097EB30008BEB0216803021B777E18EC
:101A900000A67A1F00167E37000E7A370014021B4C
:101AA000698012000000000000000000000000003B
:101AB00000000000007D231B344D2278E6227EB317
:101AC000000924DF680A14680A0BB17809021A7B3E
:101AD000021A55021AF1021B77CA797D7380077EBC
:101AE0003403E8121AA17D371B744D3378F1DA798B
:101AF000227EB30012B404097EB30008BEB0216890
:101B000003021B77021B937CA77C7B0A5A2E54008E
:101B100020121A0474117E7001021B457CABE5FC97
:101B200020E7FB7CBA4480F5FCE5FC20E7FBE5EC14
:101B3000227AB300927E0800927E34000112133D97
:101B40007EB30092227CA77C7BE5FC20E7FB7CB780
:101B5000547FF5FC7AA1EC2274037AB3001374115C
:101B60007E7040121B4502154E74047AB300137444
:101B7000117E7040021B4574057AB3001374117E08
:101B80007060021B457C7BA5BF0104A9D7BC22A9BC
:101B9000C7BC22E47AB3001374117E7048021B455F
:101BA00043B10353B2FC22021B77021B7722283079
:101BB00029004445425547001B5B313B33366D00DD
:101BC000494E464F001B5B313B33326D005741524B
:101BD0004E001B5B313B33336D004552524F520078
:101BE0001B5B313B33316D000A001B5B306D005BCA
:101BF00025735D2025733A256420000004009A00B7
:101C0000FF1C320004009E00000000000400A2003F
:101C10000000000001001C00000100110000003560
:101C2000304EC1A6B4ABB8D0C6F7284E293A2564C9
:101C30000A00405354434953502300252E34662C48
:061C4000252E34660A00A7
:00000001FF
