:10000000021ECFCA3B7A3701037F307EB300B3B400
:10001000040280030200AD6D337A3701067E34138B
:10002000887A370108A9C7AF740E7E7001121FFFCE
:1000300074111220E830E018A9D7AF7E34000A12FC
:1000400024217E3701081B347A370108685F80D588
:100050007E270103BE24004008057E704080027C9C
:10006000757A730105A9C7AFC202740E7E700112C2
:100070001FFF7F032E1701067EB301057E7001125C
:1000800027C7D202A9D7AF7E7301050A277D322E7A
:100090003701067A3701067E3701039D327A370130
:1000A000037E730105BE7040400302001DDA3B224F
:1000B0001226FB9F007E3430CC7E2400FF1200CE3F
:1000C0007E1430CC7E0400FF02281A0215BB7F701C
:1000D0007F517EC400007ED400A17E9400E1020125
:1000E000374005E47A7BB0227A7BB00B7C227F70AC
:1000F0007F517E6F012E7E9400FD0201374005E4A2
:100100007A7BB0227A7BB00B7C22540F2490D434BB
:1001100040D430F30CBEB0414007BEB05B50022467
:10012000204CCC68021BC00B84D389944CCC680B48
:10013000742012012180F5CA3B6D889F337CAE7E0E
:100140005BB00B5C7007C37D38DA3B8994B42569DA
:10015000C2F37E5BB00B5CA5F824D0BEB00A501B86
:100160007E500A20F60DAC5CA52D7CCB70034EF0C2
:100170000180DDAC5DA52D7CDB80D524CFBEB01A1F
:10018000A5E850055E00DFD2F390050CA3E4936070
:1001900011BCB078F77417934CAB30F6B34EF080C7
:1001A00080AEA3E4936010BCB078F77416937C3BE8
:1001B0007423937C2B89147CB0801374201201214A
:1001C00020F205BEC00250F31B6D29B600011201DA
:1001D0002102012C1B6E691600020B6A00BE08008A
:1001E0000078087E0400FF7E14288020F21E4CCC8C
:1001F000681A7F10E47E1B804C8868070B1C04BCC7
:10020000BD78F2C2F6CA0B12030BDA0B7E0BB0609C
:10021000C0CA0B120121DA0B0B0C4CDD68EE1BD0AF
:1002200078EA80ADD2F07E101080037E10085EB0B8
:100230005F800AD2F67E100A80057E100AC2F66D33
:10024000119F117E00201B6C7E6B7030F6021A37F6
:1002500020F1051B6C7E6B6030F6041A261A2430E0
:10026000F0051B6D0B6A20A5EC3382F692F6500A5E
:100270007CEA9F229F217F127CAE4C44780F7C4504
:100280007C567C676C772E00F878EF80122F117CFB
:10029000B3337C3B9CB140047C3B0B70A5D8EE7C17
:1002A000B230E005DAB8C44C3BCA380B207E0020DF
:1002B0007E3000BE18000078C1BE1008780730F408
:1002C00004C2F480B5CA287CB2BCBD38027CBD1221
:1002D000030BDA28BC2D500A1BD0E4CA2812010AED
:1002E00080F07CB213DAB84004C4CAB8C4CA28BECD
:1002F000F08040095CDD7805A5DA0260065EF07FDB
:1003000012010ADA28A5DADA02012CBEF001680F20
:1003100030F402240220F50620F70330F601042011
:10032000F229BCBC5025CAB87CBF13B0E67420507B
:100330001174307C8A5E80F0680812034B5EA00F57
:100340008003120121DAB8BCBC78DB30F40F7430C2
:10035000120121745830F302747812012130F6052D
:10036000742D020121742B20F5F8742020F7F3225C
:100370001B6C7E6BB010F1021B6C20F60B30E70497
:10038000F404D2F27CCB800520E7057CDB0201502F
:100390005EF07F80F81B6E691600020B6A0030F079
:1003A000076D221B0A200B0D1B0A8002013BE46C27
:1003B00022BE3007500B7F1F2D312E34FFF77E39C0
:1003C000B0227CBF20E7A8742E4EF08002012112DB
:1003D00004F5403D7CBD7003047CDB12060C7C3DC3
:1003E0004C3368101B307CBE20E4091203AE70044D
:1003F0004C3378F07CBD7CD3BEA0FD481CBCAB5810
:1004000018E49CBA2CB31801E47CDB0204961204B5
:10041000F5406E7CBD0412060C7AFBA07CAE7CBD60
:10042000A2F492F0C2F44002600104240512030B0E
:100430007E30FF0B301203AECA3812010A20F004DE
:100440004CDD68031203C2DA38BC3D78E6740E1244
:10045000010A742B7EFBA030F707742D6EA0FF0BF2
:10046000A07AFBA01201217EA00A7EFBB0847AFB59
:10047000A012010A7EFBB012010A9EF800080201D8
:100480002CD2F27ED0000201EB1204F540F37CBACC
:100490002CBD0412060C7AFBA07CBA7CAE30E701BE
:1004A000E40420F4044CDD6805D2F0C2F4042CBD51
:1004B00012030B6C337EFBB0601B20E712147AFB37
:1004C000B01203AECA3812010ADA380B3080E604E3
:1004D0007AFBB01B301203AECA3812010A4CDD6839
:1004E000071203C21BD080E19EF8000930F003120E
:1004F00003C202012C7CEA7CAF10F7037ED0067C9D
:10050000FA1B6E693600020B6A200205542D2B205F
:100510004C4248232E0053584F44494355502A4ECD
:10052000464547000420800102001040D4262B33AA
:1005300033C03A247095890ECF01020202020102F3
:100540000203030404034E614E002B494E46002D66
:10055000494E46007D522D557CBE92E67CEB7CBA1E
:10056000601F0470287CB5C2E77E0400FF60067E31
:10057000140546D3227E14054F40047E14054AD349
:1005800022DA099F22CA2BCA2BC3CA09220A0A7E71
:10059000144D10AD109E083AF09E10267CB5C2E7AF
:1005A0007EA0567C9BA46E54FFFF2E54C511ACA9AF
:1005B0002D15E4A539CAB8CA1B20E70A12067FDA4E
:1005C0001B121647800AF40412067FDA1B12164328
:1005D000DAA87CB5337CB4334E50806C4424822F2F
:1005E000111478FBDA497407BE400A40099E400A9C
:1005F000CA0201140BA0CA486C442F117F012F11AD
:100600002F112F101478EFCA48CA49227F0F20E714
:100610003ABEB007400274070A0B2D109E14000961
:100620007E19B02EB0FB501F4C116817E47A19B038
:100630001B147E19B0047A19B0B40A0BE47A19B00D
:10064000A5D9ED0BA074017A19B0225EE0BF223F5C
:100650008000004120000042C80000447A000046AB
:100660001C400047C35000497424004B1896804C2E
:10067000BEBC205A0E1BCA6753C21C749DC5AE7CFB
:100680007B60065407681623231206A47CB75438EF
:10069000680A7F101206A11216437F01227CB7540C
:1006A0003803241C6CAA2E54064F7E4400FF0B2AEC
:1006B0000069120002227D51AD037D027D21AD054E
:1006C0002D12AD352D2122CA3B7F617F706DAA7D31
:1006D0003A3E342E3428007A71827A61830BEAB074
:1006E0007D3B3E343E342D3F7D2E691100020B1AB6
:1006F000007D3A3E343E343E342D3D7D2C79110050
:10070000021B1A009F117D1A3E143E143E142D1D2B
:100710007D0C79300006792000040BA4BEA40200F1
:1007200078AD7EA400027D3A1E347A3700087E340C
:1007300002008D3A7A37000A6DFF0208D47E370036
:100740000AAD3F7F012F012F007F202E4400FF2E96
:10075000282C84693200020B2A207A1F000C2E04F8
:1007600000FF2E082884693000020B0A207A1F003F
:10077000107DEF0208C97EB700082DBE7D3E3E34D5
:100780003E343E347F062D13693000020B0A207A76
:100790001F001869300006692000047A1F001C7DC4
:1007A0003B3E343E343E342D3D7D2C691100020B1E
:1007B0001A007A0F001469910006698100047E0F07
:1007C00000107F141216437F317E0F000C7E1F0035
:1007D000141216437F0312163F7F017D3B3E343EC9
:1007E000343E342D3D7D2C791100021B1A007E0F02
:1007F000000C7F141216437F317E0F00107E1F0005
:10080000141216437F0312163B7D1B3E143E143E0A
:10081000142D1D7D0C79300006792000047D3B3EAF
:10082000343E343E342D3D7D2C691100020B1A00FC
:100830007E1F001812163B7F017D3E3E343E343E43
:10084000342D3D7D2C791100021B1A007D3B3E3476
:100850003E343E342D3D69110006690100047E1FBF
:10086000001C12163B7D1E3E143E143E142D1D7DB1
:100870000C79300006792000047D7B3E743E743E86
:10088000747F162D37691100020B1A007E1F0018A5
:1008900012163F7F017F162D37791100021B1A00B7
:1008A0007D7B3E743E743E747F162D3769110006C1
:1008B000690100047E1F001C12163F7F062D177968
:1008C000300006792000042DEABEE4020050030245
:1008D00007760BF47E370008BD3F280302073D3E34
:1008E000A4BEA402003803020726DA3B22CA3B7FDB
:1008F000317F709F666D337A3700F37EB700F37DEA
:10090000AB3EA43EA47F172D3A691100020B1A00DA
:100910007F1612163B7F617D3B0B347A3700F3BEA6
:1009200034020078D66D117E0444007F16121647FB
:100930007F616D337A3700F37EB700F33EB43EB487
:100940007F072D1B693000020B0A207F0612163F1D
:100950007F017D3B2E3420007A71827A6183791E7B
:1009600000021BEA207E3700F30B347A3700F3BE17
:1009700034020078C36D337A3700F37E2700F3E446
:1009800012168B7E140FDA7E0440C91216437E14B1
:1009900080007E0443FF12164712166D6DFF7EE441
:1009A0003F007F071216437F017F1712163F7EF725
:1009B00000F33EF43EF47D5F2E5420007AB1827A3B
:1009C000A183691E00020BEA001216437F017D3FDE
:1009D0002E3420007A71827A6183791E00021BEA2C
:1009E000207E3700F30B347A3700F3BE34020078F0
:1009F0008A7E1420007E0400017E3410007E2400D4
:100A0000011206C77E1410007E0400017E3400002F
:100A10007E2400011214B09F667A6F00F76D337A5E
:100A20003700F57E3400017A3700F37EB700F37D9E
:100A30002BE412168B7F031216436D117E044400C3
:100A40001216477F717E14F5C37E043F2812164F9D
:100A5000403B6D117E0440807F1712164F382E7D6B
:100A60003B3E343E342E3400007A71827A618369D1
:100A7000BE00020BEAA07E0F00F77F1512164F286A
:100A80000C7A5F00F77E3700F37A3700F57E370087
:100A9000F30B347A3700F3BE340100788E7EF70012
:100AA000F54DFF680F7E0F00F76D337E2442C812AC
:100AB000164F28047F1680147D2FE412168B7F03B7
:100AC0001216436D117E044400121647DA3B22CA07
:100AD000F87EF300A17CBF5480B480167EB300A4DE
:100AE00070307EB300A3702A7E3700A7BE340002A8
:100AF0006803020BC77CBF540F14681B14683B0BC0
:100B0000B16803020BC77EB300A670067EB300A5D2
:100B1000601E020BC780197EB300B3B4040F7EB30E
:100B200000A66003020BC77EB300A56003020BC7DB
:100B30007E3415AF7E2400FF807D7EB300B3B40405
:100B4000067EB300A66002807E7E7300A57CA75E51
:100B5000A00F1B7068362E707F68040B7078687E5B
:100B60002400017CBA60053E241478FB7E7300BB30
:100B70006C665C754D33680A7E3415B17E2400FFC7
:100B800080357E3415AF7E2400FF802B7E2400014B
:100B90007CBA60053E241478FB7E7300BC6C665CF6
:100BA000754D33680A7E3415B17E2400FF80087EBF
:100BB0003415AF7E2400FF7A1F00B77E3400027A1E
:100BC0003700B58007800012280C80031227EDDA69
:100BD000F82274017E34FE0B7E24007E7A1BB07EE8
:100BE00034FE907A1BB07E34FE947A1BB07E34FEC5
:100BF000917A1BB07E34FE927A1BB07E34FE937ADB
:100C00001BB07E34FE077E1BB044807A1BB07E345E
:100C1000FE077E24007E7E1BB030E0F2740A7E3434
:100C2000FE017E24007E7A1BB07E34FDF27E1BB076
:100C3000F59F7E34FDFF7E1BB0B45B257E34FDF94D
:100C40007E24007E7E1BB030E5177E34FDF87E24C6
:100C5000007E7E1BB0F5A6E59D54FC4403F59D8007
:100C6000157E34FDF77E24007E7E1BB0F5A6E59D43
:100C700054FC4402F59D7E34FE007E24007E7E1BE3
:100C8000B054FC7A1BB07E1BB044807A1BB0E5DC0C
:100C9000549F4440F5DC43DC807E3400011227433E
:100CA0007E34FE007E24007E7E1BB054F344047A22
:100CB0001BB074037E14FE017E04007E7A0BB07EAE
:100CC0001BB044407A1BB022CA79740E7E700112A8
:100CD0001FFF74141220E87CFB30E60874147E7049
:100CE00080121FFF7CBF20E003020DAA7E142C405F
:100CF0007E04000174211220757AB300A97E1F00C2
:100D0000AD4D237803020D916CFF807A7EB300AA6B
:100D10001A3B7E0F00AD2D317D207E1BA00A4F2E89
:100D2000442C407A91827A81837EEBE0BCEA784061
:100D3000047AB300AA7E7300AA1A372D317D207E73
:100D40001BB0704074146C77121FFFE47E34FE00F9
:100D50007E24007E7A1BB075F40053DCF07E34FEF6
:100D6000077A1BB07E34000A12272B75C76080FEFD
:100D70007E1F00AD7E1B70BCE7780474018001E427
:100D80007AB300AA0BF07E7300A9BC7F2803020D82
:100D90000CD2007E3700AB4D33680F7E3700AB9925
:100DA0003474146C77121FFFC200DA792212285FA4
:100DB00074FF7E0801327E700112284270097EB3F2
:100DC0000132BEB015680374012274097E08013334
:100DD0007E700112284260037402227EB301334404
:100DE000407AB3013374097E7301331227B2600372
:100DF0007402227E34000A12274374027E70E012CD
:100E000027B274037E70021227B2E47AB3013374FE
:100E1000067E7301331227B2600374032274047ECA
:100E20007301331227B2600374032274057E7301C9
:100E3000331227B2600374032274087E700F1227E6
:100E4000B274097E70031227B2740A7E70231227CF
:100E5000B2740C7E703F1227B2740D7E703F122761
:100E6000B274107E707F1227B274217E7001122737
:100E7000B2E47E0801347E700112284274017E08BB
:100E800001347E700112284274017AB30137E422E2
:100E90007EB300B3BEB00268207EB300A1701A7E9C
:100EA000B300A470147EB300A6700E7EB300A570CC
:100EB000087E3700A74D33680302280C7EB300A3D9
:100EC000B4015F74047AB300B3E47AB300BB7AB3BD
:100ED00000BC740E7E7001121FFF74127E7020120F
:100EE0001FFF74107E7008121FFF740E7E700212B6
:100EF0001FFF74127E7020121FFF74107E70081284
:100F00001FFF740E7E7001121FFF74126C77121F88
:100F1000FF74137E7008121FFF740E6C77121FFF90
:100F2000801074037AB300B374FF7AB300BB7AB352
:100F300000BC022835CA3B7F317A0F00BD7E543099
:100F4000E07E4400FF69320004692200020B2A108F
:100F50007A1F00C37A1700C1E47AB300C77E180075
:100F6000037A1F00D0E47E0800C77E700112284279
:100F70007E1F00D01B1C7A1F00D04D2368097EB352
:100F800000C75440B440DE74077E0800C17E70067E
:100F90001228427E6300C26C777E5300C10A257E10
:100FA0007300C36D227A1F00C87E6300C56C777E14
:100FB0007300C67A1F00CC7E0F00C87E1F00BD796B
:100FC0001100021B1A007E1F00CC793300021B3A6D
:100FD00020DA3B227E0800E97E1800ED120F357EF4
:100FE0004700E7BE440200502F7E1F00E9E41216BE
:100FF000917D543E543E542E5408007AB1827AA119
:1010000083793E00021BEA207D340B347A3700E7F7
:10101000BE340200785C80546D337A3700F17E373D
:1010200000F13E343E347D232E2408047A51827A26
:101030004183691E00020BEA002E3408007A718297
:101040007A6183791E00021BEA007E3700F10B34BF
:101050007A3700F1BE3401FF78C47E1F00E9E41244
:101060001691900FFC793E00021BEA2074017AB3BE
:1010700000E622CA3B7A3701217F306D337A37018F
:101080002402110474387AB301237E370121BE345F
:10109000003850047A7301231226987E7301230AC4
:1010A000572E540003902C04F074CF902C05F07E42
:1010B0001701247E342C067E2400011B1A107E7337
:1010C00001230A37CA397F137E142C087E040001DD
:1010D0001223741BFD7E7301230A372E3400080A85
:1010E0003712284D7E7301230A372D737E73012337
:1010F0000A272E3701247A3701247E3701219D32B9
:101100007A3701217E3701214D336803021084DADA
:101110003B22CA3B7A37011C7F306D337A37011F7F
:101120000211A374387AB3011E7E37011CBE34004D
:101130003850047A73011E1226B17E73011E0A57BD
:101140002E540003902C04F074AF902C05F07E1701
:10115000011F7E342C067E2400011B1A107E7301B1
:101160001E0A37CA397F137E142C087E0400011230
:1011700023741BFD7E73011E0A372E3400080A37C4
:1011800012284D7E73011E0A372D737E73011E0ACD
:10119000272E37011F7A37011F7E37011C9D327AB7
:1011A00037011C7E37011C4D336803021123DA3BE3
:1011B000227EB300B3B404247EB300A1B4021D7E2A
:1011C000B300A6600302124A7EB300A4707C7EB313
:1011D00000A370767E3700A74D336802806C7E6373
:1011E00000A57C765E700F1B60682F2E607F680400
:1011F0000B6078567E2400017CB760053E2414788D
:10120000FB7C656E60FF5E6300BB7A6300BB740E9F
:10121000121FFF74117E704080247E2400017CB771
:1012200060053E241478FB7C656E60FF5E6300BC45
:101230007A6300BC740E121FFF74147E7080121F3C
:10124000FF740E6C77121FFF800302280C022835F2
:101250007EB300A15480BEB08068030212DB7EB36F
:1012600000A41BB168191468280BB1786E7E341580
:101270005A7E2400FF7A1F00B77E34001280547E0D
:1012800034156C7E2400FF7A1F00B77E3400438043
:10129000427EB300A31468191468280BB1783C7E11
:1012A0003415567E2400FF7A1F00B77E3400048078
:1012B000227E3415B37E2400FF7A1F00B77E3400EF
:1012C0000880107E3415387E2400FF7A1F00B77E18
:1012D00034001E7A3700B58005800002280C7E3766
:1012E00000A7BE3700B550047A3700B50227ED538A
:1012F000B2FC43B10374807E34FE077E24007E7A04
:101300001BB07E34FE077E24007E7E1BB030E0F2F0
:1013100053DCF075F490E46C77121FFF74017E705B
:1013200008121FFF74077E703F121FFF74097E7042
:101330003F121FFF740B7E7007121FFF74016C7742
:10134000121FFF74027AB300B3E47AB300B47AB325
:1013500000BB7AB300BCC2027E3401007E2400C20E
:101360007A1F010A7AB3010E7AB3010F74087AB3B7
:101370000110A9D7AF74017AB301397EB301397076
:101380000B9F117A1F012E9F000200EE227EB300F8
:10139000B3B404247EB300A1B4021D7EB300A660E2
:1013A000030214207EB300A470767EB300A3707095
:1013B0007E3700A74D33680280667E6300A57C7689
:1013C0005E700F1B60682C2E607F68040B60785085
:1013D0007E2400017CB760053E241478FB7C654EBA
:1013E0006300BB7A6300BB740E121FFF74117E7022
:1013F0001080217E2400017CB760053E241478FB18
:101400007C654E6300BC7A6300BC740E121FFF74CF
:10141000147E7020121FFF740E6C77121FFF800362
:1014200002280C022835CAF8740E6C77121FFF745C
:10143000111220E87CFB30E20F74117C7F5E70FBA0
:10144000121FFFE47AB300B47CBF30E40A74117C4D
:101450007F4E7080121FFF7EB300B424FD684614D7
:1014600068480BB278477CBF30E0427E0800A17428
:10147000201220757E3700A71221C17A3700A77E7F
:10148000B300A1546024E0680D24E0680E24407885
:101490000F1217F58017122664801212287B800D18
:1014A00012280C800812172D80031219A8DAF822CE
:1014B000CA3B7A1F00D47F306D337A3700D87E372D
:1014C00000D83E343E343E347F032D1369D00002F1
:1014D0000B0AC07A6F00DA69300006692000047ACE
:1014E0001F00DE7F011216437F717F167F061216E2
:1014F000437F0712163B7A1F00E29F779F00121668
:101500004F50047A7F00E27E1F00E212164B7F01EB
:101510007E5700D83E543E547E1F00D42D3579119D
:1015200000021B1A007E3700D80B347A3700D8BE71
:101530003402004089DA3B221E035300540043006A
:101540002000550053004200200053006500720047
:10155000690061006C00040309041201000202002A
:101560000040BF3402FF00010102000109024300F4
:10157000020100803209040000010202010005247A
:1015800000100105240100010424020205240600C4
:1015900001070582034000FF09040100020A000060
:1015A000000705810240000007050102400000001D
:1015B0000001000803530054004300CA7BCA6BCAF1
:1015C0005BCA4BCA3BCA2BCA1BCA0BC0D0C083C064
:1015D000827EF1FC74061220E87CEB74021220E893
:1015E0007CCB74041220E87CDB7CBE30E103122843
:1015F0007F7CBE30E203121B207CBC30E00312145F
:10160000267CBC30E103121FC47CBC30E2031222F2
:10161000837CBD30E103120CC87CBE30E00312288D
:101620007E7AF1FCD082D083D0D0DA0BDA1BDA2BB1
:10163000DA3BDA4BDA5BDA6BDA7B3275ED1C22755A
:10164000ED1D2275ED1E2275ED1F2275ED20227510
:10165000ED21A5EF540FA2E064082275ED22A5EF5D
:10166000226E4080225E407F2275ED2D2275ED2E88
:101670002275ED2F226D117E043F8075ED302275AD
:10168000ED25A5EF227C7475ED27227D3275ED28BE
:101690002275ED292275ED322275ED312275ED337B
:1016A000A5EF22A5FF75ED342275ED35A5EF22A536
:1016B000FF75ED3622CA3B7A2701197F307A730114
:1016C000187AB301171226E37EB301173EB0121C3D
:1016D000C47EB30118121CC41226E37EB301173E68
:1016E000B04401121CC4E48017D204121BB47EA3C0
:1016F000011B0A3A2D377D267A1BB07EB3011B04ED
:101700007AB3011B7E2701191B247E73011B0A3744
:10171000BD3240D5C204121BB47EA3011B0A3A2D70
:10172000377D267A1BB012275AE4DA3B22CAF874B6
:101730000E6C77121FFF74111220E820E1537E37E0
:1017400000B5BE34004028057EF04080027CF77E64
:101750000F00B77C7F74201222AE0A2F7E3700B5AF
:101760009D327A3700B50A157E1F00B72D317A1FDA
:1017700000B77E3700B54D33780F74117E700A12B2
:101780001FFFE47AB300B4800874117E7002121F48
:10179000FFDAF8227A1F00FB7E3400FE7E24000070
:1017A0007E1B307E3400FF7E2400007A1B307E34A6
:1017B00000FD7E2400007E1B307E3401007E24006C
:1017C000007A1B307E3400FC7E2400007E1B307EBD
:1017D0003401017E2400007A1B307E3400FB7E241D
:1017E00000007E1B307E3401027E2400007A1B3014
:1017F0007E1F00FF227EB300A2BEB00D50507EA01F
:1018000003A49018067302182D02183002184E0215
:10181000183302184E02183602183902183C021802
:101820003F02184202184502184802184B020ACF1C
:101830000211B102138D021B6A02125002287502B6
:101840001903020E90021F0E0223000228780228BC
:101850000CCA3B7A2701137F307A7301127AB301E5
:10186000111226E37EB301113EB0121CC450357E26
:10187000B30112121CC4502C6D3380147F132E3709
:1018800001157E1BB0121CC4501A7E3701150B3493
:101890007A3701157E370113BE37011538DE12275E
:1018A0005AE4800512275A7401DA3B2275A0FF53CF
:1018B000963053953043963043953074FF7E34FE16
:1018C0004A7E24007E7A1BB0E47E34FE127A1BB07E
:1018D0007E34FE427A1BB07E34FE1A7A1BB07E3410
:1018E000FE227E1BB044CF7A1BB07E1BB054CF7A51
:1018F0001BB074FF7E34FE2A7A1BB07E34FE327A2F
:101900001BB0227EB300A1B480227EB300A4701C61
:101910007EB300A370167EB300A670107EB300A540
:10192000700A7E3700A7BE340001680302280C7ECF
:10193000B300B3B4040A7E3415B17E2400FF8008DE
:101940007E3415AF7E2400FF7A1F00B77E3400017D
:101950007A3700B50227EDCA3B7F707CF57CE67CC8
:10196000D77CCBCA7B0A366D222F110A1F6D00125D
:1019700006B6DA0B1211121226B17405902C04F07F
:1019800074A8902C05F0902C067AEBC0902C077A66
:10199000EBD0902C087AEBE0902C097AEBF07E34B7
:1019A000000A12284DDA3B22740E6C77121FFF7466
:1019B000111220E830E03D7E0F00B7742012207530
:1019C0000A1B7E2700B59D217A2700B57E1F00B730
:1019D0002D317A1F00B77E3700B54D33780E741164
:1019E0007E7048121FFFE47AB300B42274117E7037
:1019F00040021FFF22CA797A0F00491226CA745387
:101A0000902C04F0E4902C05F0902C06F0902C071C
:101A1000F07E3400497E2400007A1F012E7E142CB3
:101A2000087E0400017E1F00491200EE7D732E74B3
:101A300000087D370B340A3712284D7D37DA7922BA
:101A4000CAF87CFBBEF03B28037EF03B744C902C24
:101A500000F07445902C01F07444902C02F074282E
:101A6000902C03F0902C047AEBF00A3FCA397F10D7
:101A70007E142C057E0400011223741BFD0A3F2EE8
:101A80003400050A3712284DDAF822CAF87CFBBE6A
:101A9000F03B28037EF03B744C902C00F074459092
:101AA0002C01F07444902C02F07440902C03F090C0
:101AB0002C047AEBF00A3FCA397F107E142C057E85
:101AC0000400011223741BFD0A3F2E3400050A375F
:101AD00012284DDAF82275B0FF53B20353B1035305
:101AE000B2FC43B10374FF7E34FE4B7E24007E7A49
:101AF0001BB0E47E34FE137A1BB07E34FE437A1BA7
:101B0000B07E34FE1B7A1BB074FF7E34FE237A1B3A
:101B1000B07E34FE2B7A1BB07E34FE337A1BB022AB
:101B2000E46C77121FFF74027AB300B3E47AB30057
:101B3000B4C202740E7E7001121FFF74117E7048D1
:101B4000121FFF740E7E7002121FFF74117E704808
:101B5000121FFF740E7E7001121FFF74147E7090AE
:101B6000121FFF740E6C77021FFFCAF87EB300A12C
:101B700070237EB300A6701D7EB300A570177EB3E0
:101B800000A470117EF300A3BEF08050087E3700E1
:101B9000A74D33680512280C8017E47C7F121FFFC5
:101BA0004CFF68047403800274027AB300B31228F5
:101BB00035DAF822CA796CFF1228587EE0083EF028
:101BC00043A020122858E5A0C430E0034EF0015392
:101BD000A0DF1228581BE078E530040553A0EF8001
:101BE0000343A01012285843A02012285853A0DF06
:101BF00043A0107CBFDA79227590FF759200759131
:101C00000074FF7E34FE497E24007E7A1BB0E47EA1
:101C100034FE117A1BB07E34FE417A1BB07E34FE56
:101C2000197A1BB074FF7E34FE217A1BB07E34FE1D
:101C3000297A1BB07E34FE317A1BB0227CA77C7BD4
:101C4000744C902C00F07445902C01F07444902C4E
:101C500002F07428902C03F07402902C04F07CB7EE
:101C600054077E44000160053E441478FB7CB99023
:101C70002C05F0902C067AEBA07E34000702284D4C
:101C80007CA77C7B744C902C00F07445902C01F068
:101C90007444902C02F07440902C03F07402902C49
:101CA00004F07CB754077E44000160053E4414787C
:101CB000FB7CB9902C05F0902C067AEBA07E3400CA
:101CC0000702284DCA797CFB7EE0087CBF30E7051F
:101CD00043A010800353A0EF12285843A0201228DD
:101CE0005853A0DF3EF01BE078E112285843A020B3
:101CF000E5A0C420E003D38001C392031228585307
:101D0000A0DFA203DA79227C6B744C902C00F07473
:101D100045902C01F07444902C02F07428902C0310
:101D2000F07402902C04F0E4902C05F07CB654077B
:101D3000C40354F87C6B4E60807CB754074CB6905B
:101D40002C06F07E34000702284D7C6B744C902CDE
:101D500000F07445902C01F07444902C02F0744013
:101D6000902C03F07402902C04F0E4902C05F07C8D
:101D7000B65407C40354F87C6B4E60807CB754079C
:101D80004CB6902C06F07E34000702284DCA3B7CEE
:101D9000F57CE67CD77CCB7C7EAC7F121073122660
:101DA000987405902C04F074C8902C05F0902C06C3
:101DB0007AEBC0902C077AEBD0902C087AEBE0906D
:101DC0002C097AEBF07E34000A12284DDA3B227C93
:101DD0006B744C902C00F07445902C01F07444907E
:101DE0002C02F07428902C03F07402902C04F0E480
:101DF000902C05F05E60077CB6C40354F87C6B7CC5
:101E0000B754074CB6902C06F07E34000702284DDC
:101E10007C6B744C902C00F07445902C01F0744451
:101E2000902C02F07440902C03F07402902C04F07B
:101E3000E4902C05F05E60077CB6C40354F87C6B1C
:101E40007CB754074CB6902C06F07E34000702286D
:101E50004DCAF87CFB7A1F012A1226CA744C902CBA
:101E600004F07401902C05F0902C067AEBF0E490CD
:101E70002C07F07E0F012A7E342C087E2400017985
:101E80001100021B1A007E34000C12284DDAF822D1
:101E9000CA3B7F307A7301367AB3013512281A0BA8
:101EA000347F031211121226B17403902C04F074C3
:101EB000A7902C05F07EB30135902C06F07EB3017F
:101EC00036902C07F07E34000812284DDA3B22753C
:101ED00084017E44041FE47A49B01B4478F97EF8FB
:101EE00001397E0400FF7E1430840B0A405D446893
:101EF0001A692000020B0E0B44800A7E0BB07A296F
:101F0000B00B240B0C1B4478F280DF0200B07EB3D0
:101F100000B3B4041D7EB300A1B481167EB300A447
:101F200070107EB300A6700A7E3700A7BE34000191
:101F3000680302280C7E3415AF7E2400FF7A1F0050
:101F4000B77E3400017A3700B50227EDCA3B7D72B7
:101F50007CCB1226987406902C04F074C6902C0545
:101F6000F07401902C06F0902C077AEBC0902C08AE
:101F70007AEB707E342C097E2400011B1A707E34AB
:101F8000000B12284DDA3B22CA3B7D727CCB122615
:101F9000987406902C04F074C6902C05F07402908E
:101FA0002C06F0902C077AEBC0902C087AEB707E10
:101FB000342C097E2400011B1A707E34000B122879
:101FC0004DDA3B22CAF8740E7E7001121FFF7411A5
:101FD0001220E87CFB30E50874117E7040121FFF70
:101FE0007CBF30E20774116C77121FFF7E3700B19F
:101FF0004D3368067E3700B19934C202DAF8227C8C
:10200000A77C7BE5FC20E7FB7CB7547FF5FC000058
:1020100000000000000000000000000000000000C0
:1020200000000000000000000000000000000000B0
:102030000000000000007AA1EC22CA3B7D727CCB3C
:102040001226987406902C04F074C6902C05F0E4C7
:10205000902C06F0902C077AEBC0902C087AEB704D
:102060007E342C097E2400011B1A707E34000B1272
:10207000284DDA3B22CA3B7F30CAB80BFD741612DA
:1020800020E87AFBB039BFFFFF800C29BFFFFE12AA
:1020900020E87A3BB00B747EFBA07CBA147AFBB0CC
:1020A0004CAA78E729BFFFFF9EF80003DA3B22CA5B
:1020B0003B6D777E6402000B741E64BE64000138C1
:1020C000F66D667D367D271224027D237D363E34F3
:1020D0002E3428007A71827A61831BEA200B64BE59
:1020E00064020040DEDA3B227CABE5FC20E7FB7CAF
:1020F000BA4480F5FC000000000000000000000071
:1021000000000000000000000000000000000000CF
:1021100000000000000000000000000000E5EC22CC
:10212000CA3B1226CA7443902C04F0E4902C05F0AC
:10213000902C06F0902C07F07E340008CA397F10EE
:102140007E142C087E0400011223741BFD7E3400D3
:102150001012284DDA3B227EB300E6602EE47AB3FB
:1021600000E67E1408007E0400016D337E2442C820
:102170001208ED6D117E0442701216437A1F007131
:102180007E1430BA7E0400FF02225622CA3B7F3101
:102190001226CA7444902C04F07401902C05F0E4CB
:1021A000902C06F0902C07F07E342C087E24000141
:1021B000797100021B1A607E34000C12284DDA3B44
:1021C000227A3701267E3401277E2400007E1B30D0
:1021D0007E3401287E2400007A1B307E3401267E66
:1021E0002400007E1B307E3401297E2400007A1BEF
:1021F000307E3701282243BA8075E900E5EA54F8B9
:102200004401F5EA75F528121BF81218AC121AD61B
:10221000120BD27E3400011227431225567E340061
:1022200001122743D2AF0228287D230000000000BE
:10223000000000000000000000000000000000009E
:10224000000000000000000000000000007D321BC4
:10225000347D2378D622CA797A0F00757E340075D2
:102260007E2400007A1F012E7E142C007E040001C3
:102270007E1F00751200EE7D730A3712284D7D37E0
:10228000DA7922CAF8740E7E7002121FFF741112DE
:1022900020E87CFB30E50874117E7040121FFF7C43
:1022A000BF30E20774116C77121FFFDAF822CA3BC5
:1022B000CA787F30CAB8800B7EFBB07E3B700B744F
:1022C000121FFF29AFFFFF7CBA1439BFFFFF4CAAD2
:1022D00078E61BFDDA3B22CAF87CFB1226B17403B8
:1022E000902C04F074A3902C05F07402902C06F04E
:1022F000902C077AEBF07E34000812284DDAF82291
:102300007EB300B3B4041B7EB300A1B401147EB34A
:1023100000A4700E7EB300A670087E3700A74D3370
:10232000680302280C0228357EB300B3B404097E8A
:10233000B300A1BEB0A1680302280C7E18010A7A7E
:102340001F00B77E3700A77A3700B50227ED7EB3AE
:1023500000B3B404097EB300A1BEB0216803022813
:102360000C7E18010A7A1F00B77E3700A77A370063
:10237000B50227FE7F217F707F10800A7E2B307A86
:102380001B300B540B34691FFFFD7D011B04790FBB
:10239000FFFD4D1178E67F1722CAF87CFB122698C4
:1023A0007402902C04F074C5902C05F0902C067AE1
:1023B000EBF07E34000712284DDAF822CAF87CFBD5
:1023C0001226987402902C04F074C4902C05F0909E
:1023D0002C067AEBF07E34000712284DDAF822CA78
:1023E000F87CFB1226B17402902C04F074A5902C9A
:1023F00005F0902C067AEBF07E34000712284DDAB7
:10240000F8227D027D136D226D3380107D533E5482
:102410007D315E3400014D351E140B24BD0238ECB5
:1024200022801200000000000000000000000000F8
:1024300000000000007D231B344D2278E622122686
:10244000987402902C04F074C7902C05F0740190DD
:102450002C06F07E34000702284D12269874029054
:102460002C04F074C0902C05F07401902C06F07EC2
:1024700034000702284D1226B17402902C04F07427
:10248000A3902C05F07401902C06F07E3400070216
:10249000284D1226B17402902C04F074A4902C05DF
:1024A000F07401902C06F07E34000702284D1226AD
:1024B000987402902C04F074C2902C05F074019072
:1024C0002C06F07E34000702284D1226B1740290CB
:1024D0002C04F074A2902C05F07402902C06F07E6F
:1024E00034000702284D1226987402902C04F074D0
:1024F000C1902C05F07401902C06F07E3400070288
:10250000284D1226B17402902C04F074A0902C0572
:10251000F07401902C06F07E34000702284D12263C
:10252000B17402902C04F074A2902C05F074019008
:102530002C06F07E34000702284D1226B17402905A
:102540002C04F074A1902C05F07401902C06F07E00
:1025500034000702284D1212EF53B57F53B67F7E29
:102560003427DC1228707E1430CE7E0400FF02284F
:102570006B1226987402902C04F074C0902C05F015
:10258000E4902C06F07E34000702284D1226B17428
:1025900002902C04F074A4902C05F0E4902C06F02A
:1025A0007E34000702284D1226987402902C04F005
:1025B00074C7902C05F0E4902C06F07E34000702DE
:1025C000284D1226B17402902C04F074A0902C05B2
:1025D000F0E4902C06F07E34000702284D1226B15C
:1025E0007402902C04F074A3902C05F0E4902C0657
:1025F000F07E34000702284D1226987402902C04B5
:10260000F074C2902C05F0E4902C06F07E340007A4
:1026100002284D1226987402902C04F074C1902C5C
:1026200005F0E4902C06F07E34000702284D1226B7
:10263000B17402902C04F074A1902C05F0E4902C5D
:1026400006F07E34000702284D1226B17402902C49
:1026500004F074A2902C05F0E4902C06F07E340077
:102660000702284D7EB300A224DF680A14680A0B13
:10267000B1780902234E02232802279C02280CCAA3
:10268000F80A5B2E5400201220757CFB74146C77C2
:10269000121FFF7CBFDAF822744F902C00F0744CAC
:1026A000902C01F07445902C02F07480902C03F073
:1026B00022744C902C00F07443902C01F0744490E0
:1026C0002C02F07480902C03F0227437902C00F0D0
:1026D0007453902C01F07445902C02F07447902CA8
:1026E00003F02243A01012285843A0201228585368
:1026F000A0EF12285853A0DF0228581221F612200A
:10270000AF120DAD120FD41221577E34000A1227DA
:102710004380F1A9C7AF740E7E7001121FFF7414BD
:102720006C77121FFFC200A9D7AF22CA797D7380D0
:10273000077E3403E81224217D371B744D3378F172
:10274000DA79227D237E341A0A7D131B147D3178B9
:10275000F87D121B147D2178EC2253A0DF1228583B
:1027600053A0EF12285843A02012285843A010224B
:102770001226B17401902C04F074A6902C05F07E02
:1027800034000602284D1226987401902C04F0742F
:10279000C3902C05F07E34000602284D7EB300B3B2
:1027A000B404097EB300A1BEB021680302280C0264
:1027B00028357A7301387CAB74577C7A7E080138EF
:1027C0007E2400010218517CA77C7B0A5A2E5400FB
:1027D000201222AE74117E7001021FFF7E142C4065
:1027E0007E0400017E7300A90A3702000374037A95
:1027F000B300B474117E7040121FFF02172D7404D1
:102800007AB300B474117E7040021FFF74057AB36E
:1028100000B474117E7060021FFF6D3380020B34B0
:102820007E0BB00B1470F722800343C1107EB300FF
:10283000B3B404F622E47AB300B474117E70480293
:102840001FFF7C677C7B74570A260216B57E142C0A
:10285000007E0400010200037E34000102222943AD
:10286000A01043A020227A3700B1227A0F00AD22B7
:102870007A3700AB2202280C02280C02280C2222F4
:1028800028302900000000003C4910803CC90A356E
:102890003D16C2F03D48FB873D7B2BBB3D96A93FD3
:1028A0003DAFB6563DC8BD233DE1BC123DFAB29ED8
:1028B0003E03AABD3E1640643E22ABAC3E2F10AA9A
:1028C0003E3B6ED63E47C5AC3E54152B3E605C0386
:1028D0003E6C9A783E78CFC03E827DCC3E888E9BFF
:1028E0003E8E9A2C3E94A03C3E9AA0883EA09AED43
:1028F0003EA68F083EAC7CD93EB263FA3EB844286F
:102900003EBE1D433EC3EF073EC9B9523ECF7BC01A
:102910003ED536503EDAE87D3EE092473EE6336AE9
:102920003EEBCBC53EF15AF33EF6E0D23EFC5D20D5
:102930003F00E7DE3F039C413F064B883F08F5A17F
:102940003F0B9A6B3F0E39D63F10D3D03F13682709
:102950003F15F6DC3F187FBB3F1B02C53F1D7FD8EC
:102960003F1FF6D33F2267943F24D22D3F2736598D
:102970003F2994183F2BEB4A3F2E3BDE3F3085C268
:102980003F32C8C53F3504F73F373A263F396840E4
:102990003F3B8F363F3DAEF73F3FC7603F41D87367
:1029A0003F43E1FC3F45E3FC3F47DE613F49D10B3C
:1029B0003F4BBBF93F4D9F0A3F4F7A1C3F514D4063
:1029C0003F5318443F54DB383F5695EA3F58485A26
:1029D0003F59F2673F5B94213F5D2D563F5EBE0637
:1029E0003F6046203F61C5933F633C603F64AA540B
:1029F0003F660F803F676BD33F68BF3C3F6A09ABC0
:102A00003F6B4B0E3F6C83663F6DB2923F6ED8A119
:102A10003F6FF5733F7109073F72134D3F731444C5
:102A20003F740BDD3F74FA053F75DECE3F76BA0684
:102A30003F778BBD3F7853F43F7912993F79C79B1D
:102A40003F7A72FC3F7B14BA3F7BACC53F7C3B2E88
:102A50003F7CBFC23F7D3AB43F7DABD23F7E132B5C
:102A60003F7E70B03F7EC4723F7F0E5E3F7F4E66FA
:102A70003F7F84A93F7FB1073F7FD3913F7FEC46E3
:102A80003F7FFB163F8000003F7FFB163F7FEC46F9
:102A90003F7FD3913F7FB1073F7F84A93F7F4E6641
:102AA0003F7F0E5E3F7EC4723F7E70B03F7E132B31
:102AB0003F7DABD23F7D3AB43F7CBFC23F7C3B2ED3
:102AC0003F7BACC53F7B14BA3F7A72FC3F79C79B12
:102AD0003F7912993F7853F43F778BBD3F76BA0622
:102AE0003F75DECE3F74FA053F740BDD3F7314442F
:102AF0003F72134D3F7109073F6FF5733F6ED8A1C9
:102B00003F6DB2923F6C83663F6B4B0E3F6A09ABE1
:102B10003F68BF3C3F676BD33F660F803F64AA545A
:102B20003F633C603F61C5933F6046203F5EBE0609
:102B30003F5D2D563F5B94213F59F2673F58485AFD
:102B40003F5695EA3F54DB383F5318443F514D40C0
:102B50003F4F7A1C3F4D9F0A3F4BBBF93F49D10B7A
:102B60003F47DE613F45E3FC3F43E1FC3F41D87313
:102B70003F3FC7603F3DAEF73F3B8F363F39684030
:102B80003F373A263F3504F73F32C8C53F3085C24C
:102B90003F2E3BDE3F2BEB4A3F2994183F27365907
:102BA0003F24D22D3F2267943F1FF6D33F1D7FD88D
:102BB0003F1B02C53F187FBB3F15F6DC3F1368275C
:102BC0003F10D3D03F0E39D63F0B9A6B3F08F5A18B
:102BD0003F064B883F039C413F00E7DE3EFC5D2003
:102BE0003EF6E0D23EF15AF33EEBCBC53EE6336A09
:102BF0003EE092473EDAE87D3ED536503ECF7BC080
:102C00003EC9B9523EC3EF073EBE1D433EB84428FD
:102C10003EB263FA3EAC7CD93EA68F083EA09AED48
:102C20003E9AA0883E94A03C3E8E9A2C3E888E9B75
:102C30003E827DCC3E78CFC03E6C9A783E605C038D
:102C40003E54152B3E47C5AC3E3B6ED63E2F10AAD8
:102C50003E22ABAC3E1640643E09CF9A3DFAB29E8E
:102C60003DE1BC123DC8BD233DAFB6563D96A93FE0
:102C70003D7B2BBB3D48FB873D16C2F03CC90A3566
:102C80003C4910803F8000003F7FFB163F7FEC46B1
:102C90003F7FD3913F7FB1073F7F84A93F7F4E663F
:102CA0003F7F0E5E3F7EC4723F7E70B03F7E132B2F
:102CB0003F7DABD23F7D3AB43F7CBFC23F7C3B2ED1
:102CC0003F7BACC53F7B14BA3F7A72FC3F79C79B10
:102CD0003F7912993F7853F43F778BBD3F76BA0620
:102CE0003F75DECE3F74FA053F740BDD3F7314442D
:102CF0003F72134D3F7109073F6FF5733F6ED8A1C7
:102D00003F6DB2923F6C83663F6B4B0E3F6A09ABDF
:102D10003F68BF3C3F676BD33F660F803F64AA5458
:102D20003F633C603F61C5933F6046203F5EBE0607
:102D30003F5D2D563F5B94213F59F2673F58485AFB
:102D40003F5695EA3F54DB383F5318443F514D40BE
:102D50003F4F7A1C3F4D9F0A3F4BBBF93F49D10B78
:102D60003F47DE613F45E3FC3F43E1FC3F41D87311
:102D70003F3FC7603F3DAEF73F3B8F363F3968402E
:102D80003F373A263F3504F73F32C8C53F3085C24A
:102D90003F2E3BDE3F2BEB4A3F2994183F27365905
:102DA0003F24D22D3F2267943F1FF6D33F1D7FD88B
:102DB0003F1B02C53F187FBB3F15F6DC3F1368275A
:102DC0003F10D3D03F0E39D63F0B9A6B3F08F5A189
:102DD0003F064B883F039C413F00E7DE3EFC5D2001
:102DE0003EF6E0D23EF15AF33EEBCBC53EE6336A07
:102DF0003EE092473EDAE87D3ED536503ECF7BC07E
:102E00003EC9B9523EC3EF073EBE1D433EB84428FB
:102E10003EB263FA3EAC7CD93EA68F083EA09AED46
:102E20003E9AA0883E94A03C3E8E9A2C3E888E9B73
:102E30003E827DCC3E78CFC03E6C9A783E605C038B
:102E40003E54152B3E47C5AC3E3B6ED63E2F10AAD6
:102E50003E22ABAC3E1640643E09CF9A3DFAB29E8C
:102E60003DE1BC123DC8BD233DAFB6563D96A93FDE
:102E70003D7B2BBB3D48FB873D16C2F03CC90A3564
:102E80003C49108000000000BC491080BCC90A35D4
:102E9000BD16C2F0BD48FB87BD7B2BBBBD96A93FCD
:102EA000BDAFB656BDC8BD23BDE1BC12BDFAB29ED2
:102EB000BE09CF9ABE164064BE22ABACBE2F10AA8C
:102EC000BE3B6ED6BE47C5ACBE54152BBE605C0380
:102ED000BE6C9A78BE78CFC0BE827DCCBE888E9BF9
:102EE000BE8E9A2CBE94A03CBE9AA088BEA09AED3D
:102EF000BEA68F08BEAC7CD9BEB263FABEB8442869
:102F0000BEBE1D43BEC3EF07BEC9B952BECF7BC014
:102F1000BED53650BEDAE87DBEE09247BEE6336AE3
:102F2000BEEBCBC5BEF15AF3BEF6E0D2BEFC5D20CF
:102F3000BF00E7DEBF039C41BF064B88BF08F5A179
:102F4000BF0B9A6BBF0E39D6BF10D3D0BF13682703
:102F5000BF15F6DCBF187FBBBF1B02C5BF1D7FD8E6
:102F6000BF1FF6D3BF226794BF24D22DBF27365987
:102F7000BF299418BF2BEB4ABF2E3BDEBF3085C262
:102F8000BF32C8C5BF3504F7BF373A26BF396840DE
:102F9000BF3B8F36BF3DAEF7BF3FC760BF41D87361
:102FA000BF43E1FCBF45E3FCBF47DE61BF49D10B36
:102FB000BF4BBBF9BF4D9F0ABF4F7A1CBF514D405D
:102FC000BF531844BF54DB38BF5695EABF58485A20
:102FD000BF59F267BF5B9421BF5D2D56BF5EBE0631
:102FE000BF604620BF61C593BF633C60BF64AA5405
:102FF000BF660F80BF676BD3BF68BF3CBF6A09ABBA
:10300000BF6B4B0EBF6C8366BF6DB292BF6ED8A113
:10301000BF6FF573BF710907BF72134DBF731444BF
:10302000BF740BDDBF74FA05BF75DECEBF76BA067E
:10303000BF778BBDBF7853F4BF791299BF79C79B17
:10304000BF7A72FCBF7B14BABF7BACC5BF7C3B2E82
:10305000BF7CBFC2BF7D3AB4BF7DABD2BF7E132B56
:10306000BF7E70B0BF7EC472BF7F0E5EBF7F4E66F4
:10307000BF7F84A9BF7FB107BF7FD391BF7FEC46DD
:10308000BF7FFB160001013700000200E7000000CF
:103090000400E900000000000400ED000000000052
:1030A0000100AA00000200AB0000000400AD00FF18
:1030B00030D7000200B10000000048656172743A28
:1030C00020252E31662042504D0D0A00300040531D
:1030D0005443495350230040535443495350230011
:0630E000000000000000EA
:00000001FF
