:100000000218C102179CE47AB3001374117E704881
:10001000021BC30200CACA3B7F30CAB80BFD74166C
:10002000121B867AFBB039BFFFFF800C29BFFFFE91
:10003000121B867A3BB00B747EFBA07CBA147AFB51
:10004000B04CAA78E729BFFFFF9EF80003DA3B22F5
:10005000021BF5021C18021BF52222021C19E47A6D
:10006000B3006E7AB3006F7AB300706D337A3700E5
:100070007174137AB30073E47AB300747E08006E6F
:10008000020B87021C1AD2A05395FE43960153B16E
:10009000FB53B2FB7E34FE137E24007E7E1BB044F5
:1000A000047A1BB07E340064121AFE121B9B1200ED
:1000B0005E7E1800557A1F004D7E1800217A1F00C1
:1000C000497E1800357A1F005122320215B8020409
:1000D000C76E00807CB1337CB033680D0468EF7C60
:1000E000B5337CB43378037F10220468E17D5092ED
:1000F000F77D457D51BF2140067C807F017F121234
:10010000048A7EA1D05CB004780320D5C17CB00401
:1001100078075002B2D50204CF92D5BE80FF68F6B0
:100120007CB89CB06C00602AB418057C410204A322
:1001300050FB80032F00047C9B5E900778F630E430
:10014000067C437D106D0030E3087C437C327C21CB
:100150000A0030F5199F10780E220204CC1B80682B
:10016000F92F1150020B707CB530E7F1801B2D3157
:100170007CB5A5397C5B50110B8078030204CF1E3F
:10018000341350034E60801A2B0204A35D22680DC5
:100190005D0078122D220B4068099F11222D000B63
:1001A0000078F90204C712048A5C800B8068082476
:1001B0008150072CB0500A0204CF2CB04003020437
:1001C000CC7C8B5D1178267CB17CA5BE1080680A42
:1001D0005D33780DA5BD80057F100204B96D0080E8
:1001E000307F017C5B7CB17CA5AD1280245D3378CF
:1001F00006A5BD80F080E1CA887D41AD437CB17C1D
:10020000A5AD122D1450020B047C5BAD232F01DA37
:1002100088A42D05BE008040060B80780480982FAE
:10022000007C437C507C617C720204A3BE24FFFFEF
:100230006806BE04FFFF78030204C712048A5CB09C
:100240000468F57CB8A54868EF7CB870039F11225C
:10025000A5B800030204CF2E008150079C80380708
:100260000204CC9C8050ED0A51C2E74D5178030244
:1002700004B97E5400807E901A6C0080061B906842
:10028000142F11BF1040049F104CAB0330E7EECA8F
:10029000A86CAA80E8DA39DA587C4ABE5080500A45
:1002A0001B8068BC2F1150020B700204A37EA0209B
:1002B000800C7EA01080057EA0086C556D333392B3
:1002C000D5500A6E34FFFF6E24FFFF0B1CA5EC33E4
:1002D00040062F11D5F0F6227CBA247EA2D5137CDD
:1002E000767C65A5CC92E77C5B227F507EC40000C3
:1002F0007ED400A37E9402FB0205454001227CEAE5
:10030000CA89CA5BCA6B121BAFDA6BDA5BDA897E09
:100310009402FB7CAE227F707F517EC400007ED4AD
:1003200000007E9403290205454005E47A7BB02253
:100330007A7BB00B7C227F707F517E6F00007E94B1
:1003400003450205454005E47A7BB0227A7BB00B79
:100350007C223A70FA83BCAAE9E43E81E0F8BF9DB2
:10036000E9E63F80000039283C1ABB9969663DA345
:1003700035E3BF255DE73FC90FDB418DDBCCC449C9
:1003800036EE45C9913FC5B0F83D3F800000C31728
:10039000F534452FFA73C60AFDDD12042904A2E1E3
:1003A00092F77DE51420E01C7E9403527E8400FFCA
:1003B0007404120954802112042930E1046EE4808F
:1003C0000020E0E47F617E9403667E8400FF740475
:1003D0001209547F0612018C7D5E5D2268055EA0C5
:1003E000806C4A22120429CAB87F617E94038A7EF7
:1003F0008400FF74031209547F0612018C7F067F6C
:10040000617F107E94037A7E8400FF740312095486
:10041000DAB830E00B7F0612022C7D5EB2F780BAAC
:100420007F017F1612022C80AF7DE25E407FBE24EA
:100430004F0040051BFD0204C77E14F9837E043E75
:100440002212018CBE243F80400E7F011204DB1279
:1004500002AD6E40801200D4E45D2268242E240197
:1004600080BE243F80401A7F011204DB7CB704C2A7
:10047000E07C4BCAB81202B76E40801200D4DAB8E2
:10048000035D2268049E240080222D0092D50E1068
:100490004E10807D422D445002B2D54E50806C44A7
:1004A0007CB8222C4450120B1C7E40005E507FBE54
:1004B00018000078040B806816A2D57CB8137C4B1A
:1004C0007CB592E77C5B227E1CFFFF229F11227E7F
:1004D00024FF8020D5026C456D33227CB5337CB47B
:1004E0003392D54E5080248140039F11227C457C5D
:1004F000567C676C7724E0500E7E1CFFFF221E3472
:100500001E2450034E60800478F430D50A6E34FF08
:10051000FF6E24FFFF0B1C22540F2490D43440D4D0
:1005200030F30CBEB0414007BEB05B500224204CFB
:10053000CC68021BC00B84D389944CCC680B74200C
:1005400012052F80F5CA3B6D889F337CAE7E5BB071
:100550000B5C7007C37D38DA3B8994B42569C2F31C
:100560007E5BB00B5CA5F824D0BEB00A501B7E5059
:100570000A20F60DAC5CA52D7CCB70034EF00180FB
:10058000DDAC5DA52D7CDB80D524CFBEB01AA5E8FF
:1005900050055E00DFD2F390091AA3E4936011BC0A
:1005A000B078F77417934CAB30F6B34EF08080AE52
:1005B000A3E4936010BCB078F77416937C3B74236B
:1005C000937C2B89147CB08013742012052F20F2A9
:1005D00005BEC00250F31B6D29B6000112052F02A3
:1005E000053A1B6E691600020B6A00BE080000780F
:1005F000087E0400FF7E141C1B20F21E4CCC681ADF
:100600007F10E47E1B804C8868070B1C04BCBD78FF
:10061000F2C2F6CA0B120719DA0B7E0BB060C0CA21
:100620000B12052FDA0B0B0C4CDD68EE1BD078EAB1
:1006300080ADD2F07E101080037E10085EB05F8027
:100640000AD2F67E100A80057E100AC2F66D119F4E
:10065000117E00201B6C7E6B7030F6021A3720F181
:10066000051B6C7E6B6030F6041A261A2430F005E8
:100670001B6D0B6A20A5EC3382F692F6500A7CEAD9
:100680009F229F217F127CAE4C44780F7C457C5684
:100690007C676C772E00F878EF80122F117CB333D3
:1006A0007C3B9CB140047C3B0B70A5D8EE7CB23007
:1006B000E005DAB8C44C3BCA380B207E00207E30FF
:1006C00000BE18000078C1BE1008780730F404C2DC
:1006D000F480B5CA287CB2BCBD38027CBD120719B3
:1006E000DA28BC2D500A1BD0E4CA2812051880F065
:1006F0007CB213DAB84004C4CAB8C4CA28BEF080B9
:1007000040095CDD7805A5DA0260065EF07F12051F
:1007100018DA28A5DADA02053ABEF001680F30F4DB
:1007200002240220F50620F70330F6010420F22906
:10073000BCBC5025CAB87CBF13B0E67420501174FD
:10074000307C8A5E80F068081207595EA00F800333
:1007500012052FDAB8BCBC78DB30F40F7430120508
:100760002F745830F302747812052F30F605742D6B
:1007700002052F742B20F5F8742020F7F3221B6C50
:100780007E6BB010F1021B6C20F60B30E704F40412
:10079000D2F27CCB800520E7057CDB02055E5EF0B3
:1007A0007F80F81B6E691600020B6A0030F0076D3F
:1007B000221B0A200B0D1B0A80020549E46C22BE95
:1007C0003007500B7F1F2D312E34FFF77E39B022BA
:1007D0007CBF20E7A8742E4EF08002052F1209037B
:1007E000403D7CBD7003047CDB120A477C3D4C33EA
:1007F00068101B307CBE20E4091207BC70044C3327
:1008000078F07CBD7CD3BEA0FD481CBCAB5818E47E
:100810009CBA2CB31801E47CDB0208A41209034043
:100820006E7CBD04120A477AFBA07CAE7CBDA2F4AC
:1008300092F0C2F4400260010424051207197E30D0
:10084000FF0B301207BCCA3812051820F0044CDD2B
:1008500068031207D0DA38BC3D78E6740E1205182A
:10086000742B7EFBA030F707742D6EA0FF0BA07ACF
:10087000FBA012052F7EA00A7EFBB0847AFBA0129B
:1008800005187EFBB01205189EF8000802053AD242
:10089000F27ED0000205F912090340F37CBA2CBDA8
:1008A00004120A477AFBA07CBA7CAE30E701E4046C
:1008B00020F4044CDD6805D2F0C2F4042CBD12070C
:1008C000196C337EFBB0601B20E712147AFBB01268
:1008D00007BCCA38120518DA380B3080E6047AFBF8
:1008E000B01B301207BCCA381205184CDD6807125D
:1008F00007D01BD080E19EF8000930F0031207D02A
:1009000002053A7CEA7CAF10F7037ED0067CFA1B26
:100910006E693600020B6A2002098F2D2B204C4293
:1009200048232E0053584F44494355502A4E4645BC
:1009300047000420800102001040E234394141CEDA
:1009400048327EA3971CDD05060606060506060747
:1009500007080807CAB87F0112018CDAB87F510B6B
:100960004A20693400020B4E7F05CAB812018C0B75
:100970004A00691400020B4E1200D4DAB81478E869
:10098000224E614E002B494E46002D494E46007DB9
:10099000522D557CBE92E67CEB7CBA601F04702819
:1009A0007CB5C2E77E0400FF60067E140981D32275
:1009B0007E14098A40047E140985D322DA099F2215
:1009C000CA2BCA2BC3CA09220A0A7E144D10AD10C5
:1009D0009E083AF09E10267CB5C2E77EA0567C9B0E
:1009E000A46E54FFFF2E54C511ACA92D15E4A539F2
:1009F000CAB8CA1B20E70A120ABADA1B12022C80F4
:100A00000AF404120ABADA1B12018CDAA87CB53394
:100A10007CB4334E50806C4424822F111478FBDA5E
:100A2000497407BE400A40099E400ACA0201140BDD
:100A3000A0CA486C442F117F012F112F112F1014C1
:100A400078EFCA48CA49227F0F20E73ABEB0074074
:100A50000274070A0B2D109E1400097E19B02EB0E7
:100A6000FB501F4C116817E47A19B01B147E19B0A3
:100A7000047A19B0B40A0BE47A19B0A5D9ED0BA029
:100A800074017A19B0225EE0BF223F80000041204D
:100A9000000042C80000447A0000461C400047C3E2
:100AA0005000497424004B1896804CBEBC205A0E4E
:100AB0001BCA6753C21C749DC5AE7C7B600654077D
:100AC00068162323120ADF7CB75438680A7F101295
:100AD0000ADC12018C7F01227CB7543803241C6C81
:100AE000AA2E540A8A7E4400FF0B2A0069120002D3
:100AF00022C2D57CB430E708B2D56E24FFFF0B24A8
:100B00007CB630E712B2D56E34FFFF0B348D326EF7
:100B100024FFFF0B2480028D3230D5066E34FFFF98
:100B20000B34227D51AD037D027D21AD052D12AD2B
:100B3000352D21226D0074104D00780B4D22782741
:100B40008D317D126D22227D437D326D222F112D3C
:100B5000445002A50FBF1040049F100B901478ED75
:100B60007F016D227D34227D417D138D247D022FF6
:100B7000004004BD0440049D040B141478F17D234F
:100B80007D317D106D00227F707C7BA5BF0071C21E
:100B90008C7E7BA0BEA003280374FF22E58954FC51
:100BA0004CBAF58929A70001BEA002280374FF22D0
:100BB0004CAA7806A9C78EA9C289BEA0017806A949
:100BC000D78EA9C289BEA0027803A9D2892977004D
:100BD000022E70FFA9908F693700030A56F58C7CAE
:100BE000B7F58A293700057E34FEA07E24007E7A80
:100BF0001B3029B700067004C28C8002D28CE4221C
:100C0000A5BF0178C28E7E7BA0BEA003280374FF1F
:100C1000227CBAC454F07CABE58954CF4CBAF58938
:100C200029A70001BEA002280374FF224CAA78065F
:100C3000A9C68EA9C689BEA0017806A9D68EA9C666
:100C400089BEA0027803A9D689297700022E70FFF9
:100C5000A9918F693700030A56F58D7CB7F58B296A
:100C60003700057E34FEA17E24007E7A1B3029B732
:100C700000067004C28E8002D28EE422A5BF025309
:100C8000A9C48E29B700017006A9C28EA9C38EB46B
:100C90000106A9D28EA9C38EB40203A9D38E2977E7
:100CA00000022E70FFA9928F693700030A56F5D60D
:100CB0007CB7F5D7293700057E34FEA27E24007E5E
:100CC0007A1B3029B700067005A9C48E8003A9D409
:100CD0008EE422A5BF0361A9C3DD29A70001BEA040
:100CE00002280374FF224CAA7806A9C1DDA9C2DD3F
:100CF000BEA0017806A9D1DDA9C2DDBEA00278039D
:100D0000A9D2DD297700022E70FFA990DD69370096
:100D1000030A56F5D47CB7F5D5293700057E34FE95
:100D2000A37E24007E7A1B3029B700067005A9C374
:100D3000DD8003A9D3DDE422A5BF0461A9C7DD29B5
:100D4000A70001BEA002280374FF224CAA7806A9BE
:100D5000C5DDA9C6DDBEA0017806A9D5DDA9C6DD21
:100D6000BEA0027803A9D6DD297700022E70FFA964
:100D700094DD693700030A56F5D27CB7F5D32937DD
:100D800000057E34FEA47E24007E7A1B3029B70045
:100D9000067005A9C7DD8003A9D7DDE42274FF2210
:100DA000CA3B7EB300C07003020F577E2700BE4DC2
:100DB000227803020F52E41202B27F016D337E24C7
:100DC00043FA12022C7F017EB300697E7004ACB737
:100DD0007E1F00492D35791100021B1A007E270065
:100DE000BEE41202B27E14D70A7E043C2312018CA8
:100DF0007A1F009F7E141CDC7E0400FF1202EA7E34
:100E00007300690A370B347E240005120AF17A5305
:100E10000069E47AB3006E7EB3006E7E7004ACB7F6
:100E20007E1F00492D3569F100020B1AE07E34C2A5
:100E30008F7E243C757F0712018C7F0712018C7A0C
:100E40001F006F7EB3006E7E7004ACB77E0F005142
:100E50002D15693000020B0A207E140FDA7E044043
:100E60004912018C6D117E04433412022C7A1F004A
:100E70007312039A7F317E340A917E243F861203D7
:100E80009A7F031200D17E14AE397E043DA2120176
:100E90008C7F017A1F00777E1F006F1200D47F01C4
:100EA0007EB3006E7E7004ACB77E1F004D2D357989
:100EB0001100021B1A007E73006E0A270B247A278A
:100EC00000A17EF004ACF77E0F00512D17693000B1
:100ED000020B0A207A1F009D7E141CCC7E0400FFAA
:100EE0001202EA7E0F00492D17693000020B0A201A
:100EF0007A1F009F7E141CC37E0400FF1202EA7E4C
:100F00001F006F7A1F009F7E141CB97E0400FF1221
:100F100002EA7E1F00777A1F009F7E141CAF7E04BA
:100F200000FF1202EA7E0F004D2D17693000020B00
:100F30000A207A1F009F7E141CA57E0400FF120267
:100F4000EA7EB3006E047AB3006EB4050280030239
:100F50000E17E47AB300C0DA3B22CAF87EF3000829
:100F60007CBF5480B480167EB3000B70307EB3001B
:100F70000A702A7E37000EBE340002680302105247
:100F80007CBF540F14681B14683B0BB1680302103C
:100F9000527EB3000D70067EB3000C601E0210522C
:100FA00080197EB30012B4040F7EB3000D600302FB
:100FB00010527EB3000C60030210527E3415AC7EDA
:100FC0002400FF807D7EB30012B404067EB3000DC2
:100FD0006002807E7E73000C7CA75EA00F1B706891
:100FE000362E707F68040B7078687E2400017CBA0E
:100FF00060053E241478FB7E73001A6C665C754DA8
:1010000033680A7E3415AE7E2400FF80357E3415A9
:10101000AC7E2400FF802B7E2400017CBA60053E5C
:10102000241478FB7E73001B6C665C754D33680A74
:101030007E3415AE7E2400FF80087E3415AC7E24FD
:1010400000FF7A1F00167E3400027A3700148007F2
:101050008000121BF58003121BD6DAF822CA7974BD
:101060000E7E7001121BC37414121B867CFB30E6CB
:101070000874147E7080121BC37CBF20E003021131
:101080001E7E1400407E04000174211200167AB303
:1010900000107E1F00AB4D23780302111C6CFF80F3
:1010A000737EB300111A3B7E0F00AB2D317D207E85
:1010B0001BA00A4F2E4400407A91827A81837EEBF6
:1010C000E0BCEA7839047AB300117E7300111A3754
:1010D0002D317D207E1BB0703974146C77121BC3C8
:1010E00075F40075DC00E47E34FE077E24007E7A11
:1010F0001BB07E34000A121B1675C76080FE7E1F6F
:1011000000AB7E1B70BCE7780474018001E47AB305
:1011100000110BF07E730010BC7F3885D200DA79A5
:10112000227EB30012BEB00268207EB30008701A9F
:101130007EB3000B70147EB3000D700E7EB3000CF6
:1011400070087E37000E4D336803021BF57EB30036
:101150000AB4015F74047AB30012E47AB3001A7A15
:10116000B3001B740E7E7001121BC374127E7020BC
:10117000121BC374107E7008121BC3740E7E7002A3
:10118000121BC374127E7020121BC374107E700871
:10119000121BC3740E7E7001121BC374126C771283
:1011A0001BC374137E7008121BC3740E6C77121B62
:1011B000C3801074037AB3001274FF7AB3001A7AF2
:1011C000B3001B0200067EB30012B404247EB300F9
:1011D00008B4021D7EB3000D600302125F7EB300EF
:1011E0000B707C7EB3000A70767E37000E4D33683C
:1011F00002806C7E63000C7C765E700F1B60682F33
:101200002E607F68040B6078567E2400017CB760F6
:10121000053E241478FB7C656E60FF5E63001A7ADD
:1012200063001A740E121BC374117E704080247EFA
:101230002400017CB760053E241478FB7C656E6059
:10124000FF5E63001B7A63001B740E121BC37414D1
:101250007E7080121BC3740E6C77121BC380030256
:101260001BF50200067EB300085480BEB080680300
:101270000212F07EB3000B1BB168191468280BB181
:10128000786E7E3415577E2400FF7A1F00167E3458
:10129000001280547E3415697E2400FF7A1F0016E8
:1012A0007E34004380427EB3000A14681914682813
:1012B0000BB1783C7E3415537E2400FF7A1F001654
:1012C0007E34000480227E3415B07E2400FF7A1F15
:1012D00000167E34000880107E3415357E2400FF11
:1012E0007A1F00167E34001E7A37001480058000B5
:1012F000021BF57E37000EBE37001450047A37000B
:1013000014021BD67EB30012B404247EB30008B4CA
:10131000021D7EB3000D60030213977EB3000B70B5
:10132000767EB3000A70707E37000E4D33680280FF
:10133000667E63000C7C765E700F1B60682C2E60EE
:101340007F68040B6078507E2400017CB760053E06
:10135000241478FB7C654E63001A7A63001A740EBD
:10136000121BC374117E701080217E2400017CB793
:1013700060053E241478FB7C654E63001B7A630095
:101380001B740E121BC374147E7020121BC3740EC8
:101390006C77121BC38003021BF5020006CAF874A7
:1013A0000E6C77121BC37411121B867CFB30E20F8C
:1013B00074117C7F5E70FB121BC3E47AB300137C54
:1013C000BF30E40A74117C7F4E7080121BC37EB361
:1013D000001324FD68461468480BB278477CBF3080
:1013E000E0427E08000874201200167E37000E12BC
:1013F000193E7A37000E7EB30008546024E0680D71
:1014000024E0680E2440780F12169F8017121AE30A
:101410008012121C15800D121BF5800812163880E0
:101420000312174FDAF822CA3B7A3700A47F307EC6
:101430003400C87A3700A9A9C7AF740E7E700112B4
:101440001BC36D337A3700A77E2700A4BE2400405B
:1014500008057E704080027C757A7300A6741112B4
:101460001B8630E0107E3700A97D231B247A2700DD
:10147000A94D3378E87F032E1700A77EB300A67E20
:101480007001121B717E7300A60A277D322E370071
:10149000A77A3700A77E3700A49D327A3700A47E52
:1014A0007300A6BE704050A0D202A9D7AFDA3B228B
:1014B00053B2FC43B10374807E34FE077E24007E69
:1014C0007A1BB07E34FE077E24007E7E1BB030E0A7
:1014D000F275DC0075F490E46C77121BC374017E26
:1014E0007008121BC374077E703F121BC374097E01
:1014F000703F121BC3740B7E7007121BC374016C08
:1015000077121BC374027AB30012E47AB300137A21
:10151000B3001A7AB3001B7E3401007E2400C27A25
:101520001F00B77AB300BB7AB300BC74087AB3006B
:10153000BDA9D7AF221E035300540043002000551D
:1015400000530042002000530065007200690061F2
:10155000006C00040309041201000202000040BFF5
:101560003402FF00010102000109024300020100F0
:10157000803209040000010202010005240010016C
:1015800005240100010424020205240600010705C8
:1015900082034000FF09040100020A000000070561
:1015A0008102400000070501024000000000010028
:1015B0000803530054004300CA7BCA6BCA5BCA4B82
:1015C000CA3BCA2BCA1BCA0BC0D0C083C0827EF1E3
:1015D000FC7406121B867CEB7402121B867CCB7497
:1015E00004121B867CDB7CBE30E10312005A7CBEF9
:1015F00030E2031218797CBC30E00312139D7CBCEE
:1016000030E1031219A67CBC30E2031219FE7CBD46
:1016100030E10312105D7CBE30E0031200597AF114
:10162000FCD082D083D0D0DA0BDA1BDA2BDA3BDAAB
:101630004BDA5BDA6BDA7B32CAF8740E6C77121B0A
:10164000C37411121B8620E1537E370014BE340090
:101650004028057EF04080027CF77E0F00167C7FDC
:101660007420121A290A2F7E3700149D327A37000F
:10167000140A157E1F00162D317A1F00167E3700C2
:10168000144D33780F74117E700A121BC3E47AB3C1
:101690000013800874117E7002121BC3DAF8227ED8
:1016A000B30009BEB00D50507EA003A49016B073D5
:1016B0000216D70216DA0216F80216DD0216F80232
:1016C00016E00216E30216E60216E90216EC02160E
:1016D000EF0216F20216F5020F5A0211C6021304A7
:1016E0000217E70212650200500216FB02112102E6
:1016F0001900021A52020056021BF57EB30008B40C
:1017000080227EB3000B701C7EB3000A70167EB37D
:10171000000D70107EB3000C700A7E37000EBE34D0
:1017200000016803021BF57EB30012B4040A7E3484
:1017300015AE7E2400FF80087E3415AC7E2400FFA9
:101740007A1F00167E3400017A370014021BD6740B
:101750000E6C77121BC37411121B8630E03D7E0F96
:10176000001674201200160A1B7E2700149D217A91
:101770002700147E1F00162D317A1F00167E3700B9
:10178000144D33780E74117E7048121BC3E47AB383
:1017900000132274117E7040021BC322CAB8CA1BF8
:1017A000C0D17EB300C1700F74017AB300C1E47A76
:1017B000B300C0D28C802974017AB300C2C28CE518
:1017C0008C7C4B6C55E58A0A3B4D327A3700BE74EF
:1017D000017AB300C0758C00758A00E47AB300C149
:1017E000D0D1DA1BDAB832CAF87EB3000870237E93
:1017F000B3000D701D7EB3000C70177EB3000B702C
:10180000117EF3000ABEF08050087E37000E4D3383
:101810006805121BF58017E47C7F121BC34CFF6820
:10182000047403800274027AB30012120006DAF81C
:10183000227C677C7BBE7001380CA5BF0004C2A867
:101840008007D2A8800374FF22BE60033826A5BE9D
:101850000005A9C0B7C2B8A5BE0105A9C0B7D2B8D6
:10186000A5BE0205A9D0B7C2B8A5BE030AA9D0B7C4
:10187000D2B8800374FF22E422E46C77121BC37495
:10188000027AB30012E47AB30013740E7E70011270
:101890001BC374117E7048121BC3740E7E7002123B
:1018A0001BC374117E7048121BC3740E7E7001122C
:1018B0001BC374147E7090121BC3740E6C77021BD2
:1018C000C37584017E44041FE47A49B01B4478F94F
:1018D0007EF800C27E0400FF7E141C1F0B0A405DD0
:1018E00044681A692000020B0E0B44800A7E0BB07C
:1018F0007A29B00B240B0C1B4478F280DF021C0306
:101900007EB30012B4041D7EB30008B481167EB30A
:10191000000B70107EB3000D700A7E37000EBE34CF
:1019200000016803021BF57E3415AC7E2400FF7AAB
:101930001F00167E3400017A370014021BD67A3756
:10194000006A7E34006B7E2400007E1B307E3400F3
:101950006C7E2400007A1B307E34006A7E240000F6
:101960007E1B307E34006D7E2400007A1B307E3773
:10197000006C227C7BBE7001280374FF22A5BF008F
:101980000FC2897E0BB07004C2888002D288E42224
:10199000A5BF010FC28B7E0BB07004C28A8002D239
:1019A0008AE42274FF22CAF8740E7E7001121BC3EF
:1019B0007411121B867CFB30E50874117E70401296
:1019C0001BC37CBF30E20774116C77121BC3C202C9
:1019D000DAF822121C0E74807E34FE077E24007E0C
:1019E0007A1BB07E34FE077E24007E7E1BB030E082
:1019F000F275DC0075F4901214B0A9D7AF22CAF8C2
:101A0000740E7E7002121BC37411121B867CFB3095
:101A1000E50874117E7040121BC37CBF30E207746E
:101A2000116C77121BC3DAF822CA3BCA787F30CA1E
:101A3000B8800B7EFBB07E3B700B74121BC329AFCA
:101A4000FFFF7CBA1439BFFFFF4CAA78E61BFDDA12
:101A50003B227EB30012B4041B7EB30008B4011411
:101A60007EB3000B700E7EB3000D70087E37000E43
:101A70004D336803021BF50200067EB30012B40466
:101A8000097EB30008BEB0A16803021BF57E1800F2
:101A9000B77A1F00167E37000E7A370014021BD665
:101AA0007EB30012B404097EB30008BEB0216803FF
:101AB000021BF57E1800B77A1F00167E37000E7ADB
:101AC000370014021BE78012000000000000000035
:101AD000000000000000000000007D231B344D22A8
:101AE00078E6227EB3000924DF680A14680A0BB185
:101AF0007809021AA0021A7A021B5B021BF5CA7946
:101B00007D7380077E3403E8121B2E7D371B744DD6
:101B10003378F1DA7922CA797D7380077E3403E85D
:101B2000121AC67D371B744D3378F1DA79227D2382
:101B30007E3400037D131B147D3178F87D121B1455
:101B40007D2178EC2275E900A9D7BA75EA0012194F
:101B5000D3D2AF7EB30012B404F9227EB30012B424
:101B600004097EB30008BEB0216803021BF5020021
:101B7000067CA77C7B0A5A2E540020121A29741165
:101B80007E7001021BC37CABE5FC20E7FB7CBA4402
:101B900080F5FCE5FC20E7FBE5EC22E47AB3006E7F
:101BA0007E08006E12197374017E70010218317A7A
:101BB000B300A37E0800A37E3400011214277EB375
:101BC00000A3227CA77C7BE5FC20E7FB7CB7547F4D
:101BD000F5FC7AA1EC2274037AB3001374117E70C1
:101BE00040121BC302163874047AB3001374117EBA
:101BF0007040021BC374057AB3001374117E7060C9
:101C0000021BC3121B45120086120DA080FB43B1BC
:101C10000353B2FC22021BF5323232283029000075
:101C20000400AB00FF1CFC000400AF00000000003B
:101C30000400B3000000000001001C00001400219B
:101C40000000000000000000000000000000000094
:101C500000000000001400354204000041C80000EC
:101C600041800000412000000000000000140055E9
:101C70000000000000000000000000000000000064
:101C800000000000000100690000010011000002D6
:101C900000BE0000000100C000000100C100000102
:101CA00000C2000000453D25372E34660D0A004570
:101CB000703D25372E34662000456B3D25372E3488
:101CC000662000763D25362E3366200025326420BE
:101CD0002025322E3066646567202000636F756EA4
:101CE000743D252E34660D0A0035304EC1A6B4ABC6
:101CF000B8D0C6F7284E293A25640A004053544309
:051D00004953502300CF
:00000001FF
