:10000000021D30C0D1B2EED0D1322202201F539552
:10001000F143960EC2A3C2A2D2A122020003CA3BA0
:100020007F30BE38000068387E3BB0121A48793302
:10003000000169230001E41202F869130005690355
:10004000000312018C7E14F0007E04457F12022C06
:100050007933000979230007693300096923000710
:10006000DA3B2202207A7EB304AA602EE47AB3043B
:10007000AA7E1404007E0400016D337E24414812E0
:100080000E066D117E04427012018C7A1F00497EAB
:1000900014210E7E0400FF02033022022081022080
:0200A0005F22DD
:1000A3000220887D027D136D226D3380107D533EC7
:1000B300547D315E3400014D351E140B24BD0238CE
:1000C300EC2202205F02205F0219610205A36E0089
:1000D300807CB1337CB033680D0468EF7CB5337C2E
:1000E300B43378037F10220468E17D5092F77D4595
:1000F3007D51BF2140067C807F017F121205667E01
:10010300A1D05CB004780320D5C17CB0047807503B
:1001130002B2D50205AB92D5BE80FF68F67CB89CCF
:10012300B06C00602AB418057C4102057F50FB8047
:10013300032F00047C9B5E900778F630E4067C4333
:100143007D106D0030E3087C437C327C210A003053
:10015300F5199F10780E220205A81B8068F92F114C
:1001630050020B707CB530E7F1801B2D317CB5A5B7
:10017300397C5B50110B8078030205AB1E3413509E
:10018300034E60801A2B02057F5D22680D5D0078A7
:10019300122D220B4068099F11222D000B0078F9C4
:1001A3000205A31205665C800B8068082481500752
:1001B3002CB0500A0205AB2CB040030205A87C8B7F
:1001C3005D1178267CB17CA5BE1080680A5D33780A
:1001D3000DA5BD80057F100205956D0080307F0160
:1001E3007C5B7CB17CA5AD1280245D337806A5BD14
:1001F30080F080E1CA887D41AD437CB17CA5AD121E
:100203002D1450020B047C5BAD232F01DA88A42D3F
:1002130005BE008040060B80780480982F007C4345
:100223007C507C617C7202057FBE24FFFF6806BEA2
:1002330004FFFF78030205A31205665CB00468F5AA
:100243007CB8A54868EF7CB870039F1122A5B8005D
:10025300030205AB2E008150079C8038070205A8D6
:100263009C8050ED0A51C2E74D5178030205957EFB
:100273005400807E901A6C0080061B9068142F1126
:10028300BF1040049F104CAB0330E7EECAA86CAA22
:1002930080E8DA39DA587C4ABE5080500A1B8068FD
:1002A300BC2F1150020B7002057F74F86CAA6E40CC
:1002B300806E0080BEB0FF68277C837C975C3B5CCC
:1002C3007BBF10682AF4400D7C382D15F45C3B503D
:1002D3000F0B04800B7C792D35F45C7B50020B24CF
:1002E300BF10680B7CB020E7067CB420E701B32283
:1002F3007EA020800C7EA01080057EA0086C556D2A
:10030300333392D5500A6E34FFFF6E24FFFF0B1C6C
:10031300A5EC3340062F11D5F0F6227CBA247EA239
:10032300D5137C767C65A5CC92E77C5B227F507EDF
:10033300C400007ED4004D7E940341020621400197
:10034300227CEACA89CA5BCA6B121FF8DA6BDA5BD2
:10035300DA897E9403417CAE227F507F617E9403D1
:10036300670206214001227CEACA89CA5BCA6B1272
:100373001FF8DA6BDA5BDA897E9403677CAE227F3F
:10038300707F517E6F00007E940391020621400529
:10039300E47A7BB0227A7BB00B7C227CB5A2E7D2D5
:1003A300E77C1B7CB4334009680DB4FF0BA5BDFF8C
:1003B300030205A30205AB227C0B2481C2E0F58274
:1003C300F4042CB07C2BC3137C4B7CB592E77C5B91
:1003D3007F417CB6A2E77CB1A5BA7F02C313340088
:1003E30094007C2B7EA091A47CBA13F494FEACB24F
:1003F300337CBA33248CD3137C5BE492E77C6B6C41
:10040300777E403F7583027F517F017F1412022C58
:100413007F051200D49E240080D583EB7E01826C7D
:10042300110E041E042D205E407F223A70FA83BC15
:10043300AAE9E43E81E0F8BF9DE9E63F8000003988
:10044300283C1ABB9969663DA335E3BF255DE73FA9
:10045300C90FDB418DDBCCC44936EE45C9913FC59D
:10046300B0F83D3F800000C317F534452FFA73C63B
:100473000AFDDD12050504A2E192F77DE51420E0F3
:100483001C7E94042E7E8400FF7404120A308021A3
:1004930012050530E1046EE4800020E0E47F617E14
:1004A3009404427E8400FF7404120A307F06120112
:1004B3008C7D5E5D2268055EA0806C4A2212050574
:1004C300CAB87F617E9404667E8400FF7403120AB7
:1004D300307F0612018C7F067F617F107E94045665
:1004E3007E8400FF7403120A30DAB830E00B7F0613
:1004F30012022C7D5EB2F780BA7F017F1612022CA6
:1005030080AF7DE25E407FBE244F0040051BFD02AD
:1005130005A37E14F9837E043E2212018CBE243F80
:1005230080400E7F011205B71202F36E4080120065
:10053300D4E45D2268242E240180BE243F80401A27
:100543007F011205B77CB704C2E07C4BCAB8120224
:10055300FD6E40801200D4DAB8035D2268049E2445
:100563000080222D0092D50E104E10807D422D4426
:100573005002B2D54E50806C447CB8222C445012A9
:100583000B1C7E40005E507FBE18000078040B8079
:100593006816A2D57CB8137C4B7CB592E77C5B22B2
:1005A3007E1CFFFF229F11227E24FF8020D5026C38
:1005B300456D33227CB5337CB43392D54E508024C1
:1005C3008140039F11227C457C567C676C7724E035
:1005D300500E7E1CFFFF221E341E2450034E6080EB
:1005E3000478F430D50A6E34FFFF6E24FFFF0B1C32
:1005F30022540F2490D43440D430F30CBEB0414085
:1006030007BEB05B500224204CCC68021BC00B8495
:10061300D389944CCC680B742012060B80F5CA3B2B
:100623006D889F337CAE7E5BB00B5C7007C37D38F7
:10063300DA3B8994B42569C2F37E5BB00B5CA5F801
:1006430024D0BEB00A501B7E500A20F60DAC5CA528
:100653002D7CCB70034EF00180DDAC5DA52D7CDBE2
:1006630080D524CFBEB01AA5E850055E00DFD2F3D3
:100673009009F6A3E4936011BCB078F77417934C18
:10068300AB30F6B34EF08080AEA3E4936010BCB001
:1006930078F77416937C3B7423937C2B89147CB07A
:1006A3008013742012060B20F205BEC00250F31B08
:1006B3006D29B6000112060B0206161B6E691600A1
:1006C300020B6A00BE08000078087E0400FF7E1457
:1006D300208F20F21E4CCC681A7F10E47E1B804CC6
:1006E3008868070B1C04BCBD78F2C2F6CA0B12075C
:1006F300F5DA0B7E0BB060C0CA0B12060BDA0B0BDC
:100703000C4CDD68EE1BD078EA80ADD2F07E101081
:1007130080037E10085EB05F800AD2F67E100A80E6
:10072300057E100AC2F66D119F117E00201B6C7EA0
:100733006B7030F6021A3720F1051B6C7E6B60304C
:10074300F6041A261A2430F0051B6D0B6A20A5EC5B
:100753003382F692F6500A7CEA9F229F217F127C15
:10076300AE4C44780F7C457C567C676C772E00F842
:1007730078EF80122F117CB3337C3B9CB140047C17
:100783003B0B70A5D8EE7CB230E005DAB8C44C3B25
:10079300CA380B207E00207E3000BE18000078C1CE
:1007A300BE1008780730F404C2F480B5CA287CB2BE
:1007B300BCBD38027CBD1207F5DA28BC2D500A1BDC
:1007C300D0E4CA281205F480F07CB213DAB84004EE
:1007D300C4CAB8C4CA28BEF08040095CDD7805A548
:1007E300DA0260065EF07F1205F4DA28A5DADA028F
:1007F3000616BEF001680F30F402240220F506202D
:10080300F70330F6010420F229BCBC5025CAB87C9A
:10081300BF13B0E67420501174307C8A5E80F06898
:10082300081208355EA00F800312060BDAB8BCBCB1
:1008330078DB30F40F743012060B745830F3027403
:100843007812060B30F605742D02060B742B20F577
:10085300F8742020F7F3221B6C7E6BB010F1021B9F
:100863006C20F60B30E704F404D2F27CCB80052035
:10087300E7057CDB02063A5EF07F80F81B6E6916A3
:1008830000020B6A0030F0076D221B0A200B0D1BC0
:100893000A80020625E46C22BE3007500B7F1F2D11
:1008A300312E34FFF77E39B0227CBF20E7A8742EA7
:1008B3004EF08002060B1209DF403D7CBD7003043D
:1008C3007CDB120B237C3D4C3368101B307CBE2039
:1008D300E40912089870044C3378F07CBD7CD3BED5
:1008E300A0FD481CBCAB5818E49CBA2CB31801E417
:1008F3007CDB0209801209DF406E7CBD04120B23EE
:100903007AFBA07CAE7CBDA2F492F0C2F4400260FC
:10091300010424051207F57E30FF0B30120898CA34
:10092300381205F420F0044CDD68031208ACDA3801
:10093300BC3D78E6740E1205F4742B7EFBA030F7F1
:1009430007742D6EA0FF0BA07AFBA012060B7EA0EE
:100953000A7EFBB0847AFBA01205F47EFBB012057D
:10096300F49EF80008020616D2F27ED0000206D5E5
:100973001209DF40F37CBA2CBD04120B237AFBA0CF
:100983007CBA7CAE30E701E40420F4044CDD680556
:10099300D2F0C2F4042CBD1207F56C337EFBB060B9
:1009A3001B20E712147AFBB0120898CA381205F418
:1009B300DA380B3080E6047AFBB01B30120898CA91
:1009C300381205F44CDD68071208AC1BD080E19E99
:1009D300F8000930F0031208AC0206167CEA7CAF7B
:1009E30010F7037ED0067CFA1B6E693600020B6A91
:1009F30020020A6B2D2B204C4248232E0053584FC4
:100A030044494355502A4E4645470004208001027D
:100A1300001040BE10151D1DAA240E5A7F73F8B98D
:100A230006070707070607070808090808CAB87F63
:100A33000112018CDAB87F510B4A20693400020B92
:100A43004E7F05CAB812018C0B4A00691400020BD1
:100A53004E1200D4DAB81478E8224E614E002B49C6
:100A63004E46002D494E46007D522D557CBE92E6E2
:100A73007CEB7CBA601F0470287CB5C2E77E04005F
:100A8300FF60067E140A5DD3227E140A6640047E4C
:100A9300140A61D322DA099F22CA2BCA2BC3CA09BB
:100AA300220A0A7E144D10AD109E083AF09E1026BD
:100AB3007CB5C2E77EA0567C9BA46E54FFFF2E54E8
:100AC300C511ACA92D15E4A539CAB8CA1B20E70A7C
:100AD300120B96DA1B12022C800AF404120B96DA1C
:100AE3001B12018CDAA87CB5337CB4334E50806C76
:100AF3004424822F111478FBDA497407BE400A405C
:100B0300099E400ACA0201140BA0CA486C442F1163
:100B13007F012F112F112F101478EFCA48CA4922D1
:100B23007F0F20E73ABEB007400274070A0B2D106F
:100B33009E1400097E19B02EB0FB501F4C1168178C
:100B4300E47A19B01B147E19B0047A19B0B40A0BF5
:100B5300E47A19B0A5D9ED0BA074017A19B0225E1D
:100B6300E0BF223F8000004120000042C800004453
:100B73007A0000461C400047C35000497424004BD0
:100B83001896804CBEBC205A0E1BCA6753C21C74F5
:100B93009DC5AE7C7B6006540768162323120BBBEE
:100BA3007CB75438680A7F10120BB812018C7F018E
:100BB300227CB7543803241C6CAA2E540B667E4443
:100BC30000FF0B2A0069120002227D51AD037D0252
:100BD3007D21AD052D12AD352D2122CA3B7F617FCD
:100BE300706DAA7D3A3E342E3412007A71827A6196
:100BF300830BEAB07D3B3E343E342D3F7D2E69119D
:100C030000020B1A007D3A3E343E343E342D3D7DC6
:100C13002C791100021B1A009F117D1A3E143E14F9
:100C23003E142D1D7D0C79300006792000040BA4A1
:100C3300BEA4010078AD7EA400027D3A1E347A374B
:100C4300042D7E3401008D3A7A37042F6DFF020D97
:100C5300ED7E17042FAD1F3E143E147D012E0414A8
:100C6300007A11827A0183693E00020BEA207A1F1F
:100C730004312E1410007A31827A2183693E0002F6
:100C83000BEA207A1F04357DEF020DE27EB7042DB7
:100C93002DBE7D3E3E343E343E347F062D136930F7
:100CA30000020B0A207A1F043D6930000669200008
:100CB300047A1F04417D3B3E343E343E342D3D7D5A
:100CC3002C691100020B1A007A0F0439699100068E
:100CD300698100047E0F04357F1412018C7F317EFD
:100CE3000F04317E1F043912018C7F031200D17F60
:100CF300017D3B3E343E343E342D3D7D2C79110045
:100D0300021B1A007E0F04317F1412018C7F317E87
:100D13000F04357E1F043912018C7F031200D47D2A
:100D23001B3E143E143E142D1D7D0C7930000679B4
:100D33002000047D3B3E343E343E342D3D7D2C6902
:100D43001100020B1A007E1F043D1200D47F017DA7
:100D53003E3E343E343E342D3D7D2C791100021B42
:100D63001A007D3B3E343E343E342D3D691100066E
:100D7300690100047E1F04411200D47D1E3E143E0F
:100D8300143E142D1D7D0C79300006792000047D5E
:100D93007B3E743E743E747F162D37691100020B3F
:100DA3001A007E1F043D1200D17F017F162D377973
:100DB3001100021B1A007D7B3E743E743E747F1645
:100DC3002D3769110006690100047E1F04411200DA
:100DD300D17F062D1779300006792000042DEABE55
:100DE300E401005003020C8F0BF47E37042DBD3F4A
:100DF3002803020C543EA4BEA401003803020C3D98
:100E0300DA3B22CA3B7F317F709F666D337A3700AE
:100E1300257EB700257DAB3EA43EA47F172D3A69FE
:100E23001100020B1A007F161200D47F617D3B0B69
:100E3300347A370025BE34010078D66D117E044321
:100E4300807F1612022C7F616D337A3700257EB7BF
:100E530000253EB43EB47F072D1B693000020B0A08
:100E6300207F061200D1593B002F592B002D7E37CE
:100E730000250B347A370025BE34010078D06D335A
:100E83007A3700257E270025E41202F87E140FDA54
:100E93007E0440C912018C6D117E04437F12022C23
:100EA3001204766DFF7EE43F007F0712018C7F0101
:100EB3007F171200D17EF700253EF43EF4491F0050
:100EC3002F490F002D12018C593F002F592F002D50
:100ED3007E3700250B347A370025BE34010078A411
:100EE3007E08002D7E3408007E240001120BDE7E76
:100EF3001408007E0400017E3400007E24000112E9
:100F0300174E9F667A6F00296D337A3700277E3438
:100F130000017A3700257EB700257D2BE41202F805
:100F23007F0312018C6D117E04438012022C7F71AA
:100F33007E14CCCD7E043D4C1202AD403B6D117E40
:100F4300043FC07F171202AD382E7D3B3E343E3442
:100F53002E3400007A71827A618369BE00020BEA43
:100F6300A07E0F00297F151202AD280C7A5F00299D
:100F73007E3700257A3700277E3700250B347A37F2
:100F83000025BE340080788E7EF700274DFF681160
:100F93007E0F00297E34D70A7E243DA31202AD289A
:100FA300047F1680147D2FE41202F87F0312018C54
:100FB3006D117E04438012022CDA3B22CAF87EF3C1
:100FC30000087CBF5480B480167EB3000B70307E63
:100FD300B3000A702A7E37000EBE34000268030293
:100FE30010B77CBF540F14681B14683B0BB1680324
:100FF3000210B77EB3000D70067EB3000C601E02B4
:1010030010B780197EB30012B4040F7EB3000D60D5
:10101300030210B77EB3000C60030210B77E3419CD
:10102300557E2400FF807D7EB30012B404067EB398
:10103300000D6002807E7E73000C7CA75EA00F1BF8
:101043007068362E707F68040B7078687E24000108
:101053007CBA60053E241478FB7E73001A6C665CD0
:10106300754D33680A7E3419577E2400FF80357E20
:101073003419557E2400FF802B7E2400017CBA6046
:10108300053E241478FB7E73001B6C665C754D3340
:10109300680A7E3419577E2400FF80087E34195570
:1010A3007E2400FF7A1F00167E3400027A37001474
:1010B3008007800012205F8003122032DAF822CAF0
:1010C3003B6CFF7E1F04456CEE80457E300CAC3ECE
:1010D3002E1404496D0069D0000869C000067F71B1
:1010E3009F766950000469400002BF7240207F7000
:1010F3002EF400062F26795700021B7A407CAF0B93
:10110300F07E9004ACA959150027590500250BE082
:101113007EB304A9BCBE38B36CEE80500A3E0B34D8
:1011230080447E5004AC5E49120027490200252901
:101133003000017ED004ACD749560027494600252C
:1011430029620001BC63281C4912002749020025BB
:1011530059520027594200257404ACB7591500278A
:10116300590500250B70BCF738B80BE0BCFE38AC52
:101173006CEE80147404ACBE493500274925002564
:101183006931000A99340BE0BCFE38E8DA3B22CA25
:101193003B7A1F00267AB300257F30BE38000078E3
:1011A3000302125B7EB30025BEB008400302125B4C
:1011B3007EA003A49011BB730211D30211DB0211B1
:1011C300E30211EB0211F30211FB02120302120BF1
:1011D3004391015392FE80364391025392FD802E38
:1011E3004391045392FB80264391085392F7801E48
:1011F3004391105392EF80164391205392DF800E58
:101203004391405392BF800643918053927F741F52
:101213007AB3002A740F7AB3002BE47AB3002C7AE2
:10122300B3002D74017AB3002E7E08002A121AA788
:1012330074011220436D33793300019F1179330018
:1012430009792300077E1F002679330005792300DF
:10125300037E7300257A3B70DA3B22CA79740E7ED3
:10126300700112200C7414121FE37CFB30E6087427
:10127300147E708012200C7CBF20E00302131F7EBB
:101283001416407E0400017421121DAD7AB30010C0
:101293007E1F04B84D23780302131D6CFF80737EF9
:1012A300B300111A3B7E0F04B82D317D207E1BA0A5
:1012B3000A4F2E4416407A91827A81837EEBE0BCFA
:1012C300EA7839047AB300117E7300111A372D318D
:1012D3007D207E1BB0703974146C7712200C75F46A
:1012E3000075DC00E47E34FE077E24007E7A1BB0AA
:1012F3007E34000A121FA075C76080FE7E1F04B8EB
:101303007E1B70BCE7780474018001E47AB300119A
:101313000BF07E730010BC7F3885D200DA79227E11
:10132300B30012BEB00268207EB30008701A7EB309
:10133300000B70147EB3000D700E7EB3000C7008AA
:101343007E37000E4D33680302205F7EB3000AB47C
:10135300015F74047AB30012E47AB3001A7AB3001B
:101363001B740E7E700112200C74127E70201220EA
:101373000C74107E700812200C740E7E7002122002
:101383000C74127E702012200C74107E70081220D0
:101393000C740E7E700112200C74126C7712200CE8
:1013A30074137E700812200C740E6C7712200C805C
:1013B3001074037AB3001274FF7AB3001A7AB3007D
:1013C3001B02206D7EB30012B404247EB30008B464
:1013D300021D7EB3000D60030214607EB3000B7028
:1013E3007C7EB3000A70767E37000E4D3368028030
:1013F3006C7E63000C7C765E700F1B60682F2E6022
:101403007F68040B6078567E2400017CB760053E3C
:10141300241478FB7C656E60FF5E63001A7A6300B8
:101423001A740E12200C74117E704080247E2400E6
:10143300017CB760053E241478FB7C656E60FF5E1B
:1014430063001B7A63001B740E12200C74147E70ED
:101453008012200C740E6C7712200C800302205F24
:1014630002206D7EB300085480BEB080680302146E
:10147300F17EB3000B1BB168191468280BB1786EA9
:101483007E3419007E2400FF7A1F00167E3400127A
:1014930080547E3419127E2400FF7A1F00167E3496
:1014A300004380427EB3000A1468191468280BB104
:1014B300783C7E3418FC7E2400FF7A1F00167E34AD
:1014C300000480227E3419597E2400FF7A1F0016FF
:1014D3007E34000880107E3418DE7E2400FF7A1FDD
:1014E30000167E34001E7A37001480058000022027
:1014F3005F7E37000EBE37001450047A37001402A3
:101503002032CA3B6D777D27E41202F87E140FDA8E
:101513007E04C0C912018C6D117E04438012022C1B
:101523007A1F00251204767F017D373E343E342E28
:101533003414007A71827A6183791E00021BEA20D7
:101543007E1F00251204937F017D373E343E342EE7
:101553003410007A71827A6183791E00021BEA20BB
:101563000B74BE740080789E6D667E7401000B64FC
:101573001E74BE74000138F66D777D377D26120028
:10158300A67D237D373E342E3412007A71827A6130
:10159300831BEA200B74BE74010040DEDA3B227E1B
:1015A300B30012B404247EB30008B4021D7EB3005A
:1015B3000D60030216357EB3000B70767EB3000A0E
:1015C30070707E37000E4D33680280667E63000CB8
:1015D3007C765E700F1B60682C2E607F68040B6046
:1015E30078507E2400017CB760053E241478FB7C90
:1015F300654E63001A7A63001A740E12200C74117C
:101603007E701080217E2400017CB760053E241487
:1016130078FB7C654E63001B7A63001B740E1220FB
:101623000C74147E702012200C740E6C7712200C34
:10163300800302205F02206DCAF8740E6C771220BB
:101643000C7411121FE37CFB30E20F74117C7F5E7C
:1016530070FB12200CE47AB300137CBF30E40A74ED
:10166300117C7F4E708012200C7EB3001324FD6822
:10167300461468480BB278477CBF30E0427E0800CE
:10168300087420121DAD7E37000E121DE77A370055
:101693000E7EB30008546024E0680D24E0680E2435
:1016A30040780F121B048017121F8580121200C886
:1016B300800D12205F80081219E18003121C51DA99
:1016C300F822CA3B7A37004E7F307E3400C87A371F
:1016D3000053A9C7AF740E7E700112200C6D337ACC
:1016E3003700517E27004EBE24004008057E70401F
:1016F30080027C757A7300507411121FE330E0107E
:101703007E3700537D231B247A2700534D3378E81B
:101713007F032E1700517EB300507E7001121FCE3F
:101723007E7300500A277D322E3700517A370051DD
:101733007E37004E9D327A37004E7E730050BE7066
:101743004050A0D202A9D7AFDA3B22CA3B7A1F048A
:101753002D7F306D337A3704317E3704313E343E8A
:10176300343E347F032D1369D000020B0AC07A6F15
:10177300043369300006692000047A1F04377F01AF
:1017830012018C7F717F167F0612018C7F07120076
:10179300D47A1F043B9F779F001202AD50047A7FD7
:1017A300043B7E1F043B12039E7F017E5704313EA0
:1017B300543E547E1F042D2D35791100021B1A004F
:1017C3007E3704310B347A370431BE34010040894B
:1017D300DA3B2253B2FC43B10374807E34FE077EAE
:1017E30024007E7A1BB07E34FE077E24007E7E1B9F
:1017F300B030E0F275DC0075F490E46C7712200CE5
:1018030074017E700812200C74077E703F12200C46
:1018130074097E703F12200C740B7E700712200C2B
:1018230074016C7712200C74027AB30012E47AB359
:1018330000137AB3001A7AB3001B7E3401007E24AE
:1018430000C27A1F04C47AB304C87AB304C9740803
:101853007AB304CAA9D7AF227E0804AB12001E7E56
:101863003704B6BE34010050297E0F04B27D233EF7
:10187300243E242E2404007A51827A4183791E0067
:10188300021BEA000B347A3704B6BE340100784AEF
:1018930080426D337D233E243E247D522E54040426
:1018A3007AB1827AA183691E00020BEA002E240416
:1018B300007A51827A4183791E00021BEA000B34BD
:1018C300BE3400FF78CE7E1F04B29007FC793E0041
:1018D300021BEA2074017AB304AA221E03530054A4
:1018E30000430020005500530042002000530065D0
:1018F300007200690061006C000403090412010016
:101903000202000040BF3402FF000101020001098E
:1019130002430002010080320904000001020201B7
:10192300000524001001052401000104240202051E
:1019330024060001070582034000FF090401000299
:101943000A0000000705810240000007050102406C
:101953000000000001000803530054004300CA7B49
:10196300CA6BCA5BCA4BCA3BCA2BCA1BCA0BC0D0C1
:10197300C083C0827EF1FC7406121FE37CEB740209
:10198300121FE37CCB7404121FE37CDB7CBE30E1CB
:10199300031200A17CBE30E203121CE87CBC30E0E1
:1019A3000312163B7CBC30E103121E4A7CBC30E2BE
:1019B30003121E777CBD30E10312125E7CBE30E061
:1019C3000312000A7AF1FCD082D083D0D0DA0BDA8A
:1019D3001BDA2BDA3BDA4BDA5BDA6BDA7B32CAF8E7
:1019E300740E6C7712200C7411121FE320E1537EE6
:1019F300370014BE34004028057EF04080027CF797
:101A03007E0F00167C7F7420121EA20A2F7E3700E1
:101A1300149D327A3700140A157E1F00162D317A71
:101A23001F00167E3700144D33780F74117E700A31
:101A330012200CE47AB30013800874117E70021232
:101A4300200CDAF8227CABBEA00F2802805175BDB2
:101A53000075BE00E5BC54F04CBAF5BCA9D6BC0079
:101A63000000000000000000007E70FAA935BC2BC6
:101A7300A9C5BCA935DE0AE5BD7C6B6C77E5BE80E4
:101A830013E5BD0A4B7D343E343E343E343E34E5EB
:101A9300BEC4540F0A4B4D437D34221B7078CD7E58
:101AA300341000227F7029A70001E5DE54F04CBA00
:101AB300F5DE29B700027005A9C5DE8003A9D5DECE
:101AC3007E7B20BE201F280374FF2229A70003BEAC
:101AD300A001280374FF2229370004BE3003280322
:101AE30074FF227CB3C42354E07C3B7CBA03548050
:101AF3004C3B4C327E34FEA87E24007E7A1B30E4BD
:101B0300227EB30009BEB00D50507EA003A4901BEB
:101B13001573021B3C021B3F021B5D021B42021B8F
:101B23005D021B45021B48021B4B021B4E021B514D
:101B3300021B54021B57021B5A020FBF0213C70298
:101B430015A2021C9E02146602009E021B60021371
:101B530022021D6F021EF40200C502205F7EB30045
:101B630008B480227EB3000B701C7EB3000A70168B
:101B73007EB3000D70107EB3000C700A7E37000E2A
:101B8300BE340001680302205F7EB30012B4040A6E
:101B93007E3419577E2400FF80087E3419557E2435
:101BA30000FF7A1F00167E3400017A3700140220EA
:101BB300327C5B7F707D437E4304A9BE40084003B3
:101BC30074FF22740CACB419450449740CACB419F9
:101BD30055044A740CACB459F5044D59E5044B9FB4
:101BE30000740CACB4591504515905044F740CAC72
:101BF300B4594504537EB304A9047AB304A97CB44D
:101C03002275E900A9D7BA75EA00121E1CD2AF7E6D
:101C1300B30012B404F912000E7E0804ABE47E3460
:101C230033337E244053121192121505121ECB7EBC
:101C330034185B7E0800507401121BB47E340066B6
:101C43007E0803E87401121BB41210C280FB740EE9
:101C53006C7712200C7411121FE330E03D7E0F00ED
:101C6300167420121DAD0A1B7E2700149D217A27AE
:101C730000147E1F00162D317A1F00167E370014C4
:101C83004D33780E74117E704812200CE47AB30041
:101C9300132274117E704002200C22CAF87EB30016
:101CA3000870237EB3000D701D7EB3000C70177E89
:101CB300B3000B70117EF3000ABEF08050087E372C
:101CC300000E4D33680512205F8017E47C7F1220DD
:101CD3000C4CFF68047403800274027AB30012127E
:101CE300206DDAF822E46C7712200C74027AB300C8
:101CF30012E47AB30013740E7E700112200C741177
:101D03007E704812200C740E7E700212200C741127
:101D13007E704812200C740E7E700112200C741415
:101D23007E709012200C740E6C7702200C75840167
:101D33007E44041FE47A49B01B4478F97EF804CA50
:101D43007E0400FF7E1420DC0B0A405D44681A69A0
:101D53002000020B0E0B44800A7E0BB07A29B00BD5
:101D6300240B0C1B4478F280DF021C047EB30012A8
:101D7300B4041D7EB30008B481167EB3000B70104B
:101D83007EB3000D700A7E37000EBE340001680377
:101D930002205F7E3419557E2400FF7A1F00167ED1
:101DA3003400017A370014022032CA3B7F30CAB8AC
:101DB3000BFD7416121FE37AFBB039BFFFFF800CD3
:101DC30029BFFFFE121FE37A3BB00B747EFBA07C9E
:101DD300BA147AFBB04CAA78E729BFFFFF9EF8003C
:101DE30003DA3B227A3700217E3400227E2400006E
:101DF3007E1B307E3400237E2400007A1B307E3429
:101E030000217E2400007E1B307E3400247E2400CB
:101E1300007A1B307E3700232243B10353B2FC7494
:101E2300807E34FE077E24007E7A1BB07E34FE075C
:101E33007E24007E7E1BB030E0F275DC0075F490EA
:101E43001217D6A9D7AF22CAF8740E7E70011220DA
:101E53000C7411121FE37CFB30E50874117E704093
:101E630012200C7CBF30E20774116C7712200CC275
:101E730002DAF822CAF8740E7E700212200C741172
:101E8300121FE37CFB30E50874117E704012200CB6
:101E93007CBF30E20774116C7712200CDAF822CA87
:101EA3003BCA787F30CAB8800B7EFBB07E3B700B99
:101EB3007412200C29AFFFFF7CBA1439BFFFFF4C0B
:101EC300AA78E61BFDDA3B22E47AB304A99F117AD0
:101ED3001F04457E34FEA07E24007E7A1BB0438E11
:101EE300805389F0758A40758CA2C28DD28CD2A999
:101EF300227EB30012B4041B7EB30008B401147E27
:101F0300B3000B700E7EB3000D70087E37000E4DCC
:101F130033680302205F02206D7EB30012B404090C
:101F23007EB30008BEB0A1680302205F7E1804C41C
:101F33007A1F00167E37000E7A3700140220327E95
:101F4300B30012B404097EB30008BEB021680302D3
:101F5300205F7E1804C47A1F00167E37000E7A377E
:101F63000014022051801200000000000000000055
:101F73000000000000000000007D231B344D227888
:101F8300E6227EB3000924DF680A14680A0BB178DD
:101F930009021F42021F1C021FB802205FCA797D7B
:101FA3007380077E3403E8121F687D371B744D333B
:101FB30078F1DA79227EB30012B404097EB3000803
:101FC300BEB021680302205F02206D7CA77C7B0AE0
:101FD3005A2E540020121EA274117E700102200C8E
:101FE3007CABE5FC20E7FB7CBA4480F5FCE5FC20F8
:101FF300E7FBE5EC227AB3004D7E08004D7E34000A
:10200300011216C57EB3004D227CA77C7BE5FC2024
:10201300E7FB7CB7547FF5FC7AA1EC22CA1BC0D145
:102023007E1F04450B1C7A1F0445D0D1DA1B327482
:10203300037AB3001374117E704012200C0219E16D
:102043007C7BA5BF0104A9D7BC22A9C7BC22740409
:102053007AB3001374117E704002200C74057AB3B6
:10206300001374117E706002200CE47AB3001374C1
:10207300117E704802200CC0D1B2EDD0D132C0D154
:10208300B2ECD0D132C0D1B2EBD0D132283029005A
:102093004445425547001B5B313B33366D00494E87
:1020A300464F001B5B313B33326D005741524E00AC
:1020B3001B5B313B33336D004552524F52001B5B68
:1020C300313B33316D000A001B5B306D005B2573C0
:1020D3005D2025733A25642000000204B600000049
:1020E30001001C01000404B800FF2121000404BC0A
:1020F30000000000000404C0000000000001001103
:102103000000040445000000000000427265617491
:10211300683A20252E31662042504D0D0A00405367
:07212300544349535023000F
:00000001FF
