:1000000002158FCA79740E7E7001121914741412BD
:1000100018FF7CFB30E60874147E70801219147C83
:10002000BF20E0030200C47E1400407E040001747F
:100030002112160C7AB300107E1F00D24D237803D4
:100040000200C26CFF80737EB300111A3B7E0F006A
:10005000D22D317D207E1BA00A4F2E4400407A9184
:10006000827A81837EEBE0BCEA7839047AB30011AE
:100070007E7300111A372D317D207E1BB0703974CC
:10008000146C7712191475F40075DC00E47E34FEEC
:10009000077E24007E7A1BB07E34000A1218777522
:1000A000C76080FE7E1F00D27E1B70BCE7780474A0
:1000B000018001E47AB300110BF07E730010BC7F65
:1000C0003885D200DA79220219462202115C020434
:1000D0009A6E00807CB1337CB033680D0468EF7C8D
:1000E000B5337CB43378037F10220468E17D5092ED
:1000F000F77D457D51BF2140067C807F017F121234
:10010000045D7EA1D05CB004780320D5C17CB0042E
:1001100078075002B2D50204A292D5BE80FF68F6DD
:100120007CB89CB06C00602AB418057C410204764F
:1001300050FB80032F00047C9B5E900778F630E430
:10014000067C437D106D0030E3087C437C327C21CB
:100150000A0030F5199F10780E2202049F1B806858
:10016000F92F1150020B707CB530E7F1801B2D3157
:100170007CB5A5397C5B50110B8078030204A21E6C
:10018000341350034E60801A2B0204765D22680DF2
:100190005D0078122D220B4068099F11222D000B63
:1001A0000078F902049A12045D5C800B80680824D0
:1001B0008150072CB0500A0204A22CB04003020464
:1001C0009F7C8B5D1178267CB17CA5BE1080680A6F
:1001D0005D33780DA5BD80057F1002048C6D008015
:1001E000307F017C5B7CB17CA5AD1280245D3378CF
:1001F00006A5BD80F080E1CA887D41AD437CB17C1D
:10020000A5AD122D1450020B047C5BAD232F01DA37
:1002100088A42D05BE008040060B80780480982FAE
:10022000007C437C507C617C72020476BE24FFFF1C
:100230006806BE04FFFF780302049A12045D5CB0F6
:100240000468F57CB8A54868EF7CB870039F11225C
:10025000A5B800030204A22E008150079C80380735
:1002600002049F9C8050ED0A51C2E74D5178030271
:10027000048C7E5400807E901A6C0080061B90686F
:10028000142F11BF1040049F104CAB0330E7EECA8F
:10029000A86CAA80E8DA39DA587C4ABE5080500A45
:1002A0001B8068BC2F1150020B7002047674F86C2E
:1002B000AA6E40806E0080BEB0FF68277C837C976A
:1002C0005C3B5C7BBF10682AF4400D7C382D15F434
:1002D0005C3B500F0B04800B7C792D35F45C7B501C
:1002E000020B24BF10680B7CB020E7067CB420E72B
:1002F00001B3227EA020800C7EA01080057EA00885
:100300006C556D333392D5500A6E34FFFF6E24FF67
:10031000FF0B1CA5EC3340062F11D5F0F6227CBA5A
:10032000247EA2D5137C767C65A5CC92E77C5B22EB
:100330007F707F517EC400007ED400B57E9403435D
:100340000204DB4005E47A7BB0227A7BB00B7C228E
:100350007F707F517E6F00007E94035F0204DB405C
:1003600005E47A7BB0227A7BB00B7C223E4892DA9D
:100370003ECCCCCD3F2AAAAB400000003F8000001D
:100380003F9837F03FB504F33FD744FC3E31721736
:100390003EB172173F0515917D424E50802D447C31
:1003A000B804780CA5BD800592D50204A202049A77
:1003B00040FBD31468F27E403F7C057C16E49E042B
:1003C0008B96401B049E041A694014049E041F6807
:1003D000400D049E04255A40060B80E45E507FCAFF
:1003E000887F612323CAB80A9B2E94037C7E8400F5
:1003F000FF0B4A00691400021200D47F710B4A20DF
:10040000693400027F061200D17F076E008012025D
:100410002C7F617E94036C7E8400FF74031208EAD3
:100420007F0612018CDAB860140A9B2E9403887E32
:100430008400FF0B4A00691400021200D47F61DAC5
:10044000586C449E24007F7CB41202F87E1472180B
:100450007E043F3112018C7F061200D4222D0092BF
:10046000D50E104E10807D422D445002B2D54E5014
:10047000806C447CB8222C4450120B1C7E40005EE1
:10048000507FBE18000078040B806816A2D57CB897
:10049000137C4B7CB592E77C5B227E1CFFFF229F86
:1004A00011227E24FF8020D5026C456D3322540F2B
:1004B0002490D43440D430F30CBEB0414007BEB0D9
:1004C0005B500224204CCC68021BC00B84D389945F
:1004D0004CCC680B74201204C580F5CA3B6D889F14
:1004E000337CAE7E5BB00B5C7007C37D38DA3B8932
:1004F00094B42569C2F37E5BB00B5CA5F824D0BE32
:10050000B00A501B7E500A20F60DAC5CA52D7CCBAA
:1005100070034EF00180DDAC5DA52D7CDB80D52421
:10052000CFBEB01AA5E850055E00DFD2F39008B048
:10053000A3E4936011BCB078F77417934CAB30F61A
:10054000B34EF08080AEA3E4936010BCB078F77433
:1005500016937C3B7423937C2B89147CB08013749A
:10056000201204C520F205BEC00250F31B6D29B64F
:1005700000011204C50204D01B6E691600020B6A4A
:1005800000BE08000078087E0400FF7E14199F203A
:10059000F21E4CCC681A7F10E47E1B804C886807E2
:1005A0000B1C04BCBD78F2C2F6CA0B1206AFDA0B04
:1005B0007E0BB060C0CA0B1204C5DA0B0B0C4CDD0D
:1005C00068EE1BD078EA80ADD2F07E101080037EFA
:1005D00010085EB05F800AD2F67E100A80057E1099
:1005E0000AC2F66D119F117E00201B6C7E6B70306D
:1005F000F6021A3720F1051B6C7E6B6030F6041A88
:10060000261A2430F0051B6D0B6A20A5EC3382F608
:1006100092F6500A7CEA9F229F217F127CAE4C44C6
:10062000780F7C457C567C676C772E00F878EF80DD
:10063000122F117CB3337C3B9CB140047C3B0B708C
:10064000A5D8EE7CB230E005DAB8C44C3BCA380B12
:10065000207E00207E3000BE18000078C1BE100849
:10066000780730F404C2F480B5CA287CB2BCBD3827
:10067000027CBD1206AFDA28BC2D500A1BD0E4CA9A
:10068000281204AE80F07CB213DAB84004C4CAB8B1
:10069000C4CA28BEF08040095CDD7805A5DA026096
:1006A000065EF07F1204AEDA28A5DADA0204D0BEC4
:1006B000F001680F30F402240220F50620F7033021
:1006C000F6010420F229BCBC5025CAB87CBF13B087
:1006D000E67420501174307C8A5E80F0680812063F
:1006E000EF5EA00F80031204C5DAB8BCBC78DB3023
:1006F000F40F74301204C5745830F3027478120485
:10070000C530F605742D0204C5742B20F5F874204D
:1007100020F7F3221B6C7E6BB010F1021B6C20F6ED
:100720000B30E704F404D2F27CCB800520E7057C93
:10073000DB0204F45EF07F80F81B6E691600020B8A
:100740006A0030F0076D221B0A200B0D1B0A800285
:1007500004DFE46C22BE3007500B7F1F2D312E3496
:10076000FFF77E39B0227CBF20E7A8742E4EF080C0
:100770000204C5120899403D7CBD7003047CDB1265
:1007800009DD7C3D4C3368101B307CBE20E409122F
:10079000075270044C3378F07CBD7CD3BEA0FD487A
:1007A0001CBCAB5818E49CBA2CB31801E47CDB02E7
:1007B000083A120899406E7CBD041209DD7AFBA04C
:1007C0007CAE7CBDA2F492F0C2F44002600104242D
:1007D000051206AF7E30FF0B30120752CA381204E2
:1007E000AE20F0044CDD6803120766DA38BC3D78B1
:1007F000E6740E1204AE742B7EFBA030F707742D46
:100800006EA0FF0BA07AFBA01204C57EA00A7EFB9F
:10081000B0847AFBA01204AE7EFBB01204AE9EF848
:1008200000080204D0D2F27ED00002058F1208998F
:1008300040F37CBA2CBD041209DD7AFBA07CBA7CA3
:10084000AE30E701E40420F4044CDD6805D2F0C2C8
:10085000F4042CBD1206AF6C337EFBB0601B20E7A6
:1008600012147AFBB0120752CA381204AEDA380BEF
:100870003080E6047AFBB01B30120752CA381204EB
:10088000AE4CDD68071207661BD080E19EF80009B8
:1008900030F0031207660204D07CEA7CAF10F70345
:1008A0007ED0067CFA1B6E693600020B6A200209B4
:1008B000252D2B204C4248232E0053584F444943AA
:1008C00055502A4E46454700042080010200104042
:1008D00078CACFD7D764DEC814392DB273050505A1
:1008E00005050505050707080707CAB87F011201B6
:1008F0008CDAB87F510B4A20693400020B4E7F0519
:10090000CAB812018C0B4A00691400020B4E120087
:10091000D4DAB81478E8224E614E002B494E4600D6
:100920002D494E46007D522D557CBE92E67CEB7CD7
:10093000BA601F0470287CB5C2E77E0400FF600621
:100940007E140917D3227E14092040047E14091B4B
:10095000D322DA099F22CA2BCA2BC3CA09220A0A48
:100960007E144D10AD109E083AF09E10267CB5C244
:10097000E77EA0567C9BA46E54FFFF2E54C511AC9D
:10098000A92D15E4A539CAB8CA1B20E70A120A50D6
:10099000DA1B12022C800AF404120A50DA1B12012C
:1009A0008CDAA87CB5337CB4334E50806C442482FE
:1009B0002F111478FBDA497407BE400A40099E40A3
:1009C0000ACA0201140BA0CA486C442F117F012FE0
:1009D000112F112F101478EFCA48CA49227F0F2017
:1009E000E73ABEB007400274070A0B2D109E1400B0
:1009F000097E19B02EB0FB501F4C116817E47A190C
:100A0000B01B147E19B0047A19B0B40A0BE47A1939
:100A1000B0A5D9ED0BA074017A19B0225EE0BF2217
:100A20003F8000004120000042C80000447A0000DE
:100A3000461C400047C35000497424004B18968060
:100A40004CBEBC205A0E1BCA6753C21C749DC5AE57
:100A50007C7B6006540768162323120A757CB75402
:100A600038680A7F10120A7212018C7F01227CB74B
:100A7000543803241C6CAA2E540A207E4400FF0B19
:100A80002A0069120002227D51AD037D027D21AD55
:100A9000052D12AD352D2122CAF87EF300087CBF4A
:100AA0005480B480167EB3000B70307EB3000A70A1
:100AB0002A7E37000EBE3400026803020B907CBF12
:100AC000540F14681B14683B0BB16803020B907E33
:100AD000B3000D70067EB3000C601E020B908019EF
:100AE0007EB30012B4040F7EB3000D6003020B90BE
:100AF0007EB3000C6003020B907E3411507E240004
:100B0000FF807D7EB30012B404067EB3000D600248
:100B1000807E7E73000C7CA75EA00F1B7068362E53
:100B2000707F68040B7078687E2400017CBA6005D1
:100B30003E241478FB7E73001A6C665C754D336836
:100B40000A7E3411527E2400FF80357E3411507E9F
:100B50002400FF802B7E2400017CBA60053E241413
:100B600078FB7E73001B6C665C754D33680A7E34BF
:100B700011527E2400FF80087E3411507E2400FF35
:100B80007A1F00167E3400027A3700148007800036
:100B90001219468003121927DAF8227EB30012BE1A
:100BA000B00268207EB30008701A7EB3000B701488
:100BB0007EB3000D700E7EB3000C70087E37000E01
:100BC0004D3368030219467EB3000AB4015F740412
:100BD0007AB30012E47AB3001A7AB3001B740E7E63
:100BE000700112191474127E702012191474107E80
:100BF0007008121914740E7E700212191474127E89
:100C0000702012191474107E7008121914740E7E5C
:100C1000700112191474126C7712191474137E7007
:100C200008121914740E6C77121914801074037A58
:100C3000B3001274FF7AB3001A7AB3001B02197D55
:100C40007EB30012B404247EB30008B4021D7EB348
:100C5000000D6003020CD97EB3000B707C7EB300E4
:100C60000A70767E37000E4D336802806C7E63001A
:100C70000C7C765E700F1B60682F2E607F68040B03
:100C80006078567E2400017CB760053E241478FB12
:100C90007C656E60FF5E63001A7A63001A740E1240
:100CA000191474117E704080247E2400017CB7608A
:100CB000053E241478FB7C656E60FF5E63001B7A42
:100CC00063001B740E12191474147E7080121914B0
:100CD000740E6C77121914800302194602197D7E76
:100CE000B300085480BEB0806803020D6A7EB30072
:100CF0000B1BB168191468280BB1786E7E3410FB99
:100D00007E2400FF7A1F00167E34001280547E3449
:100D1000110D7E2400FF7A1F00167E3400438042AE
:100D20007EB3000A1468191468280BB1783C7E342D
:100D300010F77E2400FF7A1F00167E340004802204
:100D40007E3411547E2400FF7A1F00167E34000882
:100D500080107E3410D97E2400FF7A1F00167E3466
:100D6000001E7A370014800580000219467E370085
:100D70000EBE37001450047A370014021927CA3BFC
:100D80007A3700E57F306D337A3700E8020E0F7452
:100D9000387AB300E77E3700E5BE34003850047A75
:100DA0007300E71218467E7300E70A572E540003BB
:100DB000900004F074AF900005F07E1700E87E34D8
:100DC00000067E2400011B1A107E7300E70A37CA52
:100DD000397F137E1400087E0400011217D01BFD1A
:100DE0007E7300E70A372E3400080A371211DC7EC2
:100DF0007300E70A372D737E7300E70A272E37004A
:100E0000E87A3700E87E3700E59D327A3700E57EE4
:100E10003700E54D336803020D8FDA3B227EB300C5
:100E200012B404247EB30008B4021D7EB3000D602A
:100E300003020EB07EB3000B70767EB3000A7070B2
:100E40007E37000E4D33680280667E63000C7C7630
:100E50005E700F1B60682C2E607F68040B607850FA
:100E60007E2400017CB760053E241478FB7C654E2F
:100E700063001A7A63001A740E12191474117E70CA
:100E80001080217E2400017CB760053E241478FB8D
:100E90007C654E63001B7A63001B740E1219147478
:100EA000147E7020121914740E6C771219148003BA
:100EB00002194602197DCA3B6D777E644120E41217
:100EC00012B07D23E41202F87E1433337E044053C3
:100ED00012018C7E14126F7E04408312022C7A1F42
:100EE00000C912154C7A1F00C96D117E04443912D5
:100EF00002AD501C7E1F00C91203987E1480007E34
:100F00000443B212018C7E14A0007E04450C80279D
:100F10006D117E0444397E1F00C91202AD281D7E6A
:100F20001F00C91203986D117E04439D12018C7E2F
:100F30001460007E0444F51200D17F317F13DA3B48
:100F400022CAF8740E6C7712191474111218FF7CEF
:100F5000FB30E20F74117C7F5E70FB121914E47A8F
:100F6000B300137CBF30E40A74117C7F4E70801292
:100F700019147EB3001324FD68461468480BB27838
:100F8000477CBF30E0427E080008742012160C7EB9
:100F900037000E12167B7A37000E7EB300085460BD
:100FA00024E0680D24E0680E2440780F12136C8052
:100FB00017121812801212199B800D121946800800
:100FC000121249800312146DDAF822CA3B7A3700F4
:100FD0008D7F307E3400C87A370092A9C7AF740E77
:100FE0007E70011219146D337A3700907E27008DC0
:100FF000BE24004008057E704080027C757A730034
:101000008F74111218FF30E0107E3700927D231B81
:10101000247A2700924D3378E87F032E1700907EC4
:10102000B3008F7E70011218EA7E73008F0A277D4D
:10103000322E3700907A3700907E37008D9D327ABD
:1010400037008D7E73008FBE704050A0D202A9D7AA
:10105000AFDA3B2253B2FC43B10374807E34FE0707
:101060007E24007E7A1BB07E34FE077E24007E7EC6
:101070001BB030E0F275DC0075F490E46C77121967
:101080001474017E700812191474077E703F1219CF
:101090001474097E703F121914740B7E70071219B4
:1010A0001474016C7712191474027AB30012E47A82
:1010B000B300137AB3001A7AB3001B7E3401007EAA
:1010C0002400C27A1F00DE7AB300E27AB300E37430
:1010D000087AB300E4A9D7AF221E0353005400439B
:1010E00000200055005300420020005300650072AC
:1010F00000690061006C000403090412010002028F
:10110000000040BF3402FF00010102000109024358
:101110000002010080320904000001020201000502
:101120002400100105240100010424020205240604
:101130000001070582034000FF09040100020A00C4
:101140000000070581024000000705010240000081
:10115000000001000803530054004300CA7BCA6B1F
:10116000CA5BCA4BCA3BCA2BCA1BCA0BC0D0C083BE
:10117000C0827EF1FC74061218FF7CEB7402121818
:10118000FF7CCB74041218FF7CDB7CBE30E10312C1
:10119000199E7CBE30E2031215047CBC30E00312C1
:1011A0000F417CBC30E1031216B07CBC30E203126C
:1011B00017087CBD30E1031200037CBE30E003124F
:1011C00000CA7AF1FCD082D083D0D0DA0BDA1BDAF5
:1011D0002BDA3BDA4BDA5BDA6BDA7B32CA3B7D73B4
:1011E0007E3400C87A37001DA9C7AF740E7E700127
:1011F0001219146D66BE74004028057E704080028E
:101200007C7F7A73001C74111218FF30E0107E3757
:10121000001D7D231B247A27001D4D3378E87D16A1
:101220002E1400007E0400017EB3001C7E700112AB
:1012300018EA7E73001C0A272D629D72BE70405012
:10124000B4D202A9D7AFDA3B22CAF8740E6C771277
:10125000191474111218FF20E1537E370014BE34A4
:10126000004028057EF04080027CF77E0F00167C4F
:101270007F74201217330A2F7E3700149D327A377D
:1012800000140A157E1F00162D317A1F00167E37B6
:1012900000144D33780F74117E700A121914E47A19
:1012A000B30013800874117E7002121914DAF82248
:1012B0007CABBEA00F2802805175BD0075BE00E555
:1012C000BC54F04CBAF5BCA9D6BC0000000000002C
:1012D000000000007E70FAA935BC2BA9C5BCA93559
:1012E000DE0AE5BD7C6B6C77E5BE8013E5BD0A4B7D
:1012F0007D343E343E343E343E34E5BEC4540F0AA1
:101300004B4D437D34221B7078CD7E341000227FFC
:101310007029A70001E5DE54F04CBAF5DE29B700CC
:10132000027005A9C5DE8003A9D5DE7E7B20BE2024
:101330001F280374FF2229A70003BEA001280374FD
:10134000FF2229370004BE3003280374FF227CB338
:10135000C42354E07C3B7CBA0354804C3B4C327E2B
:1013600034FEA87E24007E7A1B30E4227EB300097E
:10137000BEB00D50507EA003A490137D730213A441
:101380000213A70213C50213AA0213C50213AD026A
:1013900013B00213B30213B60213B90213BC021343
:1013A000BF0213C2020A98020C40020E1D0214BAB8
:1013B000020CDF0200C70213C8020B9B0215CE020B
:1013C000175C0219980219467EB30008B480227E89
:1013D000B3000B701C7EB3000A70167EB3000D7054
:1013E000107EB3000C700A7E37000EBE3400016818
:1013F000030219467EB30012B4040A7E3411527EF1
:101400002400FF80087E3411507E2400FF7A1F00E4
:10141000167E3400017A37001402192775E900A9F5
:10142000D7BA75EA001216DD121646D2AF7EB300A7
:1014300012B404F9120EB67A1F00857E0F00C97A25
:101440000F00B17A1F00AD7E0800217E341A787E2D
:101450002400FF1203307E0800211219627E08006A
:1014600021120FCB7E34000112185F80C7740E6CFE
:101470007712191474111218FF30E03D7E0F001618
:10148000742012160C0A1B7E2700149D217A270057
:10149000147E1F00162D317A1F00167E3700144D62
:1014A00033780E74117E7048121914E47AB3001365
:1014B0002274117E704002191422CAF87EB300080B
:1014C00070237EB3000D701D7EB3000C70177EB3C9
:1014D000000B70117EF3000ABEF08050087E3700CA
:1014E0000E4D3368051219468017E47C7F121914DB
:1014F0004CFF68047403800274027AB3001212195C
:101500007DDAF822E46C7712191474027AB30012AF
:10151000E47AB30013740E7E700112191474117EF4
:101520007048121914740E7E700212191474117E10
:101530007048121914740E7E700112191474147EFE
:101540007090121914740E6C770219147F719F1128
:101550006DDD7DCD3EC43EC4491C00BB490C00B9C5
:10156000591C00B7590C00B5491C00B7490C00B50F
:101570001200D40BD4BED4000448D77A7F00C57EB5
:101580000F00C51200D46D117E0440A002022C751C
:1015900084017E44041FE47A49B01B4478F97EF844
:1015A00000E97E0400FF7E1419A30B0A405D446825
:1015B0001A692000020B0E0B44800A7E0BB07A29B8
:1015C000B00B240B0C1B4478F280DF02141C7EB39A
:1015D0000012B4041D7EB30008B481167EB3000B64
:1015E00070107EB3000D700A7E37000EBE3400010D
:1015F00068030219467E3411507E2400FF7A1F00D2
:10160000167E3400017A370014021927CA3B7F3056
:10161000CAB80BFD74161218FF7AFBB039BFFFFF72
:10162000800C29BFFFFE1218FF7A3BB00B747EFBC3
:10163000A07CBA147AFBB04CAA78E729BFFFFF9EC2
:10164000F80003DA3B224391015392FE5391FD438C
:101650009202D291741F7AB3008D740F7AB3008E08
:10166000E47AB3008F7AB3009074017AB300917E6C
:1016700008008D12130F74010219547A3700897E05
:1016800034008A7E2400007E1B307E34008B7E2452
:1016900000007A1B307E3400897E2400007E1B30DF
:1016A0007E34008C7E2400007A1B307E37008B2233
:1016B000CAF8740E7E700112191474111218FF7C8E
:1016C000FB30E50874117E70401219147CBF30E2C3
:1016D0000774116C77121914C202DAF82212198AEF
:1016E00074807E34FE077E24007E7A1BB07E34FE3A
:1016F000077E24007E7E1BB030E0F275DC0075F4BE
:1017000090121054A9D7AF22CAF8740E7E7002123C
:10171000191474111218FF7CFB30E50874117E70E7
:10172000401219147CBF30E20774116C771219143F
:10173000DAF822CA3BCA787F30CAB8800B7EFBB089
:101740007E3B700B7412191429AFFFFF7CBA143959
:10175000BFFFFF4CAA78E61BFDDA3B227EB30012E6
:10176000B4041B7EB30008B401147EB3000B700EEA
:101770007EB3000D70087E37000E4D3368030219EA
:101780004602197D7EB30012B404097EB30008BE80
:10179000B0A168030219467E1800DE7A1F00167E8B
:1017A00037000E7A3700140219277EB30012B404F2
:1017B000097EB30008BEB02168030219467E1800F6
:1017C000DE7A1F00167E37000E7A370014021938B1
:1017D0007F217F707F10800A7E2B307A1B300B5464
:1017E0000B34691FFFFD7D011B04790FFFFD4D11B7
:1017F00078E67F1722801200000000000000000041
:101800000000000000000000007D231B344D227802
:10181000E6227EB3000924DF680A14680A0BB17857
:10182000090217AA0217840218D4021946744F90AD
:101830000000F0744C900001F07445900002F074C8
:1018400080900003F022744C900000F074439000EC
:1018500001F07444900002F07480900003F022CAFA
:10186000797D7380077E3403E81218BD7D371B74C1
:101870004D3378F1DA7922CA797D7380077E34039B
:10188000E81217F57D371B744D3378F1DA79227C35
:101890007B1B71680B1B70680A0B717808C2A3224E
:1018A000C2A222C2A1227C7B1B71680B1B70680A3A
:1018B0000B717808D2A322D2A222D2A1227D237E4C
:1018C0003400037D131B147D3178F87D121B147DC9
:1018D0002178EC227EB30012B404097EB30008BE66
:1018E000B021680302194602197D7CA77C7B0A5A45
:1018F0002E54002012173374117E70010219147CCB
:10190000ABE5FC20E7FB7CBA4480F5FCE5FC20E776
:10191000FBE5EC227CA77C7BE5FC20E7FB7CB75455
:101920007FF5FC7AA1EC2274037AB3001374117E64
:10193000704012191402124974047AB3001374111E
:101940007E704002191474057AB3001374117E700E
:10195000600219147C7BA5BF0104A9D7BC22A9C7CA
:10196000BC226D3380020B347E0BB00B1470F72257
:101970005395F143960E53B1BF43B24022E47AB37C
:10198000001374117E704802191443B10353B2FC62
:1019900022D2A3D2A2D2A12202194602194622289B
:1019A0003029000064002100000000000000000059
:1019B0000000000000000000000000000000000027
:1019C0000000000000000000000000000000000017
:1019D0000000000000000000000000000000000007
:1019E00000000000000000000000000000000000F7
:1019F00000000000000000000000000000000000E7
:101A0000000000000000000000000000040085004D
:101A1000000000000400D200FF1A6F000400D6008E
:101A2000000000000400DA000000000001001F00B8
:101A3000001400B5000000000000000000000000DD
:101A40000000000000000000000400C900000000C9
:101A5000000100D1010001001100000035304EC12D
:101A6000A6B4ABB8D0C6F7284E293A25640A004080
:101A70005354434953502300252E33662C252E33CF
:031A8000660A00F3
:00000001FF
