:10000000021469CA79740E7E70011217EC7414120E
:1000100017D77CFB30E60874147E70801217EC7CD6
:10002000BF20E0030200C47E1400407E040001747F
:10003000211214E67AB300107E1F01054D237803C8
:100040000200C26CFF80737EB300111A3B7E0F0169
:10005000052D317D207E1BA00A4F2E4400407A9151
:10006000827A81837EEBE0BCEA7839047AB30011AE
:100070007E7300111A372D317D207E1BB0703974CC
:10008000146C771217EC75F40075DC00E47E34FE16
:10009000077E24007E7A1BB07E34000A12174F754B
:1000A000C76080FE7E1F01057E1B70BCE77804746C
:1000B000018001E47AB300110BF07E730010BC7F65
:1000C0003885D200DA792202181E2202103E02037D
:1000D000A96E00807CB1337CB033680D0468EF7C7E
:1000E000B5337CB43378037F10220468E17D5092ED
:1000F000F77D457D51BF2140067C807F017F121234
:10010000036C7EA1D05CB004780320D5C17CB00420
:1001100078075002B2D50203B192D5BE80FF68F6CF
:100120007CB89CB06C00602AB418057C4102038541
:1001300050FB80032F00047C9B5E900778F630E430
:10014000067C437D106D0030E3087C437C327C21CB
:100150000A0030F5199F10780E220203AE1B80684A
:10016000F92F1150020B707CB530E7F1801B2D3157
:100170007CB5A5397C5B50110B8078030203B11E5E
:10018000341350034E60801A2B0203855D22680DE4
:100190005D0078122D220B4068099F11222D000B63
:1001A0000078F90203A912036C5C800B80680824B4
:1001B0008150072CB0500A0203B12CB04003020357
:1001C000AE7C8B5D1178267CB17CA5BE1080680A60
:1001D0005D33780DA5BD80057F1002039B6D008007
:1001E000307F017C5B7CB17CA5AD1280245D3378CF
:1001F00006A5BD80F080E1CA887D41AD437CB17C1D
:10020000A5AD122D1450020B047C5BAD232F01DA37
:1002100088A42D05BE008040060B80780480982FAE
:10022000007C437C507C617C72020385BE24FFFF0E
:100230006806BE04FFFF78030203A912036C5CB0DA
:100240000468F57CB8A54868EF7CB870039F11225C
:10025000A5B800030203B12E008150079C80380727
:100260000203AE9C8050ED0A51C2E74D5178030263
:10027000039B7E5400807E901A6C0080061B906861
:10028000142F11BF1040049F104CAB0330E7EECA8F
:10029000A86CAA80E8DA39DA587C4ABE5080500A45
:1002A0001B8068BC2F1150020B7002038574F86C20
:1002B000AA6E40806E0080BEB0FF68277C837C976A
:1002C0005C3B5C7BBF10682AF4400D7C382D15F434
:1002D0005C3B500F0B04800B7C792D35F45C7B501C
:1002E000020B24BF10680B7CB020E7067CB420E72B
:1002F00001B3227EA020800C7EA01080057EA00885
:100300006C556D333392D5500A6E34FFFF6E24FF67
:10031000FF0B1CA5EC3340062F11D5F0F6227CBA5A
:10032000247EA2D5137C767C65A5CC92E77C5B22EB
:100330007F707F517EC400007ED401057E9403430C
:100340000203EA4005E47A7BB0227A7BB00B7C2280
:100350007F707F517E6F00007E94035F0203EA404E
:1003600005E47A7BB0227A7BB00B7C222D0092D5FB
:100370000E104E10807D422D445002B2D54E50805A
:100380006C447CB8222C4450120B1C7E40005E5002
:100390007FBE18000078040B806816A2D57CB813C5
:1003A0007C4B7CB592E77C5B227E1CFFFF229F1179
:1003B000227E24FF8020D5026C456D3322540F2409
:1003C00090D43440D430F30CBEB0414007BEB05B93
:1003D000500224204CCC68021BC00B84D389944C5F
:1003E000CC680B74201203D480F5CA3B6D889F3310
:1003F0007CAE7E5BB00B5C7007C37D38DA3B8994C2
:10040000B42569C2F37E5BB00B5CA5F824D0BEB006
:100410000A501B7E500A20F60DAC5CA52D7CCB70DB
:10042000034EF00180DDAC5DA52D7CDB80D524CFB3
:10043000BEB01AA5E850055E00DFD2F39007BFA357
:10044000E4936011BCB078F77417934CAB30F6B3FB
:100450004EF08080AEA3E4936010BCB078F77416C1
:10046000937C3B7423937C2B89147CB08013742081
:100470001203D420F205BEC00250F31B6D29B60052
:10048000011203D40203DF1B6E691600020B6A001F
:10049000BE08000078087E0400FF7E14187720F262
:1004A0001E4CCC681A7F10E47E1B804C8868070BBA
:1004B0001C04BCBD78F2C2F6CA0B1205BEDA0B7E74
:1004C0000BB060C0CA0B1203D4DA0B0B0C4CDD6806
:1004D000EE1BD078EA80ADD2F07E101080037E1043
:1004E000085EB05F800AD2F67E100A80057E100A90
:1004F000C2F66D119F117E00201B6C7E6B7030F672
:10050000021A3720F1051B6C7E6B6030F6041A2648
:100510001A2430F0051B6D0B6A20A5EC3382F6928D
:10052000F6500A7CEA9F229F217F127CAE4C4478D1
:100530000F7C457C567C676C772E00F878EF801234
:100540002F117CB3337C3B9CB140047C3B0B70A5EA
:10055000D8EE7CB230E005DAB8C44C3BCA380B2088
:100560007E00207E3000BE18000078C1BE100878E2
:100570000730F404C2F480B5CA287CB2BCBD38028E
:100580007CBD1205BEDA28BC2D500A1BD0E4CA2857
:100590001203BD80F07CB213DAB84004C4CAB8C4F8
:1005A000CA28BEF08040095CDD7805A5DA02600645
:1005B0005EF07F1203BDDA28A5DADA0203DFBEF0AF
:1005C00001680F30F402240220F50620F70330F60C
:1005D000010420F229BCBC5025CAB87CBF13B0E688
:1005E0007420501174307C8A5E80F068081205FE19
:1005F0005EA00F80031203D4DAB8BCBC78DB30F401
:100600000F74301203D4745830F30274781203D488
:1006100030F605742D0203D4742B20F5F8742020D5
:10062000F7F3221B6C7E6BB010F1021B6C20F60BF3
:1006300030E704F404D2F27CCB800520E7057CDBB4
:100640000204035EF07F80F81B6E691600020B6ADD
:100650000030F0076D221B0A200B0D1B0A800203DD
:10066000EEE46C22BE3007500B7F1F2D312E34FF7D
:10067000F77E39B0227CBF20E7A8742E4EF08002AE
:1006800003D41207A8403D7CBD7003047CDB120834
:10069000BF7C3D4C3368101B307CBE20E409120641
:1006A0006170044C3378F07CBD7CD3BEA0FD481C47
:1006B000BCAB5818E49CBA2CB31801E47CDB0207ED
:1006C000491207A8406E7CBD041208BF7AFBA07CCB
:1006D000AE7CBDA2F492F0C2F44002600104240595
:1006E0001205BE7E30FF0B30120661CA381203BD00
:1006F00020F0044CDD6803120675DA38BC3D78E65C
:10070000740E1203BD742B7EFBA030F707742D6EA0
:10071000A0FF0BA07AFBA01203D47EA00A7EFBB040
:10072000847AFBA01203BD7EFBB01203BD9EF800CD
:10073000080203DFD2F27ED00002049E1207A84016
:10074000F37CBA2CBD041208BF7AFBA07CBA7CAE45
:1007500030E701E40420F4044CDD6805D2F0C2F473
:10076000042CBD1205BE6C337EFBB0601B20E7126B
:10077000147AFBB0120661CA381203BDDA380B30A6
:1007800080E6047AFBB01B30120661CA381203BD42
:100790004CDD68071206751BD080E19EF800093019
:1007A000F0031206750203DF7CEA7CAF10F7037ECC
:1007B000D0067CFA1B6E693600020B6A200208071D
:1007C0002D2B204C4248232E0053584F444943556B
:1007D000502A4E4645470004208001020010408701
:1007E000D9DEE6E673EDD723483CC1820404040455
:1007F0000404040406060706064E614E002B494E0B
:1008000046002D494E46007D522D557CBE92E67C19
:10081000EB7CBA601F0470287CB5C2E77E0400FF41
:1008200060067E1407F9D3227E14080240047E1469
:1008300007FDD322DA099F22CA2BCA2BC3CA092279
:100840000A0A7E144D10AD109E083AF09E10267CC8
:10085000B5C2E77EA0567C9BA46E54FFFF2E54C504
:1008600011ACA92D15E4A539CAB8CA1B20E70A1294
:100870000932DA1B12022C800AF404120932DA1B44
:1008800012018CDAA87CB5337CB4334E50806C44B2
:1008900024822F111478FBDA497407BE400A4009FC
:1008A0009E400ACA0201140BA0CA486C442F117F53
:1008B000012F112F112F101478EFCA48CA49227F37
:1008C0000F20E73ABEB007400274070A0B2D109EB6
:1008D0001400097E19B02EB0FB501F4C116817E4AC
:1008E0007A19B01B147E19B0047A19B0B40A0BE45B
:1008F0007A19B0A5D9ED0BA074017A19B0225EE087
:10090000BF223F8000004120000042C80000447A1E
:100910000000461C400047C35000497424004B1897
:1009200096804CBEBC205A0E1BCA6753C21C749DD5
:10093000C5AE7C7B60065407681623231209577CDA
:10094000B75438680A7F1012095412018C7F0122B3
:100950007CB7543803241C6CAA2E5409027E440030
:10096000FF0B2A0069120002227D51AD037D027D3A
:1009700021AD052D12AD352D2122CAF87EF30008D8
:100980007CBF5480B480167EB3000B70307EB30001
:100990000A702A7E37000EBE3400026803020A7213
:1009A0007CBF540F14681B14683B0BB16803020A28
:1009B000727EB3000D70067EB3000C601E020A72D8
:1009C00080197EB30012B4040F7EB3000D600302E1
:1009D0000A727EB3000C6003020A727E3410327E0B
:1009E0002400FF807D7EB30012B404067EB3000DA8
:1009F0006002807E7E73000C7CA75EA00F1B706877
:100A0000362E707F68040B7078687E2400017CBAF3
:100A100060053E241478FB7E73001A6C665C754D8D
:100A200033680A7E3410347E2400FF80357E341013
:100A3000327E2400FF802B7E2400017CBA60053EBC
:100A4000241478FB7E73001B6C665C754D33680A5A
:100A50007E3410347E2400FF80087E3410327E24E1
:100A600000FF7A1F00167E3400027A3700148007D8
:100A7000800012181E80031217FFDAF8227EB300DE
:100A800012BEB00268207EB30008701A7EB3000B5D
:100A900070147EB3000D700E7EB3000C70087E37AC
:100AA000000E4D33680302181E7EB3000AB4015FC6
:100AB00074047AB30012E47AB3001A7AB3001B7498
:100AC0000E7E70011217EC74127E70201217EC74F7
:100AD000107E70081217EC740E7E70021217EC7400
:100AE000127E70201217EC74107E70081217EC74CE
:100AF0000E7E70011217EC74126C771217EC7413DF
:100B00007E70081217EC740E6C771217EC8010745C
:100B1000037AB3001274FF7AB3001A7AB3001B028F
:100B200018557EB30012B404247EB30008B4021D2D
:100B30007EB3000D6003020BBB7EB3000B707C7EA6
:100B4000B3000A70767E37000E4D336802806C7EEB
:100B500063000C7C765E700F1B60682F2E607F68D0
:100B6000040B6078567E2400017CB760053E241497
:100B700078FB7C656E60FF5E63001A7A63001A740E
:100B80000E1217EC74117E704080247E2400017CCC
:100B9000B760053E241478FB7C656E60FF5E6300E1
:100BA0001B7A63001B740E1217EC74147E70801293
:100BB00017EC740E6C771217EC800302181E0218E3
:100BC000557EB300085480BEB0806803020C4C7E92
:100BD000B3000B1BB168191468280BB1786E7E3412
:100BE0000FDD7E2400FF7A1F00167E340012805431
:100BF0007E340FEF7E2400FF7A1F00167E34004300
:100C000080427EB3000A1468191468280BB1783C3E
:100C10007E340FD97E2400FF7A1F00167E34000434
:100C200080227E3410367E2400FF7A1F00167E3428
:100C3000000880107E340FBB7E2400FF7A1F001650
:100C40007E34001E7A3700148005800002181E7E54
:100C500037000EBE37001450047A3700140217FF15
:100C6000CA3B7A3701187F306D337A37011B020C8B
:100C7000F174387AB3011A7E370118BE3400385047
:100C8000047A73011A12171E7E73011A0A572E5422
:100C90000003900004F074AF900005F07E17011B74
:100CA0007E3400067E2400011B1A107E73011A0A8E
:100CB00037CA397F137E1400087E0400011216A87B
:100CC0001BFD7E73011A0A372E3400080A371210F2
:100CD000BE7E73011A0A372D737E73011A0A272EFE
:100CE00037011B7A37011B7E3701189D327A370195
:100CF000187E3701184D336803020C71DA3B227EEF
:100D0000B30012B404247EB30008B4021D7EB30005
:100D10000D6003020D927EB3000B70767EB3000A65
:100D200070707E37000E4D33680280667E63000C63
:100D30007C765E700F1B60682C2E607F68040B60F1
:100D400078507E2400017CB760053E241478FB7C3B
:100D5000654E63001A7A63001A740E1217EC741150
:100D60007E701080217E2400017CB760053E241433
:100D700078FB7C654E63001B7A63001B740E1217B0
:100D8000EC74147E70201217EC740E6C771217EC52
:100D9000800302181E021855E41211927D23E412FA
:100DA00002F87E1433337E04405312018C6D117EA1
:100DB00004458012022C1214266D117E0442481242
:100DC000022C6D117E04447A12018C7F716D117EAC
:100DD0000441C01202AD500E7E34FDF47E243E94D8
:100DE0007F0712018C226D117E0442087F171202C8
:100DF000AD28177E34DF3B7E243F0F7F0712018C26
:100E00007E14EB857E04410180157E34CCCD7E249A
:100E10003ECC7F0712018C7E1466667E044026124B
:100E200000D122CAF8740E6C771217EC74111217E5
:100E3000D77CFB30E20F74117C7F5E70FB1217ECE5
:100E4000E47AB300137CBF30E40A74117C7F4E70E7
:100E5000801217EC7EB3001324FD68461468480B1B
:100E6000B278477CBF30E0427E080008742012143C
:100E7000E67E37000E1215207A37000E7EB300088A
:100E8000546024E0680D24E0680E2440780F1212AC
:100E90004E80171216EA8012121873800D12181E57
:100EA000800812112B80031212FEDAF822CA3B7A54
:100EB0003700DD7F307E3400C87A3700E2A9C7AF43
:100EC000740E7E70011217EC6D337A3700E07E27C6
:100ED00000DDBE24004008057E704080027C757AEB
:100EE0007300DF74111217D730E0107E3700E27DF7
:100EF000231B247A2700E24D3378E87F032E170066
:100F0000E07EB300DF7E70011217C27E7300DF0A3D
:100F1000277D322E3700E07A3700E07E3700DD9DF6
:100F2000327A3700DD7E7300DFBE704050A0D202FF
:100F3000A9D7AFDA3B2253B2FC43B10374807E34AD
:100F4000FE077E24007E7A1BB07E34FE077E2400DE
:100F50007E7E1BB030E0F275DC0075F490E46C77B7
:100F60001217EC74017E70081217EC74077E703F44
:100F70001217EC74097E703F1217EC740B7E700729
:100F80001217EC74016C771217EC74027AB300122A
:100F9000E47AB300137AB3001A7AB3001B7E3401EB
:100FA000007E2400C27A1F01117AB301157AB301C1
:100FB0001674087AB30117A9D7AF221E0353005441
:100FC00000430020005500530042002000530065FC
:100FD000007200690061006C000403090412010042
:100FE0000202000040BF3402FF00010102000109BB
:100FF00002430002010080320904000001020201E4
:10100000000524001001052401000104240202054A
:1010100024060001070582034000FF0904010002C5
:101020000A00000007058102400000070501024098
:101030000000000001000803530054004300CA7B75
:10104000CA6BCA5BCA4BCA3BCA2BCA1BCA0BC0D0ED
:10105000C083C0827EF1FC74061217D77CEB740249
:101060001217D77CCB74041217D77CDB7CBE30E11F
:10107000031218767CBE30E2031213DE7CBC30E033
:1010800003120E237CBC30E1031215887CBC30E2D5
:10109000031215E07CBD30E1031200037CBE30E09A
:1010A000031200CA7AF1FCD082D083D0D0DA0BDAF6
:1010B0001BDA2BDA3BDA4BDA5BDA6BDA7B32CA3BD0
:1010C0007D737E3400C87A37001DA9C7AF740E7EC9
:1010D00070011217EC6D66BE74004028057E7040EA
:1010E00080027C7F7A73001C74111217D730E010D5
:1010F0007E37001D7D231B247A27001D4D3378E8A1
:101100007D162E1400007E0400017EB3001C7E704C
:10111000011217C27E73001C0A272D629D72BE70D9
:101120004050B4D202A9D7AFDA3B22CAF8740E6C91
:10113000771217EC74111217D720E1537E37001481
:10114000BE34004028057EF04080027CF77E0F0010
:10115000167C7F742012160B0A2F7E3700149D32E6
:101160007A3700140A157E1F00162D317A1F0016DB
:101170007E3700144D33780F74117E700A1217EC0D
:10118000E47AB30013800874117E70021217ECDA4F
:10119000F8227CABBEA00F2802805175BD0075BE41
:1011A00000E5BC54F04CBAF5BCA9D6BC0000000068
:1011B0000000000000007E70FAA935BC2BA9C5BC58
:1011C000A935DE0AE5BD7C6B6C77E5BE8013E5BD15
:1011D0000A4B7D343E343E343E343E34E5BEC45486
:1011E0000F0A4B4D437D34221B7078CD7E341000A6
:1011F000227F7029A70001E5DE54F04CBAF5DE2904
:10120000B700027005A9C5DE8003A9D5DE7E7B206C
:10121000BE201F280374FF2229A70003BEA00128B7
:101220000374FF2229370004BE3003280374FF2211
:101230007CB3C42354E07C3B7CBA0354804C3B4CCD
:10124000327E34FEA87E24007E7A1B30E4227EB3F8
:101250000009BEB00D50507EA003A490125F73022F
:1012600012860212890212A702128C0212A702121F
:101270008F02129202129502129802129B02129E83
:101280000212A10212A402097A020B22020CFF022E
:10129000134B020BC10200C70212AA020A7D0214FC
:1012A000A802163402187002181E7EB30008B4801B
:1012B000227EB3000B701C7EB3000A70167EB30052
:1012C0000D70107EB3000C700A7E37000EBE340025
:1012D00001680302181E7EB30012B4040A7E3410A3
:1012E000347E2400FF80087E3410327E2400FF7A92
:1012F0001F00167E3400017A3700140217FF740EA7
:101300006C771217EC74111217D730E03D7E0F0086
:101310001674201214E60A1B7E2700149D217A27DA
:1013200000147E1F00162D317A1F00167E37001420
:101330004D33780E74117E70481217ECE47AB300C6
:10134000132274117E70400217EC22CAF87EB3009B
:101350000870237EB3000D701D7EB3000C70177EE5
:10136000B3000B70117EF3000ABEF08050087E3788
:10137000000E4D33680512181E8017E47C7F12178B
:10138000EC4CFF68047403800274027AB3001212FA
:101390001855DAF82275E900A9D7BA75EA001215CE
:1013A000B5121555D2AF7EB30012B404F9120D98E0
:1013B0007A1F00217A1F01017E0800257E34197FE3
:1013C0007E2400FF1203307E08002512183A7E08A2
:1013D0000025120EAD7E34006412173780CFE46C06
:1013E000771217EC74027AB30012E47AB300137424
:1013F0000E7E70011217EC74117E70481217EC7497
:101400000E7E70021217EC74117E70481217EC7485
:101410000E7E70011217EC74147E70901217EC742B
:101420000E6C770217EC7F719F116DDD7DCD3EC490
:101430003EC4491C008F490C008D591C008B590C6F
:101440000089491C008B490C00891200D40BD4BEC2
:10145000D4001348D77A7F00D57E0F00D51200D470
:101460006D117E0441A002022C7584017E44041F8C
:10147000E47A49B01B4478F97EF8011C7E0400FF31
:101480007E14187B0B0A405D44681A692000020B29
:101490000E0B44800A7E0BB07A29B00B240B0C1B78
:1014A0004478F280DF0213957EB30012B4041D7EEF
:1014B000B30008B481167EB3000B70107EB3000D2C
:1014C000700A7E37000EBE340001680302181E7ECB
:1014D0003410327E2400FF7A1F00167E3400017A19
:1014E0003700140217FFCA3B7F30CAB80BFD7416D1
:1014F0001217D77AFBB039BFFFFF800C29BFFFFE60
:101500001217D77A3BB00B747EFBA07CBA147AFB1F
:10151000B04CAA78E729BFFFFF9EF80003DA3B2210
:101520007A3700D97E3400DA7E2400007E1B307EBC
:101530003400DB7E2400007A1B307E3400D97E2408
:1015400000007E1B307E3400DC7E2400007A1B30DD
:101550007E3700DB224391015392FE5391FD43926B
:1015600002741F7AB300DD740F7AB300DEE47AB33D
:1015700000DF7AB300E074017AB300E17E0800DD99
:101580001211F1740102182CCAF8740E7E70011247
:1015900017EC74111217D77CFB30E50874117E70BC
:1015A000401217EC7CBF30E20774116C771217EC15
:1015B000C202DAF82212186274807E34FE077E249A
:1015C000007E7A1BB07E34FE077E24007E7E1BB038
:1015D00030E0F275DC0075F490120F36A9D7AF2217
:1015E000CAF8740E7E70021217EC74111217D77CB1
:1015F000FB30E50874117E70401217EC7CBF30E2BE
:101600000774116C771217ECDAF822CA3BCA787F9C
:1016100030CAB8800B7EFBB07E3B700B741217ECA7
:1016200029AFFFFF7CBA1439BFFFFF4CAA78E61B35
:10163000FDDA3B227EB30012B4041B7EB30008B473
:1016400001147EB3000B700E7EB3000D70087E3760
:10165000000E4D33680302181E0218557EB30012A7
:10166000B404097EB30008BEB0A1680302181E7E50
:101670001801117A1F00167E37000E7A3700140207
:1016800017FF7EB30012B404097EB30008BEB02178
:10169000680302181E7E1801117A1F00167E37009B
:1016A0000E7A3700140218107F217F707F10800A95
:1016B0007E2B307A1B300B540B34691FFFFD7D01EC
:1016C0001B04790FFFFD4D1178E67F172280120071
:1016D000000000000000000000000000000000000A
:1016E000007D231B344D2278E6227EB3000924DFDF
:1016F000680A14680A0BB1780902168202165C02A5
:1017000017AC02181E744F900000F0744C9000014A
:10171000F07445900002F07480900003F022744C45
:10172000900000F07443900001F07444900002F0C7
:101730007480900003F022CA797D7380077E3403A1
:10174000E81217957D371B744D3378F1DA7922CA88
:10175000797D7380077E3403E81216CD7D371B74C4
:101760004D3378F1DA79227C7B1B71680B1B706832
:101770000A0B717808C2A322C2A222C2A1227C7BDA
:101780001B71680B1B70680A0B717808D2A322D2F8
:10179000A222D2A1227D237E3400037D131B147D5F
:1017A0003178F87D121B147D2178EC227EB3001273
:1017B000B404097EB30008BEB021680302181E02FB
:1017C00018557CA77C7B0A5A2E54002012160B74E5
:1017D000117E70010217EC7CABE5FC20E7FB7CBAC4
:1017E0004480F5FCE5FC20E7FBE5EC227CA77C7B54
:1017F000E5FC20E7FB7CB7547FF5FC7AA1EC227472
:10180000037AB3001374117E70401217EC02112B8F
:1018100074047AB3001374117E70400217EC7405DF
:101820007AB3001374117E70600217EC7C7BA5BF45
:101830000104A9D7BC22A9C7BC226D3380020B3496
:101840007E0BB00B1470F7225395F143960E53B1F3
:10185000BF43B24022E47AB3001374117E70480291
:1018600017EC43B10353B2FC22D2A3D2A2D2A122DD
:1018700002181E02181E2228302900000400210030
:1018800000000000640025000000000000000000CF
:101890000000000000000000000000000000000048
:1018A0000000000000000000000000000000000038
:1018B0000000000000000000000000000000000028
:1018C0000000000000000000000000000000000018
:1018D0000000000000000000000000000000000008
:1018E00000000000000000000000000004010500EE
:1018F000FF197600040109000000000004010D003A
:101900000000000001001F000050008900000000DE
:1019100000000000000000000000000000000000C7
:1019200000000000000000000000000000000000B7
:1019300000000000000000000000000000000000A7
:101940000000000000000000000000000000000097
:101950000000000000000000000000000001001175
:1019600000000035304EC1A6B4ABB8D0C6F7284E43
:10197000293A25640A0040535443495350230044F4
:081980004F3A252E32660A00E1
:00000001FF
