:1000000002138CCA79740E7E70011216E3741412F6
:1000100016BA7CFB30E60874147E70801216E37CFE
:10002000BF20E0030200C47E1400407E040001747F
:10003000211214817AB300107E1F00784D237803BB
:100040000200C26CFF80737EB300111A3B7E0F006A
:10005000782D317D207E1BA00A4F2E4400407A91DE
:10006000827A81837EEBE0BCEA7839047AB30011AE
:100070007E7300111A372D317D207E1BB0703974CC
:10008000146C771216E375F40075DC00E47E34FE20
:10009000077E24007E7A1BB07E34000A121660753B
:1000A000C76080FE7E1F00787E1B70BCE7780474FA
:1000B000018001E47AB300110BF07E730010BC7F65
:1000C0003885D200DA792202171522020FBA5D2292
:1000D000680D5D0078122D220B4068099F11222DBA
:1000E000000B0078F90203171202DA5C800B8068BB
:1000F00008248150072CB0500A02031F2CB0400383
:1001000002031C7C8B5D1178267CB17CA5BE10801F
:10011000680A5D33780DA5BD80057F100203096D67
:100120000080307F017C5B7CB17CA5AD1280245DBA
:10013000337806A5BD80F080E1CA887D41AD437C5F
:10014000B17CA5AD122D1450020B047C5BAD232FA6
:1001500001DA88A42D05BE008040060B807804805B
:10016000982F007C437C507C617C720202F3BE2499
:10017000FFFF6806BE04FFFF78030203171202DACE
:100180005CB00468F57CB8A54868EF7CB870039F44
:100190001122A5B8000302031F2E008150079C8086
:1001A000380702031C9C8050ED0A51C2E74D51787C
:1001B000030203097E5400807E901A6C0080061BA7
:1001C0009068142F11BF1040049F104CAB0330E710
:1001D000EECAA86CAA80E8DA39DA587C4ABE5080A8
:1001E000500A1B8068BC2F1150020B700202F3747E
:1001F000F86CAA6E40806E0080BEB0FF68277C83DA
:100200007C975C3B5C7BBF10682AF4400D7C382DEA
:1002100015F45C3B500F0B04800B7C792D35F45C9E
:100220007B50020B24BF10680B7CB020E7067CB427
:1002300020E701B3227EA020800C7EA01080057EE6
:10024000A0086C556D333392D5500A6E34FFFF6EA3
:1002500024FFFF0B1CA5EC3340062F11D5F0F6222E
:100260007CBA247EA2D5137C767C65A5CC92E77CF3
:100270005B227F507EC400007ED4004D7E940283BA
:100280000203584001227CEACA89CA5BCA6B121673
:10029000CFDA6BDA5BDA897E9402837CAE227F70E0
:1002A0007F517EC400007ED400007E9402B1020320
:1002B000584005E47A7BB0227A7BB00B7C227F70B9
:1002C0007F517E6F00007E9402CD0203584005E40A
:1002D0007A7BB0227A7BB00B7C222D0092D50E1057
:1002E0004E10807D422D445002B2D54E50806C4459
:1002F0007CB8222C4450120B1C7E40005E507FBE06
:1003000018000078040B806816A2D57CB8137C4BCB
:100310007CB592E77C5B227E1CFFFF229F11227E30
:1003200024FF8020D5026C456D3322540F2490D4D5
:100330003440D430F30CBEB0414007BEB05B500235
:1003400024204CCC68021BC00B84D389944CCC680D
:100350000B742012034280F5CA3B6D889F337CAE3C
:100360007E5BB00B5C7007C37D38DA3B8994B425A3
:1003700069C2F37E5BB00B5CA5F824D0BEB00A5016
:100380001B7E500A20F60DAC5CA52D7CCB70034E75
:10039000F00180DDAC5DA52D7CDB80D524CFBEB027
:1003A0001AA5E850055E00DFD2F390072DA3E49371
:1003B0006011BCB078F77417934CAB30F6B34EF0C5
:1003C0008080AEA3E4936010BCB078F77416937C81
:1003D0003B7423937C2B89147CB08013742012030C
:1003E0004220F205BEC00250F31B6D29B600011277
:1003F000034202034D1B6E691600020B6A00BE0821
:10040000000078087E0400FF7E14174C20F21E4C7A
:10041000CC681A7F10E47E1B804C8868070B1C0494
:10042000BCBD78F2C2F6CA0B12052CDA0B7E0BB0FB
:1004300060C0CA0B120342DA0B0B0C4CDD68EE1BDA
:10044000D078EA80ADD2F07E101080037E10085E76
:10045000B05F800AD2F67E100A80057E100AC2F6CE
:100460006D119F117E00201B6C7E6B7030F6021A9E
:100470003720F1051B6C7E6B6030F6041A261A24B7
:1004800030F0051B6D0B6A20A5EC3382F692F65016
:100490000A7CEA9F229F217F127CAE4C44780F7C1D
:1004A000457C567C676C772E00F878EF80122F1110
:1004B0007CB3337C3B9CB140047C3B0B70A5D8EEF5
:1004C0007CB230E005DAB8C44C3BCA380B207E0061
:1004D000207E3000BE18000078C1BE1008780730BA
:1004E000F404C2F480B5CA287CB2BCBD38027CBD1D
:1004F00012052CDA28BC2D500A1BD0E4CA2812039E
:100500002B80F07CB213DAB84004C4CAB8C4CA283D
:10051000BEF08040095CDD7805A5DA0260065EF079
:100520007F12032BDA28A5DADA02034DBEF0016848
:100530000F30F402240220F50620F70330F6010400
:1005400020F229BCBC5025CAB87CBF13B0E6742089
:10055000501174307C8A5E80F0680812056C5EA0D1
:100560000F8003120342DAB8BCBC78DB30F40F749E
:1005700030120342745830F302747812034230F69A
:1005800005742D020342742B20F5F8742020F7F334
:10059000221B6C7E6BB010F1021B6C20F60B30E757
:1005A00004F404D2F27CCB800520E7057CDB020357
:1005B000715EF07F80F81B6E691600020B6A0030D6
:1005C000F0076D221B0A200B0D1B0A8002035CE45E
:1005D0006C22BE3007500B7F1F2D312E34FFF77E6B
:1005E00039B0227CBF20E7A8742E4EF0800203426F
:1005F000120716403D7CBD7003047CDB12082D7C85
:100600003D4C3368101B307CBE20E4091205CF70CE
:10061000044C3378F07CBD7CD3BEA0FD481CBCAB41
:100620005818E49CBA2CB31801E47CDB0206B7121C
:100630000716406E7CBD0412082D7AFBA07CAE7CB0
:10064000BDA2F492F0C2F440026001042405120538
:100650002C7E30FF0B301205CFCA3812032B20F04E
:10066000044CDD68031205E3DA38BC3D78E6740E0D
:1006700012032B742B7EFBA030F707742D6EA0FFA6
:100680000BA07AFBA01203427EA00A7EFBB0847A04
:10069000FBA012032B7EFBB012032B9EF800080276
:1006A000034DD2F27ED00002040C12071640F37CF8
:1006B000BA2CBD0412082D7AFBA07CBA7CAE30E7C0
:1006C00001E40420F4044CDD6805D2F0C2F4042CEB
:1006D000BD12052C6C337EFBB0601B20E712147A30
:1006E000FBB01205CFCA3812032BDA380B3080E684
:1006F000047AFBB01B301205CFCA3812032B4CDD35
:1007000068071205E31BD080E19EF8000930F00372
:100710001205E302034D7CEA7CAF10F7037ED0069E
:100720007CFA1B6E693600020B6A200207752D2BBE
:10073000204C4248232E0053584F44494355502AD9
:100740004E464547000420800102001040F5474C0A
:100750005454E15B4591B6AA2FF00304040404034A
:10076000040405050606054E614E002B494E460061
:100770002D494E46007D522D557CBE92E67CEB7C89
:10078000BA601F0470287CB5C2E77E0400FF6006D3
:100790007E140767D3227E14077040047E14076B13
:1007A000D322DA099F22CA2BCA2BC3CA09220A0AFA
:1007B0007E144D10AD109E083AF09E10267CB5C2F6
:1007C000E77EA0567C9BA46E54FFFF2E54C511AC4F
:1007D000A92D15E4A539CAB8CA1B20E70A1208A03A
:1007E000DA1B12016E800AF4041208A0DA1B120050
:1007F000CEDAA87CB5337CB4334E50806C4424826E
:100800002F111478FBDA497407BE400A40099E4054
:100810000ACA0201140BA0CA486C442F117F012F91
:10082000112F112F101478EFCA48CA49227F0F20C8
:10083000E73ABEB007400274070A0B2D109E140061
:10084000097E19B02EB0FB501F4C116817E47A19BD
:10085000B01B147E19B0047A19B0B40A0BE47A19EB
:10086000B0A5D9ED0BA074017A19B0225EE0BF22C9
:100870003F8000004120000042C80000447A000090
:10088000461C400047C35000497424004B18968012
:100890004CBEBC205A0E1BCA6753C21C749DC5AE09
:1008A0007C7B60065407681623231208C57CB75466
:1008B00038680A7F101208C21200CE7F01227CB76E
:1008C000543803241C6CAA2E5408707E4400FF0B7D
:1008D0002A006912000222C2D57CB430E708B2D5E2
:1008E0006E24FFFF0B247CB630E712B2D56E34FFC6
:1008F000FF0B348D326E24FFFF0B2480028D3230CB
:10090000D5066E34FFFF0B34227D51AD037D027D91
:1009100021AD052D12AD352D21226D0074104D0035
:10092000780B4D2278278D317D126D22227D437DFB
:10093000326D222F112D445002A50FBF1040049F8D
:10094000100B901478ED7F016D227D34227D417D66
:10095000138D247D022F004004BD0440049D040B30
:10096000141478F17D237D317D106D0022CAF87E4C
:10097000F300087CBF5480B480167EB3000B703047
:100980007EB3000A702A7E37000EBE340002680370
:10099000020A657CBF540F14681B14683B0BB168D6
:1009A00003020A657EB3000D70067EB3000C601E64
:1009B000020A6580197EB30012B4040F7EB3000DE5
:1009C0006003020A657EB3000C6003020A657E3490
:1009D0000FAE7E2400FF807D7EB30012B404067E3D
:1009E000B3000D6002807E7E73000C7CA75EA00FBA
:1009F0001B7068362E707F68040B7078687E240048
:100A0000017CBA60053E241478FB7E73001A6C6684
:100A10005C754D33680A7E340FB07E2400FF80354C
:100A20007E340FAE7E2400FF802B7E2400017CBA32
:100A300060053E241478FB7E73001B6C665C754D6C
:100A400033680A7E340FB07E2400FF80087E340FA6
:100A5000AE7E2400FF7A1F00167E3400027A370033
:100A6000148007800012171580031216F6DAF82298
:100A70007DD37F70BE7800006813691700020B7A7F
:100A800000BE080000680629B7000470036D332219
:100A900029B700057E7002ACB77F102D350B1A50B8
:100AA0006D447F072E140007693000020B0A209F57
:100AB00012793000021B0A2029B700057E7002ACB3
:100AC000B7693700020B7A202D351B1AD07D5D7F68
:100AD000072E140007693000020B0A202F1279300C
:100AE00000021B0A20297700050A370B342957001A
:100AF000040A251208D73957000529A7000429B789
:100B00000006BCBA500A7F172E340006047A1BB0C8
:100B1000297700060A176D00693700096927000761
:100B200002091C7EB30012BEB00268207EB300082A
:100B3000701A7EB3000B70147EB3000D700E7EB37E
:100B4000000C70087E37000E4D3368030217157EC7
:100B5000B3000AB4015F74047AB30012E47AB300FC
:100B60001A7AB3001B740E7E70011216E374127EA3
:100B700070201216E374107E70081216E3740E7E55
:100B800070021216E374127E70201216E374107E47
:100B900070081216E3740E7E70011216E374126C64
:100BA000771216E374137E70081216E3740E6C77D6
:100BB0001216E3801074037AB3001274FF7AB30044
:100BC0001A7AB3001B0217317EB30012B404247EDC
:100BD000B30008B4021D7EB3000D6003020C617EF9
:100BE000B3000B707C7EB3000A70767E37000E4D2A
:100BF000336802806C7E63000C7C765E700F1B6035
:100C0000682F2E607F68040B6078567E2400017C7C
:100C1000B760053E241478FB7C656E60FF5E630060
:100C20001A7A63001A740E1216E374117E704080F3
:100C3000247E2400017CB760053E241478FB7C658B
:100C40006E60FF5E63001B7A63001B740E1216E376
:100C500074147E70801216E3740E6C771216E380A3
:100C6000030217150217317EB300085480BEB0800E
:100C70006803020CF27EB3000B1BB16819146828DC
:100C80000BB1786E7E340F597E2400FF7A1F001658
:100C90007E34001280547E340F6B7E2400FF7A1F56
:100CA00000167E34004380427EB3000A1468191493
:100CB00068280BB1783C7E340F557E2400FF7A1FE4
:100CC00000167E34000480227E340FB27E2400FFA2
:100CD0007A1F00167E34000880107E340F377E2481
:100CE00000FF7A1F00167E34001E7A37001480053C
:100CF00080000217157E37000EBE37001450047AAC
:100D00003700140216F67EB30012B404247EB3003A
:100D100008B4021D7EB3000D6003020D997EB3007E
:100D20000B70767EB3000A70707E37000E4D33680C
:100D30000280667E63000C7C765E700F1B60682C00
:100D40002E607F68040B6078507E2400017CB760C1
:100D5000053E241478FB7C654E63001A7A63001A02
:100D6000740E1216E374117E701080217E2400012F
:100D70007CB760053E241478FB7C654E63001B7ACB
:100D800063001B740E1216E374147E70201216E3B7
:100D9000740E6C771216E38003021715021731CA1E
:100DA000F8740E6C771216E374111216BA7CFB30CD
:100DB000E20F74117C7F5E70FB1216E3E47AB300DD
:100DC000137CBF30E40A74117C7F4E70801216E3EE
:100DD0007EB3001324FD68461468480BB278477C44
:100DE000BF30E0427E08000874201214817E370074
:100DF0000E1214BB7A37000E7EB30008546024E054
:100E0000680D24E0680E2440780F12115D801712DF
:100E1000162D8012121748800D1217158008121017
:100E20003A80031212ADDAF822CA3B7A37004E7FBD
:100E3000307E3400C87A370053A9C7AF740E7E7075
:100E4000011216E36D337A3700517E27004EBE241F
:100E5000004008057E704080027C757A73005074F3
:100E6000111216BA30E0107E3700537D231B247A0E
:100E70002700534D3378E87F032E1700517EB300CF
:100E8000507E70011216A57E7300500A277D322E07
:100E90003700517A3700517E37004E9D327A370045
:100EA0004E7E730050BE704050A0D202A9D7AFDA78
:100EB0003B2253B2FC43B10374807E34FE077E2490
:100EC000007E7A1BB07E34FE077E24007E7E1BB03F
:100ED00030E0F275DC0075F490E46C771216E37480
:100EE000017E70081216E374077E703F1216E374D9
:100EF000097E703F1216E3740B7E70071216E374BE
:100F0000016C771216E374027AB30012E47AB3002C
:100F1000137AB3001A7AB3001B7E3401007E2400DA
:100F2000C27A1F00847AB300887AB3008974087A81
:100F3000B3008AA9D7AF221E0353005400430020F8
:100F40000055005300420020005300650072006904
:100F50000061006C00040309041201000202000099
:100F600040BF3402FF0001010200010902430002F8
:100F70000100803209040000010202010005240082
:100F800010010524010001042402020524060001C9
:100F9000070582034000FF09040100020A00000067
:100FA0000705810240000007050102400000000023
:100FB00001000803530054004300CA7BCA6BCA5B9C
:100FC000CA4BCA3BCA2BCA1BCA0BC0D0C083C08243
:100FD0007EF1FC74061216BA7CEB74021216BA7C0F
:100FE000CB74041216BA7CDB7CBE30E10312174BC3
:100FF0007CBE30E2031213447CBC30E003120D9F30
:101000007CBC30E1031214F07CBC30E203121548C2
:101010007CBD30E1031200037CBE30E0031200CA45
:101020007AF1FCD082D083D0D0DA0BDA1BDA2BDA5B
:101030003BDA4BDA5BDA6BDA7B32CAF8740E6C7728
:101040001216E374111216BA20E1537E370014BE53
:1010500034004028057EF04080027CF77E0F0016A9
:101060007C7F74201215730A2F7E3700149D327A0C
:101070003700140A157E1F00162D317A1F00167EC8
:101080003700144D33780F74117E700A1216E3E4A2
:101090007AB30013800874117E70021216E3DAF836
:1010A000227CABBEA00F2802805175BD0075BE002A
:1010B000E5BC54F04CBAF5BCA9D6BC000000000059
:1010C00000000000007E70FAA935BC2BA9C5BCA9A0
:1010D00035DE0AE5BD7C6B6C77E5BE8013E5BD0AA5
:1010E0004B7D343E343E343E343E34E5BEC4540F72
:1010F0000A4B4D437D34221B7078CD7E3410002284
:101100007F7029A70001E5DE54F04CBAF5DE29B75F
:1011100000027005A9C5DE8003A9D5DE7E7B20BE56
:10112000201F280374FF2229A70003BEA001280363
:1011300074FF2229370004BE3003280374FF227C89
:10114000B3C42354E07C3B7CBA0354804C3B4C3208
:101150007E34FEA87E24007E7A1B30E4227EB3001B
:1011600009BEB00D50507EA003A490116E73021101
:10117000950211980211B602119B0211B602119E3E
:101180000211A10211A40211A70211AA0211AD02BB
:1011900011B00211B302096D020BC8020D06021252
:1011A000FA020C670200C70211B9020B23021409EC
:1011B00002159C0217450217157EB30008B4802261
:1011C0007EB3000B701C7EB3000A70167EB3000D58
:1011D00070107EB3000C700A7E37000EBE34000122
:1011E00068030217157EB30012B4040A7E340FB0F0
:1011F0007E2400FF80087E340FAE7E2400FF7A1F1D
:1012000000167E3400017A3700140216F6E412103C
:10121000A17E08006D120A707D239E24000FE41247
:10122000023A7E14C0007E04440912016E7E14331B
:10123000337E0441A71200CE7F719F001201EF2878
:101240000280029F776D117E0442C87F171201EF62
:1012500050047F1780066DFF7EE442C87F1722CAC4
:10126000F87CFB7F717F60BE680000683DBE78003F
:101270000068374CFF683379F600021B6AE039F6E4
:101280000004E439B600059F11793600097926007B
:101290000739B60006800F6D447402ACB77F072D86
:1012A000151B0A400B70BCF738EDDAF822740E6C8F
:1012B000771216E374111216BA30E03D7E0F001655
:1012C00074201214810A1B7E2700149D217A2700A6
:1012D000147E1F00162D317A1F00167E3700144D24
:1012E00033780E74117E70481216E3E47AB300135B
:1012F0002274117E70400216E322CAF87EB3000801
:1013000070237EB3000D701D7EB3000C70177EB38A
:10131000000B70117EF3000ABEF08050087E37008B
:101320000E4D3368051217158017E47C7F1216E303
:101330004CFF68047403800274027AB3001212171F
:1013400031DAF822E46C771216E374027AB30012F1
:10135000E47AB30013740E7E70011216E374117EEA
:1013600070481216E3740E7E70021216E374117E3A
:1013700070481216E3740E7E70011216E374147E28
:1013800070901216E3740E6C770216E37584017E7A
:1013900044041FE47A49B01B4478F97EF8008B7E40
:1013A0000400FF7E1417500B0A405D44681A692040
:1013B00000020B0E0B44800A7E0BB07A29B00B247E
:1013C0000B0C1B4478F280DF0213CB75E900A9D720
:1013D000BA75EA0012151D121447D2AF7EB300127F
:1013E000B404F97E14179A7E0400FF1202721212DE
:1013F0000D7E1417907E0400FF7A1F0049120272BE
:101400007E34006412164880E57EB30012B4041DD9
:101410007EB30008B481167EB3000B70107EB3005B
:101420000D700A7E37000EBE3400016803021715E6
:101430007E340FAE7E2400FF7A1F00167E3400013A
:101440007A3700140216F64391015392FE741F7A04
:10145000B30025740F7AB30026E47AB300277AB379
:10146000002874017AB300297E0800251211007447
:10147000011217237E08006D7E180055740C0212AD
:101480005FCA3B7F30CAB80BFD74161216BA7AFBDE
:10149000B039BFFFFF800C29BFFFFE1216BA7A3B9E
:1014A000B00B747EFBA07CBA147AFBB04CAA78E730
:1014B00029BFFFFF9EF80003DA3B227A3700217E26
:1014C0003400227E2400007E1B307E3400237E24E4
:1014D00000007A1B307E3400217E2400007E1B3009
:1014E0007E3400247E2400007A1B307E37002322C5
:1014F000CAF8740E7E70011216E374111216BA7CCB
:10150000FB30E50874117E70401216E37CBF30E2B8
:101510000774116C771216E3C202DAF82212173E32
:1015200074807E34FE077E24007E7A1BB07E34FEFB
:10153000077E24007E7E1BB030E0F275DC0075F47F
:1015400090120EB2A9D7AF22CAF8740E7E700212A2
:1015500016E374111216BA7CFB30E50874117E7024
:10156000401216E37CBF30E20774116C771216E369
:10157000DAF822CA3BCA787F30CAB8800B7EFBB04B
:101580007E3B700B741216E329AFFFFF7CBA14394F
:10159000BFFFFF4CAA78E61BFDDA3B227EB30012A8
:1015A000B4041B7EB30008B401147EB3000B700EAC
:1015B0007EB3000D70087E37000E4D3368030217AE
:1015C000150217317EB30012B404097EB30008BEC1
:1015D000B0A168030217157E1800847A1F00167EDA
:1015E00037000E7A3700140216F67EB30012B404E8
:1015F000097EB30008BEB02168030217157E1800EB
:10160000847A1F00167E37000E7A370014021707FF
:101610008012000000000000000000000000000038
:10162000000000007D231B344D2278E6227EB300AB
:101630000924DF680A14680A0BB178090215EA0266
:1016400015C402168F021715CA797D7380077E3480
:1016500003E81216787D371B744D3378F1DA79225E
:10166000CA797D7380077E3403E81216107D371B1C
:10167000744D3378F1DA79227D237E3400037D13B3
:101680001B147D3178F87D121B147D2178EC227EAD
:10169000B30012B404097EB30008BEB0216803028F
:1016A00017150217317CA77C7B0A5A2E5400201292
:1016B000157374117E70010216E37CABE5FC20E724
:1016C000FB7CBA4480F5FCE5FC20E7FBE5EC227AE4
:1016D000B3004D7E08004D7E340001120E297EB30A
:1016E000004D227CA77C7BE5FC20E7FB7CB7547F88
:1016F000F5FC7AA1EC2274037AB3001374117E70A6
:10170000401216E302103A74047AB3001374117E87
:1017100070400216E374057AB3001374117E706092
:101720000216E37C7BA5BF0104A9D7BC22A9C7BCD4
:1017300022E47AB3001374117E70480216E343B1B9
:101740000353B2FC22021715021715222830290074
:101750000004007800FF17870004007C00000000F0
:1017600000040080000000000001008B0000010068
:101770001100000035304EC1A6B4ABB8D0C6F72872
:101780004E293A25640A00405354434953502300DC
:1017900030323A20256725250A00555342204F4B09
:0317A000210A001B
:00000001FF
